:020000040800F2
:1000000018040020A1140008D1130008D31300081D
:1000100000000000000000000000000000000000E0
:10002000000000000000000000000000D5130008E0
:100030000000000000000000D7130008D9130008DA
:100040001304000867050008A30D0008031000084A
:1000500007100008BB150008C7150008FD150008AB
:10006000FF15000801160008FB13000845140008DE
:1000700003160008051600080716000809160008F0
:100080000B1600080D160008000000000F160008EF
:100090001116000813160008151600081716000898
:1000A000191600081B1600081D1600081F16000868
:1000B00021160008000000002316000800000000C0
:1000C00038B504001D0000206B46188065200870BC
:1000D00001201070049869460988605468460088B9
:1000E000401C694608800598098860546846008865
:1000F000401C694608806A462100069800F066F9AF
:10010000079869460988605468460088401C69461B
:1001100008806A462100089880B200F042F96A46D9
:100120002100099880B200F03CF96A4621000A9843
:1001300080B200F036F96A4621000B9880B200F0D8
:1001400030F968460088288031BD10B565240C70F0
:1001500002211170029901700120188010BDF2B5C2
:1001600084B00400042069468881257906208881AE
:1001700003A9200000F03DF968468089401C6946CB
:10018000888103A9200000F017F903A9200000F0DE
:1001900013F903A9200000F00FF903A9200000F0D3
:1001A0000BF9642D00DB643D744F754EEDB2009584
:1001B00033003A0073497448FFF7C7FF01200290EB
:1001C000049801902078009033883A786D4801783F
:1001D0006D4800F06AF905B0F0BD38B504000420A0
:1001E00069460880207905216A461180674D0028FC
:1001F0003CD16946200000F0DFF829680880694694
:10020000200000F0D9F8296848806946200000F0F5
:10021000D3F8296888806946200000F0CDF8296865
:10022000C8806946200000F0C7F82968088169463F
:10023000200000F0C1F8296848816946200000F0DC
:10024000D8F868606946200000F0D3F8A8606946D5
:10025000200000F0B1F800B2296808626946200069
:1002600000F0AAF800B22968486381E001285FD154
:100270006079E9686C228854062069460880A07974
:10028000E9686D228854072069460880E079E968AA
:100290006E228854082069460880207AE9686F2217
:1002A0008854092069460880607AE9687022885479
:1002B0000A2069460880A07AE968712288540B20D8
:1002C00069460880E07AE968722288540C20694601
:1002D0000880207BE968732288540D2069460880D5
:1002E000607BE968742288540E206946088028489B
:1002F000A17BC1710F216A461180E17B017210213F
:100300001180217C417211211180617C8172122146
:100310001180A17CC17213211180E17C0173142131
:100320001180217D417315211180617D81731FE052
:1003300002281DD16946200000F03EF82885694654
:10034000200000F039F868856946200000F034F894
:10035000A8856946200000F02FF8E885694620004E
:1003600000F02AF828866946200000F025F8688603
:1003700068682968496A086031BD000035150020A9
:100380003015002034150020C0140020FC1300207C
:10039000E414002080B58020800000F001F801BD49
:1003A000704710B5030A14880B551388C918487094
:1003B0001088801C108010BD0A88801803781B02EA
:1003C00040781818921C0A8080B2704710B5030E4E
:1003D00014880B55030C14880C196370030A1488D5
:1003E0000C19A3701388C918C8701088001D1080DC
:1003F00010BD10B50A88801803781B0644782404C1
:100400001B19847824021B19C0781818121D0A8041
:1004100010BDFEE780B500203D493E4A0C23434312
:10042000D218116051609160401C7F28F5DB00F00C
:1004300077F801BD7047F1B50F001600212B01D3ED
:10044000202500E01D0000F07DF8079C0423220019
:10045000069900F07DF80120A0707900012E09D1E5
:100460000843E0702A000099201D00F07DF82D1D42
:10047000A8B2F2BD022E01D1E170F3E78002FFF7CE
:100480008FFF0020F2BD10B58CB002AC01940E9C21
:100490000094FFF7D0FFC2B2119902A800F092F8C1
:1004A0003020109908800CB010BDF0B585B00D005B
:1004B000140000216A461182174E0B9F039604A96F
:1004C000029101970A99009122002900FFF7DBFFB2
:1004D00012483978D422520051434718D43768461D
:1004E000028A3100F81D00F03FF86900012C02D1AA
:1004F00001200843010079710C98002803D13800CD
:1005000000F01EF802E0380000F01BF805B0F0BD66
:1005100035040008080E0020601400201804002094
:1005200003480449016004494160044981607047FF
:10053000C41200205F01000895030008DB010008D9
:100540007047704701480078704700001000002095
:1005500070B504000D0016001900300000F0B0F86E
:100560003470757070BDFEE7124207D08B0706D05D
:100570000B78491C0370401C521EF7D87047830744
:1005800006D00B78491C0370401C521EF9D17047ED
:1005900070B4103A03D378C9103A78C0FBD253072D
:1005A00001D318C918C001D508C908C0D20704D39F
:1005B0000B880380891C801C002A01D50B780370EE
:1005C00070BC7047F7B582B0002400270025AA222E
:1005D0003021039800F04CF802206946097C009114
:1005E00002E03270401C7F1C00998F4211D20299A8
:1005F000C9190A78039E3618ED2A03D0EE2A01D0D5
:10060000E92AEED16D1CE922327009787170401C24
:10061000E8E74819154E6946097C7170F570B070AD
:10062000B179491CB171302806D33021039800F00C
:1006300047F87471002017E0002705E00399C919F5
:1006400089786418E4B27F1C8742F7D33471ED21B6
:10065000039A1170039A5070039909188C70EE2256
:10066000CA70C01C7071C0B205B0F0BD201500206A
:100670001206130A1A43130C1A4300BF094205D08D
:10068000830705D00270401C491EF9D17047000055
:10069000130030B414001500103902D310393CC0D7
:1006A000FCD2490700D30CC000D504C0890002D396
:1006B0000280801C002900D5027030BC7047000009
:1006C0000022DBE780B50121934800F0FDF901210C
:1006D000012000F003FA0121904800F0FFF901BD6C
:1006E00080B50121480200F029FA0121880200F0BA
:1006F00025FA01BDF0B583B0002205219020C00588
:1007000000F061FA002207219020C00500F05BFA9A
:10071000002206219020C00500F055FA6C46022008
:1007200020710027A771E07103266671E020009018
:1007300069469020C00500F00DFA01252571A771CA
:10074000E57166711020009069469020C00500F0A8
:1007500001FA01220921C80600F035FA01220A2116
:100760009020C00500F02FFA02202071A771E571DA
:1007700066717002009069469020C00500F0EAF9A9
:10078000F7BD10B586B0664C200000F02DFA0020B1
:1007900069460880822252004A80E022D2008A8084
:1007A000C8800881620D4A8120228A81C881072081
:1007B0000882200000F033FAA10C200000F05DFA5E
:1007C00001220121200000F069FA0122022120000B
:1007D00000F064FA0121200000F045FA06B010BDD7
:1007E00010B586B0E12080020090002001900290B8
:1007F000039005900C2004904A4C6946200000F0BC
:100800005BFA01228021200000F0C4FA012240217D
:10081000200000F0BFFA0121200000F09BFA06B092
:1008200010BDF0B58BB0404800F0BCFA3F480090D6
:100830003F480190002402943020039004948027C4
:1008400005970694079420260896350209950A9480
:100850006946354800F0F5FA01220221324800F0DD
:1008600015FB0121304800F007FB324800F09AFAEE
:100870002E480090304801901020029030200390C4
:100880000494059706940794089609950A94694676
:10089000284800F0D6FA01220221264800F0F6FA94
:1008A000264800F07FFA26480090264801900294DE
:1008B00002200390049405970694079408960995DE
:1008C0000A9469461D4800F0BCFA012202211B4827
:1008D00000F0DCFA0121194800F0CEFA1A4800F0C5
:1008E00061FA1A4800901A480190102002901920CD
:1008F00003900494059706940794089609950A9422
:100900006946114800F09DFA012202210E4800F0CC
:10091000BDFA0BB0F0BD0000010002000150000064
:1009200000300140003801401C0002400C30014002
:100930009014002030000240301400205800024083
:10094000243801403215002044000240283801407C
:100950000415002038B56C460A202070012565700A
:10096000A570684600F0CCFA0B2020706570A57069
:10097000684600F0C5FA31BDF0B504000020514DC5
:100980002968654E0C220A40082A02D00C2A17D08A
:1009900018E0286829688002070FBF1CC0204002A9
:1009A000084003D138007108484307E0A96A3000C5
:1009B0000907090F491C00F0CDFA7843010002E055
:1009C000564900E0310021602B68554922681B061A
:1009D0001B0FCB5CDA4062602B685B055B0FC95C68
:1009E000CA40A260E96AC90501D44E4905E02968F8
:1009F000490401D4510800E09108E1608021090216
:100A0000EA6A520601D4484A00E00A002261EA6A12
:100A1000D20601D4320000E0226862610322EB6A50
:100A2000134001D1A26804E0EB6A1340012B02D10C
:100A30002268A2610AE0EB6A1340022B01D1A16196
:100A400004E0EB6A1A40032A00D1A661C022920298
:100A5000EB6A134001D1A26805E0EB6A13404F0036
:100A6000BB4202D12268E2610BE0EB6A13408F00C7
:100A7000BB4201D1E16104E0EB6A1340934200D133
:100A8000E661C0221203EB6A134001D1A1680BE0BA
:100A9000EB6A1340CF00BB4201D1216804E0EB6A4E
:100AA00013400F01BB4201D1216204E0E96A114009
:100AB000914200D12662E96A090600D417486062B3
:100AC000F0BD000004100240184A0029116802D04D
:100AD000084310607047814311607047144A002931
:100AE000116802D00843106070478143116070475D
:100AF000104A0029116802D00843106070478143F2
:100B0000116070470C4A0029116802D00843106038
:100B1000704781431160704700127A00006CDC025C
:100B200000000020809FD5001280000014100240B9
:100B3000181002400C10024010100240044A002914
:100B4000116802D0084310607047814311607047FC
:100B500000000140F0B5002301229A400C681440C7
:100B6000944228D15C000326A640F5430E79012E5D
:100B700001D0022E0FD186682E40866086684F799C
:100B8000A7403743876086889643868082888E791F
:100B90009E401643868002682A40026002680E79F1
:100BA000A64016430660C2681540C560C268CD798C
:100BB000A5401543C5605B1C102BCDD3F0BD8161F2
:100BC00070470185704710B5CB089B00C0188B009B
:100BD0001C211940036A0F248C40A3430362036A5B
:100BE0008A401A43026210BD10B52549884209D1D6
:100BF0008C0C01212000FFF77BFF00212000FFF774
:100C000077FF10BD1F49884208D10C0C012120003C
:100C1000FFF778FF00212000FFF774FF10BD028866
:100C2000C1239B0113400A881A43CB891343CA8806
:100C30001A430B8913434A891A438B891343038050
:100C40008288114B13408A881A4382800A8A028262
:100C500002880E4B1340498819430180818B0C4A4E
:100C60000A40828370470029018802D040220A434B
:100C700001E0084A0A40028070478288064B15E06E
:100C80000030014000380040FFF00000FBFF000092
:100C9000FFF70000BFFF0000FFEF0000002A82887E
:100CA00000D006E08A4382807047000013408380B2
:100CB0008288114381807047F0B58BB004000D002D
:100CC000206801218843206060682B490140A868A2
:100CD0000843606020682949014068680843E96862
:100CE0000143286908432060A068254901406869DC
:100CF0000843A0606846FFF73FFE1C48844201D1CC
:100D0000069E0AE01A48844201D1079E05E0194870
:100D1000844201D1089E00E0029E2D6820680004F4
:100D200000D576003000290000F014F907003000EB
:100D3000290000F00FF96808814200D37F1C206869
:100D4000000404D51248384039074F0F0743A781E4
:100D50000BB0F0BD0029016803D001220A430260F4
:100D60007047012291430160704700000038014044
:100D70000044004000480040FFCFFFFFF3E9FFFFC1
:100D8000FFFCFFFF1340836082681143816070475E
:100D9000F0FF0000002A826800D0F6E78A438260F4
:100DA0007047FEE7F0B50168484A0A40026000213A
:100DB000016041608160C1600F21454A454B984206
:100DC0001FD0F023444CA04222D00C02434DA84235
:100DD00025D00D03424EB04228D00E04414FB842F8
:100DE0002BD01437B84202D1106809050AE0143735
:100DF000B84202D11068090604E03B4A3B4FB842B2
:100E000003D1106801431160F0BD3949884203D114
:100E1000106803431360F0BD1431884203D1106899
:100E200004431460F0BD1431884203D110680543B7
:100E30001560F0BD1431884202D110680643166077
:100E4000F0BD02682B4B13408A681A430B6A1343A8
:100E50000A691A434B6913438A691A43CB691343DE
:100E60004A6A1A438B6A13430360CA6842600A687D
:100E700082604968C16070470029016802D0012280
:100E80000A4301E0114A0A4002607047002A0268E2
:100E900002D01143016070478A430260704700BF6F
:100EA00001000020CA0001D5134A00E0134A12686D
:100EB000114000D00120704700BFC10001D50A4990
:100EC00000E003490860704700000000FEFF0000DA
:100ED00004000240080002401C00024030000240B2
:100EE000440002405800024004040240080402404A
:100EF0001C0402400F80FFFF00040240000002407B
:100F000070B501000C781F2201238878002816D0C4
:100F10000D4D20000326B04328180568E60018246C
:100F20003440FF26A640B5434E78B607360EA6409D
:100F30002E430660087802409340044802E02240B5
:100F400093400348036070BD00E400E000E100E06E
:100F500080E100E00022030A8B420BD203098B429E
:100F600019D243088B422ED2411A00D20146524177
:100F700010467047FF2209023FD012068B4205D36C
:100F8000121209028B4201D31212090203098B4289
:100F900019D300E0090AC3098B4201D3CB01C01A5F
:100FA000524183098B4201D38B01C01A524143093C
:100FB0008B4201D34B01C01A524103098B4201D32A
:100FC0000B01C01A5241C3088B4201D3CB00C01A97
:100FD000524183088B4201D38B00C01A524143080F
:100FE0008B4201D34B00C01A5241884200D3401AB1
:100FF0005241CFD201461046704708B500F002F8C2
:1010000008BDFEE77047FEE780B510219020C005BF
:10101000FFF7D7FD01213548FFF72EFF01BD80B551
:1010200001213348FFF728FF01BD10B5314C32488C
:1010300041781D2904D11722811D2000FFF794FA61
:10104000E07D010001D1012002E0012801D1002052
:10105000E07510BDF0B589B00027002401252E02EF
:1010600026480078C00905D031002548FFF7A7FDC4
:10107000012403E031002248FFF7A3FD1F48007858
:101080008009054005D031001D48FFF798FD1D4837
:1010900005E031001A48FFF794FDC820800069463A
:1010A0000F84194F194E1A4D002107910691059191
:1010B00004910121039102900194002000902B00E3
:1010C000320039001348FEF7FBFF1348039008A8CD
:1010D000029000200190282000902B8832783978E7
:1010E0000C48FFF7D0F909B0F0BD00003000024015
:1010F0004400024004150020901400203215002006
:1011000000080048E0FCFFFF3415002035150020E2
:1011100030150020C01400203014002070B500F0FD
:1011200038F83B4C8026B6003A4D09E031002000EB
:10113000FFF745FDFFF768FF31002000FFF741FD95
:1011400028780128FCD10020287068880028EDD07C
:10115000AF214900884207D0490088420BD0FA21CC
:10116000C90088420ED0EBE731002000FFF727FDD1
:10117000FFF75BFFE0E731002000FFF720FDFFF7FE
:101180004EFFD9E731002000FFF719FDFFF762FF9E
:10119000D2E7F0B589B0FFF73DF900206946088431
:1011A0001D4F1E4E1E4D1F4C07900690059004903B
:1011B00001200390002002900190009023002A005B
:1011C00031003800FEF77CFF1748039008A8029012
:1011D000002001902820009023882A783178380058
:1011E000FFF751F9FFF76EFAFFF77AFA00F01EF8F1
:1011F000FFF780FAFFF7AEFBFFF713FBFFF7C1FA2B
:10120000FFF7EEFA322000F041F809B0F0BD00001F
:101210000008004828150020C014002034150020C4
:1012200035150020301500203014002000B583B0A3
:101230000121C804FFF748FC684601210171002123
:10124000C180032141710802009069460148FFF7FF
:1012500081FC07BD0008004810B5C20018231340E8
:10126000FF249C40E2438907090E9940002801D4DD
:10127000174B03E0174B0007000F08388008800069
:10128000181803681A401143016010BD30B58BB0C7
:1012900004006846FFF770FB01980F49FFF75AFEFC
:1012A0006043401E0024E44380214904884209D25F
:1012B0000A4D686003212000FFF7CEFF0020A860E0
:1012C0000720286000212000FFF7C6FF0BB030BDCB
:1012D00000E400E01CED00E040420F0010E000E000
:1012E00082B03348016801220A4302604168314AF2
:1012F0000A4042600168304A0A40026001682F4A91
:101300000A40026041682E4A0A404260C16A0F22C8
:101310009143C162016B2B4A0A400263416B012277
:1013200091434163002181600191009101681204A1
:101330000A430260016880229202114000910199E3
:10134000491C01910099002904D10199A022D201E0
:101350009142EFD101688903CA0F009200990129D7
:1013600024D11121184A11604168416041684160EF
:101370004168164A0A4042604168882252030A4383
:1013800042600168802252040A43026001688901B8
:10139000FCD54168032291434160416802220A431F
:1013A000426041680C220A40082AFAD102B0704714
:1013B000001002400CB8FFF8FFFFF6FEFFFFFBFF36
:1013C000FFFFC0FFACFEFFFF00200240FF7FC0FF19
:1013D0007047FEE7704770472A480168491C016062
:1013E00001202949087029480188294A914201D0E1
:1013F000323100E000210180704738B58024A4001C
:10140000244D21002800FFF7DAFB2000FFF747FDFD
:10141000002805D000212048FFF72EFD60080AE0D3
:101420002020FFF73CFD002807D010219020C005A8
:10143000FFF7C5FB1020FFF73FFD21002800FFF755
:10144000C0FB31BD38B5134C8025AD00290020000C
:10145000FFF7B5FB2801FFF722FD002805D000218A
:101460000E48FFF709FDE80005E02802FFF717FD29
:10147000002802D0E801FFF71FFD29002000FFF738
:10148000A0FB31BD2C150020281500202A150020B6
:101490006E0F000000080048300002404400024087
:1014A000094880F3088804200168090E1F22914230
:1014B00005D1064801210160054800210160054869
:1014C000804705480047000018040020181002401B
:1014D00000000140E1120008F115000870B401217C
:1014E000002213E00468001D0C4202D04D466D1E20
:1014F00064192260241D1B1F042BFAD225009E07AD
:1015000001D52280AD1C0B4000D02A700368001D5D
:10151000002BE7D170BC704730B401210268001D78
:10152000002A0FD00368C318446808300C4202D068
:101530004D466D1E64191D6825601B1D241D121F5C
:10154000ECD0F8E730BC704710B507497944183142
:10155000064C7C44163404E0081D0A688918884744
:101560000100A142F8D110BD0800000028000000D1
:101570006DFFFFFF20110000180400200000000094
:1015800099FFFFFF1400000054000000000000203D
:101590000000000000F00BF8002801D0FFF7D4FF96
:1015A000002000BF00BFFFF7B9FD00F002F80120E6
:1015B000704780B500F002F801BDFEE707463846E7
:1015C00000F002F8FBE7FEE780B500BF00BF024A6B
:1015D00011001820ABBEFBE726000200000000004F
:1015E0000102030401020304060708090A000000BF
:1015F00000BF00BF00BF00BFFFF7CCFFFEE7FEE764
:10160000FEE7FEE7FEE7FEE7FEE7FEE7FEE7FEE7B2
:10161000FEE7FEE7FEE7FEE7FEE7FEE7FEE7FEE7A2
:04162000FEE7FEE7FC
:04000005080015F1E9
:00000001FF
