:020000040800F2
:100000002008002025390008A9330008AB33000878
:1000100000000000000000000000000000000000E0
:10002000000000000000000000000000B9330008DC
:100030000000000000000000BB330008BD330008D2
:10004000C71B0008AB1E00081320000893210008FE
:1000500033270008D7330008573400081F2800084A
:10006000A32D0008F73000088F340008CF340008B3
:100070004B3200083F3A00084B3A0008893A000822
:100080008B3A00088D3A0008000000008F3A000803
:10009000913A0008933A0008953A0008973A000808
:1000A000993A00089B3A00089D3A00089F3A0008D8
:1000B000A13A000800000000A33A00080000000078
:1000C000010048780002097808437047C1780902A6
:1000D00082780A43110242780A43110200780843E9
:1000E00070470170090A417070470170090A417038
:1000F000090A8170090AC1707047002A05D00B787F
:100100000370491C401C521EF9D170470170401CFD
:10011000521EFBD1704710B5030018780C78001BF5
:10012000491C5B1C521E01D00028F6D010BD00E017
:10013000401C0278130001D08A42F9D11046704762
:1001400070B5040000250026E07800281BD00123AC
:10015000226B21003431607801F08EFA002811D131
:10016000E570E069216B626A8A1A82420BD2A2783A
:10017000022A08D101230A1821003431607801F0E5
:100180007BFA00E00126300070BD70B506000C005F
:100190000025306B844211D03000FFF7D1FF0500FD
:1001A0000CD10123220031003431707801F038FA8B
:1001B000002802D00024E44301253463280070BDE8
:1001C000891E8269921E914201D300207047C26A43
:1001D0004089414350187047F8B50C000568022C5F
:1001E0005DD3A86984425AD20026F64328780128B4
:1001F00004D054D3032840D02ED350E060082018F8
:100200000090686A0099490A41182800FFF7BDFF6D
:10021000002845D10098C005C00D28183421475C3E
:100220000098401C0090686A0099490A411828000B
:10023000FFF7ABFF002833D10098C005C00D281888
:100240003421405C000238430700E00701D53E0935
:1002500026E03E05360D23E0686A210A4118280091
:10026000FFF793FF00281BD16000C005C00D2818C0
:100270003430FFF725FF060012E0686AE1094118F3
:100280002800FFF782FF00280AD1A000C005C00D9A
:1002900028183430FFF71AFF0601360900E001265E
:1002A0003000F2BDF4B582B004000E000225022E2B
:1002B00074D3A069864271D201272078012804D026
:1002C0006CD303284FD03CD368E0700830180090FE
:1002D000606A0099490A41182000FFF756FF05009F
:1002E0005CD10098C005C00D201834300099491C1D
:1002F00000913E4206D001780A07120F02990901C7
:10030000114300E002990170E770606A0099490AA0
:1003100041182000FFF739FF05003FD10098C005C4
:10032000C00D201834303E4002D002990A0906E080
:100330000278F0211140029A1205120F0A4302704E
:100340002BE0606A310A41182000FFF71EFF05000C
:1003500024D1029989B27000C005C00D2018343034
:10036000FFF7BFFE19E0606AF10941182000FFF7AE
:100370000CFF050012D1B000C005C00D26183000DA
:100380003430FFF7A3FE02990A011209010F090791
:10039000114330003430FFF7A8FEE7702800FEBD9F
:1003A000F3B581B006680127002907D13569002D12
:1003B00002D0B06985420FD301250DE0FFF70CFF95
:1003C000022801D20120FEBD0021C943884261D02C
:1003D000B16988425ED3029D7069002833D00298CB
:1003E00085421AD16C1CB069844200D302242100DA
:1003F0000198FFF7F1FE01284CD00021C943884243
:1004000048D0002807D03069022806D3B169884255
:1004100003D2050001E0002C17D12C00641CB06948
:10042000844202D30224022D0DD321000198FFF74C
:10043000D3FE002809D001282CD00021C9438842CE
:1004400028D0AC42EAD10020FEBD0022D2432100D8
:100450003000FFF727FF002807D10298002806D0B8
:10046000220001463000FFF71DFF00280BD1346148
:100470007069B169891E814201D3401E7061307973
:100480000743377105E0012802D10024E44300E06E
:1004900001242000FEBDF8B504000D00276880206F
:1004A0008003854234D2E80632D12561A668002E49
:1004B00003D13878032802DBBE6A002E05D1680913
:1004C0003989884224D2B86A1DE0788940020090B8
:1004D00001E000982D1A0098854210D331002000C9
:1004E000FFF77AFE06000020C043864201D10120BA
:1004F000F2BD022E0CD3B8698642EAD308E031007F
:100500003800FFF75DFEA0616661A069002801D197
:100510000220F2BD690A4018A061E805C00D381834
:100520003430E0610020F2BDF2B582B004002568ED
:10053000206920300090A069002828D000998022EE
:100540009203914223D2C9055FD1401CA061616929
:1005500000260029009804D140092989884254D3F3
:1005600014E0400A6A89521E02404ED12000FFF773
:1005700033FE0700022F16D30020C04387423CD031
:10058000A86987423BD30298002802D1A6610420C3
:10059000FEBD61692000FFF703FF070001D10720BE
:1005A000FEBD012F01D10220FEBD0020C0438742C5
:1005B00023D02800FFF7C4FD00281ED139002800F1
:1005C000FFF7FEFD019028638022920000212800A1
:1005D0003430FFF79BFD00E0761C6889864209D223
:1005E00001230198821929003431687801F044F818
:1005F0000028F1D06889864201D00120FEBD6761E4
:1006000039002800FFF7DCFDA06100982061009808
:10061000C005C00D28183430E0610020FEBD38B59B
:1006200005000C0020001A30FFF74AFD2978032945
:1006300006D1050020001430FFF742FD00042843D6
:1006400032BD70B506000C001500A9B220001A30AA
:10065000FFF747FD3078032804D1290C200014301F
:10066000FFF73FFD70BD7CB5060015001C000B2296
:10067000FFF743FD062C11D3288801000ED0AD1CD6
:1006800010216200C307DB0FD4184008E20302D533
:100690002200724C5440491EEED0F2E70720694612
:1006A0002207120F3032D2B23A2A00DBD21D0A548E
:1006B000401E2409F4D17E220A54002200E0521C7C
:1006C000824202D2B35C202BF9D11300521C0828BD
:1006D00002D20C5C401C00E02024F454082AF4D31D
:1006E00073BD010000200B224308C00118180B78CD
:1006F000C018C0B2491C521EF6D17047F1B586B081
:100700000068049000210698FFF7C5FE040013D18D
:10071000FF200290FF250020C0430699C86206987A
:1007200081690498FFF731FD040005D10698C0697E
:100730000178002901D104248DE0C27A9206920E3C
:10074000069EB271E5297AD0130702D50F2A76D119
:1007500001E00F2A5ED1069A2B23D25C520673D495
:100760004A0609D5427B02920A00BF2111400D00C2
:10077000069A1269069BDA62EAB2914248D102995E
:10078000427B914244D100900498C0680390009845
:100790001A30FFF795FC00283AD1009800788406BB
:1007A000A40E641E0D20444301260027009800BFBC
:1007B000ABA1C95D4018FFF783FC69468880300013
:1007C00011D0FF2C24D26846808800F08DFF0600EF
:1007D00003986100405A00F087FF641C864217D1DD
:1007E0006846868804E0684680889C4988420FD124
:1007F0007F1C0D2FDAD300980078400606D5002E16
:1008000004D003986100405A002801D16D1E1BE0FE
:10081000FF2519E02D0604D1029DFFF762FF8542F6
:1008200019D006982B21405CC00708D40B220699EA
:1008300020310698C069FFF76EFC00280BD0FF2519
:100840000020C0430699C86200210698FFF76CFE9D
:10085000040000D163E7200007B0F0BD21100100C3
:10086000F1B588B00068009008982B21405CA02169
:10087000084201D00620EEE0002600E0761C009839
:10088000C0687100405A0028F8D10C220899203124
:1008900004A8FFF732FC04AFF87AC0071FD5402048
:1008A00008992B22885401252B000098C26804A9BE
:1008B00008982030FFF7D7FE0898FFF71FFF0400C5
:1008C00002D16D1C642DEFD3642D01D10720C2E04D
:1008D000042C00D0BEE0F87A08992B228854F87ACC
:1008E000800706D50C3630000D2101F015F9471CA4
:1008F00000E00127089805680021FFF7CCFD010002
:1009000019D10024089881692800FFF73EFC0100F6
:1009100011D10899C9690978E52903D0002901D0C6
:10092000002402E0641CBC4208D001210898FFF7B3
:10093000FBFD0100E6D0042800D10720040068D1A7
:100940007F1E68D0089800697901411A0898FFF75E
:10095000A2FD04005DD108982030FFF7C2FE694671
:100960004872089881690098FFF70FFC040050D185
:1009700069460F720898C06901900098C06803909A
:100980006846407A019948730F200199C872002087
:1009900001990873002101981A30FFF7A2FB6846FD
:1009A000047A641E0D204443002502E02B498E4248
:1009B00003D003986100465A641C3100019800BFBF
:1009C00027A2525D8018FFF78CFB300000D1234E28
:1009D0006D1C0D2DEAD321498E4204D0039861008D
:1009E000405A002805D16846007A402101436846F4
:1009F00001726846007A0199087001200099C87058
:100A000000210898FFF790FD040002D17F1EA8D1B5
:100A100001E020001ED1089881690098FFF7B5FB1E
:100A2000040017D1202200210898C069FFF76EFB4F
:100A30000B22089920310898C069FFF75EFB0898DF
:100A40002B21405C182101400898C06901730120E6
:100A50000099C870200009B0F0BD0000FFFF000041
:100A600001030507090E10121416181C1E000000C1
:100A7000F3B585B00E6805980068C068039000273C
:100A8000002514E0FF2F3AD2FF21B631200000F0FC
:100A900017FE040033D0802C05DA210084A0FFF774
:100AA00046FB00282BD10398790044527F1C745DCB
:100AB0006D1C202C0ADB2F2C01D05C2CE2D1705D48
:100AC0002F2801D05C2801D16D1CF8E77019069918
:100AD0000860202C01DA042602E0002600E07F1ED8
:100AE000039879004018002F05D0811E0C88202C17
:100AF000F5D02E2CF3D000210180002F01D106204B
:100B000072E00B22202105982030FFF7FFFA002524
:100B100000E06D1C03986900405A2028F9D02E2867
:100B2000F7D0002D02D03000032606430398790049
:100B30004018801E00882E2801D07F1EF6D100208C
:100B40006946087100900820029000E00E000398AA
:100B50006900445A6D1C684600798000002C11D051
:100B600003213143C9B2202CF0D02E2C01D1BD423B
:100B7000ECD1009A029B9A4201D2BD4243D10B2B89
:100B800034D10E0005992022895CE52903D1052185
:100B9000059A2023D1540299082901D16946087188
:100BA000684600790C210C2202400C2A03D08207EF
:100BB000920F032A03D1320002261643F6B2B2077F
:100BC0000ED48207920F012A03D132001026164359
:100BD000F6B20140042903D1300008260643F6B2DC
:100BE00005982B214654002007B0F0BDBD4200D02F
:100BF0000E00AF42C6D33D00082100910B210291A7
:100C000069460871A3E7802C10DB300002260643FA
:100C1000F6B2FF21B631200000F03AFD04000006D4
:100C200004D500BF25A06106490E445C0321314371
:100C3000C9B20491FF2C12DD00980299491E884226
:100C400003D3049E0298009081E720120599009A30
:100C50008918202288540098401C009020E0002C25
:100C600005D0210035A0FFF762FA002802D05F24EA
:100C7000049E15E0200041381A2806D26846007903
:100C800002210143684601710AE0200061381A28F8
:100C900006D2684600790121014368460171203C73
:100CA000059800994018202144540098401CCAE738
:100CB000222A3A3C3E3F7C7F00000000809A45415A
:100CC0008E418F804545454949498E8F9092924F7C
:100CD000994F555559999A9B9C9D9E9F41494F55B7
:100CE000A5A5A6A7A8A9AAABACADAEAFB0B1B2B34B
:100CF000B4B5B6B7B8B9BABBBCBDBEBFC0C1C2C33C
:100D0000C4C5C6C7C8C9CACBCCCDCECFD0D1D2D32B
:100D1000D4D5D6D7D8D9DADBDCDDDEDFE0E1E2E31B
:100D2000E4E5E6E7E8E9EAEBECEDEEEFF0F1F2F30B
:100D3000F4F5F6F7F8F9FAFBFCFDFEFF2B2C3B3D32
:100D40005B5D000001000020C0430B68002B00D158
:100D5000704730B51A0000E0521C1478202C01D3E3
:100D60003A2CF9D13A2C0CD11D785B1C303D0A2D60
:100D700008D2934206D1002D04D10020521C0A60F3
:100D800030BD002030BD000038B504000020E07008
:100D900025003035C04328602000FFF7F6F9002811
:100DA00001D0042032BDB6482018FFF789F9114957
:100DB000884201D0032032BD2879E92804D0EB28ED
:100DC00015D1A879902812D10322AEA120006A3053
:100DD000FFF7A1F9002808D0052200BF06A12000D6
:100DE0008630FFF798F9002801D1002032BD02209B
:100DF00032BD000055AA00004641543332000000C5
:100E0000F0B587B00E00150000213160FFF79AFFA2
:100E1000070001D50B2030E19B48B9004018446819
:100E2000002C01D10C2028E134602800FE2505406B
:100E300004262078002809D0607800F0D1FBC10793
:100E400004D4002D01D030420ED115E100202070D5
:100E50006770607800F0CBFBC10701D503200CE17F
:100E6000002D03D0304201D00A2006E100270021E6
:100E70002000FFF789FF0500022D25D1002528015C
:100E80002018F921490040180179002903D00830C1
:100E9000FFF71CF900E0002003A9AA0088506D1C90
:100EA000042DECD3002603A8B1004758002F04D02E
:100EB00039002000FFF768FF00E003200500022D45
:100EC00002DB761C042EEED3042D01D10120D4E0E8
:100ED000022D00DB90E020003F30FFF7F1F8802189
:100EE0008900884212D120004A30FFF7E9F8060055
:100EF00004D120005830FFF7E9F80600E661200031
:100F00004130C178A170012901D0022974D14E432A
:100F10000078608101006FD0411E08426CD1200032
:100F20004530FFF7CDF82081000765D1200047301C
:100F3000FFF7C6F8050004D120005430FFF7C6F8CB
:100F4000050020004230FFF7BBF80190002853D085
:100F50002089694608810198801909890909401882
:100F60000090854248D3281A618900F0D5FD0028F9
:100F700042D000256449884200D203256349884253
:100F800000D202250121624A904201D2012501E0EE
:100F9000002D31D0801CA061276201983818606252
:100FA00000983818E062032D0FD120005E30FFF763
:100FB00087F8002820D1208900281DD1200060302A
:100FC000FFF784F8A16989000FE0684600890028CE
:100FD00012D0606A8019A269022D01D1510004E08B
:100FE00053009B185B0811405918A062E069494AF8
:100FF0008918490A884201D20D203EE00020C043F2
:101000006061206180202071032D2ED1200064308A
:10101000FFF756F8012828D1791C2000FFF7B5F812
:10102000002822D1207116482018FFF749F83A49C4
:1010300088421AD120003430FFF748F837498842F7
:1010400013D1862080002018FFF740F834498842E9
:101050000BD1872080002018FFF738F860618820C6
:1010600080002018FFF732F82061257006480088BC
:10107000401C05490880E080002007B0F0BD00005A
:10108000320200004641540028190020F8B504003F
:101090000F0009250026002C10D0206800280DD054
:1010A000017800290AD0A188C288914206D14078EF
:1010B00000F096FAC00701D4002526683E6028009B
:1010C000F2BD13B582B0140000916846FFF73AFEF6
:1010D000002801D50B2015E0AC49800008184168B4
:1010E0000022002900D00A700299002900D00A705D
:1010F00002994160002C01D1002003E002A903A85D
:10110000FFF77EFE04B010BDF6FFFF0FF6FF0000F4
:10111000F60F0000FF01000055AA00005252614185
:1011200072724161F2B5FFB093B0060001D109209F
:10113000A7E09506AD0E2A00694692A8FFF760FE6B
:10114000040051D10098059011A80099C8609298A8
:101150000190059C02E00198401C019001980078E4
:101160002F28F8D05C28F6D00020079005AF019812
:101170000078202810D280202B217854002105A847
:10118000FFF789F922E03869C005C00D2118343114
:101190002000FFF744FA079001A905A8FFF768FCB3
:1011A000010013D105A8FFF7A9FA2B21795C0422CD
:1011B0001140020004D0042808D1002906D104E01F
:1011C000002903D1B879C006DDD40520040004D17C
:1011D0002B20385C000600D506241C20054200D1D7
:1011E000AEE0200043D0042C48D105A8FFF738FB1F
:1011F000040028000825054320006AD128076FD580
:10120000F9690098FFF70BFA03906149F8690E300D
:10121000FEF76BFF2020F969C8720022F969009877
:10122000FFF70FFA0021F8691C30FEF75EFF01207E
:101230000099C870039800284DD00098006B049066
:10124000039C05980190022C78D38069844275D262
:10125000210005A8FEF7C0FF0290002830D0012829
:101260006CD00021C94388420ED1012406E0B87930
:10127000112108426FD16807C0D5082400203060D2
:1012800020007FB014B0F0BD002221000198FFF7CC
:1012900009F8010001D00400F0E701988069019984
:1012A0004969821E914208D2491C019A51610199F3
:1012B000097901220A4301990A71029C8442C7D329
:1012C00004990098FEF761FF04000398401E0099FE
:1012D00008612000D2D1280702D528004025054307
:1012E0000098006B3062F8697062FF6939000098FD
:1012F000FFF795F9B06038001C30FEF7E7FEF060AC
:10130000009830600098C088B080357400207074F8
:10131000F0617061A806B3D5F568002DB0D0756195
:10132000009840894702B168AF4216D3B161E80521
:10133000A6D00098FEF744FF002822D102249DE7A2
:101340002000C6D1B879C10601D5042496E7A907C3
:10135000C1D5C007BFD5072490E73000FEF73CFF9A
:101360000100022902D20224B16187E70020C043B4
:10137000814202D10124B06180E7ED1B2000D3D06F
:10138000F2E7690A4018F0617AE7000028190020A6
:101390000000A14AF8B584B00500160001910020B4
:1013A0000499086069462800FFF770FE010006D125
:1013B000687C010003D1287CC00701D407207FE0AE
:1013C000E8686969401AB04217D8060015E02200A3
:1013D00000986969C905C90D411834310198FEF7B3
:1013E0008CFE361B04980068001904990860019867
:1013F00000190190686900196861002E5FD0686962
:10140000C10549D1410A009A5289521E0A400292EE
:10141000029900290ED1002801D1A86803E0A9692A
:101420002800FEF7D9FE02280AD30021C9438842CA
:1014300042D0A861A9690098FEF7C2FE040001D15C
:1014400002203AE002982418770A24D000984089B4
:101450000299C919884201D20299471A3B00220019
:1014600001990098407800F0DBF8002824D100981A
:10147000C07800280DD00098006B001BB84208D23D
:101480008022920000993431019B40021818FEF727
:1014900034FE7C02A5E7EC61802080006969C90503
:1014A000C90D401A3400864200D90400E969009849
:1014B000FEF76BFE00288AD00120687400E000204F
:1014C00005B0F0BDF8B505006946FFF7DFFD010086
:1014D0006AD1297C490667D5296A0098FEF755FE2E
:1014E000010061D16C6AE07A20210143E172AA68AF
:1014F00021002868FFF7A5F8E96820001C30FEF7F6
:10150000F4FD2A4920001630FEF7EFFD00212000EF
:101510001230FEF7E6FD01260099CE70009C2000F7
:10152000FEF70EFE07003AD1207803282FD120794C
:1015300001282CD17202002120003430FEF7E6FD94
:101540001B491C482018FEF7CCFD1B4920003430F5
:10155000FEF7CBFD1949862080002018FEF7C5FD57
:101560006169872080002018FEF7BFFD216988206F
:1015700080002018FEF7B9FD226A521C2263012365
:1015800021003431607800F077F8002020710022CB
:101590000021607800F073F8002800D0012738009F
:1015A000297CBF220A402A74F2BD00000000A14A33
:1015B00055AA00003202000052526141727241612C
:1015C00010B582B00400FFF77DFF010007D1694626
:1015D0002000FFF75BFD010001D10021216016BD55
:1015E000002801D00120704726480078704710B5C8
:1015F00000280CD100F0E8FA00280AD0214C20780D
:10160000FD210140217000F0E7FA002803D10120FC
:1016100010BD022010BD2178FE200840207010BDB2
:10162000F7B50E001F00002801D1002F01D10420C2
:10163000FEBD14480078C00716D4134D0A240120BB
:1016400000F074FC012F00D06D1C029A290068463E
:1016500000F076FB641E68460078002802D0002C5B
:1016600002D0F2E7002C01D10320FEBD390030008A
:1016700000F0CEFB0020FEBD044800787047034810
:101680000078704719000020110200004619002060
:1016900010B502000020802A01DA100010BDFF23DF
:1016A000B63399420BD100BF2FA344001B5B9A4273
:1016B00003D0401C80B28028F5DB8030C0B210BD62
:1016C0000022802801DA02000CE0FF23B6339942A1
:1016D00008D1FF2806DC00BF23A140000818FF2125
:1016E000C943425A1000704770B58022520190429F
:1016F00002DA00BF5CA205E0D8A203E0002C01D111
:101700006B00D2181388002B2BD0984229DB558808
:10171000121D2C02240CEDB25E19B042EEDA082C38
:101720001FD801A52D5DAF4408101A1E22262A2EAF
:101730003200C01A4000105A13E0C11ACA07D20F73
:10174000801A0EE010380CE020380AE0303808E04B
:101750001A3806E0083004E0503802E0E32149017D
:10176000401A80B270BD0000C700FC00E900E20032
:10177000E400E000E500E700EA00EB00E800EF002D
:10178000EE00EC00C400C500C900E600C600F4008D
:10179000F600F200FB00F900FF00D600DC00A2001A
:1017A000A300A500A7209201E100ED00F300FA00DC
:1017B000F100D100AA00BA00BF001023AC00BD00A8
:1017C000BC00A100AB00BB0091259225932502250A
:1017D0002425612562255625552563255125572544
:1017E0005D255C255B251025142534252C251C251D
:1017F00000253C255E255F255A255425692566254B
:10180000602550256C2567256825642565255925A3
:101810005825522553256B256A2518250C25882522
:1018200084258C2590258025B103DF009303C00318
:10183000A303C303B500C403A6039803A903B40319
:101840001E22C603B50329226122B100652264224B
:1018500020232123F7004822B0001922B7001A22C2
:101860007F20B200A025A00061001A03E00017034A
:10187000F8000703FF000100780100013001320188
:101880000601390110014A012E017901060180018A
:101890004D0043028101820182018401840186019D
:1018A0008701870189018A018B018B018D018E01DE
:1018B0008F0190019101910193019401F60196012C
:1018C0009701980198013D029B019C019D01200216
:1018D0009F01A001A001A201A201A401A401A601EF
:1018E000A701A701A901AA01AB01AC01AC01AE019E
:1018F000AF01AF01B101B201B301B301B501B5014F
:10190000B701B801B801BA01BB01BC01BC01BE01FD
:10191000F701C001C101C201C301C401C501C40175
:10192000C701C801C701CA01CB01CA01CD0110011D
:10193000DD0101008E01DE011201F3010300F1015E
:10194000F401F401F8012801220212013A0209000F
:10195000652C3B023B023D02662C3F0240024102E5
:10196000410246020A0153024000810186015502EC
:1019700089018A0158028F015A0290015C025D02BE
:101980005E025F02930161026202940164026502D9
:1019900066026702970196016A02622C6C026D0270
:1019A0006E029C01700271029D01730274029F011C
:1019B00076027702780279027A027B027C02642C3A
:1019C0007E027F02A60181028202A90184028502B1
:1019D00086028702AE014402B101B20145028D02C6
:1019E0008E028F0290029102B7017B030300FD0378
:1019F000FE03FF03AC0304008603880389038A0304
:101A0000B1031103C2030200A303A303C403080329
:101A1000CC0303008C038E038F03D8031801F20359
:101A20000A00F903F303F403F503F603F703F703DE
:101A3000F903FA03FA03300420035004100760048A
:101A400022018A043601C1040E01CF040100C00442
:101A5000D004440161052604000000007D1D010042
:101A6000632C001E9601A01E5A01001F0806101FBD
:101A70000606201F0806301F0806401F0606511FD5
:101A80000700591F521F5B1F541F5D1F561F5F1F0A
:101A9000601F0806701F0E00BA1FBB1FC81FC91F9A
:101AA000CA1FCB1FDA1FDB1FF81FF91FEA1FEB1F2E
:101AB000FA1FFB1F801F0806901F0806A01F0806BC
:101AC000B01F0400B81FB91FB21FBC1FCC1F0100FC
:101AD000C31FD01F0206E01F0206E51F0100EC1F16
:101AE000F31F0100FC1F4E21010032217021100262
:101AF000842101008321D0241A05302C2F04602C6E
:101B00000201672C0601752C0201802C6401002D56
:101B1000260841FF1A0300000022030A8B420BD261
:101B200003098B4219D243088B422ED2411A00D2AC
:101B30000146524110467047FF2209023FD012066B
:101B40008B4205D3121209028B4201D312120902F1
:101B500003098B4219D300E0090AC3098B4201D360
:101B6000CB01C01A524183098B4201D38B01C01AA9
:101B7000524143098B4201D34B01C01A5241030920
:101B80008B4201D30B01C01A5241C3088B4201D3CF
:101B9000CB00C01A524183088B4201D38B00C01A7C
:101BA000524143088B4201D34B00C01A5241884234
:101BB00000D3401A5241CFD201461046704708B5B3
:101BC00000F026FA08BDFEE7AD4801880420014078
:101BD000080000D001207047F0B583B00825002030
:101BE00000F0A4F908219020C00500F048FA0A246A
:101BF00000F056F9641EFBD10A24A24E0022A9016E
:101C0000684600F09DF8684603C803C6083E641E97
:101C10003078C00702D4002C13D0EFE7002C10D08E
:101C20000A240227D52252009749684600F088F816
:101C3000684603C803C6083E3078410725D502250B
:101C4000002C79D01820054208D100228F4968461F
:101C500000F076F8684603C803C6083EFA2464001C
:101C60007A078B49684600F06BF8684603C803C6DC
:101C7000083E3078410702D53D425DD00125641E03
:101C8000C0070DD5002CEBD10CE0641EC00704D5B5
:101C90007068D52149008842D2D0002CC2D14BE0D7
:101CA000002C03D13D4247D0012501E0E80712D5C1
:101CB0000A2400227749684600F042F8684603C8C3
:101CC00003C6083E641E3078002802D0002C33D0B2
:101CD000EFE7002C30D01820054217D0FF203070DD
:101CE0000A2400226C49684600F02AF8684603C8B6
:101CF00003C6083E641E3078002802D0002C1BD09A
:101D0000EFE7002C18D0480000D40425680715D050
:101D10000A243A0284218900684600F011F86846D6
:101D200003C803C6083E641E3078002802D0002C89
:101D300002D0EEE7002C01D10020FEBD2800FEBD40
:101D4000F1B586B00F0015000824F80508D500226B
:101D50004E496846FFF7F4FF684603C8494A03C284
:101D6000FF203FB2A201974201D1952003E0464AED
:101D7000974200D1872040223A4369460A70290ED3
:101D80006A465170290C9170290AD17069460D710B
:101D9000487108219020C00500F073F90025002645
:101DA0006846805D00F054F8761C062EF8DB00F0E3
:101DB00077F869460872641E6846007A000601D505
:101DC0002006F4D104ACE0200001384080218900D5
:101DD000884205D000F064F860556D1C042DF9DBD5
:101DE00020780006617809040143A07800020843C6
:101DF000E1780143039108219020C00500F03FF9EC
:101E000000F04EF802A803C8069A03C207B0F0BD5E
:101E100070B504009025ED050821280000F031F987
:101E200000F03EF8FE28FBD1002600F039F8A0555E
:101E3000761C802080008642F7DB00F031F800F04D
:101E40002FF80821280000F01AF900F029F870BDD9
:101E500038B50400114D0221280000F093F9002844
:101E6000F9D02100280000F06BF90121280000F0D2
:101E700089F90028F9D0280000F065F932BD00008A
:101E80001000004838190020080800003702000040
:101E900029030000010200003A0400000030014064
:101EA00080B5FF20FFF7D4FF02BDFEE710B5C200EA
:101EB00018231340FF249C40E2438907090E9940F0
:101EC000002801D4494B03E0494B0007000F0838B4
:101ED00080088000181803681A401143016010BD83
:101EE000828A51408182704730B58BB004006846C9
:101EF00000F050F901983F49FFF70EFE6043401E85
:101F00000024E44380214904884209D23A4D6860A4
:101F100003212000FFF7CAFF0020A86007202860E7
:101F200000212000FFF7C2FF0BB030BD70B50600E6
:101F3000324D334C300018D10021200000F0F3F86E
:101F400000220121200000F00FF9002202212000D0
:101F500000F00AF9208828402080208830210143A1
:101F600021800121200000F0DEF8022E01D0012E98
:101F700018D10021200000F0D6F801220121200014
:101F800000F0F2F801220221200000F0EDF8208894
:101F90000540258020882021014321800121200047
:101FA00000F0C1F870BD000030B5FFB09AB0050078
:101FB00014A4002221000BA8FFF783F8012200BF20
:101FC00011A101A8FFF7AEF86B46C822290001A8AD
:101FD000FFF7E0F901A8FFF7F3FA00222100002043
:101FE000FFF76FF87FB01AB030BD000000E400E0EA
:101FF0001CED00E040420F0010E000E0C7FF0000D1
:10200000003001400000000066736D2E6A736F009F
:102010007047FEE7F0B5002301229A400C68144097
:10202000944228D15C000326A640F5430E79012E88
:1020300001D0022E0FD186682E40866086684F79C7
:10204000A7403743876086889643868082888E794A
:102050009E401643868002682A40026002680E791C
:10206000A64016430660C2681540C560C268CD79B7
:10207000A5401543C5605B1C102BCDD3F0BD81611D
:1020800070470185704710B5CB089B00C0188B00C6
:102090001C211940036A0F248C40A3430362036A86
:1020A0008A401A43026210BD10B52849884209D1FE
:1020B0008C0C0121200000F029F90021200000F003
:1020C00025F910BD2249884208D10C0C01212000BD
:1020D00000F026F90021200000F022F910BD02884E
:1020E000C1239B0113400A881A43CB891343CA8832
:1020F0001A430B8913434A891A438B89134303807C
:102100008288144B13408A881A4382800A8A02828A
:102110000288114B1340498819430180818B0F4A73
:102120000A40828370470029018802D040220A4376
:1021300001E00B4A0A40028070478288094B1BE08D
:102140000C30017070470C3000787047003001404F
:1021500000380040FFF00000FBFF0000FFF7000028
:10216000BFFF0000FFEF0000002A828800D006E0D9
:102170008A43828070470000134083808288114325
:10218000818070470200002012890A4200D001209D
:102190007047FEE7F0B504000020514D2968654EF8
:1021A0000C220A40082A02D00C2A17D018E028680E
:1021B00029688002070FBF1CC0204002084003D1DD
:1021C00038007108484307E0A96A30000907090F81
:1021D000491CFFF7A1FC7843010002E0564900E0EA
:1021E000310021602B68554922681B061B0FCB5C10
:1021F000DA4062602B685B055B0FC95CCA40A26075
:10220000E96AC90501D44E4905E02968490401D4A9
:10221000510800E09108E16080210902EA6A520653
:1022200001D4484A00E00A002261EA6AD20601D4D9
:10223000320000E0226862610322EB6A134001D1A0
:10224000A26804E0EB6A1340012B02D12268A2616C
:102250000AE0EB6A1340022B01D1A16104E0EB6AB2
:102260001A40032A00D1A661C0229202EB6A1340F1
:1022700001D1A26805E0EB6A13404F00BB4202D1D6
:102280002268E2610BE0EB6A13408F00BB4201D190
:10229000E16104E0EB6A1340934200D1E661C022A1
:1022A0001203EB6A134001D1A1680BE0EB6A134003
:1022B000CF00BB4201D1216804E0EB6A13400F015B
:1022C000BB4201D1216204E0E96A1140914200D190
:1022D0002662E96A090600D417486062F0BD000072
:1022E00004100240184A0029116802D00843106007
:1022F0007047814311607047144A0029116802D069
:10230000084310607047814311607047104A0029EC
:10231000116802D008431060704781431160704714
:102320000C4A0029116802D00843106070478143AD
:102330001160704700127A00006CDC020800002077
:10234000809FD50012800000141002401810024037
:102350000C10024010100240F0B583B00121480477
:10236000FFF7C0FF00246D462C710120E8710420A6
:1023700000909026F60569463000FFF74BFE0121DC
:102380004804FFF7AFFF2C71EC7101200090694603
:102390003000FFF73FFE01214804FFF7A3FF0220B2
:1023A0002871AC7103276F71EC7120200090694691
:1023B0003000FFF72FFE01214804FFF793FF0220B2
:1023C0002871AC716F71EC7180200090694630000B
:1023D000FFF720FE01214804FFF784FF0220287147
:1023E000AC716F71EC714020009069463000FFF7CE
:1023F00011FE01214804FFF775FF01202871EC80D0
:102400006F711020009069463000FFF703FE012134
:102410004804FFF767FF01202871EC806F710820E6
:10242000009069463000FFF7F5FD01214804FFF7F1
:1024300059FF02202871EC806F71000200906946FC
:102440003000FFF7E7FD01214804FFF74BFF0220B2
:102450002871EC806F714402009469463000FFF7E8
:10246000D9FD002205213000FFF70DFE00220721D3
:102470003000FFF708FE002206213000FFF703FEC0
:10248000012209213000FFF7FEFD01220A21300060
:10249000FFF7F9FD20213000FFF7F3FD8021300028
:1024A000FFF7EDFD40213000FFF7E9FD0821300086
:1024B000FFF7E5FD10213000FFF7E1FD6108300076
:1024C000FFF7DDFD21003000FFF7D9FDF7BD30B586
:1024D00085B08024640101212000FFF70DFF654DC8
:1024E0002800FFF7E1FD00216846018082225200AA
:1024F0004280E022D2008280C1800181E2084281D4
:1025000020228281C1810721018269462800FFF7CC
:10251000E6FD21002800FFF710FE01212800FFF74B
:1025200002FE05B030BD10B586B001218803FFF76B
:10253000E3FEE120800200900020019002900390D1
:1025400005900C2004904C4C6946200000F0F2F8F5
:1025500001228021200000F05BF9012240212000AF
:1025600000F056F90121200000F032F906B010BD4C
:10257000F0B58BB001210120FFF7B4FE012101204D
:10258000FFF7BAFE0121880200F04AF90121480252
:1025900000F046F9394800F065F9394800903948AB
:1025A0000190002402943020039004948027059722
:1025B0000694079420260896350209950A946946E0
:1025C0002E4800F09EF9012202212C4800F0BEF9AD
:1025D0002D4800F047F92A4800902C48019010201F
:1025E000029030200390049405970694079408966F
:1025F00009950A946946244800F083F901220221D2
:10260000214800F0A3F9224800F02CF9214800905D
:1026100021480190029402200390049405970694A7
:102620000794089609950A946946194800F069F9D3
:1026300001220221164800F089F9184800F012F929
:10264000174800901748019010200290192003901D
:102650000494059706940794089609950A94694688
:102660000E4800F04EF9012202210C4800F06EF9EC
:102670000BB0F0BD00300140003801401C000240AA
:102680000C3001409818002030000240381800201B
:102690005800024024380140421900204400024002
:1026A000283801400C19002070B582B06C460A2011
:1026B000207001256570A570684600F081F90B2037
:1026C00020706570A570684600F07AF906202070C9
:1026D00000266670A570684600F072F9052020702B
:1026E0006670A570684600F06BF973BD7047F0B571
:1026F00083B001210120FFF7FFFD0221002000F03F
:1027000099F80420009000276C4627711026667106
:102710000125A571684600F07DF90021002000F038
:1027200089F8009527716671A571684600F072F905
:10273000F7BDFEE7F0B58BB004000D002068012165
:102740008843206060682B490140A86808436060A6
:1027500020682949014068680843E96801432869FD
:1027600008432060A0682549014068690843A060CB
:102770006846FFF70FFD1C48844201D1069E0AE01F
:102780001A48844201D1079E05E01948844201D1CC
:10279000089E00E0029E2D682068000400D57600A7
:1027A00030002900FFF7B8F9070030002900FFF7D3
:1027B000B3F96808814200D37F1C2068000404D567
:1027C0001248384039074F0F0743A7810BB0F0BDBF
:1027D0000029016803D001220A43026070470122E8
:1027E0009143016070470000003801400044004000
:1027F00000480040FFCFFFFFF3E9FFFFFFFCFFFFB2
:10280000134083608268114381607047F0FF0000CD
:10281000002A826800D0F6E78A4382607047FEE7AC
:102820000E4A0029116802D00843106070478143A6
:102830001160704710B50200094B08000324A04343
:1028400018188B000C21194003680F248C40A343F7
:10285000036003688A401A43026010BD0000014013
:1028600008000140F0B50168484A0A4002600021B2
:10287000016041608160C1600F21454A454B98422B
:102880001FD0F023444CA04222D00C02434DA8425A
:1028900025D00D03424EB04228D00E04414FB8421D
:1028A0002BD01437B84202D1106809050AE014375A
:1028B000B84202D11068090604E03B4A3B4FB842D7
:1028C00003D1106801431160F0BD3949884203D13A
:1028D000106803431360F0BD1431884203D11068BF
:1028E00004431460F0BD1431884203D110680543DD
:1028F0001560F0BD1431884202D11068064316609D
:10290000F0BD02682B4B13408A681A430B6A1343CD
:102910000A691A434B6913438A691A43CB69134303
:102920004A6A1A438B6A13430360CA6842600A68A2
:1029300082604968C16070470029016802D00122A5
:102940000A4301E0114A0A4002607047002A026807
:1029500002D01143016070478A430260704700BF94
:1029600001000020CA0001D5134A00E0134A126892
:10297000114000D00120704700BFC10001D50A49B5
:1029800000E003490860704700000000FEFF0000FF
:1029900004000240080002401C00024030000240D7
:1029A000440002405800024004040240080402406F
:1029B0001C0402400F80FFFF0004024000000240A0
:1029C00070B501000C781F2201238878002816D0EA
:1029D0000D4D20000326B04328180568E600182492
:1029E0003440FF26A640B5434E78B607360EA640C3
:1029F0002E430660087802409340044802E02240DB
:102A000093400348036070BD00E400E000E100E093
:102A100080E100E030B50168CC431E498279002A8C
:102A200025D00A4613681C40146053680468A34309
:102A3000536003795B181C68056825431D60936823
:102A40000468A3439360D3680468A343D3604379C5
:102A50000468102B07D191680C439460D16800681A
:102A60000843D06030BD5B181868044303E0007968
:102A70004318186804401C6030BD00BF01000020EE
:102A8000054A1268114000D00120704702490860D1
:102A90007047000000040140140401404368934261
:102AA00001D3002070475A1C426018010818002109
:102AB000C943816041600021C1607047017042607C
:102AC00083600021C16070477AB5050019002C6849
:102AD00001E0401C28602868904218D2009B1B5CD3
:102AE0001E0014D0093E012E11D9361F0FD0133EFF
:102AF0000DD00C3E0BD00E3E09D0233E07D0203E19
:102B000005D0203B5F2BE4D32C60012009E0002995
:102B10000FD0069A2800FFF7C1FF002803D12C60D0
:102B20000020C04376BD2B6822000421FFF7C6FFBA
:102B30002868401E2860002076BDF8B50400206893
:102B4000050044E0069A01462000FFF7A7FF002891
:102B500002D1256000204DE023686A1C0321FFF7A5
:102B6000ADFF0020F2BD5C2830D15B1C93422DD21A
:102B70002360C85C222829D02F2827D05C2825D0A4
:102B8000622823D0662821D06E281FD072281DD03D
:102B900074281BD0752828D15B1C2360042023686F
:102BA000934210D2CE5C37000DD0303F0A2F06D3AF
:102BB0003700413F062F02D3613E062E15D25B1C23
:102BC0002360401EEBD12068401E20602068401C1E
:102BD0002060236893420BD2C85C060008D02228EC
:102BE000C1D100980028ADD1F2BD2560012001E0DF
:102BF00025600220C043F2BDFEB582B005006F68BB
:102C00000026F64365E07F1C049800285ED00A9AEF
:102C100001462800FFF742FF002801D13000B8E04C
:102C2000A968B14205D0049A09015118CA68521C1A
:102C3000CA607B2C01D1012100E0022101702968CA
:102C4000416064E00499002940D07D2C01D101212C
:102C500000E002216A4611706968491E1CD4049A7A
:102C60000B01D2185368B342F7D09368B342F4D142
:102C700013786C462478A34210D1AE60401C90605B
:102C800004980A0180184268B24202D08068B042BB
:102C90005FD0491E1AD4F3E7B14217D1012075E085
:102CA0000A980090049B039A02992800FFF745FFB9
:102CB00000286ED47F1CA868B04207D00499002970
:102CC00004D000010818C168491CC1602868401C74
:102CD000286028680399884248D202990C5C210038
:102CE00044D009390129F1D9091FEFD01339EDD0AA
:102CF000891ED5D00A390ED00E3908D0213982D09C
:102D0000891E9FD01E39FAD0891E9BD023E06868A7
:102D1000401EA860DAE704980028D7D0A868B0421F
:102D2000D4D004990001085C0228CFD00128CDD06E
:102D30006968491ECAD404980A0180180278022AD8
:102D400001D0012AF5D14268B242F2D08068B04287
:102D5000EFD1A960BAE70A980090049B039A029900
:102D60002800FFF7B1FE0028A4D512E0049800283F
:102D70000ED06968491E0BD404980A018018426875
:102D8000B242F7D08068B042F4D10220C04300E0E4
:102D9000380005B0F0BD002101604160C943816089
:102DA0007047FEE738B504001D0000206B46188010
:102DB00065200870012010700498694609886054E5
:102DC00068460088401C6946088005980988605458
:102DD00068460088401C694608806A4621000698BB
:102DE00000F066F9079869460988605468460088CB
:102DF000401C694608806A462100089880B200F0AD
:102E000042F96A462100099880B200F03CF96A460E
:102E100021000A9880B200F036F96A4621000B982A
:102E200080B200F030F968460088288031BD10B5C6
:102E300065240C7002211170029901700120188024
:102E400010BDF2B584B0040004206946888125795C
:102E50000620888103A9200000F03DF9684680899A
:102E6000401C6946888103A9200000F017F903A9D6
:102E7000200000F013F903A9200000F00FF903A9C6
:102E8000200000F00BF9642D00DB643D744F754E9B
:102E9000EDB2009533003A0073497448FFF7C7FF5D
:102EA00001200290049801902078009033883A78AD
:102EB0006D4801786D4800F06AF905B0F0BD38B58D
:102EC0000400042069460880207905216A461180A3
:102ED000674D00283CD16946200000F0DFF82968E2
:102EE00008806946200000F0D9F8296848806946C2
:102EF000200000F0D3F8296888806946200000F09F
:102F0000CDF82968C8806946200000F0C7F8296814
:102F100008816946200000F0C1F8296848816946A7
:102F2000200000F0D8F868606946200000F0D3F86F
:102F3000A8606946200000F0B1F800B22968086274
:102F40006946200000F0AAF800B22968486381E0D1
:102F500001285FD16079E9686C22885406206946AF
:102F60000880A079E9686D228854072069460880A6
:102F7000E079E9686E228854082069460880207A42
:102F8000E9686F228854092069460880607AE968F8
:102F9000702288540A2069460880A07AE968712264
:102FA00088540B2069460880E07AE96872228854C8
:102FB0000C2069460880207BE968732288540D2024
:102FC00069460880607BE968742288540E2069464F
:102FD00008802848A17BC1710F216A461180E17BDE
:102FE000017210211180217C417211211180617CBC
:102FF000817212211180A17CC17213211180E17CA8
:10300000017314211180217D417315211180617D8F
:1030100081731FE002281DD16946200000F03EF8B0
:1030200028856946200000F039F868856946200047
:1030300000F034F8A8856946200000F02FF8E885F4
:103040006946200000F02AF828866946200000F032
:1030500025F8688668682968496A086031BD0000FB
:10306000451900204019002044190020C8180020EC
:1030700004180020EC18002080B58020800000F0AB
:1030800001F801BD704710B5030A14880B55138869
:10309000C91848701088801C108010BD0A888018DC
:1030A00003781B0240781818921C0A8080B270477F
:1030B00010B5030E14880B55030C14880C1963709B
:1030C000030A14880C19A3701388C918C8701088D3
:1030D000001D108010BD10B50A88801803781B06EB
:1030E000447824041B19847824021B19C07818180A
:1030F000121D0A8010BDFEE780B500203D493E4A02
:103100000C234343D218116051609160401C7F280A
:10311000F5DB00F077F801BD7047F1B50F00160040
:10312000212B01D3202500E01D0000F07DF8079C35
:1031300004232200069900F07DF80120A070790098
:10314000012E09D10843E0702A000099201D00F0EB
:103150007DF82D1DA8B2F2BD022E01D1E170F3E77A
:103160008002FFF78FFF0020F2BD10B58CB002ACDB
:1031700001940E9C0094FFF7D0FFC2B2119902A8EF
:1031800000F092F83020109908800CB010BDF0B516
:1031900085B00D00140000216A461182174E0B9F66
:1031A000039604A9029101970A990091220029002F
:1031B000FFF7DBFF12483978D422520051434718F9
:1031C000D4376846028A3100F81D00F03FF86900E4
:1031D000012C02D101200843010079710C980028CC
:1031E00003D1380000F01EF802E0380000F01BF8B0
:1031F00005B0F0BD19310008101200206818002039
:103200002008002003480449016004494160044942
:1032100081607047CC160020432E000879300008EA
:10322000BF2E0008704770470148007870470000C3
:103230001800002070B504000D00160019003000C1
:1032400000F0B0F83470757070BDFEE7124207D020
:103250008B0706D00B78491C0370401C521EF7D810
:103260007047830706D00B78491C0370401C521E20
:10327000F9D1704770B4103A03D378C9103A78C0C6
:10328000FBD2530701D318C918C001D508C908C01B
:10329000D20704D30B880380891C801C002A01D527
:1032A0000B78037070BC7047F7B582B0002400271C
:1032B0000025AA223021039800F04CF8022069462C
:1032C000097C009102E03270401C7F1C00998F4203
:1032D00011D20299C9190A78039E3618ED2A03D033
:1032E000EE2A01D0E92AEED16D1CE922327009786C
:1032F0007170401CE8E74819154E6946097C7170E9
:10330000F570B070B179491CB171302806D3302105
:10331000039800F047F87471002017E0002705E0DB
:103320000399C91989786418E4B27F1C8742F7D3DE
:103330003471ED21039A1170039A507003990918A2
:103340008C70EE22CA70C01C7071C0B205B0F0BDA6
:10335000301900201206130A1A43130C1A4300BF37
:10336000094205D0830705D00270401C491EF9D1DF
:1033700070470000130030B414001500103902D358
:1033800010393CC0FCD2490700D30CC000D504C0A2
:10339000890002D30280801C002900D5027030BC55
:1033A000704700000022DBE7704780B5802189006C
:1033B0005548FEF764FEF9E770477047012053490E
:1033C000087053480188534A914201D0323100E0DD
:1033D000002101807047F0B5FFB088B00120FFF7F1
:1033E0004CFB002834D09026F605474C80256D0014
:1033F000308AC00725D5484F0521380000F098F8DD
:1034000029002000FEF73DFE387802281DD110214A
:103410003000FEF734FE54A8FEF7C6FD01A8FFF702
:10342000BAFC54A800F0AEF81421009104AB0200DD
:1034300054A901A8FFF7E0FB0421380000F078F858
:1034400003E029002000FEF71AFE0120FFF71EFB13
:103450007FB008B0F0BD10B50420FFF70EFB0028C8
:1034600014D02D4C2848802189002C4A12885207FC
:1034700003D5FEF706FE022102E0FEF700FE03215F
:10348000200000F055F80120FFF700FB10BD80B5CB
:1034900080208000FFF763FA002806D00021204832
:1034A000FFF74AFA802040000EE02020FFF757FA8D
:1034B00000280BD000211B48FFF73EFA1021902076
:1034C000C005FEF7DCFD1020FFF756FA01BD80B500
:1034D00080208001FFF743FA002806D0002112481F
:1034E000FFF72AFA802040010BE080208002FFF7DE
:1034F00036FA002807D000210C48FFF71DFA80207B
:103500004002FFF739FA01BD000800480000002022
:10351000020000206E0F0000010000201000004893
:10352000300002401C0002404400024058000240AB
:1035300030B5002208A35400A4181B1904781D7884
:10354000AC4205D15D78A94202D19978017030BDB5
:10355000521C0E2AEEDB30BD010003010100030204
:10356000020204040405060406050503030403031C
:10357000060805060707070908080A0909FF0000E9
:1035800005090000010000E0491C0A78002AFBD16F
:10359000081A704738B500244C4D05E000F058F883
:1035A0000021681CFFF7C4FF68780928FCD801A136
:1035B00009568F4472E6F208F2F21C20242844488F
:1035C0000088400703D50221681CFFF7B1FF0221E4
:1035D000E7E70721E5E70921E3E70A21E1E7022020
:1035E000FEF7A4FC01E000F083F868780928DBD13D
:1035F00028780128F9D12C7068880028F3D0AF21F1
:103600004900884207D04900884207D0FA21C90002
:10361000884206D0E9E700F08FF8E6E700F082F88C
:10362000E3E700F09EF8E0E768780028BCD128784E
:103630000128FCD12C706868401C686025498842CC
:10364000F5DB802189002448FEF74AFC6C60EBE73B
:10365000F0B589B0FFF750FD0020694608841F4F80
:103660001F4E204D204C079006900590049001209D
:103670000390002002900190009023002A00310066
:103680003800FFF78FFB1948039008A8029000202C
:1036900001902820009023882A7831783800FFF79D
:1036A00064FDFFF723F800F0AFF8FEF755FEFEF7D4
:1036B000FBFFFFF71CF8FEF75BFFFEF708FFFEF7C6
:1036C00032FF3220FEF710FC09B0F0BD00000020F0
:1036D000100000488813000000080048C8180020A7
:1036E00044190020451900204019002038180020F6
:1036F00010B5374C02E02000FEF725FD0121200027
:10370000FEF740FD0128F6D010219020C005FEF7FD
:10371000B8FC01212F48FFF70FF901212E48FFF7D0
:103720000BF910BD80B501212C48FFF705F90121E7
:103730002B48FFF701F901BD10B52A4C2A48417802
:103740001D2904D11722811D2000FFF77FFDE07D98
:10375000010001D1012002E0012801D10020E07523
:1037600010BDF0B589B000210020204A1278012355
:10377000D40900D001209209134001D01C4A01E075
:10378000C82292006B4619841A4F1B4E1B4D1C4CCD
:1037900007910691059104910121039102920190F4
:1037A0000020009023002A0031003800FFF7FAFAC9
:1037B0001448039008A8029000200190282000904F
:1037C00023882A7831783800FFF7CFFC09B0F0BDA4
:1037D000003001401C00024030000240580002400E
:1037E000440002400C1900209818002042190020C3
:1037F000E0FCFFFFC81800204419002045190020F4
:10380000401900203818002000B583B00121C804F9
:10381000FEF768FD6846012101710021C180032186
:1038200041710802009069460148FEF7F3FB07BDAD
:103830000008004882B03348016801220A43026050
:103840004168314A0A4042600168304A0A400260D9
:1038500001682F4A0A40026041682E4A0A404260CD
:10386000C16A0F229143C162016B2B4A0A40026375
:10387000416B0122914341630021816001910091DC
:10388000016812040A43026001688022920211401A
:1038900000910199491C01910099002904D10199D5
:1038A000A022D2019142EFD101688903CA0F009290
:1038B0000099012924D11121184A11604168416001
:1038C000416841604168164A0A4042604168882266
:1038D00052030A4342600168802252040A43026094
:1038E00001688901FCD54168032291434160416828
:1038F00002220A43426041680C220A40082AFAD197
:1039000002B07047001002400CB8FFF8FFFFF6FE4F
:10391000FFFFFBFFFFFFC0FFACFEFFFF00200240E8
:10392000FF7FC0FF094880F3088804200168090E62
:103930001F22914205D1064801210160054800215E
:103940000160054880470548004700002008002026
:103950001810024000000140353800087D3A000888
:1039600070B40121002213E00468001D0C4202D053
:103970004D466D1E64192260241D1B1F042BFAD2B4
:1039800025009E0701D52280AD1C0B4000D02A7077
:103990000368001D002BE7D170BC704730B40121D3
:1039A0000268001D002A0FD00368C318446808305D
:1039B0000C4202D04D466D1E64191D6825601B1D0A
:1039C000241D121FECD0F8E730BC704710B5074932
:1039D00079441831064C7C44163404E0081D0A680A
:1039E000891888470100A142F8D110BD08000000E5
:1039F000280000006DFFFFFF2811000020080020B4
:103A00000000000099FFFFFF1C00000054000000B0
:103A1000000000200000000000F00BF8002801D09A
:103A2000FFF7D4FF002000BF00BFFFF7B3FD00F099
:103A300002F80120704780B500F002F801BDFEE7F2
:103A40000746384600F002F8FBE7FEE780B500BF06
:103A500000BF024A11001820ABBEFBE7260002009F
:103A6000000100000000000000000000010203044B
:103A700001020304060708090A01000000BF00BF95
:103A800000BF00BFFFF7C8FFFEE7FEE7FEE7FEE767
:103A9000FEE7FEE7FEE7FEE7FEE7FEE7FEE7FEE7FE
:043AA000FEE7FEE758
:0400000508003A7D38
:00000001FF
