:020000040800F2
:10000000200400205D160008711400087314000815
:1000100000000000000000000000000000000000E0
:10002000000000000000000000000000751400083F
:100030000000000000000000771400087914000898
:10004000AB03000803080008EB0A0008EF0A0008E9
:10005000430E000893140008970F00087717000854
:1000600083170008C1170008CB1400080B150008FF
:10007000C3170008C5170008C7170008C9170008EC
:10008000CB170008CD17000800000000CF170008AC
:10009000D1170008D3170008D5170008D717000894
:1000A000D9170008DB170008DD170008DF17000864
:1000B000E117000800000000E3170008000000003E
:1000C00080B50121954800F019FA0121012000F0C6
:1000D0001FFA0121924800F01BFA01BD80B50121F1
:1000E000480200F045FA0121880200F041FA00219F
:1000F000002000F047FA01BDF0B583B000220521D1
:100100009020C00500F08FFA002207219020C00542
:1001100000F089FA002206219020C00500F083FA41
:1001200002276C4627710026A671E77103206071D3
:10013000E020009069469020C00500F03BFA0125C0
:100140002571A671E5710320607110200090694649
:100150009020C00500F02EFA01220921C80600F007
:1001600062FA01220A219020C00500F05CFA277192
:10017000A671E571032060714002009069469020ED
:10018000C00500F017FA00952671E77169469020C6
:10019000C00500F00FFAF7BD10B586B0614C200025
:1001A00000F052FA002069460880822252004A80FC
:1001B000E022D2008A80C8800881620D4A81202214
:1001C0008A81C88107200882200000F058FAA10C1B
:1001D000200000F082FA01220121200000F08EFAB6
:1001E00001220221200000F089FA0121200000F004
:1001F0006AFA06B010BD10B586B0E120800200900A
:10020000002001900290039005900C200490464C31
:100210006946200000F080FA01228021200000F0D1
:10022000E9FA01224021200000F0E4FA0121200037
:1002300000F0C0FA06B010BDF0B58BB03B4800F03E
:10024000E1FA3B4800903B480190002402943020A2
:100250000390049480270597069407942026089617
:10026000350209950A946946304800F01AFB0122CC
:1002700002212E4800F03AFB2F4800F0C3FA2C4828
:1002800000902E480190102002903020039004949A
:10029000059706940794089609950A946946264896
:1002A00000F0FFFA01220221234800F01FFB24483E
:1002B00000F0A8FA234800902348019002940220FD
:1002C00003900494059706940794089609950A9458
:1002D00069461B4800F0E5FA01220221184800F0A7
:1002E00005FB1A4800F08EFA194800901948019051
:1002F0001020029019200390049405970694079407
:10030000089609950A946946104800F0CAFA012235
:1003100002210E4800F0EAFA0BB0F0BD0100020025
:100320000150000000300140003801401C00024034
:100330000C30014098140020300002403814002096
:100340005800024024380140321500204400024089
:10035000283801400C15002038B56C460A20207062
:1003600001256570A570684600F0FAFA0B20207030
:100370006570A570684600F0F3FA05202070002033
:100380006070A570684600F0EBFA31BD704700B5AB
:1003900083B001200090694600220A7110224A7140
:1003A0008871684600F006FB07BDFEE7F0B5040063
:1003B0000020514D2968654E0C220A40082A02D0BF
:1003C0000C2A17D018E0286829688002070FBF1C84
:1003D000C0204002084003D138007108484307E0BC
:1003E000A96A30000907090F491C00F027FB784370
:1003F000010002E0564900E0310021602B685549B8
:1004000022681B061B0FCB5CDA4062602B685B0521
:100410005B0FC95CCA40A260E96AC90501D44E49B4
:1004200005E02968490401D4510800E09108E16021
:1004300080210902EA6A520601D4484A00E00A0013
:100440002261EA6AD20601D4320000E022686261C9
:100450000322EB6A134001D1A26804E0EB6A134067
:10046000012B02D12268A2610AE0EB6A1340022B41
:1004700001D1A16104E0EB6A1A40032A00D1A66110
:10048000C0229202EB6A134001D1A26805E0EB6A38
:1004900013404F00BB4202D12268E2610BE0EB6ADD
:1004A00013408F00BB4201D1E16104E0EB6A1340CD
:1004B000934200D1E661C0221203EB6A134001D1DE
:1004C000A1680BE0EB6A1340CF00BB4201D1216869
:1004D00004E0EB6A13400F01BB4201D1216204E04A
:1004E000E96A1140914200D12662E96A090600D406
:1004F00017486062F0BD000004100240184A00294D
:10050000116802D008431060704781431160704742
:10051000144A0029116802D00843106070478143D3
:1005200011607047104A0029116802D0084310601A
:1005300070478143116070470C4A0029116802D04E
:1005400008431060704781431160704700127A00C1
:10055000006CDC0208000020809FD50012800000A3
:1005600014100240181002400C10024010100240FB
:100570000E4A0029116802D0084310607047814379
:100580001160704710B50200094B08000324A04316
:1005900018188B000C21194003680F248C40A343CA
:1005A000036003688A401A43026010BD00000140E6
:1005B00008000140F0B5002301229A400C68144065
:1005C000944228D15C000326A640F5430E79012E03
:1005D00001D0022E0FD186682E40866086684F7942
:1005E000A7403743876086889643868082888E79C5
:1005F0009E401643868002682A40026002680E7997
:10060000A64016430660C2681540C560C268CD7931
:10061000A5401543C5605B1C102BCDD3F0BD816197
:1006200070470185704710B5CB089B00C0188B0040
:100630001C211940036A0F248C40A3430362036A00
:100640008A401A43026210BD10B52549884209D17B
:100650008C0C01212000FFF765FF00212000FFF72F
:1006600061FF10BD1F49884208D10C0C01212000F8
:10067000FFF762FF00212000FFF75EFF10BD028838
:10068000C1239B0113400A881A43CB891343CA88AC
:100690001A430B8913434A891A438B8913430380F6
:1006A0008288114B13408A881A4382800A8A028208
:1006B00002880E4B1340498819430180818B0C4AF4
:1006C0000A40828370470029018802D040220A43F1
:1006D00001E0084A0A40028070478288064B15E014
:1006E0000030014000380040FFF00000FBFF000038
:1006F000FFF70000BFFF0000FFEF0000002A828824
:1007000000D006E08A438280704700001340838057
:100710008288114381807047F0B58BB004000D00D2
:10072000206801218843206060682B490140A86847
:100730000843606020682949014068680843E96807
:100740000143286908432060A06825490140686981
:100750000843A0606846FFF729FE1C48844201D187
:10076000069E0AE01A48844201D1079E05E0194816
:10077000844201D1089E00E0029E2D68206800049A
:1007800000D576003000290000F058F9070030004D
:10079000290000F053F96808814200D37F1C2068CB
:1007A000000404D51248384039074F0F0743A7818A
:1007B0000BB0F0BD0029016803D001220A4302609A
:1007C00070470122914301607047000000380140EA
:1007D0000044004000480040FFCFFFFFF3E9FFFF67
:1007E000FFFCFFFF13408360826811438160704704
:1007F000F0FF0000002A826800D0F6E78A4382609A
:100800007047FEE7F0B50168484A0A4002600021DF
:10081000016041608160C1600F21454A454B9842AB
:100820001FD0F023444CA04222D00C02434DA842DA
:1008300025D00D03424EB04228D00E04414FB8429D
:100840002BD01437B84202D1106809050AE01437DA
:10085000B84202D11068090604E03B4A3B4FB84257
:1008600003D1106801431160F0BD3949884203D1BA
:10087000106803431360F0BD1431884203D110683F
:1008800004431460F0BD1431884203D1106805435D
:100890001560F0BD1431884202D11068064316601D
:1008A000F0BD02682B4B13408A681A430B6A13434E
:1008B0000A691A434B6913438A691A43CB69134384
:1008C0004A6A1A438B6A13430360CA6842600A6823
:1008D00082604968C16070470029016802D0012226
:1008E0000A4301E0114A0A4002607047002A026888
:1008F00002D01143016070478A430260704700BF15
:1009000001000020CA0001D5134A00E0134A126812
:10091000114000D00120704700BFC10001D50A4935
:1009200000E003490860704700000000FEFF00007F
:1009300004000240080002401C0002403000024057
:1009400044000240580002400404024008040240EF
:100950001C0402400F80FFFF000402400000024020
:1009600070B501000C781F2201238878002816D06A
:100970000D4D20000326B04328180568E600182412
:100980003440FF26A640B5434E78B607360EA64043
:100990002E430660087802409340044802E022405B
:1009A00093400348036070BD00E400E000E100E014
:1009B00080E100E030B50168CC431E498279002A0D
:1009C00025D00A4613681C40146053680468A3438A
:1009D000536003795B181C68056825431D609368A4
:1009E0000468A3439360D3680468A343D360437946
:1009F0000468102B07D191680C439460D16800689B
:100A00000843D06030BD5B181868044303E00079E8
:100A10004318186804401C6030BD00BF010000206E
:100A2000054A1268114000D0012070470249086051
:100A30007047000000040140140401400022030A32
:100A40008B420BD203098B4219D243088B422ED220
:100A5000411A00D20146524110467047FF22090256
:100A60003FD012068B4205D3121209028B4201D3EA
:100A70001212090203098B4219D300E0090AC309C3
:100A80008B4201D3CB01C01A524183098B4201D35F
:100A90008B01C01A524143098B4201D34B01C01A4A
:100AA000524103098B4201D30B01C01A5241C308C2
:100AB0008B4201D3CB00C01A524183088B4201D331
:100AC0008B00C01A524143088B4201D34B00C01A1D
:100AD0005241884200D3401A5241CFD201461046BB
:100AE000704708B500F002F808BDFEE77047FEE762
:100AF00038B504001D0000206B4618806520087082
:100B0000012010700498694609886054684600887E
:100B1000401C69460880059809886054684600882A
:100B2000401C694608806A462100069800F066F974
:100B3000079869460988605468460088401C6946E1
:100B400008806A462100089880B200F042F96A469F
:100B50002100099880B200F03CF96A4621000A9809
:100B600080B200F036F96A4621000B9880B200F09E
:100B700030F968460088288031BD10B565240C70B6
:100B800002211170029901700120188010BDF2B588
:100B900084B0040004206946888125790620888174
:100BA00003A9200000F03DF968468089401C694691
:100BB000888103A9200000F017F903A9200000F0A4
:100BC00013F903A9200000F00FF903A9200000F099
:100BD0000BF9642D00DB643D744F754EEDB200954A
:100BE00033003A0073497448FFF7C7FF01200290B1
:100BF000049801902078009033883A786D48017805
:100C00006D4800F06AF905B0F0BD38B50400042065
:100C100069460880207905216A461180674D0028C1
:100C20003CD16946200000F0DFF829680880694659
:100C3000200000F0D9F8296848806946200000F0BB
:100C4000D3F8296888806946200000F0CDF829682B
:100C5000C8806946200000F0C7F829680881694605
:100C6000200000F0C1F8296848816946200000F0A2
:100C7000D8F868606946200000F0D3F8A86069469B
:100C8000200000F0B1F800B229680862694620002F
:100C900000F0AAF800B22968486381E001285FD11A
:100CA0006079E9686C228854062069460880A0793A
:100CB000E9686D228854072069460880E079E96870
:100CC0006E228854082069460880207AE9686F22DD
:100CD0008854092069460880607AE968702288543F
:100CE0000A2069460880A07AE968712288540B209E
:100CF00069460880E07AE968722288540C206946C7
:100D00000880207BE968732288540D20694608809A
:100D1000607BE968742288540E2069460880284860
:100D2000A17BC1710F216A461180E17B0172102104
:100D30001180217C417211211180617C817212210C
:100D40001180A17CC17213211180E17C01731421F7
:100D50001180217D417315211180617D81731FE018
:100D600002281DD16946200000F03EF8288569461A
:100D7000200000F039F868856946200000F034F85A
:100D8000A8856946200000F02FF8E8856946200014
:100D900000F02AF828866946200000F025F86886C9
:100DA00068682968496A086031BD0000351500206F
:100DB0003015002034150020C81400200414002031
:100DC000EC14002080B58020800000F001F801BD07
:100DD000704710B5030A14880B551388C91848705A
:100DE0001088801C108010BD0A88801803781B02B0
:100DF00040781818921C0A8080B2704710B5030E14
:100E000014880B55030C14880C196370030A14889A
:100E10000C19A3701388C918C8701088001D1080A1
:100E200010BD10B50A88801803781B064478240486
:100E30001B19847824021B19C0781818121D0A8007
:100E400010BDFEE780B500203D493E4A0C234343D8
:100E5000D218116051609160401C7F28F5DB00F0D2
:100E600077F801BD7047F1B50F001600212B01D3B3
:100E7000202500E01D0000F07DF8079C04232200DF
:100E8000069900F07DF80120A0707900012E09D1AB
:100E90000843E0702A000099201D00F07DF82D1D08
:100EA000A8B2F2BD022E01D1E170F3E78002FFF794
:100EB0008FFF0020F2BD10B58CB002AC01940E9CE7
:100EC0000094FFF7D0FFC2B2119902A800F092F887
:100ED0003020109908800CB010BDF0B585B00D0021
:100EE000140000216A461182174E0B9F039604A935
:100EF000029101970A99009122002900FFF7DBFF78
:100F000012483978D422520051434718D4376846E2
:100F1000028A3100F81D00F03FF86900012C02D16F
:100F200001200843010079710C98002803D1380092
:100F300000F01EF802E0380000F01BF805B0F0BD2C
:100F4000650E0008100E0020681400202004002008
:100F500003480449016004494160044981607047C5
:100F6000CC1200208F0B0008C50D00080B0C0008E8
:100F70007047704701480078704700001800002053
:100F800070B504000D0016001900300000F0B0F834
:100F90003470757070BDFEE7124207D08B0706D023
:100FA0000B78491C0370401C521EF7D8704783070A
:100FB00006D00B78491C0370401C521EF9D17047B3
:100FC00070B4103A03D378C9103A78C0FBD25307F3
:100FD00001D318C918C001D508C908C0D20704D365
:100FE0000B880380891C801C002A01D50B780370B4
:100FF00070BC7047F7B582B0002400270025AA22F4
:101000003021039800F04CF802206946097C0091D9
:1010100002E03270401C7F1C00998F4211D202996D
:10102000C9190A78039E3618ED2A03D0EE2A01D09A
:10103000E92AEED16D1CE922327009787170401CEA
:10104000E8E74819154E6946097C7170F570B07073
:10105000B179491CB171302806D33021039800F0D2
:1010600047F87471002017E0002705E00399C919BB
:1010700089786418E4B27F1C8742F7D33471ED217C
:10108000039A1170039A5070039909188C70EE221C
:10109000CA70C01C7071C0B205B0F0BD2815002028
:1010A0001206130A1A43130C1A4300BF094205D053
:1010B000830705D00270401C491EF9D1704700001B
:1010C000130030B414001500103902D310393CC09D
:1010D000FCD2490700D30CC000D504C0890002D35C
:1010E0000280801C002900D5027030BC70470000CF
:1010F0000022DBE738B50024494D05E000F04EF84A
:101100000021681C00F09CF86878401E0828FBD875
:1011100001A109568F4400BF5CE4F00AF00E1216DC
:101120001E000421EDE70621EBE70821E9E709218C
:10113000E7E700F0A9F868780928E5D128780128C0
:10114000F9D12C7068880028F3D0AF21490088427B
:1011500007D04900884207D0FA21C900884206D04A
:10116000E9E700F0AAF8E6E700F09DF8E3E700F011
:10117000B9F8E0E768780128C6D128780128F9D1C4
:101180002C706868401C686026498842F2DB802128
:101190004900254800F028F96C60EBE7F0B589B00C
:1011A000FFF750FE002069460884204F204E214D55
:1011B000214C079006900590049001200390002098
:1011C00002900190009023002A0031003800FFF7C0
:1011D0008FFC1A48039008A8029000200190282054
:1011E000009023882A7831783800FFF764FEFEF7F4
:1011F00067FFFFF7CBF8FEF771FF00F023F9FEF76A
:101200007BFFFFF7A9F8FFF7C2F8FFF715F8FEF725
:10121000C3FFFEF7F0FF322000F0EAF809B0F0BD9E
:10122000000000208813000000080048C8140020B7
:10123000341500203515002030150020381400200A
:1012400030B5002208A35400A4181B1904781D7897
:10125000AC4205D15D78A94202D19978017030BDC8
:10126000521C0A2AEEDB30BD020003020101030218
:10127000040404060405050503030607050606071E
:10128000070808080909000080B510219020C00552
:10129000FFF7C7F901213948FFF71EFB0121384844
:1012A000FFF71AFB01BD80B501213648FFF714FB9B
:1012B00001213548FFF710FB01BD10B5334C344810
:1012C00041781D2904D11722811D2000FFF764FEFB
:1012D000E07D010001D1012002E0012801D10020C0
:1012E000E07510BDF0B589B00027002401252E025D
:1012F00028480078C00905D031002748FFF78FF94A
:10130000012403E031002448FFF78BF921480078DD
:101310008009054005D031001F48FFF780F91F48BC
:1013200005E031001C48FFF77CF9C82080006946C1
:101330000F841B4F1B4E1C4D0021079106910591F8
:1013400004910121039102900194002000902B0050
:10135000320039001548FFF7CBFB1548039008A869
:10136000029000200190282000902B883278397854
:101370000E48FFF7A0FD09B0F0BD00001C000240C0
:101380003000024058000240440002400C1500208A
:10139000981400203215002000080048E0FCFFFFF0
:1013A000341500203515002030150020C814002009
:1013B0003814002010B5C20018231340FF249C40AD
:1013C000E2438907090E9940002801D4194B03E034
:1013D000194B0007000F08388008800018180368B0
:1013E0001A401143016010BD828A514081827047CA
:1013F00030B58BB004006846FEF7D8FF01980F495E
:10140000FFF71CFB6043401E0024E4438021490495
:10141000884209D20A4D686003212000FFF7CAFF05
:101420000020A8600720286000212000FFF7C2FFED
:101430000BB030BD00E400E01CED00E040420F00C6
:1014400010E000E000B583B00121C804FFF756F8B2
:101450006846012101710021C18003214171080208
:10146000009069460148FFF7A5F807BD000800484D
:101470007047FEE7704770470120324908703248D4
:101480000188324A914201D0323100E000210180CE
:10149000704710B50120FFF7C0FA002814D02C4C7B
:1014A0002C48802189002C4A1288D20703D5FFF7E7
:1014B000B8F8022102E0FFF7B2F803212000FFF79D
:1014C000BFFE0120FFF7B2FA10BD80B5802080007A
:1014D000FFF715FA002806D000212048FFF7FCF995
:1014E000802040000EE02020FFF709FA00280BD0F2
:1014F00010219020C005FFF792F800211848FFF74F
:10150000EBF91020FFF708FA01BD80B580208001BB
:10151000FFF7F5F9002806D000211248FFF7DCF9A3
:10152000802040010BE080208002FFF7E8F90028CE
:1015300007D000210C48FFF7CFF980204002FFF7C9
:10154000EBF901BD00000020020000206E0F00003A
:101550000100002000080048100000483000024050
:101560001C000240440002405800024082B0334850
:10157000016801220A4302604168314A0A40426020
:101580000168304A0A40026001682F4A0A4002603E
:1015900041682E4A0A404260C16A0F229143C162EB
:1015A000016B2B4A0A400263416B01229143416364
:1015B0000021816001910091016812040A430260D8
:1015C000016880229202114000910199491C019109
:1015D0000099002904D10199A022D2019142EFD1B2
:1015E00001688903CA0F00920099012924D11121B1
:1015F000184A116041684160416841604168164A7B
:101600000A4042604168882252030A4342600168EE
:10161000802252040A43026001688901FCD54168B6
:10162000032291434160416802220A4342604168BB
:101630000C220A40082AFAD102B07047001002407A
:101640000CB8FFF8FFFFF6FEFFFFFBFFFFFFC0FF38
:10165000ACFEFFFF00200240FF7FC0FF094880F37F
:10166000088804200168090E1F22914205D106480E
:1016700001210160054800210160054880470548B7
:101680000047000020040020181002400000014024
:101690006D150008B517000870B40121002213E091
:1016A0000468001D0C4202D04D466D1E6419226074
:1016B000241D1B1F042BFAD225009E0701D5228072
:1016C000AD1C0B4000D02A700368001D002BE7D131
:1016D00070BC704730B401210268001D002A0FD091
:1016E0000368C318446808300C4202D04D466D1E92
:1016F00064191D6825601B1D241D121FECD0F8E71E
:1017000030BC704710B5074979441831064C7C4409
:10171000163404E0081D0A68891888470100A142B0
:10172000F8D110BD08000000280000006DFFFFFF89
:1017300018110000200400200000000099FFFFFFA6
:101740001C00000054000000000000200000000009
:1017500000F00BF8002801D0FFF7D4FF002000BFF5
:1017600000BFFFF7C7FC00F002F80120704780B50A
:1017700000F002F801BDFEE70746384600F002F827
:10178000FBE7FEE780B500BF00BF024A110018204A
:10179000ABBEFBE7260002000002000000000000D4
:1017A0000000000001020304010203040607080907
:1017B0000A00000000BF00BF00BF00BFFFF7C8FF66
:1017C000FEE7FEE7FEE7FEE7FEE7FEE7FEE7FEE7F1
:1017D000FEE7FEE7FEE7FEE7FEE7FEE7FEE7FEE7E1
:0417E000FEE7FEE73B
:04000005080017B523
:00000001FF
