:020000040800F2
:1000000018040020412400086D2100086F21000819
:1000100000000000000000000000000000000000E0
:100020000000000000000000000000007321000834
:100030000000000000000000752100087721000882
:10004000130B0008CB100008CF1000089B15000808
:10005000971700089D210008F5210008031C0008DF
:100060008725000893250008372200087B22000816
:10007000CD250008CF250008D1250008D32500088C
:10008000D5250008D725000800000000D925000864
:10009000DB250008DD250008DF250008E125000834
:1000A000E3250008E5250008E7250008E925000804
:1000B000EB25000800000000ED250008000000000E
:1000C00000B583B001218020800200F09BFB00205E
:1000D0006946087101206946C8710420009069468C
:1000E0009020C00500F0E6FB01218020800200F096
:1000F00089FB00206946087100206946C87101200B
:10010000009069469020C00500F0D4FB01218020BA
:10011000800200F077FB02206946087100206946E2
:10012000887103206946487100206946C871202003
:10013000009069469020C00500F0BCFB01218020A2
:10014000800200F05FFB02206946087100206946CA
:10015000887103206946487100206946C871802073
:10016000009069469020C00500F0A4FB012180208A
:10017000800200F047FB02206946087100206946B2
:10018000887103206946487100206946C871402083
:10019000009069469020C00500F08CFB0121802072
:1001A000800200F02FFB012069460871002069469B
:1001B000887100206946C871032069464871102083
:1001C000009069469020C00500F074FB012180205A
:1001D000800200F017FB0120694608710020694683
:1001E000887100206946C87103206946487108205B
:1001F000009069469020C00500F05CFB0121802042
:10020000800200F0FFFA022069460871002069466A
:10021000887100206946C8710320694648718020B2
:100220008000009069469020C00500F043FB01214A
:100230008020800200F0E6FA022069460871002062
:100240006946887100206946C87103206946487173
:100250008020C000009069469020C00500F02AFB75
:10026000002205219020C00500F088FB0022072114
:100270009020C00500F082FB002206219020C005DE
:1002800000F07CFB012209219020C00500F076FBE4
:1002900001220A219020C00500F070FB202190204F
:1002A000C00500F069FB80219020C00500F061FBD3
:1002B00040219020C00500F05CFB08219020C00583
:1002C00000F057FB10219020C00500F052FB802168
:1002D00089009020C00500F04CFB8021C9009020CF
:1002E000C00500F046FB07BD00B585B001218020A8
:1002F000400100F097FA7D4800F074FB0020694649
:1003000008808220400069464880E020C00069469D
:10031000888000206946C8800020694608818020C6
:10032000800069464881202069468881002069460E
:10033000C88107206946088269466C4800F070FB56
:1003400080214901694800F0A9FB0121674800F0BC
:1003500097FB05B000BD00B587B001218020C0012A
:1003600000F060FAE120800200900020019000205F
:10037000029000200390002005900C200490694614
:100380005B4800F0C7FB01228021594800F050FC77
:1003900001224021564800F04BFC0121544800F056
:1003A0002BFC07B000BD00B58BB00121012000F08F
:1003B00029FA0121012000F035FA01218020C00036
:1003C00000F042FC01218020800000F03DFC494803
:1003D00000F07AFC484800904848019000200290C4
:1003E000302003900020049080200590002006908B
:1003F0000020079020200890802080010990002094
:100400000A9069463B4800F0ECFC01220221394881
:1004100000F016FD3A4800F057FC37480090394884
:100420000190102002903020039000200490802042
:100430000590002006900020079020200890802042
:100440008001099000200A9069462D4800F0C9FCFF
:10045000012202212A4800F0F3FC2B4800F034FC72
:100460002A4800902A480190002002900220039020
:100470000020049080200590002006900020079026
:100480002020089080208001099000200A90694671
:100490001D4800F0A6FC012202211B4800F0D0FC00
:1004A0001C4800F011FC1C4800901C4801901020D2
:1004B00002901920039000200490802005900020D5
:1004C000069000200790202008908020800109904D
:1004D00000200A9069460F4800F083FC01220221A7
:1004E0000C4800F0ADFC0BB000BD00000030014036
:1004F000003801401C0002400C30014078180020F8
:1005000030000240181800205800024024380140F2
:100510001C1900204400024028380140EC1800203B
:1005200080B50A206946087001206946487001209C
:1005300069468870684600F0D3FC0B206946087055
:10054000012069464870012069468870684600F0BD
:10055000C7FC0620694608700020694648700120E3
:1005600069468870684600F0BBFC05206946087043
:10057000002069464870012069468870684600F08E
:10058000AFFC01BD704700B583B00121012000F030
:1005900049F90221002000F067FB042000900020B0
:1005A00069460871102069464871012069468871C2
:1005B000684600F0D1FC0021002000F055FB01202E
:1005C000009000206946087110206946487101209A
:1005D00069468871684600F0BFFC07BDFEB504009F
:1005E00000250026002002900020019000200090AD
:1005F0000027944800680C2101400D0028000028C5
:1006000006D0042807D0082808D00C2829D02BE0D1
:100610008D4820602AE08C48206027E089480068E7
:10062000F021890301400E0086480068C02149027C
:1006300001400291B60CB61C0298002803D18348F1
:10064000704307000BE08A4800680007000F401C59
:1006500001907D48019900F0E1FC7043070027609C
:1006600004E08C48206001E077482060754800680D
:10067000F02101400D002D098748405D0090206861
:100680000099C84060606F480068E021C9000140DF
:100690000D002D0A8048405D009060680099C840B8
:1006A000A06057480068C00502D47C48E0600AE0BA
:1006B00064480068400403D4A0684008E06002E099
:1006C000A0688008E0604E480068400602D4744884
:1006D000206102E080200002206149480068C006D5
:1006E00002D45948606101E02068606144480068B4
:1006F0008007800F002802D1A068A0611AE040485E
:1007000000688007800F012802D12068A06111E0F5
:100710003B4800688007800F022803D18020000238
:10072000A06107E0364800688007800F032801D1E8
:100730004548A06132480068C02189020140002973
:1007400002D1A068E06123E02D480068C021890241
:10075000014080204002814202D12068E06117E020
:1007600027480068C0218902014080208002814220
:1007700003D180200002E0610AE021480068C02126
:1007800089020140C0208002814201D12E48E061EF
:100790001B480068C02109030140002902D1A0685C
:1007A000206223E016480068C02109030140802030
:1007B000C002814202D12068206217E01048006820
:1007C000C0210903014080200003814203D1802021
:1007D000000220620AE00A480068C02109030140C3
:1007E000C0200003814201D11748206204480068FC
:1007F000000602D42748606200E06762F7BD00008F
:100800003010024000B5C9B2002905D0254A12684F
:100810000243244B1A6004E0224A12688243214BAF
:100820001A6000BD00B5C9B2002905D01E4A126881
:1008300002431D4B1A6004E01B4A126882431A4BA4
:100840001A6000BD0410024000127A0000093D0049
:1008500000B5C9B2002905D0144A12680243134BEF
:100860001A6004E0114A12688243104B1A6000BDFE
:100870002C10024000B5C9B2002905D00C4A1268FC
:1008800002430B4B1A6004E0094A12688243084B8A
:100890001A6000BD006CDC0204000020809FD500BF
:1008A0001280000014100240181002400C10024088
:1008B00010100240F0B500220023002400252A0079
:1008C000102A55D2012595402B000D681D402C00A3
:1008D0009C424BD10D79012D02D00D79022D1DD1F5
:1008E00086680327BC46150002277D436746AF4054
:1008F000BE43866086684F79BC46150002277D435B
:100900006746AF4037438760858801269640B543E8
:10091000858085888E7996402E43868006680327D9
:10092000BC46150002277D436746AF40BE430660C4
:1009300006680F79BC46150002277D436746AF4025
:1009400037430760C6680327BC46150002277D436E
:100950006746AF40BE43C660C668CF79BC46150047
:1009600002277D436746AF403743C760521CA7E765
:10097000F0BD89B28161704701857047F8B40023EA
:100980000024D2B20D006D076D0F042675431600CA
:10099000AE40330089B2CD10042675434519009549
:1009A00089B2CD100426754345192F6A0F25AC4630
:1009B0000D006E07760F04256E436546B540AF43C4
:1009C000009D2F6289B2CD100426754345192D6A0A
:1009D0001D432C0089B2CD100426754345192C62A5
:1009E000F1BC704710B50400364884420AD1012199
:1009F00080204001FFF72CFF002180204001FFF7FD
:100A000027FF0CE03048844209D101218020C00139
:100A1000FFF730FF00218020C001FFF72BFF10BD42
:100A200030B40023028813001A00C1239B01134035
:100A30001A000B88CC891C43CB8823430C891C43A8
:100A40004D8925438B892B431343038082881300F0
:100A50001A00244B13401A008B88134383800A8AA0
:100A60000282028813001A001F4B13401A004B88A1
:100A700013430380828B1D4C1440848330BC704729
:100A800000B5C9B2002904D0028840231343038073
:100A900003E00288164B1340038000BD8288154B8B
:100AA0001340838082880A438280704700220200BC
:100AB0000C32117070470100002008000C300078E3
:100AC00070470000003001400038004000B5D2B24D
:100AD000002A03D083880B43838002E083888B4302
:100AE000838000BDFFF00000FBFF0000FFF7000067
:100AF000BFFF0000FFEF000000B5020000201389D7
:100B00000B4202D00123180001E000231800C0B2FC
:100B100000BDFEE7F0B58BB006000F0000250020F9
:100B20000090002430680121884330607068040020
:100B300020003B4C04402000BC68044374603068D3
:100B400004002000374C04407868F9680143386994
:100B50000843204304003460B06804002000324C95
:100B6000044020007C690443B46001A8FFF736FD0F
:100B70002848864202D1079800900DE02648864218
:100B800002D10898009007E02448864202D10998D3
:100B9000009001E003980090306800040ED50098A2
:100BA00002214843396800F039FA05000098022113
:100BB0004843396800F032FA0C0009E000983968BF
:100BC00000F02CFA05000098396800F027FA0C00B4
:100BD00038684008844200D36D1C3068000407D593
:100BE00068084007400F04002800104D05402543C9
:100BF0002800B0810BB0F0BD00B5C9B2002904D007
:100C0000026801231343036003E0026801239A434F
:100C1000026000BD00380140004400400048004030
:100C2000FFCFFFFFF3E9FFFFFFFCFFFFF0FF000036
:100C300000B5D2B2002A03D083680B43836002E080
:100C400083688B43836000BD00B5C9B2002905D01D
:100C50001B4A126802431A4B1A6004E0184A1268D1
:100C60008243174B1A6000BD70B400220F238C071B
:100C7000A40F04256C43A3401A00124BC9B28C1078
:100C800004256C431B5993430E4CC9B28D100426A6
:100C9000754363510B4BC9B28C1004256C431C592E
:100CA000C0B28D07AD0F04235D430300AB40234367
:100CB000044CC9B28D1004267543635170BC704753
:100CC000000001400800014000B50168724A0A4076
:100CD000026000210160002141600021816000214B
:100CE000C1606E49884206D16D4909680F220A43E6
:100CF0006B490A6074E06B49884206D1684909680B
:100D0000F0220A4366490A606AE06749884207D1CF
:100D100063490968F02212010A4361490A605FE0F1
:100D20006249884207D15E490968F02212020A43EB
:100D30005B490A6054E05E49884207D15849096816
:100D4000F02212030A4356490A6049E05949884291
:100D500007D153490968F02212040A4350490A6036
:100D60003EE05549884207D14D490968F0221205F5
:100D70000A434B490A6033E05049884206D1504942
:100D800009680F220A434E490A6029E04D4988420A
:100D900006D14B490968F0220A4349490A601FE01D
:100DA0004949884207D146490968F02212010A439D
:100DB00043490A6014E04549884207D1404909681F
:100DC000F02212020A433E490A6009E04049884283
:100DD00006D13B490968F02212030A4338490A60E8
:100DE00000BD30B40023026813001A00394B1340D1
:100DF0001A008B680C6A1C430B6923434C691C4323
:100E00008B692343CC691C434D6A25438B6A2B4372
:100E100013430360CA6842600A6882604A68C2601D
:100E200030BC704700B5C9B2002904D00268012364
:100E30001343036003E00268174B1340036000BDD7
:100E400000B5D2B2002A03D003680B43036002E06E
:100E500003688B43036000BD00B501000020002241
:100E6000CB0003D51D4B1B681A0002E01A4B1B6810
:100E70001A000A4202D00123180001E000231800E2
:100E8000C0B200BD00B5C10002D50D49086001E047
:100E90000349086000BD0000FEFF0000080002409A
:100EA000040002401C0002403000024044000240A6
:100EB000580002406C0002408000024008040240DA
:100EC000040402401C040240300402404404024076
:100ED000580402400F80FFFF00000240000402405F
:100EE00010B500218278002A27D0184A03789B1079
:100EF00004246343D2581100FF2203789B079B0F01
:100F0000082463439A4091430C0041788901C9B297
:100F100002789207920F08235A43914021430B4ACB
:100F200003789B1004246343D15001220378DB062D
:100F3000DB0E9A40064B1A6006E001220378DB06BE
:100F4000DB0E9A40034B1A6010BD000000E400E085
:100F500000E100E080E100E000B500212A4A110034
:100F60008279002A36D0284A126803689A43264BB1
:100F70001A60264A126803689A43244B1A60027961
:100F800089180A68036813430B60214A12680368D2
:100F90009A431F4B1A601F4A126803689A431D4BFD
:100FA0001A604279102A0CD1194A12680368134357
:100FB000174A1360174A126803681343154A1360EF
:100FC0000EE0114A1100427989180A680368134338
:100FD0000B6005E0027989180A6803689A430A6081
:100FE00000BD00B5010000200B4A12680A40002A2B
:100FF00002D00122100001E000221000C0B200BDAA
:1010000005490860704700000004014004040140E5
:10101000080401400C040140140401400022030AAA
:101020008B420BD203098B4219D243088B422ED23A
:10103000411A00D20146524110467047FF22090270
:101040003FD012068B4205D3121209028B4201D304
:101050001212090203098B4219D300E0090AC309DD
:101060008B4201D3CB01C01A524183098B4201D379
:101070008B01C01A524143098B4201D34B01C01A64
:10108000524103098B4201D30B01C01A5241C308DC
:101090008B4201D3CB00C01A524183088B4201D34B
:1010A0008B00C01A524143088B4201D34B00C01A37
:1010B0005241884200D3401A5241CFD201461046D5
:1010C000704708B500F002F808BDFEE77047FEE77C
:1010D000FEB582B005000F9F109E119C002069464E
:1010E00008806520029908700120039908700AA8F9
:1010F000007869460988685468460088401C69463B
:1011000008800BA8007869460988685468460088FA
:10111000401C694608806A4629000C9800F00DFAC8
:101120000DA8007869460988685468460088401C04
:10113000694608806A4629000E9800B280B200F025
:10114000DCF96A462900380080B200F0D6F96A4618
:101150002900300080B200F0D0F96A462900200052
:1011600080B200F0CAF9684600880499088005B08A
:10117000F0BD70B4039C002565260E700226167023
:10118000ADB244556D1C1D8070BC7047F2B586B081
:101190000500002069468881002400206946887384
:1011A0000027002604A80021002206C008380420D9
:1011B0006946888168468089285C04006846808981
:1011C000401C69468881684669468989695C8173E3
:1011D00068468089401C6946888103A9280000F080
:1011E000C2F9060068468089285C07006846808945
:1011F000401C6946888103A9280000F08DF96946E2
:10120000088203A9280000F087F904A9488003A9EF
:10121000280000F081F904A9888003A9280000F0C3
:101220007BF904A9C880E4B2642C00DB643C200094
:10123000C0B20090A54BA64AA649A748FFF799FF60
:101240000120029006980190287800909F4803881A
:101250009F4802789F4801789F4800F023FA07B022
:10126000F0BDF2B582B00400002069460880002677
:101270009A4F9B4D04206946088068460088205C90
:10128000060068460088401C69460880F6B2002EB9
:101290003CD16946200000F03FF929680880694682
:1012A000200000F039F9296848806946200000F0E4
:1012B00033F9296888806946200000F02DF92968F3
:1012C000C8806946200000F027F92968088169462E
:1012D000200000F021F9296848816946200000F0CB
:1012E00042F968606946200000F03DF9A86069464F
:1012F000200000F011F900B2296808626946200058
:1013000000F00AF900B229684863D8E0F6B2012E6D
:1013100000D0B3E068460088205CE9686C228854FD
:1013200068460088401C6946088068460088205C42
:10133000E9686D22885468460088401C6946088028
:1013400068460088205CE9686E22885468460088F8
:10135000401C6946088068460088205CE9686F2266
:10136000885468460088401C6946088068460088A2
:10137000205CE9687022885468460088401C6946F1
:10138000088068460088205CE968712288546846B5
:101390000088401C6946088068460088205CE9682F
:1013A0007222885468460088401C69460880684656
:1013B0000088205CE9687322885468460088401CD5
:1013C0006946088068460088205CE9687422885471
:1013D00068460088401C6946088068460088205C92
:1013E0004049C87168460088401C694608806846C4
:1013F0000088205C3B49087268460088401C6946AA
:10140000088068460088205C364948726846008833
:10141000401C6946088068460088205C3149887213
:1014200068460088401C6946088068460088205C41
:101430002C49C87268460088401C69460880684686
:101440000088205C2749087368460088401C69466C
:10145000088068460088205C2249487368460088F6
:10146000401C6946088068460088205C1D498873D6
:1014700068460088401C6946088020E0F6B2022ECB
:101480001DD16946200000F047F8288569462000F4
:1014900000F042F868856946200000F03DF8A88514
:1014A0006946200000F038F8E8856946200000F021
:1014B00033F828866946200000F02EF868862868F0
:1014C00007006868796A0860F7BD000018190020F5
:1014D0001F1900201E190020A81800203014002019
:1014E000FC130020CC18002038B505000C0080202B
:1014F000800000F001F831BD704710B403009BB2CA
:101500001B0A14880B55030014880C196370138888
:101510009B1C138010BC704710B4020000200B8885
:10152000D35C1B020C88141964781B1918000B88F3
:101530009B1C0B8080B210BC704710B4030E148843
:101540000B5503001B0C14880C196370030A1488D4
:101550000C19A370030014880C19E37013881B1D69
:10156000138010BC704710B4020000200B88D35CBD
:101570001B060C881419647824041B190C88141990
:10158000A47824021B190C881419E4781B1918007C
:101590000B881B1D0B8010BC7047FEE710B50024A4
:1015A000002004007F2C12DA604861490C2262435B
:1015B00088505E485E490C226243891848605B4847
:1015C0005B490C22624389188860641CEAE700F0DA
:1015D000B5F810BD7047FFB583B00D9D002069467A
:1015E0000880002600240698212801D3202400E04A
:1015F000069C00F0BBF804232A000CA90978C0B2AD
:1016000000F0BAF80120A8706846007D012806D1D4
:101610006846007C400001210143E9700EE0684605
:10162000007D022804D16846007C4000E87005E097
:101630008020C000FFF760FF002010E004200600BB
:1016400003980190B6B2AF1922000199380000F05A
:10165000A3F868462100711801806846008807B029
:10166000F0BDFFB58BB0149F169E179D002402A8F5
:1016700001903800C0B200906846038F0DA8027830
:101680000CA801780B98FFF7A6FF04002200D2B245
:10169000290002A800F0AEF80400302004003480D5
:1016A0000FB0F0BDFDB586B00D000F9E002069465D
:1016B000088200241F48039004A8029001960EA8F7
:1016C000007800906846038C6846027F2900C9B202
:1016D0000698FFF7C6FF18483178D42252005143CC
:1016E0004018D43004006846008A019011480090E8
:1016F000E71D019A0099380000F04EF86846007F17
:10170000012803D169000120084300E068006071EE
:1017100010A80078002803D1200000F025F802E08E
:10172000200000F022F809B0F0BD0000D515000837
:10173000080E00204818002018040020044805491D
:101740000860054805490860054806490860704773
:101750008D110008C4120020E9140008C8120020EE
:1017600063120008CC1200207047704701480078CF
:101770007047000014000020F1B50C0017001D0098
:10178000002632002900380000F0C6F868460078CC
:1017900038707C70F1BDFEE7124207D08B0706D08F
:1017A0000B78491C0370401C521EF7D87047830702
:1017B00006D00B78491C0370401C521EF9D17047AB
:1017C00070B4103A03D378C9103A78C0FBD25307EB
:1017D00001D318C918C001D508C908C0D20704D35D
:1017E0000B880380891C801C002A01D50B780370AC
:1017F00070BC7047F7B584B0002700250026002490
:1018000000206946087030200190AA2003900598B6
:101810000290039A0199029800F07EF80298002045
:10182000050002200600002007006846007E87426F
:101830001DD20498C05DED2807D00498C05DEE2845
:1018400003D00498C05DE9280AD16D1CE9200599F0
:1018500088550498C05D059989194870761C03E085
:101860000498C05D05998855761C7F1CDDE76846A5
:10187000007E401904006846007E26494870280012
:101880002449C87020002349887022488079401C70
:1018900020498871302C10D3302002900020039012
:1018A00005980190039A0299019800F035F8019883
:1018B00000201849487100202AE00020694608707D
:1018C00000200700A74209D2684669460978059AB0
:1018D000D2199278891801707F1CF3E76846007866
:1018E0000C490871ED200599087020000599487091
:1018F00068460078059909198870EE20059909193C
:10190000C8702000C01C03494871E41C2000C0B20C
:1019100007B0F0BD081900201206130A1A43130C71
:101920001A4300BF094205D0830705D00270401C4E
:10193000491EF9D170470000130030B4140015009F
:10194000103902D310393CC0FCD2490700D30CC077
:1019500000D504C0890002D30280801C002900D574
:10196000027030BC704700000022E5E730B585B05A
:10197000002468461421FFF7F7FF002000F0B5F9B6
:1019800008219020C005FEF7F4FF00250A2D03DA98
:1019900000F02EF96D1CF9E70A2004006A460021C8
:1019A0008020800000F090F8641E0098C00701D4E9
:1019B000002CF3D1002C04D1802189008648FEF749
:1019C000D8FF0A2004006A46D5214900834800F068
:1019D0007BF8009840071FD56A460021804800F038
:1019E00073F86A4600217F4800F06EF800984007BF
:1019F00004D5802189007848FEF7BBFF641E00985B
:101A0000C00701D5002CECD1002C04D18021890025
:101A10007148FEF7AEFF0BE0641E0098C00705D5C5
:101A20000398012802D10498AA2801D0002CCAD119
:101A3000002C04D1802189006748FEF79AFFFA2024
:101A4000400004006A468021C905664800F03CF861
:101A50000098400704D5802189005F48FEF789FF80
:101A6000641E0098C00701D5002CEBD1002C04D1D6
:101A7000802189005848FEF77CFF0A200400FF20DF
:101A800000906A460021584800F01EF8641E009835
:101A9000002801D0002CF4D1002C04D18021890031
:101AA0004D48FEF766FF68460079400605D580215F
:101AB00089004948FEF75DFF04E08021890046481F
:101AC000FEF757FF05B030BDF6B583B0050008241A
:101AD000E80504D5049A00214148FFF7F5FFFF27E8
:101AE0002DB280208000854202D19520070005E0BC
:101AF0002DB23A48854201D1872007006846290067
:101B000040220A4302700398000E69464870039809
:101B1000000C694688700398000A6946C8700398EB
:101B2000694608716846477108219020C005FEF794
:101B300023FF0026F6B2062E06DA6846F6B2805D6E
:101B400000F02FF8761CF5E700F052F804990860D1
:101B5000641E04980078000602D5E4B2002CF3D18C
:101B60002DB2E020000128400290029880218900D7
:101B700088420DD00026F6B2042E09DA00F038F8BB
:101B80000499F6B20422724389184860761CF2E781
:101B900008219020C005FEF7ECFE00F029F805B002
:101BA000F0BD38B50400002502211048FEF7A4FF5F
:101BB0000028F9D02100C9B20C48FEF777FF0121B7
:101BC0000A48FEF799FF0028F9D00848FEF773FF8E
:101BD00005002800C0B232BD000800480808000017
:101BE00037020000290300003A04000000300140E1
:101BF00010B50024FF20FFF7D4FF04002000C0B27E
:101C000010BDFEE7F0B540B200281BD4594A40B2DF
:101C1000830804246343D258FF238407A40F0825B4
:101C20006C43A3409A438B01DBB28407A40F0825C1
:101C30006C43A34013434F4A40B2840804256C43CD
:101C4000135120E04C4C40B20207120F083A95089D
:101C500004225543484A40B203071B0F083B9B0828
:101C600004267343D258FF238607B60F08277E4306
:101C7000B3409A438B01DBB28607B60F08277E4339
:101C8000B34013436351F0BD10B50400601E8021C2
:101C90004904884201D301200EE0601E37490860E4
:101CA00003210020C043FFF7ADFF00203449086046
:101CB000072034490860002010BD828A4A40828291
:101CC000704710B58AB004006846FEF787FC01989B
:101CD0002D49FFF7A3F96043FFF7D6FF002100204D
:101CE000C043FFF78FFF0AB010BD10B50400E4B287
:101CF000002C1DD100212548FEF7C2FE0022012143
:101D00002248FEF7E3FE002202212048FEF7DEFE15
:101D10001E4800881E4901401C4801801B4800885D
:101D2000302101431948018001211848FEF7A8FE1F
:101D3000E4B2022C1DD100211448FEF7A1FE0122BD
:101D400001211248FEF7C2FE012202210F48FEF7D0
:101D5000BDFE0E4800880E4901400C4801800B482A
:101D60000088202101430948018001210748FEF72E
:101D700087FE10BD00E400E01CED00E014E000E090
:101D800018E000E010E000E040420F0000300140A9
:101D9000C7FF000080B565480078002860D00228A1
:101DA00020D00BD304281ED00FD306281DD01BD360
:101DB000082824D01ED3092826D0ECE700F06FF8BD
:101DC00000215A4800F0CAF8E5E759480088400762
:101DD00003D50221554800F0C1F80221534800F014
:101DE000BDF8D8E7D7E7D6E7D5E707214F4800F099
:101DF000B5F8D0E709214D4800F0B0F8CBE70A214B
:101E00004A4800F0ABF8C6E70220FFF76EFF4748EC
:101E10000078092823D1474800780128F7D100200D
:101E2000444908704448008800280CD0AF2149007C
:101E300088420BD0AF21890088420AD0FA21C9001C
:101E4000884209D0E3E700F0BDF8E0E700F0DDF8F4
:101E5000DDE700F0D0F8DAE700F0F8F8D7E79AE726
:101E600032480078002819D1324800780128F7D18B
:101E700000203049087031480068401C2F49086034
:101E80002E4800682E498842EADB802189002D48CF
:101E9000FFF713FF002029490860E1E77BE700B561
:101EA00089B0FFF77BFB002069460884002007907B
:101EB000002006900020059000200490012003904F
:101EC0000020029000200190002000901E4B1F4A2D
:101ED0001F492048FFF7FCF81F48039008A802900C
:101EE00000200190282000901748038817480278A6
:101EF000174801781748FFF7B4FBFEF743FB00F0E3
:101F000017F9FEF7DDF8FEF70BFBFEF73CFBFEF7DB
:101F10004AFAFEF7E9F9FEF71EFA0020FFF7E5FEA0
:101F20003220FFF7CEFE09B000BD000015000020F2
:101F300010000048201900201A1900201019002054
:101F40008813000000080048181900201F190020FD
:101F50001E190020A81800201818002030B50022F3
:101F6000154B1A60144A1268144B1B689A4222DA05
:101F70000278134B104C246803256C431B5D9A4276
:101F800013D10A000E4B0C4C246803256C431B191B
:101F90005B78D2B29A4208D1094A074B1B680324E6
:101FA0006343D2189278027005E0034A1268521C0B
:101FB000014B1A60D6E730BD141900200000002044
:101FC000E824000880B501214B48FEF795FD012863
:101FD00003D14948FEF76FFDF5E710219020C005B9
:101FE000FEF7CAFC01214548FEF71CFF01214448C9
:101FF000FEF718FF01BD80B501214248FEF712FF30
:1020000001214148FEF70EFF01BD00B500203F4908
:1020100049781D290AD100210800172806DA3B4912
:10202000091889793A4A1154401CF6E73849C97DA4
:10203000002903D10121364AD17506E03449C97D12
:10204000012902D10021324AD17500BD30B589B0D5
:10205000002500242F480078C0B2C009C0B2002873
:1020600002D0012005000AE02A480078C0B2C00969
:10207000C0B2002803D1002005000020040025483C
:1020800000788011C00702D52348040007E02148EA
:1020900000788011C00702D4C8208000040000200E
:1020A00069460884002007900020069000200590D3
:1020B000002004900120039002942800C0B20190F7
:1020C00000200090154B164A16491748FFF700F8F4
:1020D0001648039008A80290002001902820009044
:1020E0000E4803880E4802780E4801780E48FFF724
:1020F000B8FA09B030BD0000003001401C000240B9
:10210000300002405800024044000240781800208D
:10211000EC1800201C190020E0FCFFFF181900201B
:102120001F1900201E190020A818002018180020D0
:1021300000B583B0012180200003FEF763FB01207E
:102140006946087100206946887100206946C87197
:10215000032069464871C02080000090694602480B
:10216000FEF7A8FB07BD00BF00080048704700B598
:10217000FEE77047704700B501204F4908704F488F
:1021800000884F49884205D04C48008832304B497E
:10219000088002E000204949088000BD80B5012088
:1021A000FEF71FFF002824D046480088C00718D536
:1021B00005214548FFF7D2FE802149004348FEF73C
:1021C000DBFB41480078022810D110219020C00587
:1021D000FEF7CFFBFFF7CAFB04213B48FFF7BEFE2B
:1021E00004E0802149003948FEF7C3FB0120FEF7D7
:1021F00007FF01BD80B50420FEF7F3FE002819D0CB
:1022000030480088400709D5802189002F48FEF713
:10221000B3FB02212C48FFF7A1FE08E080218900D2
:102220002A48FEF7A6FB03212748FFF797FE012067
:10223000FEF7E6FE01BD80B580208000FEF70CFEB3
:10224000002808D000212248FEF7ECFD8020400045
:10225000FEF718FE10E02020FEF7FEFD00280BD050
:1022600000211C48FEF7DEFD10219020C005FEF77E
:1022700080FB1020FEF706FE01BD80B580208001A6
:10228000FEF7EAFD002808D000211348FEF7CAFD3A
:1022900080204001FEF7F6FD0DE080208002FEF771
:1022A000DBFD002807D000210C48FEF7BBFD802095
:1022B0004002FEF7E7FD01BD201900201A19002099
:1022C0006E0F0000100000481500002000080048B4
:1022D000300002401C00024044000240580002400E
:1022E00080B54A48006801210143484801604848D8
:1022F0000068484901404648016044480068464932
:1023000001404248016041480068444901403F485B
:1023100001603F480068424901403D480160414832
:1023200000680F2188433F4908603F4800683F49E3
:1023300001403D4801603E480068012188433C4916
:10234000086000203B49086000F001F801BDC0B5FD
:1023500000200190002000902C4800688021490254
:1023600001432A4801602948006880218902084009
:1023700000900198401C01900098002804D1019819
:10238000A021C9018842EED120480068800302D50F
:102390000120009001E0002000900098012834D135
:1023A0001120254908601A48006819490860184832
:1023B0000068174908601648006820490140144821
:1023C00001601348006888214903014310480160F7
:1023D0000E4800688021490401430C4801600B4805
:1023E00000688001FBD50A4800680321884308493A
:1023F000086007480068022101430548016004485D
:1024000000680C2101400829F9D103BD00100240E9
:10241000041002400CB8FFF8FFFFF6FEFFFFFBFFC1
:10242000FFFFC0FF2C10024030100240ACFEFFFF47
:10243000341002400810024000200240FF7FC0FF1D
:10244000094880F3088804200168090E1F22914280
:1024500005D10648012101600548002101600548B9
:10246000804705480047000018040020181002406B
:1024700000000140E1220008C125000870B40121DC
:10248000002213E00468001D0C4202D04D466D1E70
:1024900064192260241D1B1F042BFAD225009E07FD
:1024A00001D52280AD1C0B4000D02A700368001DAE
:1024B000002BE7D170BC704730B401210268001DC9
:1024C000002A0FD00368C318446808300C4202D0B9
:1024D0004D466D1E64191D6825601B1D241D121FAD
:1024E000ECD0F8E730BC70470100030101000302A3
:1024F000020204040405060406050503030403039D
:10250000060805060707070908080A0909FF000069
:102510000509000010B5074979441831064C7C4480
:10252000163404E0081D0A68891888470100A14292
:10253000F8D110BD080000002800000041FFFFFF97
:102540000C15000018040020000000006DFFFFFFC4
:1025500018000000540000000000002000000000EF
:1025600000F00BF8002801D0FFF7D4FF002000BFD7
:1025700000BFFFF70FFC00F002F80120704780B5A4
:1025800000F002F801BDFEE70746384600F002F809
:10259000FBE7FEE780B500BF00BF024A110018202C
:1025A000ABBEFBE7260002000E00000000000000AA
:1025B0000102030401020304060708090A010000DE
:1025C00000BF00BF00BF00BFFFF7CAFFFEE7FEE786
:1025D000FEE7FEE7FEE7FEE7FEE7FEE7FEE7FEE7D3
:0E25E000FEE7FEE7FEE7FEE7FEE7FEE7FEE7AA
:04000005080025C109
:00000001FF
