:020000040800F2
:10000000200400202D1800083112000833120008C7
:1000100000000000000000000000000000000000E0
:100020000000000000000000000000003512000881
:10003000000000000000000037120008391200081C
:10004000CF0400080F080008FB080008270C000870
:100050002B0C000853120008ED1200087F0F000857
:10006000D31000084719000825130008651300087D
:1000700053190008911900089319000895190008F0
:100080009719000899190008000000009B19000842
:100090009D1900089F190008A1190008A31900085C
:1000A000A5190008A7190008A9190008AB1900082C
:1000B000AD19000800000000AF19000800000000A2
:1000C000F0B583B00121480400F0AAFA00246D467F
:1000D0002C710120E871042000909026F6056946F5
:1000E000300000F0D7FA0121480400F099FA2C7191
:1000F000EC71012000906946300000F0CBFA01213C
:10010000480400F08DFA02202871AC7103276F714A
:10011000EC71202000906946300000F0BBFA01210C
:10012000480400F07DFA02202871AC716F71EC7107
:10013000802000906946300000F0ACFA01214804AC
:1001400000F06EFA02202871AC716F71EC714020E2
:1001500000906946300000F09DFA0121480400F04B
:100160005FFA01202871EC806F71102000906946C1
:10017000300000F08FFA0121480400F051FA01200C
:100180002871EC806F71082000906946300000F003
:1001900081FA0121480400F043FA02202871EC8022
:1001A0006F71000200906946300000F073FA01217F
:1001B000480400F035FA02202871EC806F71440287
:1001C00000946946300000F065FA002205213000F5
:1001D00000F099FA00220721300000F094FA002282
:1001E0000621300000F08FFA01220921300000F0D2
:1001F0008AFA01220A21300000F085FA202130001D
:1002000000F07FFA8021300000F079FA40213000C0
:1002100000F075FA0821300000F071FA102130006A
:1002200000F06DFA6108300000F069FA210030003A
:1002300000F065FAF7BDF0B585B0050001210803AF
:1002400000F0F8F9724F380000F06EFA00266C46A4
:100250002680822040006080E020C000A080E680F0
:100260002681780D6081012D0BD1012201213800FA
:1002700000F0B8FA01220221380000F0B3FA202081
:100280000CE0002D0BD100220121380000F0AAFA69
:1002900000220221380000F0A5FA3020A081E6817A
:1002A000072020826946380000F059FAB90C38005E
:1002B00000F083FA0121380000F075FA05B0F0BDB6
:1002C00010B586B00121880300F0B4F9E120800266
:1002D0000090002001900290039005900C20049063
:1002E0004C4C6946200000F093FA01228021200046
:1002F00000F0FCFA01224021200000F0F7FA012171
:10030000200000F0D3FA06B010BDF0B58BB001218B
:10031000012000F08FF90121480200F0EFFA0121DD
:10032000880200F0EBFA0121012000F079F93A4847
:1003300000F006FB394800903948019000240294EF
:100340003020039004948027059706940794202674
:100350000896350209950A9469462F4800F03FFB3C
:10036000012202212C4800F05FFB2E4800F0E8FA41
:100370002A4800902C4801901020029030200390D1
:100380000494059706940794089609950A9469467B
:10039000244800F024FB01220221224800F044FB03
:1003A000224800F0CDFA22480090224801900294A1
:1003B00002200390049405970694079408960995E3
:1003C0000A946946194800F00AFB012202211748E5
:1003D00000F02AFB184800F0B3FA184800901848BB
:1003E0000190102002901920039004940597069420
:1003F0000794089609950A9469460F4800F0EFFAA9
:10040000012202210C4800F00FFB0BB0F0BD0000F0
:1004100000300140003801401C0002400C30014017
:100420009814002030000240381400205800024088
:100430002438014032150020440002402838014091
:100440000C15002070B582B06C460A202070012582
:100450006570A570684600F021FB0B202070657068
:10046000A570684600F01AFB062020700026667012
:10047000A570684600F012FB052020706670A5701C
:10048000684600F00BFB73BD7047F0B583B00121E7
:10049000012000F0CFF80221002000F039FA0420FA
:1004A000009000276C462771102666710125A57102
:1004B000684600F01DFB0021002000F029FA00959D
:1004C00027716671A571684600F012FBF7BDFEE763
:1004D000F0B504000020514D2968654E0C220A40F9
:1004E000082A02D00C2A17D018E028682968800250
:1004F000070FBF1CC0204002084003D1380071081C
:10050000484307E0A96A30000907090F491C00F0B9
:1005100033FB7843010002E0564900E031002160DE
:100520002B68554922681B061B0FCB5CDA406260C2
:100530002B685B055B0FC95CCA40A260E96AC9050C
:1005400001D44E4905E02968490401D4510800E06E
:100550009108E16080210902EA6A520601D4484A02
:1005600000E00A002261EA6AD20601D4320000E00B
:10057000226862610322EB6A134001D1A26804E0A1
:10058000EB6A1340012B02D12268A2610AE0EB6AF8
:100590001340022B01D1A16104E0EB6A1A40032A47
:1005A00000D1A661C0229202EB6A134001D1A26879
:1005B00005E0EB6A13404F00BB4202D12268E261C2
:1005C0000BE0EB6A13408F00BB4201D1E16104E014
:1005D000EB6A1340934200D1E661C0221203EB6A3A
:1005E000134001D1A1680BE0EB6A1340CF00BB427E
:1005F00001D1216804E0EB6A13400F01BB4201D135
:10060000216204E0E96A1140914200D12662E96A60
:10061000090600D417486062F0BD000004100240D3
:10062000184A0029116802D00843106070478143BE
:1006300011607047144A0029116802D00843106005
:100640007047814311607047104A0029116802D039
:100650000843106070478143116070470C4A0029BD
:10066000116802D0084310607047814311607047E1
:1006700000127A00006CDC0208000020809FD50088
:100680001280000014100240181002400C100240AA
:1006900010100240F0B5002301229A400C6814406B
:1006A000944228D15C000326A640F5430E79012E22
:1006B00001D0022E0FD186682E40866086684F7961
:1006C000A7403743876086889643868082888E79E4
:1006D0009E401643868002682A40026002680E79B6
:1006E000A64016430660C2681540C560C268CD7951
:1006F000A5401543C5605B1C102BCDD3F0BD8161B7
:1007000070470185704710B5CB089B00C0188B005F
:100710001C211940036A0F248C40A3430362036A1F
:100720008A401A43026210BD10B52749884209D198
:100730008C0C01212000FFF787FF00212000FFF72C
:1007400083FF10BD2149884208D10C0C01212000F3
:10075000FFF784FF00212000FFF780FF10BD028813
:10076000C1239B0113400A881A43CB891343CA88CB
:100770001A430B8913434A891A438B891343038015
:100780008288134B13408A881A4382800A8A028225
:100790000288104B1340498819430180818B0E4A0F
:1007A0000A40828370470029018802D040220A4310
:1007B00001E00A4A0A40028070478288084B19E02B
:1007C0000C300170704700000030014000380040DC
:1007D000FFF00000FBFF0000FFF70000BFFF00007C
:1007E000FFEF0000002A828800D006E08A43828062
:1007F00070470000134083808288114381807047D6
:100800000200002012890A4200D001207047FEE752
:10081000F0B58BB004000D002068012188432060F2
:1008200060682B490140A868084360602068294936
:10083000014068680843E96801432869084320606B
:10084000A0682549014068690843A0606846FFF731
:100850003FFE1C48844201D1069E0AE01A488442A9
:1008600001D1079E05E01948844201D1089E00E0AD
:10087000029E2D682068000400D576003000290013
:1008800000F07AF907003000290000F075F96808D7
:10089000814200D37F1C2068000404D512483840F0
:1008A00039074F0F0743A7810BB0F0BD002901683E
:1008B00003D001220A430260704701229143016084
:1008C00070470000003801400044004000480040EC
:1008D000FFCFFFFFF3E9FFFFFFFCFFFF1340836043
:1008E0008268114381607047F0FF0000002A82682F
:1008F00000D0F6E78A4382607047FEE70E4A00297F
:10090000116802D00843106070478143116070473E
:1009100010B50200094B08000324A04318188B00EF
:100920000C21194003680F248C40A3430360036823
:100930008A401A43026010BD0000014008000140D7
:10094000F0B50168484A0A40026000210160416038
:100950008160C1600F21454A454B98421FD0F0236A
:10096000444CA04222D00C02434DA84225D00D0396
:10097000424EB04228D00E04414FB8422BD014371B
:10098000B84202D1106809050AE01437B84202D112
:100990001068090604E03B4A3B4FB84203D1106897
:1009A00001431160F0BD3949884203D11068034307
:1009B0001360F0BD1431884203D110680443146001
:1009C000F0BD1431884203D1106805431560F0BDB5
:1009D0001431884202D1106806431660F0BD0268E7
:1009E0002B4B13408A681A430B6A13430A691A4354
:1009F0004B6913438A691A43CB6913434A6A1A4302
:100A00008B6A13430360CA6842600A68826049685F
:100A1000C16070470029016802D001220A4301E049
:100A2000114A0A4002607047002A026802D011434E
:100A3000016070478A430260704700BF01000020D8
:100A4000CA0001D5134A00E0134A1268114000D0D1
:100A50000120704700BFC10001D50A4900E00349E9
:100A60000860704700000000FEFF00000400024024
:100A7000080002401C0002403000024044000240D6
:100A80005800024004040240080402401C040240D2
:100A90000F80FFFF000402400000024070B501001B
:100AA0000C781F2201238878002816D00D4D2000D5
:100AB0000326B04328180568E60018243440FF26B2
:100AC000A640B5434E78B607360EA6402E430660C4
:100AD000087802409340044802E0224093400348D3
:100AE000036070BD00E400E000E100E080E100E0B0
:100AF00030B50168CC431E498279002A25D00A46C8
:100B000013681C40146053680468A343536003795E
:100B10005B181C68056825431D6093680468A3433F
:100B20009360D3680468A343D36043790468102BAF
:100B300007D191680C439460D16800680843D06085
:100B400030BD5B181868044303E000794318186847
:100B500004401C6030BD00BF01000020054A12683F
:100B6000114000D001207047024908607047000022
:100B700000040140140401400022030A8B420BD2FE
:100B800003098B4219D243088B422ED2411A00D25C
:100B90000146524110467047FF2209023FD012061B
:100BA0008B4205D3121209028B4201D312120902A1
:100BB00003098B4219D300E0090AC3098B4201D310
:100BC000CB01C01A524183098B4201D38B01C01A59
:100BD000524143098B4201D34B01C01A52410309D0
:100BE0008B4201D30B01C01A5241C3088B4201D37F
:100BF000CB00C01A524183088B4201D38B00C01A2C
:100C0000524143088B4201D34B00C01A52418842E3
:100C100000D3401A5241CFD201461046704708B562
:100C200000F002F808BDFEE77047FEE738B50400A3
:100C30001D0000206B461880652008700120107090
:100C4000049869460988605468460088401C6946D3
:100C5000088005980988605468460088401C6946E9
:100C600008806A462100069800F066F907986946F0
:100C70000988605468460088401C694608806A46B6
:100C80002100089880B200F042F96A4621000998D4
:100C900080B200F03CF96A4621000A9880B200F068
:100CA00036F96A4621000B9880B200F030F96846A8
:100CB0000088288031BD10B565240C7002211170A8
:100CC000029901700120188010BDF2B584B00400B3
:100CD00004206946888125790620888103A920009F
:100CE00000F03DF968468089401C6946888103A967
:100CF000200000F017F903A9200000F013F903A960
:100D0000200000F00FF903A9200000F00BF9642D7A
:100D100000DB643D744F754EEDB2009533003A0030
:100D200073497448FFF7C7FF0120029004980190AF
:100D30002078009033883A786D4801786D4800F04B
:100D40006AF905B0F0BD38B5040004206946088092
:100D5000207905216A461180674D00283CD16946FB
:100D6000200000F0DFF8296808806946200000F0C4
:100D7000D9F8296848806946200000F0D3F829682E
:100D800088806946200000F0CDF82968C88069464F
:100D9000200000F0C7F8296808816946200000F0AB
:100DA000C1F8296848816946200000F0D8F86860D9
:100DB0006946200000F0D3F8A8606946200000F0E2
:100DC000B1F800B2296808626946200000F0AAF86C
:100DD00000B22968486381E001285FD16079E96841
:100DE0006C228854062069460880A079E9686D2243
:100DF0008854072069460880E079E9686E228854A3
:100E0000082069460880207AE9686F228854092002
:100E100069460880607AE968702288540A20694629
:100E20000880A07AE968712288540B2069460880FE
:100E3000E07AE968722288540C2069460880207B99
:100E4000E968732288540D2069460880607BE96850
:100E5000742288540E20694608802848A17BC171FD
:100E60000F216A461180E17B017210211180217CE3
:100E7000417211211180617C817212211180A17C4B
:100E8000C17213211180E17C017314211180217D35
:100E9000417315211180617D81731FE002281DD1EE
:100EA0006946200000F03EF828856946200000F0E1
:100EB00039F868856946200000F034F8A88569464D
:100EC000200000F02FF8E8856946200000F02AF89D
:100ED00028866946200000F025F868866868296839
:100EE000496A086031BD000035150020301500202A
:100EF00034150020C814002004140020EC14002035
:100F000080B58020800000F001F801BD704710B569
:100F1000030A14880B551388C91848701088801C60
:100F2000108010BD0A88801803781B0240781818BA
:100F3000921C0A8080B2704710B5030E14880B55BE
:100F4000030C14880C196370030A14880C19A3701D
:100F50001388C918C8701088001D108010BD10B506
:100F60000A88801803781B06447824041B198478A7
:100F700024021B19C0781818121D0A8010BDFEE744
:100F800080B500203D493E4A0C234343D2181160EE
:100F900051609160401C7F28F5DB00F077F801BDBF
:100FA0007047F1B50F001600212B01D3202500E07A
:100FB0001D0000F07DF8079C04232200069900F034
:100FC0007DF80120A0707900012E09D10843E0705E
:100FD0002A000099201D00F07DF82D1DA8B2F2BD59
:100FE000022E01D1E170F3E78002FFF78FFF0020AE
:100FF000F2BD10B58CB002AC01940E9C0094FFF7CA
:10100000D0FFC2B2119902A800F092F830201099D6
:1010100008800CB010BDF0B585B00D0014000021A3
:101020006A461182174E0B9F039604A902910197FD
:101030000A99009122002900FFF7DBFF1248397856
:10104000D422520051434718D4376846028A3100EF
:10105000F81D00F03FF86900012C02D1012008437F
:10106000010079710C98002803D1380000F01EF8B7
:1010700002E0380000F01BF805B0F0BDA10F000839
:10108000100E0020681400202004002003480449AA
:10109000016004494160044981607047CC1200201E
:1010A000CB0C0008010F0008470D0008704770477F
:1010B00001480078704700001800002070B5040057
:1010C0000D0016001900300000F0B0F83470757093
:1010D00070BDFEE7124207D08B0706D00B78491C83
:1010E0000370401C521EF7D87047830706D00B7858
:1010F000491C0370401C521EF9D1704770B4103A5D
:1011000003D378C9103A78C0FBD2530701D318C96A
:1011100018C001D508C908C0D20704D30B880380C2
:10112000891C801C002A01D50B78037070BC7047A5
:10113000F7B582B0002400270025AA2230210398A9
:1011400000F04CF802206946097C009102E0327000
:10115000401C7F1C00998F4211D20299C9190A784C
:10116000039E3618ED2A03D0EE2A01D0E92AEED1EB
:101170006D1CE922327009787170401CE8E748194B
:10118000154E6946097C7170F570B070B179491CD3
:10119000B171302806D33021039800F047F87471FC
:1011A000002017E0002705E00399C9198978641821
:1011B000E4B27F1C8742F7D33471ED21039A11709A
:1011C000039A5070039909188C70EE22CA70C01CE3
:1011D0007071C0B205B0F0BD281500201206130AC8
:1011E0001A43130C1A4300BF094205D0830705D0E8
:1011F0000270401C491EF9D170470000130030B442
:1012000014001500103902D310393CC0FCD2490734
:1012100000D30CC000D504C0890002D30280801C1A
:10122000002900D5027030BC704700000022DBE7C7
:101230007047FEE7704770470120594908705948C8
:101240000188594A914201D0323100E000210180E9
:101250007047F8B50120FFF77EFC002845D09026A6
:10126000F605524C80256D00308AC00736D5504FA8
:101270000521380000F0AAF829002000FFF741FA04
:10128000387802282ED108213000FFF73AFA1021D1
:101290003000FFF734FA0A24464D02212800FFF7F8
:1012A000AFFA0028F9D0FF212800FFF789FA0121C1
:1012B0002800FFF7A5FA0028F9D0641EEDD180219F
:1012C0002800FFF79DFA0128F9D008213000FFF728
:1012D00016FA0421380000F079F803E02900200014
:1012E000FFF70DFA0120FFF73FFCF1BD10B5042018
:1012F000FFF731FC002814D02D4C2C4880218900A8
:101300002D4A1288520703D5FFF7FBF9022102E0AC
:10131000FFF7F5F90321200000F058F80120FFF74E
:1013200023FC10BD80B580208000FFF786FB0028DD
:1013300006D000212148FFF76DFB802040000EE021
:101340002020FFF77AFB00280BD010219020C00549
:10135000FFF7D5F900211A48FFF75CFB1020FFF7D3
:1013600079FB01BD80B580208001FFF766FB002876
:1013700006D000211348FFF74DFB802040010BE011
:1013800080208002FFF759FB002807D000210E487B
:10139000FFF740FB80204002FFF75CFB01BD00002F
:1013A00000000020020000206E0F0000000800482E
:1013B00001000020003001401000004830000240D1
:1013C0001C000240440002405800024030B5002298
:1013D00008A35400A4181B1904781D78AC4205D149
:1013E0005D78A94202D19978017030BD521C0E2A55
:1013F000EEDB30BD01000301010003020202040420
:101400000405060406050503030403030608050690
:101410000707070908080A0909FF00000509000075
:1014200038B500244D4D05E000F058F80021681C47
:10143000FFF7CCFF68780928FCD801A109568F4432
:1014400072E6F208F2F21C20242845480088400782
:1014500003D50221681CFFF7B9FF0221E7E7072146
:10146000E5E70921E3E70A21E1E70120FEF7E3FED2
:1014700001E000F085F868780928DBD12878012898
:10148000F9D12C7068880028F3D0AF214900884238
:1014900007D04900884207D0FA21C900884206D007
:1014A000E9E700F086F8E6E700F079F8E3E700F016
:1014B00095F8E0E768780028BCD128780128FCD1AD
:1014C0002C706868401C686026498842F5DB8021E2
:1014D0008900254800F0EEF86C60EBE7F0B589B0C4
:1014E000FFF74EFD002069460884204F204E214D15
:1014F000214C079006900590049001200390002055
:1015000002900190009023002A0031003800FFF77C
:101510008DFB1A48039008A8029000200190282013
:10152000009023882A7831783800FFF762FDFEF7B3
:10153000ABFF00F0EDF8FEF7C3FDFEF783FFFEF70B
:10154000A4FFFEF7E2FE0020FEF775FEFEF7B8FEF0
:10155000322000F0B3F809B0F0BD00000000002018
:10156000100000488813000000080048C81400203C
:1015700034150020351500203015002038140020C7
:1015800080B510219020C005FFF7BBF801212F483E
:10159000FFF740FA01212E48FFF73CFA01BD80B564
:1015A00001212C48FFF736FA01212B48FFF732FAC8
:1015B00001BD10B5294C2A4841781D2904D11722B4
:1015C000811D2000FFF786FDE07D010001D1012093
:1015D00002E0012801D10020E07510BDF0B589B00E
:1015E000002100201F4A12780123D40900D00120D5
:1015F0009209134001D01C4A01E0C82292006B46B8
:1016000019841A4F1A4E1B4D1B4C079106910591D8
:101610000491012103910292019000200090230087
:101620002A0031003800FFF701FB1448039008A896
:101630000290002001902820009023882A78317899
:101640003800FFF7D6FC09B0F0BD00001C000240D6
:101650003000024058000240440002400C150020B7
:101660009814002032150020E0FCFFFFC814002071
:1016700034150020351500203015002038140020C6
:1016800010B5C20018231340FF249C40E243890791
:10169000090E9940002801D4194B03E0194B0007AB
:1016A000000F083880088000181803681A4011439A
:1016B000016010BD828A51408182704730B58BB085
:1016C00004006846FEF704FF01980F49FFF754FA3B
:1016D0006043401E0024E44380214904884209D22B
:1016E0000A4D686003212000FFF7CAFF0020A860B0
:1016F0000720286000212000FFF7C2FF0BB030BD9B
:1017000000E400E01CED00E040420F0010E000E0CB
:1017100000B583B00121C804FEF782FF68460121AD
:1017200001710021C18003214171080200906946C6
:101730000148FEF7AFFF07BD0008004882B03348FC
:10174000016801220A4302604168314A0A4042604E
:101750000168304A0A40026001682F4A0A4002606C
:1017600041682E4A0A404260C16A0F229143C16219
:10177000016B2B4A0A400263416B01229143416392
:101780000021816001910091016812040A43026006
:10179000016880229202114000910199491C019137
:1017A0000099002904D10199A022D2019142EFD1E0
:1017B00001688903CA0F00920099012924D11121DF
:1017C000184A116041684160416841604168164AA9
:1017D0000A4042604168882252030A43426001681D
:1017E000802252040A43026001688901FCD54168E5
:1017F000032291434160416802220A4342604168EA
:101800000C220A40082AFAD102B0704700100240A8
:101810000CB8FFF8FFFFF6FEFFFFFBFFFFFFC0FF66
:10182000ACFEFFFF00200240FF7FC0FF094880F3AD
:10183000088804200168090E1F22914205D106483C
:1018400001210160054800210160054880470548E5
:101850000047000020040020181002400000014052
:101860003D1700088519000870B40121002213E01B
:101870000468001D0C4202D04D466D1E64192260A2
:10188000241D1B1F042BFAD225009E0701D52280A0
:10189000AD1C0B4000D02A700368001D002BE7D15F
:1018A00070BC704730B401210268001D002A0FD0BF
:1018B0000368C318446808300C4202D04D466D1EC0
:1018C00064191D6825601B1D241D121FECD0F8E74C
:1018D00030BC704710B5074979441831064C7C4438
:1018E000163404E0081D0A68891888470100A142DF
:1018F000F8D110BD08000000280000006DFFFFFFB8
:1019000018110000200400200000000099FFFFFFD4
:101910001C00000054000000000000200000000037
:1019200000F00BF8002801D0FFF7D4FF002000BF23
:1019300000BFFFF775FD00F002F80120704780B589
:1019400000F002F801BDFEE70746384600F002F855
:10195000FBE7FEE780B500BF00BF024A1100182078
:10196000ABBEFBE726000200000100000000000003
:101970000000000001020304010203040607080935
:101980000A00000000BF00BF00BF00BFFFF7C8FF94
:10199000FEE7FEE7FEE7FEE7FEE7FEE7FEE7FEE71F
:1019A000FEE7FEE7FEE7FEE7FEE7FEE7FEE7FEE70F
:040000050800198551
:00000001FF
