:020000040800F2
:10000000E810002089750008557000085770000836
:100010006370000865700008677000080000000049
:1000200000000000000000000000000069700008EF
:100030006B700008000000006D7000086F70000811
:10004000CD760008D1760008D5760008D97600086C
:10005000DD760008E176000895700008DB70000886
:10006000E5760008E9760008ED760008F1760008EC
:10007000F5760008F9760008F37000081971000899
:100080002D71000841710008FD7600080177000815
:1000900005770008097700080D7700081177000838
:1000A00015770008197700081D77000821770008E8
:1000B00025770008297700082D7700083177000898
:1000C00035770008397700083D7700084177000848
:1000D00045770008497700084D77000851770008F8
:1000E00055770008597700085D77000861770008A8
:1000F0006577000800000000697700086D77000848
:10010000000000000000000071770008757700080B
:10011000797700087D7700088177000885770008E7
:10012000897700084178007850EA0121080080B200
:100130007047C178827852EA0121427852EA01215F
:10014000007850EA0121080070470170401C89B214
:10015000090A0170401C70470170401C090A0170B7
:10016000401C090A0170401C090A0170401C7047BC
:10017000002A06D00B780370491C401C521E002A2E
:10018000F8D170470170401C521E002AFAD1704706
:1001900010B4002303780C781B1B491C401C521E12
:1001A000002A01D0002BF5D0180010BC704700E0E9
:1001B000401C0278002A02D002788A42F8D10078E6
:1001C0007047C0B2002801D0002000E00020704736
:1001D000C0B2002801D0002000E00020704738B5F0
:1001E00004000025E07800281ED00123226B14F1C2
:1001F0003401607801F050FC002814D10020E07038
:10020000206B616A401AE16988420DD2A078022809
:100210000AD10123206BE1690A1814F134016078D6
:1002200001F03AFC00E001252800C0B232BD70B5F3
:1002300004000D000026206B854213D02000FFF73C
:10024000CEFF0600F6B2002E0CD101232A0014F1D5
:100250003401607801F0B1FB002802D05FF0FF3577
:10026000012625633000C0B270BD38B504002000FF
:10027000FFF7B5FF0500EDB2002D3FD12078032830
:1002800034D12079012831D14FF40072002114F1CA
:100290003400FFF777FF4AF6552104F23220FFF7CA
:1002A00054FFDFF8AC1714F13400FFF755FFDFF807
:1002B000A4174FF406702044FFF74EFF61694FF416
:1002C00007702044FFF748FF21694FF4087020446D
:1002D000FFF742FF206A401C20630123226B14F1C8
:1002E0003401607801F0D8FB002020710022002149
:1002F000607801F0D4FB002800D001252800C0B2AE
:1003000032BD891E8269921E914201D3002003E012
:10031000C26A408901FB002070472DE9F0410C00C2
:100320000568022C02D3A869844201D3012656E055
:100330005FF0FF362878012804D04FD303283BD044
:1003400029D34BE0270017EB5707686A10EB5721BA
:100350002800FFF76CFF002841D1F805C00D2844A4
:1003600090F834807F1C686A10EB57212800FFF753
:100370005EFF002833D1F805C00D284490F8340002
:1003800058EA0028E00702D55FEA181602E05FEAA3
:100390000856360D23E0686A10EB14212800FFF799
:1003A00046FF00281BD16000C005C00D2844343032
:1003B000FFF7B8FE060012E0686A10EBD4112800BF
:1003C000FFF735FF00280AD1A000C005C00D284462
:1003D0003430FFF7AEFE20F0704600E0012630001A
:1003E000BDE8F0812DE9F04104000D001600022760
:1003F000022D7CD3A069854279D22078012804D0CF
:1004000075D3032855D03ED371E0A84618EB5808A1
:10041000606A10EB58212000FFF709FF0700FFB2C8
:10042000002F64D15FEAC850C00D2044343018F169
:100430000108E90705D5017811F00F0151EA06110D
:1004400000E0310001700120E070606A10EB58217B
:100450002000FFF7ECFE0700FFB2002F47D15FEA54
:10046000C850C00D20443430E90701D5310906E0F9
:10047000017811F0F001320A12F00F0211430170FD
:100480000120E07033E0606A10EB15212000FFF7D7
:10049000CEFE0700FFB2002F29D1310089B26800DB
:1004A000C005C00D20443430FFF74FFE0120E0703E
:1004B0001DE0606A10EBD5112000FFF7B8FE0700C1
:1004C000FFB2002F13D1A800C005C00D2044343066
:1004D000FFF72FFE000F60F31F763100A800C00564
:1004E000C00D20443430FFF737FE0120E0703800A3
:1004F000C0B2BDE8F081F8B504000F001100002083
:100500002568022F02D3A869874201D3022036E072
:10051000002909D05FF0FF322800FFF763FFC0B267
:10052000002801D0C0B22AE039002000FFF7F5FE14
:100530000600002E22D0012E01D102201FE016F16C
:10054000010F01D101201AE0002239002800FFF735
:1005500049FFC0B2002801D0C0B210E06869A969A3
:10056000891E884206D26869401C6861287950F06B
:10057000010028713700A8698742D5D30020F2BD59
:100580002DE9F04106000C003568002C07D12F69D9
:10059000002F02D0A869874210D301270EE0210066
:1005A0003000FFF7BAFE022801D2012075E010F1F9
:1005B000010F72D0A96988426FD3270068690028AB
:1005C00001D1002069E05FF00008A7421BD117F1BC
:1005D0000108A869804501D35FF002084146300058
:1005E000FFF79BFE012802D010F1010F00D154E06B
:1005F000002808D02869022803D3A969884200D2BC
:1006000007005FF00008B8F1000F11D1B84618F1EB
:100610000108A869804505D35FF00208474501D26B
:1006200000203AE041463000FFF777FE002821D154
:100630005FF0FF3241462800FFF7D4FEC0B2002829
:1006400006D1002C04D0424621002800FFF7CAFE44
:10065000C0B2002818D1C5F81080A869801E696949
:10066000884202D36869401E6861287950F0010011
:10067000287111E0012802D010F1010F00D10CE027
:10068000B845C4D1002008E0C0B2012802D15FF013
:10069000FF3801E05FF001084046BDE8F0812DE938
:1006A000F04104000D002000FFF799FD002801D063
:1006B000012024E029002000FFF723FE0500256328
:1006C0004FF40072002114F13400FFF75BFD14F1C8
:1006D00034080127002600E0BE196089864207D24F
:1006E0003B0072194146607801F0D6F90028F3D03A
:1006F0006089864201D1002000E00120C0B2BDE83F
:10070000F0812DE9F04104000D002768B5F5001FC8
:1007100002D215F01F0F01D0022042E02561A66829
:10072000002E03D13878032800DBBE6A002E08D1E2
:1007300068093989884201D3022032E0B86AA06191
:100740001FE078894FF4007101FB00F801E0B5EB80
:100750000805454510D331002000FFF7DEFD0600F7
:1007600016F1010F01D101201BE0022E02D3B8695E
:100770008642ECD3022014E031003800FFF7C1FDBF
:10078000A0616661A069002801D1022009E0A0698A
:1007900010EB5520A061E805C00D38443430E0610D
:1007A0000020BDE8F0812DE9F04104000D0026682D
:1007B000206910F12007A069002802D0B7F5001FBA
:1007C00001D3042056E0F8054DD1A069401CA0617A
:1007D0006069002807D178093189884243D3002015
:1007E000A061042046E07089401E10EA572F3AD1DC
:1007F00061692000FFF791FD8046B8F1020F01D238
:10080000022037E018F1010F01D1012032E0B06978
:10081000804521D3002D03D10020A061042029E0D0
:1008200061692000FFF7ACFE8046B8F1000F01D1EE
:1008300007201FE0B8F1010F01D102201AE018F1E2
:10084000010F01D1012015E041463000FFF727FFDD
:10085000002801D001200DE0C4F81480414630008A
:10086000FFF74FFDA0612761F805C00D304434301B
:10087000E0610020BDE8F081F8B504000D002768B4
:1008800000212000FFF73DFFC0B200281BD1002649
:10089000A1693800FFF7CBFCC0B2002813D1E16991
:1008A0000978E52903D0E1690978002903D1761C8C
:1008B000AE4201D107E0002601212000FFF773FFBF
:1008C000C0B20028E4D0C0B2042800D10720C0B2D2
:1008D000F2BD70B504000D0015F11A00FFF722FCFF
:1008E00006002078032805D115F11400FFF71AFC43
:1008F00056EA0046300070BD70B504000D001600C9
:10090000310089B215F11A00FFF71FFC2078032887
:1009100005D1310C89B215F11400FFF716FC70BD3A
:100920002DE9F84304000D0015F11A00FFF7FAFB5A
:10093000002801D0002044E0287810F03F00401E3D
:100940000D2101FB00F65FF00108002714E0FF2EE7
:100950000ED2484680B201F0E7F8804634F816001F
:1009600001F0E2F8761C1FFA88F880B2804501D0C9
:10097000002026E0C8467F1C0D2F13D2DFF8C80BDD
:10098000C05D2844FFF7CEFB81461FFA88F8B8F116
:10099000000FDCD11FFA89F94FF6FF708145EAD0CC
:1009A00000200EE0287840060AD51FFA88F8B8F132
:1009B000000F05D034F81600002801D0002000E018
:1009C0000120BDE8F2832DE9F84304000D00160074
:1009D0006B730F20E87200202873002115F11A00B4
:1009E000FFF7B3FBF6B2701E0D2101FB00F95FF0BB
:1009F00000081FFA88F847461FFA88F84FF6FF707C
:100A0000804503D034F8198019F10109414689B2B3
:100A1000DFF8340BC05D2844FFF797FB1FFA88F816
:100A2000B8F1000F01D14FF6FF787F1C0D2FE3D3F3
:100A30001FFA88F84FF6FF70804503D034F819008C
:100A4000002801D156F040062E70BDE8F183000069
:100A50005252614172724161F0B583B004001700D7
:100A60001E000B222000FFF783FB062E16D33888CA
:100A7000002813D03888BF1C0025102DF7D280B273
:100A800010F0010111EB460680B24008F10303D5D6
:100A900086F4883696F021066D1CEEE7072516F0E1
:100AA0000F003030C0B23A2800DBC01D69464855FF
:100AB0006D1E3609002EF2D17E206946485500266B
:100AC00001E0761C761CAE420AD2A05D202807D039
:100AD000A05DFFF776FB0028F4D0681E8642F0D1B7
:100AE0003000461C082D03D26946495D6D1C00E0AC
:100AF00020212154082EF3D3F7BD00210B220B0037
:100B0000DBB2C90111EB530103785918401C521E86
:100B1000002AF4D10800C0B270472DE9F04104006A
:100B2000256800212000FFF7ECFD80465FFA88F879
:100B3000B8F1000F02D04046C0B273E0FF273E007C
:100B40005FF0FF30E062A1692800FFF770FB80468C
:100B50005FFA88F8B8F1000F62D1E0690078C0B29E
:100B6000002802D15FF004085AE0E169C97A11F067
:100B70003F01A171C0B2E52804D00A0707D5C9B268
:100B80000F2904D0FF265FF0FF30E0623EE0C9B2DB
:100B90000F2921D194F82B10490637D4410606D5E8
:100BA000E1694F7B10F0BF0006002169E16231006E
:100BB000C0B2C9B288420DD13800E169497BC0B2E8
:100BC000884207D1E169E868FFF7AAFE002801D052
:100BD000761E1BE0FF2619E0F6B2002E06D13E007D
:100BE000E069FFF78AFFF6B2864219D094F82B002D
:100BF000C00707D40B2214F12001E069FFF7C8FAFF
:100C000000280DD0FF265FF0FF30E06200212000B9
:100C1000FFF7C9FD80465FFA88F8B8F1000F92D05F
:100C20004046C0B2BDE8F0812DE9F04184B0040037
:100C3000266894F82B00A021084201D006209CE0F1
:100C4000002700E07F1CF06830F817000028F9D179
:100C50000C2214F120016846FFF78AFA9DF80B0078
:100C6000C00727D5402084F82B005FF0010801E081
:100C700018F10108B8F1640F0DD24346F2686946D5
:100C800014F12000FFF7E8FE2000FFF746FF050003
:100C9000EDB2002DECD0B8F1640F01D107206CE06B
:100CA000EDB2042D02D02800C0B266E09DF80B0022
:100CB00084F82B009DF80B00800706D517F10C0077
:100CC0000D21B0FBF1F0471C00E0012739002000A6
:100CD000FFF7D2FD0500EDB2002D2ED17F1E002FB3
:100CE0002BD02069B0EB47112000FFF70AFD05006B
:100CF000EDB2002D21D114F12000FFF7FEFE804659
:100D0000A1693000FFF793FA0500EDB2002D14D170
:100D10004346DBB23A00D2B2E169F068FFF753FE16
:100D20000120F07000212000FFF73DFD0500EDB22D
:100D3000002D02D17F1E002FE2D1EDB2002D1AD17D
:100D4000A1693000FFF773FA0500EDB2002D12D152
:100D500020220021E069FFF715FA0B2214F120018F
:100D6000E069FFF705FA94F82B0010F01800E1692C
:100D700008730120F0702800C0B204B0BDE8F08113
:100D80002DE9F84F04000F00D7F800902068C068E4
:100D9000009000252E0003E0009820F815B06D1C8F
:100DA00019F806B0761C1FFA8BFBBBF1200F0ADA8C
:100DB00009EB060038601FFA8BFBBBF1200F52DAFB
:100DC0005FF0040953E01FFA8BFBBBF12F0F04D037
:100DD0001FFA8BFBBBF15C0F0AD119F806002F2814
:100DE00003D019F806005C2801D1761CF5E7DFE78F
:100DF000FF2D01D30620B6E00BF0FF0B5846C0B222
:100E0000FFF7DFF9002810D019F80680761C1FFACA
:100E10008BFB5FFA88F818EB0B2B4046C0B2FFF74C
:100E2000D7F9002801D106209DE040F2B5115846BF
:100E300080B200F05FFE83461FFA8BFBBBF1000F10
:100E400001D106208FE01FFA8BFBBBF1800FA3DAE4
:100E50001FFA8BFB5946DFF8C00AFFF7A8F90028F4
:100E60009AD006207FE05FF0000900E06D1E002DA3
:100E70000ED0009800EB450030F802BC1FFA8BFB47
:100E8000BBF1200FF2D01FFA8BFBBBF12E0FEDD080
:100E90000020009921F81500002D01D1062062E004
:100EA0000B22202114F12000FFF76CF9002600E04E
:100EB000761C009830F816002028F9D0009830F8F9
:100EC00016002E28F4D0002E03D059F0030900E0BC
:100ED0006D1E002D06D0009800EB450030F8020C86
:100EE0002E28F5D15FF000085FFA88F8C24608277F
:100EF00001E059F00309009830F816B0761C1FFA8B
:100F00008BFBBBF1000F30D194F82000E52802D113
:100F1000052084F82000082F01D15FEA88085FFAD5
:100F200088F818F00C000C2805D05FFA88F818F043
:100F30000300032801D159F002095FEA89700FD438
:100F40005FFA88F818F00300012801D159F0100960
:100F50005FFA88F818F00C00042801D159F008094C
:100F600084F82B900020BDE8F28F1FFA8BFBBBF1B9
:100F7000200FBED01FFA8BFBBBF12E0F01D1AE426A
:100F8000B7D1BA4501D2AE4211D10B2F02D159F0DF
:100F90000309B9E7AE4201D059F00309B542B3D312
:100FA0002E005FF0080A0B275FEA8808A3E71FFA04
:100FB0008BFBBBF1800F13DB59F0020940F2B51136
:100FC000584680B200F074FD83465FEA0B6007D597
:100FD000DFF848091FFA8BFB1BF07F0110F801B006
:100FE0001FFA8BFBBBF1FF0F10DD781E824503D388
:100FF00059F00309BA467EE7584680B2000A04EB6E
:101000000A0181F820001AF1010A25E01FFA8BFB82
:10101000BBF1000F08D01FFA8BFB5946DFF800091F
:10102000FFF7C5F8002804D05FF05F0B59F0030903
:1010300012E01FFA8BFBBBF141001A2802D258F0D4
:10104000020809E01FFA8BFBBBF161001A2803D2EA
:1010500058F00108BBF1200B04EB0A0080F820B027
:101060001AF1010A47E732B50400256802E000984A
:10107000401C0090009800782F28F8D00098007845
:101080005C28F4D00020A06000980078202811D2BD
:10109000802084F82B0000212000FFF732FB25E0A0
:1010A0002069C005C00D284410F134012800FFF765
:1010B00010FCA06069462000FFF762FEC0B2002865
:1010C00014D12000FFF729FD94F82B10C0B200289E
:1010D00006D0C0B2042802D1490700D4052005E09B
:1010E000490703D4A079C006DAD40520C0B232BDC6
:1010F00030B45FF0FF310268002A1CD0036800E0C2
:101100005B1C1A78202A02D31A783A2AF8D11A7866
:101110003A2A0FD102681478521CB4F130050A2D16
:1011200009D29A4207D1303C002C04D121005B1C2B
:10113000036000E00021080030BC704710B50400D7
:101140000020E0705FF0FF3020632000FFF76FF8B1
:10115000002801D004202BE004F23220FEF7E2FF49
:101160004AF65521884201D0032021E094F834004A
:10117000E92807D094F83400EB2818D194F8360009
:10118000902814D103220BA114F16A00FFF700F894
:10119000002801D100200BE00522DFF8881714F1A8
:1011A0008600FEF7F5FF002801D1002000E00220B4
:1011B00010BD000046415400F0B585B00F00150089
:1011C00000213960FFF794FF0600002E01D50B20A7
:1011D00068E1DFF8540750F82640002C01D10C20BC
:1011E00060E13C6015F0FE05207800280DD06078A5
:1011F00000F0BAFBC10708D4EDB2002D03D04007C0
:1012000001D50A204EE100204CE1002020706670DC
:10121000607800F0B1FBC10701D5032042E1EDB2D7
:10122000002D03D0400701D50A203BE1002529000D
:101230002000FFF783FF0600F6B2022E2AD1002716
:1012400004E00020694641F827007F1C042F0BD2E0
:10125000380120444FF4F971084401790029F0D095
:101260000830FEF766FFEDE70027002F00D07F1E55
:10127000684650F82750002D05D029002000FFF7C0
:101280005DFF060000E00326F6B2022E02DB7F1CA3
:10129000042FEDD3F6B2042E01D1012002E1F6B203
:1012A000022E01DB0D20FDE014F13F00FEF73AFFB6
:1012B000B0F5007F01D00D20F4E014F14A00FEF7F4
:1012C00031FF0700002F04D114F15800FEF731FF61
:1012D0000700E76194F84400A070A078012804D0CA
:1012E000A078022801D00D20DCE0A078474394F8D4
:1012F000410060816089002804D060896189491EAD
:10130000084201D00D20CDE014F14500FEF70AFFA0
:101310002081207A0F21084201D00D20C2E014F173
:101320004700FEF7FFFE0600002E04D114F1540022
:10133000FEF7FFFE060014F14200FEF7F3FE80B256
:10134000002801D10D20ADE080B23918228911EBBF
:1013500012118E4201D20D20A4E0721A6389B2FBF1
:10136000F3F2002A01D10D209CE00026DFF8BC3505
:101370009A4200D203264FF6F6739A4200D2022612
:1013800040F6F6739A4200D20126F6B2002E01D141
:101390000D2087E0921CA261256280B24019606234
:1013A0004819E062F6B2032E14D114F15E00FEF784
:1013B000B9FE002801D00D2074E02089002801D05A
:1013C0000D206FE014F16000FEF7B3FEA062A0698B
:1013D000800015E02089002801D10D2062E0606ABC
:1013E0003818A062F6B2022E02D1A069400007E0D0
:1013F000A06903214843217E11F0010111EB500047
:10140000E16900F2FF10B1EB502F01D20D2049E04D
:101410005FF0FF3060616069206180202071F6B26A
:10142000032E32D114F16400FEF77CFE01282CD18A
:10143000691C2000FEF7FBFE002826D10020207149
:1014400004F23220FEF76EFE4AF6552188421CD186
:1014500014F13400FEF76DFEDFF8D414884214D185
:101460004FF406702044FEF764FEDFF8C81488428B
:101470000BD14FF407702044FEF75BFE60614FF420
:1014800008702044FEF755FE20612670DFF8A8049E
:101490000088401CDFF8A0140880DFF89C04008856
:1014A000E080002005B0F0BD70B506000C000925F5
:1014B000002E12D0306800280FD030680078002845
:1014C0000BD0B0883168C988884206D1306840782E
:1014D00000F04AFAC00700D40025EDB2002D01D17A
:1014E000306800E0002020602800C0B270BD13B555
:1014F00082B01400039800906846FFF7F9FD0028B9
:1015000001D50B201DE0DFF8201451F82010002930
:1015100001D000220A700299002902D00021029A0B
:1015200011700299DFF8002442F82010E4B2002C78
:1015300001D1002005E0002202A903A8FFF73CFE2C
:10154000C0B204B010BD0000287500082DE9F241BA
:10155000ADF50D7D04001500002C01D10920DDE062
:1015600015F03F052A00D2B269468DA8FFF724FE88
:101570000600F6B2002E40F0CA80009801900DA837
:101580000099C8608D9901A8FFF76DFD0600F6B2BD
:10159000002E04D19DF82F00000600D506261C2041
:1015A00005424DD0F6B2002E09D0F6B2042E03D17A
:1015B00001A8FFF739FB060055F0080509E09DF882
:1015C0000A001121084201D0072602E0680700D571
:1015D0000826F6B2002E43D1280741D50899009875
:1015E000FFF777F90700DFF8541308980E30FEF77D
:1015F000B3FD20200899C872002208990098FFF7CF
:101600007BF9002108981C30FEF7A6FD0120009907
:10161000C870002F24D00098D0F830800022390004
:1016200001A8FEF768FF0600F6B2002E18D1414669
:101630000098FEF7FCFD0600781E009908610FE097
:10164000F6B2002E0CD19DF80A00C00601D5042682
:1016500006E0A80704D59DF80A00C00700D50726B4
:10166000F6B2002E08D1280701D555F040050098A4
:10167000006B206208986062F6B2002E47D108998C
:101680000098FFF726F9A06008981C30FEF751FD7E
:10169000E060009820600098C088A0802574002039
:1016A00060740020E06100206061A8062FD5E0682A
:1016B00000282CD0E0686061009840894FF40071E8
:1016C00001FB00F5A068E7680BE001002000FEF7D1
:1016D00024FE022800D2022610F1010F00D10126BB
:1016E0007F1BF6B2002E01D1BD42EED3A061F6B24F
:1016F000002E0CD1F9050AD001000098FEF701FE7A
:10170000002801D1022602E010EB5720E061F6B27A
:10171000002E01D0002020603000C0B20DF50E7DFB
:10172000BDE8F0812DE9F04782B0050016001F00EA
:101730000C000020386069462800FFF7B5FEC0B2F3
:10174000002804D1687C0100C9B2002901D0C0B2D0
:10175000A5E0287CC00701D40720A0E0E8686969FB
:10176000401AB04217D2060015E042460098696957
:10177000C905C90D084410F134012000FEF7F8FC3A
:10178000B6EB0806386818EB000038604444686916
:1017900018EB00006861002E00F080806869C005C9
:1017A00069D1686900994989491E11EA5028B8F140
:1017B000000F16D16869002801D1A86803E0A96963
:1017C0002800FEF7AAFD022803D202206874022036
:1017D00065E010F1010F03D10120687401205EE083
:1017E000A861A9690098FEF78CFD8146B9F1000F48
:1017F00003D102206874022051E018EB09095FEA66
:10180000562ABAF1000F34D0009840891AEB08012B
:10181000884203D200984089B0EB080A53464A46F2
:1018200021000098407800F0C8F8002803D001207B
:101830006874012033E00098C078002814D0009824
:10184000006BB0EB090050450ED24FF400720098C7
:1018500010F134010098006BB0EB09004FF40073F5
:1018600058432044FEF784FC4FF4007000FB0AF854
:1018700086E7C5F81C906869C005C00DD0F50078F2
:10188000464500D2B046E9690098FEF7D0FC002832
:101890003FF46BAF01206874012000E00020BDE838
:1018A000F68770B582B0040069462000FFF7FCFDA2
:1018B000C0B200282DD1217C49062AD51F4D216AAE
:1018C0000098FEF7B4FCC0B2002822D1666AF07A14
:1018D00050F02000F072A26831002068FFF70CF889
:1018E000E16816F11C00FEF737FC290016F116001E
:1018F000FEF732FC002116F11200FEF726FC012053
:101900000099C8700098FEF7B0FC217C11F0BF016F
:101910002174C0B276BD00009875000838730008C5
:10192000347600083C76000814700020F6FFFF0FA4
:1019300052526141727241612C7000200000A14A34
:1019400010B582B004002000FFF7ABFFC0B2002842
:1019500008D169462000FFF7A7FDC0B2002801D1D9
:1019600000212160C0B216BDC0B2002801D0012004
:1019700001E04C480078704780B5C0B2002801D023
:1019800001200EE000F02AF900280BD0454800782D
:1019900010F0FD004349087000F03CF9002803D125
:1019A000012002BD0220FCE73E48007810F0FE0056
:1019B0003C4908703B480078F3E72DE9FC410C00F6
:1019C00016001D00C0B2002801D1002D01D1042055
:1019D00060E034480078C00701D503205AE040F2A7
:1019E00011284FF47A77012000F010FB012D02D16D
:1019F00040F2112801E040F212283200414609B2BB
:101A0000684600F0E6F97F1E9DF80000002801D02E
:101A1000002FF2D1002F01D103203BE0002607E088
:101A20004FF4007000FB06F0204400F056FA761CDC
:101A3000AE42F5D3022D2CD300224FF40371684639
:101A400000F0C7F99DF80000002817D04FF480512E
:101A5000154800F096FE4FF48061134800F08FFEA9
:101A600000F08CFA8DF800004FF480510E4800F021
:101A700086FE4FF480610C4800F083FE7F1E9DF8C7
:101A80000000002801D0002FD6D1002F01D1032063
:101A900000E00020BDE8F681044800787047034864
:101AA00000787047E60000200004024038700020F3
:101AB00010B40022464B80B2802801DA020015E003
:101AC00089B240F2B514A14210D1002200E0521CAC
:101AD00092B2802A06DA010092B233F8124089B23B
:101AE000A142F4D112F1800000F0FF02100080B298
:101AF00010BC704710B40022354B80B2802801DA48
:101B000002000DE089B240F2B514A14208D180B2C2
:101B1000FF2805DC80B203EB4000B0F5807002883E
:101B2000100080B210BC704730B480B2B0F5805F56
:101B300001DA284A07E0284A05E089B2002902D1E3
:101B4000A4B202EB44021388921C9BB2002B05D076
:101B500001001C0089B2A4B2A14200D235E0148871
:101B6000921C210089B2090A04F0FF0480B29BB2E2
:101B7000A4B2E518A842E0DA89B200290CD0022903
:101B800015D00FD3042916D013D3062917D014D398
:101B9000082918D015D318E080B29BB2C01A32F8C9
:101BA000100012E0C11A11F00101401A0DE01038C6
:101BB0000BE0203809E0303807E01A3805E008303B
:101BC00003E0503801E0B0F5E35080B230BC70471C
:101BD0007C7100085C6A00087C72000880B5DFF840
:101BE0008403008880070AD50120DFF87C13087081
:101BF0000021DFF8780300F0F3FD012009E0002068
:101C0000DFF8641308700121DFF8600300F0E8FDDD
:101C1000002002BD30B583B000250824002000F06C
:101C2000F5F94FF48051DFF8480300F0A8FD4FF4B8
:101C30008061CF4800F0A5FD002502E000F09EF98C
:101C40006D1C0A2DFADB642500224FF400716846F2
:101C500000F0BFF8DDE90001C64AC2E900016D1ECF
:101C6000C4480078C00701D4002DEDD1002D01D16A
:101C70000020ADE00A254FF4D57240F60801684611
:101C800000F0A7F8DDE90001BA4AC2E90001B9484D
:101C90000078400701D502240BE06D1EB54800789E
:101CA000C00704D5B3484068B0F5D57F01D0002DFA
:101CB000E1D1002D01D100208AE0182004420AD190
:101CC000002240F23721684600F083F8DDE9000188
:101CD000A84AC2E900014FF4FA755FF0804240F271
:101CE0002931684600F075F8DDE90001A14AC2E932
:101CF0000001A0480078400702D5A00725D501249F
:101D00006D1E9C480078C00701D5002DE5D1002D3F
:101D100002D1A0071BD50124E0071AD50A2500220D
:101D200040F20121684600F054F8DDE90001914AD3
:101D3000C2E900016D1E8F480078002801D0002DF7
:101D4000EDD1002D05D1002042E0002040E0002030
:101D50003EE0182004421ED0FF20864908700A2564
:101D6000002240F23A41684600F033F8DDE9000114
:101D7000804AC2E900016D1E7E480078002801D02B
:101D8000002DEDD1002D01D1002021E079484068DF
:101D9000400000D404240720044217D00A254FF441
:101DA00000724FF40471684600F013F8DDE9000199
:101DB000704AC2E900016D1E6E480078002801D00B
:101DC000002DECD1002D01D1002001E02000C0B297
:101DD0003EBDF0B585B004000D0017000826E805EB
:101DE0000AD5002240F2372101A8FFF7F2FFDDE912
:101DF0000101604AC2E90001FF202DB2B5F5007F64
:101E000001D1952005E02DB240F608018D4200D1A8
:101E1000872055F040018DF80410390E8DF805101B
:101E2000390C8DF80610390A8DF807108DF80870F6
:101E30008DF809004FF480514D4800F0A2FC4FF49A
:101E400080614B4800F09BFC002705E001A8FFB231
:101E5000C05D00F06CF87F1CFFB2062FF6DB00F0CF
:101E60008DF88DF80C00761E9DF80C00000602D54A
:101E7000F6B2002EF3D12DB215F46060B0F5007FFC
:101E80000AD0002505E000F079F86946EDB2485522
:101E90006D1CEDB2042DF6DB9DF800009DF80110DD
:101EA000090451EA00609DF8021050EA01209DF8F3
:101EB0000310084304904FF480512D4800F05FFC5C
:101EC0004FF480612A4800F05CFC00F057F8DDE92F
:101ED0000301C4E9000105B0F0BD38B504004FF4BA
:101EE0008051234800F04DFC4FF48061204800F001
:101EF00046FC00F043F8FE28FBD1002503E000F08B
:101F00003DF860556D1CB5F5007FF8DB00F036F844
:101F100000F034F84FF48051154800F030FC4FF4D5
:101F20008061134800F02DFC00F028F831BD10B599
:101F3000040000200221104800F0F5FC0028F9D030
:101F4000E4B2210089B20C4800F0DFFC01210A480C
:101F500000F0E9FC0028F9D0074800F0D4FCC0B23A
:101F600010BD00001000024037700020E500002086
:101F700000040240047000200038004080B50020BA
:101F8000FF20FFF7D4FFC0B202BD000040B200281E
:101F900005D40901DFF8CC2640B2115408E009014C
:101FA000DFF8C42640B210F00F00104400F8041C03
:101FB000704780B5411EB1F1807F01D3012011E04F
:101FC000401EDFF8A81608600F215FF0FF30FFF712
:101FD000DDFF0020DFF8981608600720DFF8941670
:101FE0000860002002BD1FB50400684600F0A6FC92
:101FF0000198DFF88416B0FBF1F06043FFF7D9FFDA
:1020000000215FF0FF30FFF7C1FF1FBD10B50400D6
:10201000E4B2002C26D10021DFF8600600F065FC58
:1020200000220121DFF8540600F071FC0022022199
:10203000DFF8480600F06BFCDFF8400600884FF63A
:10204000C7710840DFF834160880DFF830060088D2
:1020500050F02000DFF8241608800121DFF81C066C
:1020600000F043FCE4B2022C02D0E4B2012C26D1F1
:102070000021DFF8080600F038FC01220121DFF81A
:10208000FC0500F044FC01220221DFF8F00500F01D
:102090003EFCDFF8E80500884FF6C7710840DFF81E
:1020A000DC150880DFF8D405008850F01000DFF858
:1020B000CC1508800121DFF8C40500F016FC10BD26
:1020C00080B5002802D0012818D02EE04FF48051AE
:1020D000DFF8AC0500F053FB4FF48061DFF8A0059A
:1020E00000F04FFB2021DFF89C0500F04AFB4FF485
:1020F0000061DFF88C0500F042FB16E02021DFF8DC
:10210000840500F03CFB4FF40061DFF8740500F03B
:1021100038FB4FF48051DFF8680500F032FB4FF4D4
:102120008061DFF85C0500F02AFB01BD2DE9F04F6E
:102130008BB00024DFF8500540781D2840F0DC818A
:10214000002406E0DFF840052044C07969460855C0
:10215000641C172CF6DB002410216846005D6A46DB
:102160002244527852EA002000F0B2FA00F0BCFC9F
:102170000022DFF8183500F0CDFC00F0F7FD0990E3
:1021800010216846204480786A462244D27852EA78
:10219000002000F09DFA00F0A7FC0022DFF8EC34EC
:1021A00000F0B8FC00F0E2FD0890102168462044E1
:1021B00000796A462244527952EA002000F088FAF7
:1021C00000F092FC0022DFF8C43400F0A3FC00F021
:1021D000CDFD079010216846204480796A4622444C
:1021E000D27952EA002000F073FA00F07DFC002260
:1021F000DFF89C3400F08EFC00F0B8FD0690102152
:1022000068462044007A6A462244527A52EA002004
:1022100000F05EFA00F068FC0022DFF8743400F091
:1022200079FC00F0A3FD0500102168462044807A67
:102230006A462244D27A52EA002000F049FA00F0BD
:1022400053FC0022DFF8483400F064FC00F08EFDFF
:102250000600202168462044007B6A462244527BC7
:10226000120452EA00606A462244927B50EA02203D
:102270006A462244D27B104300F02AFA00F034FC74
:10228000DFF81024DFF8103400F0B8FD00F06EFD28
:102290000700202168462044007C6A462244527C84
:1022A000120452EA00606A462244927C50EA0220FC
:1022B0006A462244D27C104300F00AFA00F014FC73
:1022C000DFF8D023DFF8D03300F098FD00F04EFDAA
:1022D0008046102168462044007D6A462244527D93
:1022E00052EA002000F0F4F900F0FEFB00F03EFDA1
:1022F00002000023DFF8A4B35FF0FF345FF0FF3A81
:102300005FF0FF305FF0FF315FF0000901E019F18D
:102310000109DFF88C030068DFF8881309684FF4BF
:102320000F7C0CFB01F10844DFF8781349685FF07B
:10233000700C0CFB01F10844D0F88800814580F254
:102340009080DFF85C030068DFF8581309684FF4E9
:102350000F7C0CFB01F10844DFF8481349685FF07B
:10236000700C0CFB01F10844142101FB09F1084435
:10237000D0F8940000280CD002280ED00BD30428EB
:102380000FD00CD3062810D00DD3082811D00ED3AF
:1023900010E0069B0EE02B000CE033000AE0099BE6
:1023A00008E0089B06E0079B04E03B0002E0434690
:1023B00000E01300BA480068BA4909684FF40F7C7E
:1023C0000CFB01F10844B74949685FF0700C0CFB45
:1023D00001F10844142101FB09F10844D0F898A048
:1023E000AF480068AF4909684FF40F7C0CFB01F15E
:1023F0000844AC4949685FF0700C0CFB01F10844DB
:10240000142101FB09F10844D0F89CB0BAF1000F87
:1024100004D15846190000F0C3FD21D3BAF1010FD1
:1024200004D11800594600F0BBFD19D3BAF1020FD0
:1024300004D11800594600F0C5FD11D9BAF1030FB7
:1024400004D15846190000F0BDFD09D9BAF1040FB6
:102450007FF45DAF1800594600F0C6FD7FF457AF1A
:102460004C46002C48D48F4800688E4949680022A9
:1024700000E0521C8A4B1B68DB6D9A423CDA002359
:1024800000E05B1C864D2D684FF40F7606FB02F6CC
:102490003544AD6EAB4227DA814D2D684FF40F768F
:1024A00006FB02F63544702606FB03F63544ED6E56
:1024B0007B4E36687B4F3F684FF40F7C0CFB07F771
:1024C0003E44784F7F685FF0700C0CFB07F73E448A
:1024D000142707FB04F73E44D6F89060B542D0D1EC
:1024E000704D2A606F4D6B606E4B5B688B4203D101
:1024F0006C4B1B688342BCD00BB0BDE8F08F10B5AD
:102500008AB00020ADF820000024654800686549C5
:1025100009684FF40F7251430844624949687022B8
:1025200051430844006F002805D0022807D004D387
:10253000032806D064E0002462E0022460E0032463
:102540005EE0042456480068564909684FF40F724B
:102550005143084453494968702251430844C06FAD
:1025600000F050FD2D2148434F4908604C48006859
:102570004C4909684FF40F7251430844494949686E
:10258000702251430844406F00F04EFD47490880D7
:1025900043480068434909684FF40F7251430844A7
:1025A00040494968702251430844806F00F03CFD67
:1025B0003F4908803A4800683A4909684FF40F7269
:1025C0005143084437494968702251430844D0F8C0
:1025D000800000F029FD3749088031480068314902
:1025E00009684FF40F72514308442E49496870221C
:1025F00051430844D0F8840000F016FD2E490880AD
:102600002D48B0F9000007902A48B0F90000069064
:102610002748B0F9000005902448B0F90000049064
:1026200001200390204800680290E4B20194002049
:102630000090224B224A2349234800F017FD2348EB
:10264000039008A8029000200190282000901B48C9
:1026500003881B4802781B4801781B4800F062FF82
:102660000AB010BD00E400E018ED00E014E000E066
:1026700018E000E010E000E040420F0000380040A9
:102680000004024000000240646F002000806440AB
:102690000000C040FA7C94111780963F000080BF74
:1026A00000000020FC6F002004000020DC0000205F
:1026B000DE000020E0000020E20000202E7000205C
:1026C0003570002034700020946F0020046F0020CB
:1026D0000122491E12FA01F1814203DAB0EB4100F6
:1026E000401CFFE77047000030B4002200230024A4
:1026F000002300223FE0012393400C681C409C42D1
:1027000038D1036803241500EDB26D00AC40A3433B
:102710000C791500EDB26D00AC40234303600B79DA
:10272000012B02D00B79022B16D1836803241500EC
:10273000EDB26D00AC40A3434C791500EDB26D00D5
:10274000AC4023438360838801249440A3438C7965
:102750009440A4B223438380C36803241500EDB2E0
:102760006D00AC40A343CC791500EDB26D00AC40D8
:102770002343C360521C102ABDD330BC7047018371
:10278000704741837047828A51408182704770B49C
:1027900000230023D2B211F00703DBB29B0012FA30
:1027A00003F389B2CA1000EB820289B2CC1000EBAD
:1027B0008404246A0F2511F00706F6B2B600B5406E
:1027C000AC43146289B2CA1000EB8202126A13434E
:1027D00089B2C91000EB8100036270BC7047000031
:1027E00030B40022154B1A6004E0144A1268521CDF
:1027F000124B1A60114A1268114B1B689A421BDA7D
:102800000278104B0D4C246803256C431B5D9A42E3
:10281000EBD10A000B4B094C246803256C4323447D
:102820005B78D2B29A42E0D10649044A1268032387
:102830005A4311448978017030BC704724700020DD
:10284000B8000020FC74000880B5154988420AD100
:1028500001214FF4805000F011F900214FF4805015
:1028600000F00CF91AE00F4988420AD101214FF417
:10287000804000F013F900214FF4804000F00EF981
:102880000CE00949884209D101214FF4004000F0D1
:1028900005F900214FF4004000F000F901BD0000EF
:1028A0000030014000380040003C004010B40022DD
:1028B000028812F441520B884C8823438C882343AE
:1028C000CC8823430C8923434C8923438C8923439D
:1028D000CC8923431A430280828B4FF2FF731A4044
:1028E0008283098A018210BC7047C9B2002904D0D2
:1028F000018851F04001018004E001884FF6BF7269
:102900001140018070478089704781817047D2B241
:10291000002A03D082881143818003E0828832EA52
:1029200001018180704700220089084201D0012204
:1029300000E000221000C0B270470000002100211A
:1029400000220023002100215C49096811F00C01DC
:10295000002906D0042911D0082912D00C2913D03F
:1029600031E057490968C1F342310122491C12FA8A
:1029700001F14FF400425143016030E051490160E0
:102980002DE0514901602AE04C49096811F47011A9
:102990004A4A126812F440024C4B890C595C920D61
:1029A000521C464B1B6813F48033002B05D1454B5A
:1029B0005943B1FBF2F1016004E0434B5943B1FBD1
:1029C000F2F101600BE03E490968C1F34231012296
:1029D000491C12FA01F14FF400425143016037499A
:1029E000096811F0F0010909394A515C0268CA40CE
:1029F00042603249096811F4E061090A344A515CC5
:102A00004268CA4082602D49096811F46051C90AC0
:102A10002F4A515C4268CA40C2607047C9B200295F
:102A200005D02C49096808432A49086005E029496E
:102A3000096831EA0000274908607047C9B20029D7
:102A400005D02549096808432349086005E0224963
:102A5000096831EA0000204908607047C9B20029BE
:102A600005D01E49096808431C49086005E01B4958
:102A7000096831EA0000194908607047C9B20029A5
:102A800005D01749096808431549086005E014494D
:102A9000096831EA0000124908607047C9B200298C
:102AA00005D01049096808430E49086005E00D4942
:102AB000096831EA00000B49086070470838024095
:102AC000043802400024F40000127A00BC00002008
:102AD000C80000201C380240203802402438024040
:102AE0001438024018380240010040F10780F446D3
:102AF000404200F003F851F00041604709D0B0FABD
:102B000080F18840C91CC1F58461090501EBD02121
:102B1000400570472DE9F04140F2FF7581EA030C52
:102B20000CF0004C15EA11541DBF15EA1357AC42C6
:102B3000AF42E9E0BC41C1F31301C3F31303801AB0
:102B4000994143F4801304D2641E40004941801827
:102B50005941C90241EA5051B1FBF3F603FB16118A
:102B6000A2FB0675D7EBC020A94102D2761E8018C1
:102B70005941C90241EA5051B1FBF3FE03FB1E115A
:102B8000A2FB0E75D7EBC020A94103D2AEF1010E16
:102B900080185941890241EA9051760546EA8E2E05
:102BA000B1FBF3F603FB1611A2FB0675D7EB8020F1
:102BB000A94102D2761E80185941C90241EA5051FA
:102BC0004EEA060EB1FBF3F603FB1611A2FB0675E7
:102BD000D7EBC020A94102D2761E80185941C90204
:102BE00041EA5051B1FBF3F703FB1711A2FB073584
:102BF000D3EBC020A94167F100070CBF004247F0AA
:102C0000010766F3D5274FEA1E31B80814F5806432
:102C100014DDBD0775F1004250EB0E5051EB04512D
:102C200011F5801F5CBF41EA0C01BDE8F0814CF05A
:102C30007F6141F0E0410020BDE8F081BD076D08F3
:102C400040EA0E5041F48011D4F10104B4F12006A1
:102C50000ADAC4F120060200E04001FA06F3E1407E
:102C60001843B24015430EE0342C14DCC6F12004A6
:102C700045EA40056D0820FA06F2154321FA06F0F0
:102C8000A1400D43002175F1004250F1000051EBCD
:102C90000C01BDE8F08100205FEA0C01BDE8F08185
:102CA000CFB992185B41B3FA83F704BFB2FA82F648
:102CB000BF190B3FB7F120062FBF02FA06F3BB4046
:102CC000C7F1200622FA06F638BF3343BA401CB1DA
:102CD000E419641E2FE77F4231F00041B1FA81F41C
:102CE00004BFB0FA80F6A4190B3CB4F120062FBF44
:102CF00000FA06F1A140C4F1200620FA06F638BF1A
:102D00003143A0403C1B16E7AC421ABF05EA1357FB
:102D1000AF4214E050EA41061CBF52EA4306BFE747
:102D200050EA4107304661461CBF41EA0551BDE803
:102D3000F08152EA430C08BFC143BDE8F081002096
:102D40004FF4001616EB410F98BF16EB430F08BF68
:102D500016EB410F24BFC14305E016EB430F0CBF38
:102D600061464CEA0551BDE8F08100004FEAF17C74
:102D7000BCF1E04C2CBFBCF5001F11E05FEA4C0C2D
:102D800034BFBCF17F5F2EE05FEA9C0C4FEA0C1C65
:102D90004FEA3C0CC10071F100414CEB50707047A0
:102DA000C90241EA5051C00218BF41F0010141F08F
:102DB00000414FEA6C50C0F10900212810D240EACE
:102DC000CC7CCCF1200C11FA0CF070F10040CCF16D
:102DD000200C21FA0CF00CF0004C40EB0C0070477A
:102DE0004FEACC707047490011F5001F04D84FEA34
:102DF000CC10FF30C0057047C8177047B0B581EAE6
:102E0000030C0CF0004C40F2FF7515EA11541DBF85
:102E100015EA1357AC42AF4239E0E41923EA4553AF
:102E200043F48013C90241F0004141EA505EC702F9
:102E30001100A7FB020200284FF00000EEFB01206A
:102E40004FF00001E3FB072118BF42F001024018D8
:102E500000214941E3FB0E01A4F580640F0302D277
:102E600052004041494154F101046CDD470872F1C0
:102E7000004250F1000051EB0451A1F580115CBFFC
:102E800041EA0C01B0BD4CEA05510020B0BD05EA95
:102E90001357AC4214BFAF4241E050EA410E1CBF91
:102EA00052EA430E02E061460020B0BD24423C4499
:102EB0001BD15FEA070EF6D0090302BF01460020CE
:102EC000AEF1140EB1FA81F7AEEB070401FA07FE7A
:102ED0000C37C7F1200100FA07F7C8404EEA000E90
:102EE00023EA455343F48013A2E733F00043B3FAD7
:102EF00083F704BFB2FA82FE77440B3FE41BB7F1BD
:102F0000200E2FBF02FA0EF3BB40C7F1200E22FAAB
:102F10000EFE38BF43EA0E03BA40641C82E750EA53
:102F2000410E14BF52EA430E6FF000014FF4001738
:102F300017EB430F8ABF194617EB410FB5E74CEA71
:102F400005510020B0BDD4F10104B4F120070FDA1F
:102F5000C4F12007520828BF42F0010210FA07F519
:102F600001FA07F7E1BF2A43E0403843E1400FE0B0
:102F7000352C98DCC7F1200452EA400220FA07F20F
:102F800018BF42F0010231FA07F0A1400A430021C4
:102F900072F1004250F1000051EB0C01B0BD000095
:102FA0004FF0807C1CEB400F94BF1CEB410F05E001
:102FB00040EA010C5FEA4C0C01D28842704718BF0E
:102FC000814270474FF0807C1CEB400F94BF1CEB9C
:102FD000410F05E040EA010C5FEA4C0C01D281424E
:102FE000704718BF8842704740EA010C5FEA4C0CFA
:102FF00007D0884205D14FEA400C1CF1807F98BF72
:103000008042704740000DD2010E7F390AD4D1F1C1
:103010001F0104D4C00140F00040C84070477FF059
:1030200000007047002070474100090E7F3915D419
:10303000D1F11F0114D4400007D2C00140F000407C
:10304000C84048BF6FF000407047C00140F00040EA
:10305000C8404CBF4FF000404042704700207047CE
:1030600000424FF0004058BFC043704738B50500DC
:103070001C000020ADF800006520087001201070D1
:103080000498BDF800106854BDF80000401CADF86D
:1030900000000598BDF800106854BDF80000401C01
:1030A000ADF800006A462900069800F0B2FA0798C9
:1030B000BDF800106854BDF80000401CADF80000D9
:1030C0006A462900089880B200F087FA6A4629000B
:1030D000099880B200F081FA6A4629000A9880B205
:1030E00000F07BFA6A4629000B9880B200F075FA6E
:1030F000BDF80000208031BD30B4002465250D707E
:10310000022111700299A4B20155641C1C8030BCCC
:1031100070477FB504000D000020ADF80C000026BC
:10312000002000200020684600210022C0E9001293
:103130000420ADF80C00BDF80C00265CBDF80C00B6
:10314000401CADF80C00BDF80C00205CBDF80C0074
:10315000401CADF80C0003A9200000F06EFABDF889
:103160000C00205CBDF80C00401CADF80C0003A95D
:10317000200000F040FAADF8000003A9200000F0A4
:103180003AFAADF8020003A9200000F034FAADF8D5
:10319000040003A9200000F02EFAADF80600F6B2F4
:1031A000642E00DB643EF6B20096A34BA34AA4490A
:1031B000A448FFF7A1FF012002900195207800901C
:1031C0009D4803889D4802789D4801789D4800F0FD
:1031D000C2F97FBD38B505000020ADF80000002021
:1031E00099489A4C0420ADF80000BDF80000285C16
:1031F000BDF80010491CADF80010C0B200283CD149
:103200006946280000F0F7F921680880694628001F
:1032100000F0F1F9216848806946280000F0EBF9D8
:10322000216888806946280000F0E5F92168C88097
:103230006946280000F0DFF9216808816946280006
:1032400000F0D9F9216848816946280000F0F5F9B5
:1032500060606946280000F0F0F9A0606946280027
:1032600000F0C9F900B2216808626946280000F040
:10327000C2F900B221684863D8E0C0B2012840F02A
:10328000B480BDF80000285CE16881F86C00BDF8EE
:103290000000401CADF80000BDF80000285CE168AB
:1032A00081F86D00BDF80000401CADF80000BDF8CD
:1032B0000000285CE16881F86E00BDF80000401C49
:1032C000ADF80000BDF80000285CE16881F86F00EF
:1032D000BDF80000401CADF80000BDF80000285CFF
:1032E000E16881F87000BDF80000401CADF80000F6
:1032F000BDF80000285CE16881F87100BDF80000AD
:10330000401CADF80000BDF80000285CE16881F8C1
:103310007200BDF80000401CADF80000BDF80000D0
:10332000285CE16881F87300BDF80000401CADF82E
:103330000000BDF80000285CE16881F87400BDF869
:103340000000401CADF80000BDF80000285C4049BA
:10335000C871BDF80000401CADF80000BDF80000C9
:10336000285C3B490872BDF80000401CADF8000025
:10337000BDF80000285C36494872BDF80000401CCA
:10338000ADF80000BDF80000285C31498872BDF836
:103390000000401CADF80000BDF80000285C2C497E
:1033A000C872BDF80000401CADF80000BDF8000078
:1033B000285C27490873BDF80000401CADF80000E8
:1033C000BDF80000285C22494873BDF80000401C8D
:1033D000ADF80000BDF80000285C1D498873BDF8F9
:1033E0000000401CADF8000020E0C0B202281DD152
:1033F0006946280000F0FFF820856946280000F0A3
:10340000FAF860856946280000F0F5F8A08569465D
:10341000280000F0F0F8E0856946280000F0EBF89D
:1034200020866946280000F0E6F86086206861681A
:10343000406A016031BD00002E7000203570002010
:1034400034700020946F0020506A00201C6A002015
:10345000B86F002080B54FF4007000F0BDF801BDDA
:1034600080B50020002017E00FF23901574A0C23E5
:1034700003FB00F3D1500FF22D01544A0C2303FB40
:1034800000F31A4451600FF21D01504A0C2303FB54
:1034900000F31A449160401C7F28E5DB00F0E4F85B
:1034A00001BD000070472DE9F84305000F0090466C
:1034B00000205FF000090024212B01D3202400E02C
:1034C0001C0000F0E9F8099E042332000899C0B2FC
:1034D00000F0E8F80120B0705FFA88F8B8F1010F49
:1034E00012D1780050F00100F0705FF004091FFA6B
:1034F00089F94E4422002900300000F0DFF814EB77
:10350000090080B2BDE8F2835FFA88F8B8F1020FD3
:1035100002D17800F070E8E74FF4806000F05CF8CA
:103520000020EFE710B58CB0002402AC01940E9C93
:1035300000949BB2D2B2C9B2FFF7B5FF04002200DB
:10354000D2B2119902A800F0F5F8040030241098C6
:1035500004800CB010BDF0B585B00C001500002142
:10356000ADF8101000260B9E1949039104A9029191
:1035700001960A9900919BB22A00D2B22100C9B2E9
:10358000FFF7D0FF134831784FF4D4725143084409
:1035900010F1D406BDF810200D49F71D380000F0D9
:1035A0008DF8EDB2012D03D1600050F0010000E074
:1035B000600070710C98002803D1300000F06AF8A8
:1035C00002E0300000F067F805B0F0BD286400208C
:1035D000346F0020E8500020704710B403009BB205
:1035E0001B0A14880B551388194448701088801CD6
:1035F000108010BC704700220A88825C0B88184437
:10360000407810EB02220888801C0880100080B2ED
:10361000704710B4030E14880B55030C14880C4427
:103620006370030A14880C44A37013881944C8708B
:103630001088001D108010BC704700220A88825C30
:103640000B8803445B781B0413EB02620B88034472
:103650009B7812EB03220B881844C07882180888E4
:10366000001D08801000704706480749C1F8BC04D7
:1036700006480549C1F8C00405480349C1F8C40417
:10368000704700BF1331000828640020553400083B
:10369000D531000870477047014800787047000036
:1036A000E400002070B504000D001600190000228F
:1036B000300000F0A1F83470757070BD62B38B07F4
:1036C00008D0521E11F8013B00F8013B00F02480A5
:1036D0008B07F6D1830740F0208000BF103A07D354
:1036E00030B4B1E83810103AA0E83810F9D230BC44
:1036F000530724BFB1E80810A0E8081044BF51F8F0
:10370000043B40F8043BD20724BF31F8022B20F8D9
:10371000022B44BF0B7803707047083A07D3B1E817
:103720000810083A40F8043B40F804CBF7D253079E
:10373000E4E70000F8B505000C00160000200021A9
:103740000022002200213021AA22200000F054F89B
:1037500000210222002003E02B5CA354521C401CD9
:10376000F6B2B04211D22B5CED2B05D02B5CEE2BC8
:1037700002D02B5CE92BEFD1491CE923A3542B5C2D
:1037800004EB02077B70521CE8E7F6B28A1919486D
:1037900046701848C1701748827016488079401CDE
:1037A00014498871302A09D330210022200000F00A
:1037B00023F800200F49487100201AE00021002062
:1037C00004E004EB00039B785918401C9042F8D3A6
:1037D00008480171ED202070627004EB02008170D6
:1037E000EE2004EB0201C870D01C02494871D01CC5
:1037F000C0B2F2BDF46F002062F30F2262F31F42E9
:10380000401810F0030308D0C91A1FD3DB0748BFC4
:1038100000F8012D28BF20F8022D130030B4144603
:103820001546103928BF20E93C00FAD8490728BFBF
:1038300020E90C0048BF40F8042D890028BF20F87B
:10384000022D48BF00F8012D30BC7047C91818BFC1
:1038500000F8012DCB0728BF00F8012D70470000AC
:1038600030B5ADF51D7D0120FEF72AFC00222FA109
:103870000FA8FDF73CFE01222D4905A8FDF766FEC5
:10388000089CB4F5005F01DD00204BE0200001F052
:10389000BFF9DFF8BC1D0860DFF8B40D0068002830
:1038A00003D101F061F900203CE001AB2200DFF818
:1038B000A00D016805A8FDF735FF05A8FEF740F843
:1038C00000221AA10020FDF712FE02A801F0F6FB6B
:1038D0000020009000232200DFF8740D016802A888
:1038E00001F0C7FA050002A801F0E8FB280101F089
:1038F0008FF9104908600F480068002803D101F0D3
:1039000033F900200EE000950A4803682200DFF832
:10391000400D016802A801F0ACFA00F00DF801F0CA
:1039200023F901200DF51D7D30BD000000000000D1
:103930001C7600081C7000202DE9F84301240125A5
:10394000012600275FF000085FF000090020DFF883
:10395000781E0968C865002012E0DFF86C2E126836
:103960004FF40F7303FB00F31A44702303FB01F3BE
:103970001A440023C2F88830491C0529EDDB401C9D
:1039800004280BDA0021DFF8402E12684FF40F7381
:1039900003FB00F31A4491660021EEE7DFF8B40C54
:1039A000006800F0A8FE0123DFF8AC0C02680021DB
:1039B000DFF8A00C006800F067FE0123DFF89C0C24
:1039C00002680121DFF88C0C006800F05DFEDFF872
:1039D000F80D0068011DDFF87C0C006800F0BBFEEC
:1039E0000123DFF87C0C02680121DFF8680C006815
:1039F00000F070FEDFF8D00D006810F11801DFF85C
:103A0000540C006800F0A7FE0123DFF8C00D026827
:103A10000121DFF8400C006800F05CFEDFF8A80D23
:103A2000006810F12C01DFF82C0C006800F09CFEFF
:103A30000221DFF8200C006800F016FE0123DFF8F9
:103A4000240C02680021DFF80C0C006800F01CFE5A
:103A50000123DFF8080C02680121DFF8F80B006889
:103A600000F012FEDFF8600D006810F13001DFF8A1
:103A7000E40B006800F06FFE0123DFF8E40B02683E
:103A80000121DFF8D00B006800F024FEDFF8380DCC
:103A9000006810F14401DFF8BC0B006800F05BFE29
:103AA0000123DFF8280D02680121DFF8A80B006868
:103AB00000F010FEDFF8100D006810F15801DFF87B
:103AC000940B006800F050FE0221DFF8880B0068BC
:103AD00000F0CAFD0123DFF8F80C02680021DFF8CE
:103AE000740B006800F0D0FD0123DFF8E80C0268D9
:103AF0000121DFF8600B006800F0C6FDDFF8C80C9C
:103B00000168DFF8500B006800F02EFE0121DFF89D
:103B1000440B006800F0A8FD0BE001257F1CDFF8D6
:103B2000A80C0068C7650121DFF8280B006800F0C9
:103B30009BFD002C00F03985DFF88C0C0068C76D08
:103B40005FF000087B1CDFF8F40C02680021DFF84E
:103B5000040B006800F098FD0400002CE9D001235C
:103B6000DFF8680C02680121DFF8E80A006800F05D
:103B70008BFDDFF8540C00684FF40F7101FB07F167
:103B8000084410F16001DFF8CC0A006800F0ECFD99
:103B90000123DFF8280D02680121DFF8B80A006868
:103BA00000F098FD0123DFF8180D02680121DFF80D
:103BB000A40A006800F08EFDDFF80C0C00684FF4DA
:103BC0000F7101FB07F1084410F16401DFF8840A6A
:103BD000006800F0C9FD0121DFF8780A006800F0F4
:103BE00043FD12E0012618F10108DFF8DC0B006844
:103BF0004FF40F7101FB07F10844C0F86880012100
:103C0000DFF8500A006800F02FFD002D85D0DFF8A6
:103C1000B80B00684FF40F7101FB07F10844D0F8AE
:103C200068805FF0000918F10103DFF8980C026862
:103C30000021DFF8200A006800F026FD0500002DB5
:103C4000E3D00123DFF8840B02680121DFF8040AC6
:103C5000006800F019FDDFF8700B00684FF40F7179
:103C600001FB07F10844702101FB08F1084410F141
:103C70006C01DFF8E009006800F076FD0123DFF851
:103C80003C0C02680121DFF8CC09006800F022FD3D
:103C90000123DFF8340C02680021DFF8B80900685E
:103CA00000F018FD0123DFF8240D02680021DFF881
:103CB000A409006800F0E8FC00280DD0DFF8080B2C
:103CC00000684FF40F7101FB07F10844702101FBFC
:103CD00008F10844002101670123DFF8F40C0268B1
:103CE0000021DFF87009006800F0CEFC00280ED03B
:103CF000DFF8D40A00684FF40F7101FB07F10844A4
:103D0000702101FB08F10844012101677AE10123D8
:103D1000DFF8080D02680021DFF83809006800F0BC
:103D2000B3FC00280ED0DFF8A00A00684FF40F7132
:103D300001FB07F10844702101FB08F1084402214E
:103D400001675FE10123DFF8D80C02680021DFF88A
:103D50000409006800F098FC002800F05381DFF8A7
:103D6000680A00684FF40F7101FB07F108447021E5
:103D700001FB08F10844032101670123DFF8040D6A
:103D800002680021DFF8CC08006800F07DFC012308
:103D9000DFF8440D02680021DFF8B808006800F081
:103DA00073FC0123DFF8340D02680021DFF8A4085A
:103DB000006800F069FC0123DFF8240D026801218E
:103DC000DFF89008006800F05FFCDFF8FC0900688D
:103DD0004FF40F7101FB07F10844702101FB08F15A
:103DE000084410F17401DFF86C08006800F0F4FC7E
:103DF0000421DFF86008006800F036FC0123DFF8DA
:103E0000E40C02680021DFF84C08006800F03CFC7C
:103E10000123DFF8C40C02680021DFF838080068CD
:103E200000F032FC0123DFF8B40C02680021DFF857
:103E30002408006800F028FC0123DFF8A40C0268C5
:103E40000121DFF81008006800F01EFCDFF8780997
:103E500000684FF40F7101FB07F10844702101FB6A
:103E600008F1084410F17801DFF8E807006800F075
:103E7000B3FC0421DFF8DC07006800F0F5FB012348
:103E8000DFF8E00C02680021DFF8C807006800F0E6
:103E9000FBFB0123DFF8400C02680021DFF8B407C8
:103EA000006800F0F1FB0123DFF8300C026800210C
:103EB000DFF8A007006800F0E7FB0123DFF8200C23
:103EC00002680121DFF88C07006800F0DDFBDFF8F5
:103ED000F80800684FF40F7101FB07F108447021E6
:103EE00001FB08F1084410F17C01DFF86807006865
:103EF00000F072FC0421DFF85C07006800F0B4FBFE
:103F00000123DFF8AC0C02680021DFF848070068E5
:103F100000F0BAFB0123DFF8C00B02680021DFF8D4
:103F20003407006800F0B0FB0123DFF8B00B026833
:103F30000021DFF82007006800F0A6FB0123DFF86E
:103F4000A00B02680121DFF80C07006800F09CFB61
:103F5000DFF8740800684FF40F7101FB07F10844A3
:103F6000702101FB08F1084410F18001DFF8E4063C
:103F7000006800F031FC0421DFF8D806006800F08A
:103F800073FB0123DFF82C0C02680021DFF8C40664
:103F9000006800F079FB0123DFF83C0B0268002188
:103FA000DFF8B006006800F06FFB0123DFF82C0B90
:103FB00002680021DFF89C06006800F065FB012321
:103FC000DFF81C0B02680121DFF88806006800F0AA
:103FD0005BFBDFF8F40700684FF40F7101FB07F19A
:103FE0000844702101FB08F1084410F18401DFF856
:103FF0006406006800F0F0FB0421DFF85806006852
:1040000000F032FB0221DFF84C06006800F02CFBC8
:1040100067E0DFF8A40B0168DFF838060068DFF816
:1040200034261268D2F8C82050F82200401C00F054
:10403000F9FC002812D0DFF8900700684FF40F71E8
:1040400001FB07F10844702101FB08F10844142129
:1040500001FB09F108440421C0F898100123DFF89E
:10406000800A02680121DFF8EC05006800F032FBED
:10407000DFF8540700684FF40F7101FB07F10844A3
:10408000702101FB08F10844142101FB09F10844E7
:1040900010F19C01DFF8BC05006800F09DFB0121D8
:1040A000DFF8B005006800F0DFFA0121DFF8A405B1
:1040B000006800F0D9FA19F10109DFF80C0700686F
:1040C0004FF40F7101FB07F10844702101FB08F167
:1040D0000844C0F888900121DFF87805006800F0F6
:1040E000C3FA002E3FF47EADDFF8DC0600684FF423
:1040F0000F7101FB07F10844702101FB08F108442E
:10410000D0F8889019F10103DFF8B00A02680021A5
:10411000DFF84005006800F0B7FA0600002EE0D096
:104120000123DFF8A80602680121DFF828050068EE
:1041300000F0AAFADFF8900600684FF40F7101FB57
:1041400007F10844702101FB08F10844142101FB28
:1041500009F1084410F18C01DFF8F804006800F060
:1041600003FB0123DFF8580A02680021DFF8E404AA
:10417000006800F0AFFA0123DFF850060268012161
:10418000DFF8D004006800F07FFADFF83C06006832
:104190004FF40F7101FB07F10844702101FB08F196
:1041A0000844142101FB09F1084410F19001DFF8E3
:1041B000A404006800F0D8FA0121DFF89804006830
:1041C00000F052FA0123DFF8FC0902680021DFF851
:1041D0008404006800F07EFA0123DFF8EC0902682D
:1041E0000121DFF87004006800F04EFADFF8DC0906
:1041F0000168DFF860040068DFF858241268D2F81C
:10420000C82050F82200401C00F00CFC002813D0FD
:10421000DFF8B40500684FF40F7101FB07F10844A3
:10422000702101FB08F10844142101FB09F1084445
:104230000021C0F8941022E1DFF894090168DFF84A
:1042400014040068DFF80C241268D2F8C82050F873
:104250002200401C00F0E6FB002813D0DFF86805C0
:1042600000684FF40F7101FB07F10844702101FB56
:1042700008F10844142101FB09F108440121C0F8A8
:104280009410FCE0DFF84C090168DFF8C80300680F
:10429000DFF8C0231268D2F8C82050F82200401C72
:1042A00000F0C0FB002813D0DFF81C0500684FF4B5
:1042B0000F7101FB07F10844702101FB08F108446C
:1042C000142101FB09F108440221C0F89410D6E042
:1042D000DFF804090168DFF87C030068DD4A126832
:1042E000D2F8C82050F82200401C00F09BFB0028A8
:1042F00013D0DFF8D40400684FF40F7101FB07F10D
:104300000844702101FB08F10844142101FB09F164
:1043100008440321C0F89410B1E0DFF8C008016838
:10432000CC480068CB4A1268D2F8C82050F8220066
:10433000401C00F077FB002813D0DFF88C040068E5
:104340004FF40F7101FB07F10844702101FB08F1E4
:104350000844142101FB09F108440421C0F8941019
:104360008DE0DFF87C080168BA480068B94A126835
:10437000D2F8C82050F82200401C00F053FB00285F
:1043800013D0DFF8440400684FF40F7101FB07F10C
:104390000844702101FB08F10844142101FB09F1D4
:1043A00008440521C0F8941069E0DFF83808016876
:1043B000A8480068A74A1268D2F8C82050F822001E
:1043C000401C00F02FFB002813D0DFF8FC0300682E
:1043D0004FF40F7101FB07F10844702101FB08F154
:1043E0000844142101FB09F108440621C0F8941087
:1043F00045E0DFF8F407016896480068954A1268BE
:10440000D2F8C82050F82200401C00F00BFB002816
:1044100013D0DFF8B40300684FF40F7101FB07F10C
:104420000844702101FB08F10844142101FB09F143
:1044300008440721C0F8941021E0DFF8B0070168B4
:1044400084480068834A1268D2F8C82050F82200D5
:10445000401C00F0E7FA002811D0DB4800684FF458
:104460000F7101FB07F10844702101FB08F10844BA
:10447000142101FB09F108440821C0F8941001231C
:10448000DFF86C07026801217248006800F022F929
:10449000DFF8600701686F4800686E4A1268D2F85A
:1044A000C82050F82200401C00F0BCFA002812D0AE
:1044B000C54800684FF40F7101FB07F108447021F3
:1044C00001FB08F10844142101FB09F10844002113
:1044D000C0F89810C2E5DFF8200701685D48006861
:1044E0005C4A1268D2F8C82050F82200401C00F044
:1044F00099FA002812D0B44800684FF40F7101FBFC
:1045000007F10844702101FB08F10844142101FB64
:1045100009F108440121C0F898109FE5DFF8DC0696
:1045200001684C4800684B4A1268D2F8C82050F81D
:104530002200401C00F076FA002812D0A248006841
:104540004FF40F7101FB07F10844702101FB08F1E2
:104550000844142101FB09F108440221C0F8981015
:104560007CE5DFF89C0601683A480068394A126821
:10457000D2F8C82050F82200401C00F053FA00285E
:104580003FF447AD904800684FF40F7101FB07F10D
:104590000844702101FB08F10844142101FB09F1D2
:1045A00008440321C0F8981058E50020DFF854169D
:1045B00008600020DFF84C164860002000E0401C36
:1045C00081490968C96D88423FDA002100E0491C31
:1045D0007D4A12684FF40F7303FB00F31A44926E86
:1045E000914228DA784A12684FF40F7303FB00F304
:1045F0001A44126E744B1B681B689A42E7D1724AC8
:1046000012684FF40F7303FB00F31A44702303FB8B
:1046100001F31A44D26E6C4B1B684FF40F7404FB09
:1046200000F423445B6E9A42D1D1DFF8D8251060A4
:10463000DFF8D0255160DFF8CC1509680029BED01D
:10464000DFF8C01549680029B9D00120BDE8F28320
:1046500020700020B4000020080000205800002036
:104660005C0000200C00002070B504000D00002646
:1046700007E0200000F058F8D4F8C80054F82000F3
:10468000761CAE42F5DB70BD38B5040010001A0090
:104690000125C9B2002908D10100D4F8C80054F896
:1046A000200000F013F905000AE0C9B2012907D182
:1046B0000100D4F8C80054F8200000F00DF90500FE
:1046C000002D01D1002004E02900200000F01AF89C
:1046D000280032BDF8B504000D0016001F000121AE
:1046E0002000FFF7C1FF3B0032002900C9B22000C3
:1046F000FFF7CAFFF2BD012101600021C0F8C81018
:1047000001207047D0F8C820312A02D15FF0FF3075
:1047100009E0D0F8C820521CC0F8C820D0F8C82042
:1047200040F822100800704710B50400D4F8C80003
:1047300010F1010F01D1002007E0200000F006F881
:10474000D4F8C810491EC4F8C81010BDD0F8C8105D
:1047500050F82100704710B50C00FFF7F7FF21005B
:10476000401C00F037F910BDF8B505000C0028001A
:10477000FFF7ECFF401CDFF89014096802011144B8
:104780008968DFF8842412680001104440680E1A1A
:10479000300000F03DFA07002800FFF7D7FF39008E
:1047A000401C00F017F9380000F090FC2060002059
:1047B00002E000213954401CB042FADB380000F01E
:1047C00089FC2068F2BD000000000020600000208D
:1047D0001000002078000020F8B505000C0028002B
:1047E000FFF7B4FF401CDFF82014096802011144F0
:1047F0008968DFF8142412680001104440680E1A1A
:10480000300000F005FA07002800FFF79FFF39008D
:10481000401C00F0DFF8380000F09CFCFEF7A6FA20
:104820002060002002E000213954401CB042FADB35
:10483000380000F04FFC2068F2BD0000140000209A
:1048400030B400220023401CDFF8BC2312680301AF
:104850001A449268401CDFF8B0331B6804012344FB
:104860009B6807E0DFF8A0331B68040123449B68C2
:10487000491E401CDFF89043246805012C446468FD
:10488000944214DA012912DBDFF87C432468050125
:104890002C44A4689C4207D0DFF86C4324680501CF
:1048A0002C446468A342E4DA0129DBD103E0012946
:1048B00001DB0020FFE730BC7047000064000020EF
:1048C00074000020180000201C00002080B5130098
:1048D000002200F007F802BD80B50123012200F09C
:1048E00001F802BD2DE9F04107000C0015001E0083
:1048F0005FF000080020380000F0F6F800280DD026
:104900007F1CC148006839010844D0F808807F1C2A
:10491000BD48006839010844806913E0380000F0A0
:1049200002F9002806D0B848006839010844D0F8D8
:104930000880ECE7002047E0B348006839010844EC
:1049400080697F1CB04909683A01114449684145B2
:1049500039DAAD4909683A0111448969814207D0C1
:10496000411CA94A12683B011A4452689142E8DA94
:104970002100380000F056F80028DDD0EDB2002DFF
:1049800004D1380000F0B0F8002807D1EDB2012DB5
:10499000D2D1380000F078F80028CDD0781C00F093
:1049A000CCF8002803D1022E01DB00200CE0781C9B
:1049B00000F0C3F8002804D031003800FFF740FFB2
:1049C0000700380000E00020BDE8F0812000002052
:1049D0002400002070B504000D00200000F0B7F89E
:1049E000002801D1002018E0874800682101084410
:1049F0004668200000F048F8002800D0761C824865
:104A00000068210108448068821B8048006800EB30
:104A10000601280000F0A2FB012070BD2800002044
:104A20002C000020F8B504000D00200000F08FF8E5
:104A3000002801D1002024E07348006821010844C7
:104A4000466871480068210108448768200000F02A
:104A50001BF8002800D0761CBC1B280000F0BAFB15
:104A6000201A002801D000200BE0BA1B290067485B
:104A70000068304400F0CAFB002801D0002000E0AC
:104A80000120F2BD3000002010B50400200000F02D
:104A90005EF8002804D0601C00F059F8002801D10D
:104AA000002018E05948006857490968220111445C
:104AB0004968405CC0B2B0F130010A2908D3C0B2E5
:104AC000B0F141011A2903D3C0B261381A2801D2CA
:104AD000002000E0012010BD500000205400002004
:104AE000700000203400002010B50400200000F009
:104AF0002EF8002804D0601C00F015F8002810D112
:104B0000200000F024F8002809D0601C00F015F8FF
:104B1000002804D0A01C00F006F8002801D10020D5
:104B200000E0012010BD384909680001085C012837
:104B300001D0002000E001207047334909680001DE
:104B4000085C022801D0002000E0012070472E49B7
:104B500009680001085C032801D0002000E0012062
:104B6000704700003800002080B527480068002802
:104B700006D02548006800F0ADFA00202249086000
:104B800022480068002806D02048006800F0A2FAF9
:104B900000201E4908601C480068002803D11B48FB
:104BA0000068002801D0002000E0012002BD0000C4
:104BB0003C00002040000020B00000204400002005
:104BC000480000204C000020680000207C000020ED
:104BD0008000002084000020880000208C0000203D
:104BE0009000002094000020980000209C000020ED
:104BF0006C000020A0000020A4000020A8000020DD
:104C0000AC000020FC6F00201C70002020700020F1
:104C100070B5054605F10F00C408AFF30080E4004D
:104C2000A54232D2082C04D2082402E0083000F059
:104C300051FA2248026811000CD1011D0A6802B322
:104C40001368A34238BF111DF8D310E01D68A542B8
:104C50000DD2191D0B68002BF8D11268011D00E060
:104C6000191D0B6893420CD01D68A542F8D361B1A1
:104C70000D682A68A2F10803A3420AD26A680A6092
:104C80000FE000F0F5FA0028D0D1AFF3008000204B
:104C900070BD2B190B60121B6E685E600B681A608A
:104CA0002C60096800291DBF4A68002A091D0021DF
:104CB0000160AFF3008005F1080070BD0C700020AA
:104CC0004368934201D300200BE04268531C4360C9
:104CD000100108445FF0FF3181608168416000216C
:104CE000C16070470170426083600021C1607047FD
:104CF00038B50400256802E02068401C2060206868
:104D0000904215D22068085C002811D02068085C09
:104D100009280DD00A280BD00D2809D0202807D04B
:104D20002C2805D03A2803D05D2801D07D2806D153
:104D3000002B0DD12068401E206000201CE0206860
:104D4000085C20385F28D7D325607FF0010013E08E
:104D5000049A19002000FFF7B3FF002803D1256053
:104D60005FF0FF3008E023682A000421FFF7BAFF54
:104D70002068401E2060002032BD70B50400256808
:104D80002068401C206033E0049A19002000FFF7DF
:104D900097FF002803D125605FF0FF3068E02368AB
:104DA0006A1C0321FFF79EFF002061E0C0B25C286F
:104DB0001BD12068401C904217D22068401C206004
:104DC0002068085C222810D02F280ED05C280CD038
:104DD00062280AD0662808D06E2806D0722804D02F
:104DE000742802D0752813D03BE02068401C206056
:104DF0002068904239D22068085C002835D02068AD
:104E0000085CC0B22228D1D1002BBDD100202FE0F8
:104E10002068401C2060002003E02668761C266085
:104E2000401C042819DA2668964216D226688E5D40
:104E3000002E12D026688E5D303E0A2EEDD32668F5
:104E40008E5D413E062EE8D326688E5D613E062EBD
:104E5000E3D325607FF001000AE02068401E206057
:104E6000C3E725607FF0010002E025607FF00200CB
:104E700070BD2DE9F04782B004000D0016001F0040
:104E8000D4F80490DDF8288013E019F10109A06836
:104E900010F1010F0AD0002F08D0A068000138449B
:104EA000A16809013944C968491CC1602068401CD7
:104EB00020602068B04280F0E7802068285C0028ED
:104EC00000F0E280206815F800A05FFA8AFA5046E8
:104ED000092800F09C800A2800F099800D2800F035
:104EE0009680202800F09380222874D02C2800F08F
:104EF00093803A2800F08C805B2806D05D282ED065
:104F00007B2802D07D282AD0B2E019F10109002FB8
:104F1000CCD0424639002000FFF7D2FE002802D153
:104F20005FF0FF30C8E0A16811F1010F08D0A1685F
:104F300009013944A26812013A44D268521CCA607D
:104F40005FFA8AFABAF17B0F01D1012100E0022158
:104F50000170216841606068401EA060A6E7002FD4
:104F6000A4D05FFA8AFABAF17D0F01D1012200E0E4
:104F700002226068411E00E0491E002916D4080183
:104F80003844436813F1010FF6D0836813F1010F21
:104F9000F2D10378D2B2934202D07FF001008BE0CD
:104FA0005FF0FF32A2602268521C826011F1010F93
:104FB00003D17FF001007FE0491E00290AD40801D7
:104FC0003844426812F1010FF6D0806810F1010FE9
:104FD000F2D1A1606AE7CDF800803B0032002900E1
:104FE0002000FFF7CAFE002866D419F10109A06865
:104FF00010F1010F0AD0002F08D0A068000138443A
:10500000A16809013944C968491CC1604EE74DE7F0
:105010006068401EA06049E7002F28D0A06810F10A
:10502000010F24D0A0680001385C02281FD0A068BE
:105030000001385C01281AD06068411E00E0491E5A
:10504000002914D40801385C022803D00801385C18
:105050000128F4D108013844406810F1010FEED066
:1050600008013844806810F1010FE8D1A1601DE704
:10507000CDF800803B00320029002000FFF738FE09
:1050800000287FF502AF17E0002F14D06068411EA2
:1050900000E0491E00290ED408013844406810F190
:1050A000010FF6D008013844806810F1010FF0D1EB
:1050B0007FF0020000E04846BDE8F687002101606D
:1050C000002141605FF0FF31816070470A220021BA
:1050D00000F088B900B9704738B5A0F1080420681D
:1050E000082833D310F0070F30D1AFF300801848F1
:1050F000416809B18C4203D26160446017E01946EF
:105100004B680BB1A342FAD30B68CD18AC421BD34A
:10511000A54204D12268D2180A600C4607E04A680A
:105120001AB1236823449A420ED362604C606168CE
:1051300051B12268A3188B4206D10023036008688E
:105140008018206048686060AFF3008031BD0000C7
:105150000C7000200022002100F012BA81423ABFF8
:1051600053189842FEF7AABA8018990707D0521E22
:1051700024BF13F8011D00F8011DF6D87047810700
:105180001CD1103A07D330B433E93210103A20E979
:105190003210F9D230BC1032121F24BF53F8041D54
:1051A00040F8041DF8D838BF121D521E24BF13F852
:1051B000011D00F8011DF8D8704700BF083A07D359
:1051C00033E90210083A40F804CD40F8041DF7D244
:1051D0000832EAE700F10103810704D010F8011B4F
:1051E00089B18107FAD10268B2F10131914311F01E
:1051F000803F04BF50F8042FF6E710F8011B11B1EF
:1052000010F8011BFBE7C01A7047000003000020E4
:1052100013F0030F09D0521E22BF13F8010B11F82F
:1052200001CBB0EB0C00F3D07047121F22BF53F834
:10523000040B51F804CB6045F7D0121D0AD200BA16
:105240009CFA8CFCB0EB0C0038BF6FF0000088BFFC
:1052500001207047521E22BF13F8010B11F801CB39
:10526000B0EB0C00F6D0521C08BF1046704700008F
:105270000749086808B1002070470648C008C00008
:1052800008600549C908C900091A0160704700BFD4
:1052900028700020EF100020E85000202DE9F04F8A
:1052A00085B004461E000D4690461CBF00203060AD
:1052B000A14601E009F1010999F80000A0F10901F6
:1052C0000529F7D32028F5D02D2816BF2B2819F84B
:1052D000017B2B27B8F1000F57D4B8F1010F54D040
:1052E000B8F1250F51DAB8F1010F0DDBB8F1100F4D
:1052F00004BF99F80000302802BF99F8010040F07F
:105300002000782814D10EE099F80000302818BF4A
:105310004FF00A080CD199F8010040F020007828DD
:1053200004D14FF0100809F1020901E04FF008081C
:10533000CDF8109001E009F1010999F8000030283A
:10534000F9D00FF2A40B4FF0000ACDF80C908DF8B5
:1053500008B00AE09DF80810CDF804A0401AC0B2C9
:10536000009008FB0A0A09F1010999F80010A1F15F
:1053700041001A2838BF20314246584600F002F951
:105380000028E7D10498484503D105B12C600020DE
:1053900025E00FF27C01039811F80810A9EB00003A
:1053A000401A14D4012808DA0098BAEB000004D39C
:1053B0000199B0FBF8F0884209D000F00FF92221E2
:1053C00001600EB1012030604FF0FF3A03E02D2F55
:1053D00008BFCAF1000A0DB1C5F80090504605B0EB
:1053E000BDE8F08F002359E730313233343536379A
:1053F00038396162636465666768696A6B6C6D6E93
:105400006F707172737475767778797A0000000026
:1054100000002115110E0D0C0B0B0A0A09090909D0
:105420000908080808080808070707070707070703
:1054300007070707070000002DE9F14D87B0054673
:105440000C4690469A4607A800F0CEF88346BAF17B
:10545000000F1CBF0021CAF8001020F0080001282E
:1054600034D10220009004AB07992246284600F070
:105470004BF9040003D10020CDE902001DE005989E
:10548000FDF732FBCDE90201022C16DB06AE671EEA
:10549000384DDDE9020100222B46FDF7AFFCCDE9D6
:1054A000000156F8040BFDF71FFBDDE9002300F0B7
:1054B00001FACDE902017F1EEBD1049800EB08024E
:1054C000DDE90201534600F094FA42E0022835D1AA
:1054D000009004AB07992246284600F061FB0400C7
:1054E00003D10020CDE902001DE00598FDF7FCFA8C
:1054F000CDE90201022C16DB06AE671E1E4DDDE96A
:10550000020100222B46FDF779FCCDE9000156F897
:10551000040BFDF7E9FADDE9002300F0CBF9CDE952
:1055200002017F1EEBD1049902A800F039FCDDE9ED
:1055300002015346424600F05CFA0AE0032802D119
:1055400000200E4905E0042806D14FF0FF306FF02F
:105550000041CDE9020102E00020CDE902005FEA4E
:105560000B70DDE9020148BF81F0004108B0BDE8E1
:10557000F08D000065CDCD410000B0410000F07F0E
:10558000002359E7C9B2830706D0521E22D310F870
:10559000013B9942F7D11FE0083A13D302F104020C
:1055A00041EA012141EA014150F8043B121F21BFA9
:1055B0004B40A3F1013C2CEA030C1CF0803FF3D0DC
:1055C000C9B2001F083210F8013B521E28BF91EAF1
:1055D000030FF8D818BF0120401E7047014800F0A3
:1055E00065BC0000D800002070B402681346002497
:1055F00000E05B1C1D78A5F10906052EF9D3202DCE
:10560000F7D02D2D0CBF08242B2D00D15B1C1D784D
:1056100045F020066E2E26D15C7844F02004612CE3
:1056200002BF9C7844F020046E2C02D01346002266
:1056300045E0DB1C1C4604222578282D3FD114F8B8
:10564000015FA5F161061A2EF9D3A5F141061A2EC4
:1056500024BF303D0A2DF2D325785F2DEFD0292DC0
:105660002DD1631C2BE0692E2CD15D7845F02005EF
:105670006E2D02BF9D7845F02005662D02D01346A1
:1056800000221CE044F0030213F8034F44F020040E
:10569000692C02BF5C7844F020046E2C0FD19C78FA
:1056A00044F02004692C02BFDC7844F02004742C00
:1056B00005D11C7944F02004792C08BF5B1DF1B1A1
:1056C0000B601CE0302D02BF597841F02001782991
:1056D00013D1991C0A782E2A08BF491C0978A1F118
:1056E0006102062A21BFA1F14102062A30390A29A6
:1056F00003D29B1C44F0020201E044F0010203606B
:10570000104670BC704700002DE9F0478CB00D4684
:1057100014998046002001EBC1012E29A8BF2D213C
:1057200000261E605E6001E06D1C01262F78302F80
:10573000FAD0002704E01E68761C1E606D1C01264E
:1057400095F800E0AEF130040A2C07D2B942F2DB42
:10575000AEF130060DF807607F1CEFE7BEF12E0FAB
:1057600008BF6D1C47B904E01E68761E1E606D1CE4
:1057700001262C78302CF7D02C78A4F1300EBEF115
:105780000A0F0CD2B94207DBA4F130060DF807600E
:105790007F1C1E68761E1E606D1C0126ECE7B94258
:1057A00018DA1DF80170052F06DB0DEB010717F85D
:1057B000014C641C07F8014C0F461968491C19601C
:1057C00008E00DEB070111F8011C49B91968491CE3
:1057D00019607F1E012FF4DA17B98DF80000012738
:1057E000002E5DD04FF0090E97FBFEFEC7F1090CAD
:1057F0000EEBCE0EE6444FF0090C9EFBFCFC0021A4
:105800000CEBCC04BEEB04040ED001200CE053F8EA
:1058100020401DF801C004EB84040CEB440443F861
:1058200020400EF1010E491CB9420BDA09249EFBFF
:10583000F4F404EBC404BEEB0404E8D11DF8014009
:10584000401CECE7297841F02001652928D1294640
:1058500015F8017F2B2F16BF2D2F15F801CB4FF018
:105860002B0C0024A646124F09E0BE4505DA0EEBCC
:105870008E0409EB4404A4F1300E6D1C012495F84C
:105880000090A9F1300ABAF10A0FEED3BCF12D0F46
:105890001F6808BFCEF1000E77441F6004B90D46A3
:1058A0001AB106B1A846C2F800800CB0BDE8F08776
:1058B00000E1F505F0B44FF0004591EA030C44BF58
:1058C0006B4000F0F5BA00BF841A71EB030603D2F7
:1058D000001BB141121973414FF4001C1CEB410F26
:1058E00034BF7CEB430443E00C0DA4EB1356352E80
:1058F00050DC45EAC323DB0A45EAC121C912B6F1EF
:1059000020050DDD63FA05F6EB4086EA0305124239
:1059100018BF45F00105C01851F100010CD213E089
:1059200062FA06F5F2405540F3415A40B340F34065
:105930005A408018594107D349085FEA30005FEAAE
:10594000350528BF45F0010501F58011420875F1C4
:10595000004250F1000041EB0451F0BC4FF4001C38
:105960001CEB410F38BF70470020090D0905704737
:105970001CEB410F10D252EA43060BD0BCEB410F97
:1059800005D80C0DAB43661E342EB5DD02E0AB43EB
:1059900080185941F0BC7047F0BC7047000000000F
:1059A000F8B5064640F2FF717068C0F30A508842AD
:1059B00014461D4606D0012806DA304600F02EFBBC
:1059C000012801DB002706E0726840F2FE3161F336
:1059D0001E527260471AD6E9000122462B46FDF797
:1059E0000DFAC6E9000139B23046BDE8F44000F0D6
:1059F000D7B92DE9FB45160082B09A4600F09B808E
:105A0000DDE902230020002100F02AFB00F0938052
:105A10000024002E4A4D43D576420FF23C174FF03A
:105A200008080DE0F00707D5D7E9002320462946EE
:105A3000FDF7E4F904460D4676080837A8F1010899
:105A4000002E18BFB8F1000FECD102A9684600F093
:105A500017FBDDE9020122462B46FDF75BF8CDE995
:105A60000201BDF9001002A800F09AF907004FD515
:105A7000002E4DD002A9684600F002FBDDE90201CC
:105A8000304A314BFDF7BAF9CDE90201BDF90010FA
:105A900002A800F085F907003AD5761EEAD137E072
:105AA000012E35DB0FF2B0074FF00808F00707D5DD
:105AB000D7E9002320462946FDF7A0F904460D4604
:105AC00076100837012EA8F1010802DBB8F1000FAB
:105AD000ECD122462B4602A8FFF762FF070017D53C
