:020000040800F2
:10000000A0100020E16A00081565000817650008C7
:10001000236500082565000827650008000000002A
:10002000000000000000000000000000296500083A
:100030002B650008000000002D6500082F650008F2
:10004000ED6B0008F16B0008F56B0008F96B000818
:10005000FD6B0008016C000855650008B1650008DB
:10006000056C0008096C00080D6C0008116C000894
:10007000156C0008196C0008EF650008156600088B
:10008000296600083D6600081D6C0008216C000808
:10009000256C0008296C00082D6C0008316C0008E4
:1000A000356C0008396C00083D6C0008416C000894
:1000B000456C0008496C00084D6C0008516C000844
:1000C000556C0008596C00085D6C0008616C0008F4
:1000D000656C0008696C00086D6C0008716C0008A4
:1000E000756C0008796C00087D6C0008816C000854
:1000F000856C000800000000896C00088D6C000809
:100100000000000000000000916C0008956C0008E1
:10011000996C00089D6C0008A16C0008A56C000893
:10012000A96C00084178007850EA0121080080B2EB
:100130007047C178827852EA0121427852EA01215F
:10014000007850EA0121080070470170401C89B214
:10015000090A0170401C70470170401C090A0170B7
:10016000401C090A0170401C090A0170401C7047BC
:10017000002A06D00B780370491C401C521E002A2E
:10018000F8D170470170401C521E002AFAD1704706
:1001900010B4002303780C781B1B491C401C521E12
:1001A000002A01D0002BF5D0180010BC704700E0E9
:1001B000401C0278002A02D002788A42F8D10078E6
:1001C0007047C0B2002801D0002000E00020704736
:1001D000C0B2002801D0002000E00020704738B5F0
:1001E00004000025E07800281ED00123226B14F1C2
:1001F0003401607801F04BFC002814D10020E0703D
:10020000206B616A401AE16988420DD2A078022809
:100210000AD10123206BE1690A1814F134016078D6
:1002200001F035FC00E001252800C0B232BD70B5F8
:1002300004000D000026206B854213D02000FFF73C
:10024000CEFF0600F6B2002E0CD101232A0014F1D5
:100250003401607801F0B1FB002802D05FF0FF3577
:10026000012625633000C0B270BD38B504002000FF
:10027000FFF7B5FF0500EDB2002D3FD12078032830
:1002800034D12079012831D14FF40072002114F1CA
:100290003400FFF777FF4AF6552104F23220FFF7CA
:1002A00054FFDFF8AC1714F13400FFF755FFDFF807
:1002B000A4174FF406702044FFF74EFF61694FF416
:1002C00007702044FFF748FF21694FF4087020446D
:1002D000FFF742FF206A401C20630123226B14F1C8
:1002E0003401607801F0D3FB00202071002200214E
:1002F000607801F0CFFB002800D001252800C0B2B3
:1003000032BD891E8269921E914201D3002003E012
:10031000C26A408901FB002070472DE9F0410C00C2
:100320000568022C02D3A869844201D3012656E055
:100330005FF0FF362878012804D04FD303283BD044
:1003400029D34BE0270017EB5707686A10EB5721BA
:100350002800FFF76CFF002841D1F805C00D2844A4
:1003600090F834807F1C686A10EB57212800FFF753
:100370005EFF002833D1F805C00D284490F8340002
:1003800058EA0028E00702D55FEA181602E05FEAA3
:100390000856360D23E0686A10EB14212800FFF799
:1003A00046FF00281BD16000C005C00D2844343032
:1003B000FFF7B8FE060012E0686A10EBD4112800BF
:1003C000FFF735FF00280AD1A000C005C00D284462
:1003D0003430FFF7AEFE20F0704600E0012630001A
:1003E000BDE8F0812DE9F04104000D001600022760
:1003F000022D7CD3A069854279D22078012804D0CF
:1004000075D3032855D03ED371E0A84618EB5808A1
:10041000606A10EB58212000FFF709FF0700FFB2C8
:10042000002F64D15FEAC850C00D2044343018F169
:100430000108E90705D5017811F00F0151EA06110D
:1004400000E0310001700120E070606A10EB58217B
:100450002000FFF7ECFE0700FFB2002F47D15FEA54
:10046000C850C00D20443430E90701D5310906E0F9
:10047000017811F0F001320A12F00F0211430170FD
:100480000120E07033E0606A10EB15212000FFF7D7
:10049000CEFE0700FFB2002F29D1310089B26800DB
:1004A000C005C00D20443430FFF74FFE0120E0703E
:1004B0001DE0606A10EBD5112000FFF7B8FE0700C1
:1004C000FFB2002F13D1A800C005C00D2044343066
:1004D000FFF72FFE000F60F31F763100A800C00564
:1004E000C00D20443430FFF737FE0120E0703800A3
:1004F000C0B2BDE8F081F8B504000F001100002083
:100500002568022F02D3A869874201D3022036E072
:10051000002909D05FF0FF322800FFF763FFC0B267
:10052000002801D0C0B22AE039002000FFF7F5FE14
:100530000600002E22D0012E01D102201FE016F16C
:10054000010F01D101201AE0002239002800FFF735
:1005500049FFC0B2002801D0C0B210E06869A969A3
:10056000891E884206D26869401C6861287950F06B
:10057000010028713700A8698742D5D30020F2BD59
:100580002DE9F04106000C003568002C07D12F69D9
:10059000002F02D0A869874210D301270EE0210066
:1005A0003000FFF7BAFE022801D2012075E010F1F9
:1005B000010F72D0A96988426FD3270068690028AB
:1005C00001D1002069E05FF00008A7421BD117F1BC
:1005D0000108A869804501D35FF002084146300058
:1005E000FFF79BFE012802D010F1010F00D154E06B
:1005F000002808D02869022803D3A969884200D2BC
:1006000007005FF00008B8F1000F11D1B84618F1EB
:100610000108A869804505D35FF00208474501D26B
:1006200000203AE041463000FFF777FE002821D154
:100630005FF0FF3241462800FFF7D4FEC0B2002829
:1006400006D1002C04D0424621002800FFF7CAFE44
:10065000C0B2002818D1C5F81080A869801E696949
:10066000884202D36869401E6861287950F0010011
:10067000287111E0012802D010F1010F00D10CE027
:10068000B845C4D1002008E0C0B2012802D15FF013
:10069000FF3801E05FF001084046BDE8F0812DE938
:1006A000F04104000D002000FFF799FD002801D063
:1006B000012024E029002000FFF723FE0500256328
:1006C0004FF40072002114F13400FFF75BFD14F1C8
:1006D00034080127002600E0BE196089864207D24F
:1006E0003B0072194146607801F0D1F90028F3D03F
:1006F0006089864201D1002000E00120C0B2BDE83F
:10070000F0812DE9F04104000D002768B5F5001FC8
:1007100002D215F01F0F01D0022042E02561A66829
:10072000002E03D13878032800DBBE6A002E08D1E2
:1007300068093989884201D3022032E0B86AA06191
:100740001FE078894FF4007101FB00F801E0B5EB80
:100750000805454510D331002000FFF7DEFD0600F7
:1007600016F1010F01D101201BE0022E02D3B8695E
:100770008642ECD3022014E031003800FFF7C1FDBF
:10078000A0616661A069002801D1022009E0A0698A
:1007900010EB5520A061E805C00D38443430E0610D
:1007A0000020BDE8F0812DE9F04104000D0026682D
:1007B000206910F12007A069002802D0B7F5001FBA
:1007C00001D3042056E0F8054DD1A069401CA0617A
:1007D0006069002807D178093189884243D3002015
:1007E000A061042046E07089401E10EA572F3AD1DC
:1007F00061692000FFF791FD8046B8F1020F01D238
:10080000022037E018F1010F01D1012032E0B06978
:10081000804521D3002D03D10020A061042029E0D0
:1008200061692000FFF7ACFE8046B8F1000F01D1EE
:1008300007201FE0B8F1010F01D102201AE018F1E2
:10084000010F01D1012015E041463000FFF727FFDD
:10085000002801D001200DE0C4F81480414630008A
:10086000FFF74FFDA0612761F805C00D304434301B
:10087000E0610020BDE8F081F8B504000D002768B4
:1008800000212000FFF73DFFC0B200281BD1002649
:10089000A1693800FFF7CBFCC0B2002813D1E16991
:1008A0000978E52903D0E1690978002903D1761C8C
:1008B000AE4201D107E0002601212000FFF773FFBF
:1008C000C0B20028E4D0C0B2042800D10720C0B2D2
:1008D000F2BD70B504000D0015F11A00FFF722FCFF
:1008E00006002078032805D115F11400FFF71AFC43
:1008F00056EA0046300070BD70B504000D001600C9
:10090000310089B215F11A00FFF71FFC2078032887
:1009100005D1310C89B215F11400FFF716FC70BD3A
:100920002DE9F84304000D0015F11A00FFF7FAFB5A
:10093000002801D0002044E0287810F03F00401E3D
:100940000D2101FB00F65FF00108002714E0FF2EE7
:100950000ED2484680B201F0E3F8804634F8160023
:1009600001F0DEF8761C1FFA88F880B2804501D0CD
:10097000002026E0C8467F1C0D2F13D2DFF8C80BDD
:10098000C05D2844FFF7CEFB81461FFA88F8B8F116
:10099000000FDCD11FFA89F94FF6FF708145EAD0CC
:1009A00000200EE0287840060AD51FFA88F8B8F132
:1009B000000F05D034F81600002801D0002000E018
:1009C0000120BDE8F2832DE9F84304000D00160074
:1009D0006B730F20E87200202873002115F11A00B4
:1009E000FFF7B3FBF6B2701E0D2101FB00F95FF0BB
:1009F00000081FFA88F847461FFA88F84FF6FF707C
:100A0000804503D034F8198019F10109414689B2B3
:100A1000DFF8340BC05D2844FFF797FB1FFA88F816
:100A2000B8F1000F01D14FF6FF787F1C0D2FE3D3F3
:100A30001FFA88F84FF6FF70804503D034F819008C
:100A4000002801D156F040062E70BDE8F183000069
:100A50005252614172724161F0B583B004001700D7
:100A60001E000B222000FFF783FB062E16D33888CA
:100A7000002813D03888BF1C0025102DF7D280B273
:100A800010F0010111EB460680B24008F10303D5D6
:100A900086F4883696F021066D1CEEE7072516F0E1
:100AA0000F003030C0B23A2800DBC01D69464855FF
:100AB0006D1E3609002EF2D17E206946485500266B
:100AC00001E0761C761CAE420AD2A05D202807D039
:100AD000A05DFFF776FB0028F4D0681E8642F0D1B7
:100AE0003000461C082D03D26946495D6D1C00E0AC
:100AF00020212154082EF3D3F7BD00210B220B0037
:100B0000DBB2C90111EB530103785918401C521E86
:100B1000002AF4D10800C0B270472DE9F04104006A
:100B2000256800212000FFF7ECFD80465FFA88F879
:100B3000B8F1000F02D04046C0B273E0FF273E007C
:100B40005FF0FF30E062A1692800FFF770FB80468C
:100B50005FFA88F8B8F1000F62D1E0690078C0B29E
:100B6000002802D15FF004085AE0E169C97A11F067
:100B70003F01A171C0B2E52804D00A0707D5C9B268
:100B80000F2904D0FF265FF0FF30E0623EE0C9B2DB
:100B90000F2921D194F82B10490637D4410606D5E8
:100BA000E1694F7B10F0BF0006002169E16231006E
:100BB000C0B2C9B288420DD13800E169497BC0B2E8
:100BC000884207D1E169E868FFF7AAFE002801D052
:100BD000761E1BE0FF2619E0F6B2002E06D13E007D
:100BE000E069FFF78AFFF6B2864219D094F82B002D
:100BF000C00707D40B2214F12001E069FFF7C8FAFF
:100C000000280DD0FF265FF0FF30E06200212000B9
:100C1000FFF7C9FD80465FFA88F8B8F1000F92D05F
:100C20004046C0B2BDE8F0812DE9F04184B0040037
:100C3000266894F82B00A021084201D006209CE0F1
:100C4000002700E07F1CF06830F817000028F9D179
:100C50000C2214F120016846FFF78AFA9DF80B0078
:100C6000C00727D5402084F82B005FF0010801E081
:100C700018F10108B8F1640F0DD24346F2686946D5
:100C800014F12000FFF7E8FE2000FFF746FF050003
:100C9000EDB2002DECD0B8F1640F01D107206CE06B
:100CA000EDB2042D02D02800C0B266E09DF80B0022
:100CB00084F82B009DF80B00800706D517F10C0077
:100CC0000D21B0FBF1F0471C00E0012739002000A6
:100CD000FFF7D2FD0500EDB2002D2ED17F1E002FB3
:100CE0002BD02069B0EB47112000FFF70AFD05006B
:100CF000EDB2002D21D114F12000FFF7FEFE804659
:100D0000A1693000FFF793FA0500EDB2002D14D170
:100D10004346DBB23A00D2B2E169F068FFF753FE16
:100D20000120F07000212000FFF73DFD0500EDB22D
:100D3000002D02D17F1E002FE2D1EDB2002D1AD17D
:100D4000A1693000FFF773FA0500EDB2002D12D152
:100D500020220021E069FFF715FA0B2214F120018F
:100D6000E069FFF705FA94F82B0010F01800E1692C
:100D700008730120F0702800C0B204B0BDE8F08113
:100D80002DE9F84F04000F00D7F800902068C068E4
:100D9000009000252E0003E0009820F815B06D1C8F
:100DA00019F806B0761C1FFA8BFBBBF1200F0ADA8C
:100DB00009EB060038601FFA8BFBBBF1200F52DAFB
:100DC0005FF0040953E01FFA8BFBBBF12F0F04D037
:100DD0001FFA8BFBBBF15C0F0AD119F806002F2814
:100DE00003D019F806005C2801D1761CF5E7DFE78F
:100DF000FF2D01D30620B6E00BF0FF0B5846C0B222
:100E0000FFF7DFF9002810D019F80680761C1FFACA
:100E10008BFB5FFA88F818EB0B2B4046C0B2FFF74C
:100E2000D7F9002801D106209DE040F2B5115846BF
:100E300080B200F05BFE83461FFA8BFBBBF1000F14
:100E400001D106208FE01FFA8BFBBBF1800FA3DAE4
:100E50001FFA8BFB5946DFF8C00AFFF7A8F90028F4
:100E60009AD006207FE05FF0000900E06D1E002DA3
:100E70000ED0009800EB450030F802BC1FFA8BFB47
:100E8000BBF1200FF2D01FFA8BFBBBF12E0FEDD080
:100E90000020009921F81500002D01D1062062E004
:100EA0000B22202114F12000FFF76CF9002600E04E
:100EB000761C009830F816002028F9D0009830F8F9
:100EC00016002E28F4D0002E03D059F0030900E0BC
:100ED0006D1E002D06D0009800EB450030F8020C86
:100EE0002E28F5D15FF000085FFA88F8C24608277F
:100EF00001E059F00309009830F816B0761C1FFA8B
:100F00008BFBBBF1000F30D194F82000E52802D113
:100F1000052084F82000082F01D15FEA88085FFAD5
:100F200088F818F00C000C2805D05FFA88F818F043
:100F30000300032801D159F002095FEA89700FD438
:100F40005FFA88F818F00300012801D159F0100960
:100F50005FFA88F818F00C00042801D159F008094C
:100F600084F82B900020BDE8F28F1FFA8BFBBBF1B9
:100F7000200FBED01FFA8BFBBBF12E0F01D1AE426A
:100F8000B7D1BA4501D2AE4211D10B2F02D159F0DF
:100F90000309B9E7AE4201D059F00309B542B3D312
:100FA0002E005FF0080A0B275FEA8808A3E71FFA04
:100FB0008BFBBBF1800F13DB59F0020940F2B51136
:100FC000584680B200F070FD83465FEA0B6007D59B
:100FD000DFF848091FFA8BFB1BF07F0110F801B006
:100FE0001FFA8BFBBBF1FF0F10DD781E824503D388
:100FF00059F00309BA467EE7584680B2000A04EB6E
:101000000A0181F820001AF1010A25E01FFA8BFB82
:10101000BBF1000F08D01FFA8BFB5946DFF800091F
:10102000FFF7C5F8002804D05FF05F0B59F0030903
:1010300012E01FFA8BFBBBF141001A2802D258F0D4
:10104000020809E01FFA8BFBBBF161001A2803D2EA
:1010500058F00108BBF1200B04EB0A0080F820B027
:101060001AF1010A47E732B50400256802E000984A
:10107000401C0090009800782F28F8D00098007845
:101080005C28F4D00020A06000980078202811D2BD
:10109000802084F82B0000212000FFF732FB25E0A0
:1010A0002069C005C00D284410F134012800FFF765
:1010B00010FCA06069462000FFF762FEC0B2002865
:1010C00014D12000FFF729FD94F82B10C0B200289E
:1010D00006D0C0B2042802D1490700D4052005E09B
:1010E000490703D4A079C006DAD40520C0B232BDC6
:1010F00030B45FF0FF310268002A1CD0036800E0C2
:101100005B1C1A78202A02D31A783A2AF8D11A7866
:101110003A2A0FD102681478521CB4F130050A2D16
:1011200009D29A4207D1303C002C04D121005B1C2B
:10113000036000E00021080030BC704710B50400D7
:101140000020E0705FF0FF3020632000FFF76FF8B1
:10115000002801D004202BE004F23220FEF7E2FF49
:101160004AF65521884201D0032021E094F834004A
:10117000E92807D094F83400EB2818D194F8360009
:10118000902814D103220BA114F16A00FFF700F894
:10119000002801D100200BE00522DFF8881714F1A8
:1011A0008600FEF7F5FF002801D1002000E00220B4
:1011B00010BD000046415400F0B585B00F00150089
:1011C00000213960FFF794FF0600002E01D50B20A7
:1011D00068E1DFF8540750F82640002C01D10C20BC
:1011E00060E13C6015F0FE05207800280DD06078A5
:1011F00000F0BAFBC10708D4EDB2002D03D04007C0
:1012000001D50A204EE100204CE1002020706670DC
:10121000607800F0B1FBC10701D5032042E1EDB2D7
:10122000002D03D0400701D50A203BE1002529000D
:101230002000FFF783FF0600F6B2022E2AD1002716
:1012400004E00020694641F827007F1C042F0BD2E0
:10125000380120444FF4F971084401790029F0D095
:101260000830FEF766FFEDE70027002F00D07F1E55
:10127000684650F82750002D05D029002000FFF7C0
:101280005DFF060000E00326F6B2022E02DB7F1CA3
:10129000042FEDD3F6B2042E01D1012002E1F6B203
:1012A000022E01DB0D20FDE014F13F00FEF73AFFB6
:1012B000B0F5007F01D00D20F4E014F14A00FEF7F4
:1012C00031FF0700002F04D114F15800FEF731FF61
:1012D0000700E76194F84400A070A078012804D0CA
:1012E000A078022801D00D20DCE0A078474394F8D4
:1012F000410060816089002804D060896189491EAD
:10130000084201D00D20CDE014F14500FEF70AFFA0
:101310002081207A0F21084201D00D20C2E014F173
:101320004700FEF7FFFE0600002E04D114F1540022
:10133000FEF7FFFE060014F14200FEF7F3FE80B256
:10134000002801D10D20ADE080B23918228911EBBF
:1013500012118E4201D20D20A4E0721A6389B2FBF1
:10136000F3F2002A01D10D209CE00026DFF8BC3505
:101370009A4200D203264FF6F6739A4200D2022612
:1013800040F6F6739A4200D20126F6B2002E01D141
:101390000D2087E0921CA261256280B24019606234
:1013A0004819E062F6B2032E14D114F15E00FEF784
:1013B000B9FE002801D00D2074E02089002801D05A
:1013C0000D206FE014F16000FEF7B3FEA062A0698B
:1013D000800015E02089002801D10D2062E0606ABC
:1013E0003818A062F6B2022E02D1A069400007E0D0
:1013F000A06903214843217E11F0010111EB500047
:10140000E16900F2FF10B1EB502F01D20D2049E04D
:101410005FF0FF3060616069206180202071F6B26A
:10142000032E32D114F16400FEF77CFE01282CD18A
:10143000691C2000FEF7FBFE002826D10020207149
:1014400004F23220FEF76EFE4AF6552188421CD186
:1014500014F13400FEF76DFEDFF8D414884214D185
:101460004FF406702044FEF764FEDFF8C81488428B
:101470000BD14FF407702044FEF75BFE60614FF420
:1014800008702044FEF755FE20612670DFF8A8049E
:101490000088401CDFF8A0140880DFF89C04008856
:1014A000E080002005B0F0BD70B506000C000925F5
:1014B000002E12D0306800280FD030680078002845
:1014C0000BD0B0883168C988884206D1306840782E
:1014D00000F04AFAC00700D40025EDB2002D01D17A
:1014E000306800E0002020602800C0B270BD13B555
:1014F00082B01400039800906846FFF7F9FD0028B9
:1015000001D50B201DE0DFF8201451F82010002930
:1015100001D000220A700299002902D00021029A0B
:1015200011700299DFF8002442F82010E4B2002C78
:1015300001D1002005E0002202A903A8FFF73CFE2C
:10154000C0B204B010BD0000906A00082DE9F2415D
:10155000ADF50D7D04001500002C01D10920DDE062
:1015600015F03F052A00D2B269468DA8FFF724FE88
:101570000600F6B2002E40F0CA80009801900DA837
:101580000099C8608D9901A8FFF76DFD0600F6B2BD
:10159000002E04D19DF82F00000600D506261C2041
:1015A00005424DD0F6B2002E09D0F6B2042E03D17A
:1015B00001A8FFF739FB060055F0080509E09DF882
:1015C0000A001121084201D0072602E0680700D571
:1015D0000826F6B2002E43D1280741D50899009875
:1015E000FFF777F90700DFF8541308980E30FEF77D
:1015F000B3FD20200899C872002208990098FFF7CF
:101600007BF9002108981C30FEF7A6FD0120009907
:10161000C870002F24D00098D0F830800022390004
:1016200001A8FEF768FF0600F6B2002E18D1414669
:101630000098FEF7FCFD0600781E009908610FE097
:10164000F6B2002E0CD19DF80A00C00601D5042682
:1016500006E0A80704D59DF80A00C00700D50726B4
:10166000F6B2002E08D1280701D555F040050098A4
:10167000006B206208986062F6B2002E47D108998C
:101680000098FFF726F9A06008981C30FEF751FD7E
:10169000E060009820600098C088A0802574002039
:1016A00060740020E06100206061A8062FD5E0682A
:1016B00000282CD0E0686061009840894FF40071E8
:1016C00001FB00F5A068E7680BE001002000FEF7D1
:1016D00024FE022800D2022610F1010F00D10126BB
:1016E0007F1BF6B2002E01D1BD42EED3A061F6B24F
:1016F000002E0CD1F9050AD001000098FEF701FE7A
:10170000002801D1022602E010EB5720E061F6B27A
:10171000002E01D0002020603000C0B20DF50E7DFB
:10172000BDE8F0812DE9F04782B0050016001F00EA
:101730000C000020386069462800FFF7B5FEC0B2F3
:10174000002804D1687C0100C9B2002901D0C0B2D0
:10175000A5E0287CC00701D40720A0E0E8686969FB
:10176000401AB04217D2060015E042460098696957
:10177000C905C90D084410F134012000FEF7F8FC3A
:10178000B6EB0806386818EB000038604444686916
:1017900018EB00006861002E00F080806869C005C9
:1017A00069D1686900994989491E11EA5028B8F140
:1017B000000F16D16869002801D1A86803E0A96963
:1017C0002800FEF7AAFD022803D202206874022036
:1017D00065E010F1010F03D10120687401205EE083
:1017E000A861A9690098FEF78CFD8146B9F1000F48
:1017F00003D102206874022051E018EB09095FEA66
:10180000562ABAF1000F34D0009840891AEB08012B
:10181000884203D200984089B0EB080A53464A46F2
:1018200021000098407800F0C8F8002803D001207B
:101830006874012033E00098C078002814D0009824
:10184000006BB0EB090050450ED24FF400720098C7
:1018500010F134010098006BB0EB09004FF40073F5
:1018600058432044FEF784FC4FF4007000FB0AF854
:1018700086E7C5F81C906869C005C00DD0F50078F2
:10188000464500D2B046E9690098FEF7D0FC002832
:101890003FF46BAF01206874012000E00020BDE838
:1018A000F68770B582B0040069462000FFF7FCFDA2
:1018B000C0B200282DD1217C49062AD51F4D216AAE
:1018C0000098FEF7B4FCC0B2002822D1666AF07A14
:1018D00050F02000F072A26831002068FFF70CF889
:1018E000E16816F11C00FEF737FC290016F116001E
:1018F000FEF732FC002116F11200FEF726FC012053
:101900000099C8700098FEF7B0FC217C11F0BF016F
:101910002174C0B276BD0000F06A0008D4680008E7
:101920008C6B0008946B0008C46F0020F6FFFF0F5B
:101930005252614172724161DC6F00200000A14A85
:1019400010B582B004002000FFF7ABFFC0B2002842
:1019500008D169462000FFF7A7FDC0B2002801D1D9
:1019600000212160C0B216BDC0B2002801D0012004
:1019700001E04A480078704780B5C0B2002801D025
:1019800001200EE000F026F900280BD04348007833
:1019900010F0FD004149087000F025F9002803D13E
:1019A000012002BD0220FCE73C48007810F0FE0058
:1019B0003A49087039480078F3E72DE9FC410C00FA
:1019C00016001D00C0B2002801D1002D01D1042055
:1019D0005BE032480078C00701D5032055E040F2B3
:1019E00011286427012000F0EFFA012D02D140F206
:1019F000112801E040F212283200414609B268463F
:101A000000F0D0F97F1E9DF80000002801D0002FC3
:101A1000F2D1002F01D1032037E0002607E04FF478
:101A2000007000FB06F0204400F040FA761CAE4245
:101A3000F5D3022D28D300224FF40371684600F03D
:101A4000B1F94FF48051164800F063FB4FF4806108
:101A5000134800F05CFB00F075FA8DF800004FF4BD
:101A600080510F4800F053FB4FF480610C4800F0A8
:101A700050FB7F1E9DF80000002801D0002FDAD116
:101A8000002F01D1032000E00020BDE8F6810548C9
:101A90000078704703480078704700009E000020DF
:101AA00000040240E76F002010B40022464B80B2D1
:101AB000802801DA020015E089B240F2B514A14293
:101AC00010D1002200E0521C92B2802A06DA0100F6
:101AD00092B233F8124089B2A142F4D112F18000DF
:101AE00000F0FF02100080B210BC704710B400225A
:101AF000354B80B2802801DA02000DE089B240F255
:101B0000B514A14208D180B2FF2805DC80B203EBF6
:101B10004000B0F580700288100080B210BC7047A1
:101B200030B480B2B0F5805F01DA284A07E0284A75
:101B300005E089B2002902D1A4B202EB4402138865
:101B4000921C9BB2002B05D001001C0089B2A4B2EC
:101B5000A14200D235E01488921C210089B2090A02
:101B600004F0FF0480B29BB2A4B2E518A842E0DA08
:101B700089B200290CD0022915D00FD3042916D020
:101B800013D3062917D014D3082918D015D318E079
:101B900080B29BB2C01A32F8100012E0C11A11F0E4
:101BA0000101401A0DE010380BE0203809E0303810
:101BB00007E01A3805E0083003E0503801E0B0F5DE
:101BC000E35080B230BC704778660008E85D0008DA
:101BD00078670008DFF85C030088800701D50120E2
:101BE00000E00020704730B583B0002508240020B5
:101BF00000F0EAF94FF48051DFF83C0300F087FA77
:101C00004FF48061CC4800F084FA002502E000F037
:101C100099F96D1C0A2DFADB0A2500224FF4007198
:101C2000684600F0BFF8DDE90001C44AC2E90001DE
:101C30006D1EC2480078C00701D4002DEDD1002DE3
:101C400001D10020ADE00A254FF4D57240F608011D
:101C5000684600F0A7F8DDE90001B84AC2E90001D2
:101C6000B6480078400701D502240BE06D1EB3484A
:101C70000078C00704D5B1484068B0F5D57F01D0E1
:101C8000002DE1D1002D01D100208AE0182004426E
:101C90000AD1002240F23721684600F083F8DDE9DE
:101CA0000001A64AC2E900014FF4FA755FF08042D4
:101CB00040F22931684600F075F8DDE900019F4ADD
:101CC000C2E900019D480078400702D5A00725D54C
:101CD00001246D1E99480078C00701D5002DE5D17B
:101CE000002D02D1A0071BD50124E0071AD50A2533
:101CF000002240F20121684600F054F8DDE90001BD
:101D00008E4AC2E900016D1E8C480078002801D07F
:101D1000002DEDD1002D05D1002042E0002040E053
:101D200000203EE0182004421ED0FF2083490870A6
:101D30000A25002240F23A41684600F033F8DDE916
:101D400000017E4AC2E900016D1E7C48007800282F
:101D500001D0002DEDD1002D01D1002021E07748E8
:101D60004068400000D404240720044217D00A250C
:101D70004FF400724FF40471684600F013F8DDE987
:101D800000016E4AC2E900016D1E6C48007800280F
:101D900001D0002DECD1002D01D1002001E0200068
:101DA000C0B23EBDF0B585B004000D001700082696
:101DB000E8050AD5002240F2372101A8FFF7F2FF1B
:101DC000DDE901015D4AC2E90001FF202DB2B5F550
:101DD000007F01D1952005E02DB240F608018D422B
:101DE00000D1872055F040018DF80410390E8DF890
:101DF0000510390C8DF80610390A8DF807108DF88A
:101E000008708DF809004FF480514B4800F081F9BB
:101E10004FF48061484800F07AF9002705E001A8F6
:101E2000FFB2C05D00F06CF87F1CFFB2062FF6DB3E
:101E300000F088F88DF80C00761E9DF80C00000666
:101E400002D5F6B2002EF3D12DB215F46060B0F5D4
:101E5000007F0AD0002505E000F074F86946EDB275
:101E600048556D1CEDB2042DF6DB9DF800009DF881
:101E70000110090451EA00609DF8021050EA0120A7
:101E80009DF80310084304904FF480512A4800F055
:101E90003EF94FF48061284800F03BF900F052F819
:101EA000DDE90301C4E9000105B0F0BD38B5040067
:101EB0004FF48051204800F02CF94FF480611E4807
:101EC00000F025F900F03EF8FE28FBD1002503E0E4
:101ED00000F038F860556D1CB5F5007FF8DB00F0B8
:101EE00031F800F02FF84FF48051134800F00FF94B
:101EF0004FF48061104800F00CF900F023F831BD78
:101F000010B50400002002210D4800F0A0F90028BF
:101F1000F9D0E4B2210089B2094800F08AF9012120
:101F2000074800F094F90028F9D0054800F07FF93F
:101F3000C0B210BD1000024000040240B46F002087
:101F40000038004080B50020FF20FFF7D9FFC0B265
:101F500002BD000040B2002804D409013F4A40B24B
:101F6000115407E009013E4A40B210F00F0010443E
:101F700000F8041C704780B5411EB1F1807F01D389
:101F800001200EE0401E374908600F215FF0FF304E
:101F9000FFF7E0FF0020344908600720334908605C
:101FA000002002BD1FB50400684600F05BF90198EF
:101FB0002F49B0FBF1F06043FFF7DDFF00215FF038
:101FC000FF30FFF7C7FF1FBD10B50400E4B2002CBF
:101FD0001ED10021274800F01CF9002201212548CC
:101FE00000F029F900220221224800F024F92148BA
:101FF00000884FF6C77108401E4908801D480088B8
:1020000050F020001B49088001211A4800F001F916
:10201000E4B2022C02D0E4B2012C1ED100211548FA
:1020200000F0F7F801220121124800F004F9012222
:102030000221104800F0FFF80E4800884FF6C771E3
:1020400008400C4908800B48008850F010000949EE
:1020500008800121074800F0DCF810BD00E400E032
:1020600018ED00E014E000E018E000E010E000E00F
:1020700040420F000038004030B40022002300240A
:10208000002300223FE0012393400C681C409C4247
:1020900038D1036803241500EDB26D00AC40A343B2
:1020A0000C791500EDB26D00AC40234303600B7951
:1020B000012B02D00B79022B16D183680324150063
:1020C000EDB26D00AC40A3434C791500EDB26D004C
:1020D000AC4023438360838801249440A3438C79DC
:1020E0009440A4B223438380C36803241500EDB257
:1020F0006D00AC40A343CC791500EDB26D00AC404F
:102100002343C360521C102ABDD330BC70470183E7
:10211000704741837047828A51408182704770B412
:1021200000230023D2B211F00703DBB29B0012FAA6
:1021300003F389B2CA1000EB820289B2CC1000EB23
:102140008404246A0F2511F00706F6B2B600B540E4
:10215000AC43146289B2CA1000EB8202126A1343C4
:1021600089B2C91000EB8100036270BC70470000A7
:1021700080B5154988420AD101214FF4805000F002
:1021800011F900214FF4805000F00CF91AE00F49CA
:1021900088420AD101214FF4804000F013F9002158
:1021A0004FF4804000F00EF90CE00949884209D153
:1021B00001214FF4004000F005F900214FF40040E8
:1021C00000F000F901BD000000300140003800407F
:1021D000003C004010B40022028812F441520B88E7
:1021E0004C8823438C882343CC8823430C89234386
:1021F0004C8923438C892343CC8923431A4302808F
:10220000828B4FF2FF731A408283098A018210BCCD
:102210007047C9B2002904D0018851F04001018003
:1022200004E001884FF6BF72114001807047808939
:10223000704781817047D2B2002A03D0828811434F
:10224000818003E0828832EA0101818070470022A8
:102250000089084201D0012200E000221000C0B233
:1022600070470000002100210022002300210021EE
:102270005C49096811F00C01002906D0042911D02D
:10228000082912D00C2913D031E057490968C1F34D
:1022900042310122491C12FA01F14FF4004251432C
:1022A000016030E0514901602DE0514901602AE0B0
:1022B0004C49096811F470114A4A126812F440023C
:1022C0004C4B890C595C920D521C464B1B6813F405
:1022D0008033002B05D1454B5943B1FBF2F101602E
:1022E00004E0434B5943B1FBF2F101600BE03E497E
:1022F0000968C1F342310122491C12FA01F14FF47D
:102300000042514301603749096811F0F0010909A1
:10231000394A515C0268CA4042603249096811F486
:10232000E061090A344A515C4268CA4082602D4922
:10233000096811F46051C90A2F4A515C4268CA40C9
:10234000C2607047C9B2002905D02C49096808430A
:102350002A49086005E02949096831EA000027494F
:1023600008607047C9B2002905D0254909680843AB
:102370002349086005E02249096831EA0000204944
:1023800008607047C9B2002905D01E490968084392
:102390001C49086005E01B49096831EA0000194939
:1023A00008607047C9B2002905D017490968084379
:1023B0001549086005E01449096831EA000012492E
:1023C00008607047C9B2002905D010490968084360
:1023D0000E49086005E00D49096831EA00000B4923
:1023E0000860704708380240043802400024F400B6
:1023F00000127A007C000020880000201C38024077
:102400002038024024380240143802401838024074
:1024100030B5ADF51D7D002230A10FA8FFF767F89C
:102420000122DFF8301D05A8FFF790F8089CB4F5ED
:10243000005F01DD02204EE0200000F059FFDFF8D0
:102440002C1E0860DFF8240E0068002803D100F07D
:10245000E9FE02203FE001AB2200DFF8100E016828
:1024600005A8FFF75FF905A8FFF76AFA00221BA18C
:102470000020FFF73CF802A801F090F9002000903E
:1024800000232200DFF8E40D016802A801F061F8E2
:10249000050002A801F082F9280100F029FFDFF809
:1024A000D01D0860DFF8C80D0068002803D100F0D7
:1024B000B9FE02200FE00095DFF8B40D036822009A
:1024C000DFF8A80D016802A801F043F800F008F851
:1024D00000F0A8FE01200DF51D7D30BD00000000BC
:1024E0002DE9F84301240125012600275FF00008AB
:1024F0005FF000090020DFF87C1D0968C865002036
:1025000012E0DFF8702D12684FF40F7303FB00F335
:102510001A44702303FB01F31A440023C2F88830E5
:10252000491C0529EDDB401C04280BDA0021DFF8EB
:10253000442D12684FF40F7303FB00F31A449166A5
:102540000021EEE7DFF8300D006800F068FC0123A1
:10255000DFF8280D02680021DFF81C0D006800F08C
:1025600027FC0123DFF8180D02680121DFF8080DB0
:10257000006800F01DFCDFF8FC0C0068011DDFF8AE
:10258000F80C006800F07BFC0123DFF8F80C02680F
:102590000121DFF8E40C006800F030FCDFF8D40C17
:1025A000006810F11801DFF8D00C006800F067FC3B
:1025B0000123DFF8D40C02680121DFF8BC0C0068AD
:1025C00000F01CFCDFF8AC0C006810F12C01DFF807
:1025D000A80C006800F05CFC0221DFF89C0C00688D
:1025E00000F0D6FB0123DFF8A40C02680021DFF81D
:1025F000880C006800F0DCFB0123DFF8840C026823
:102600000121DFF8740C006800F0D2FBDFF8640CE5
:10261000006810F13001DFF8600C006800F02FFC5A
:102620000123DFF8600C02680121DFF84C0C006820
:1026300000F0E4FBDFF83C0C006810F14401DFF827
:10264000380C006800F01BFC0123DFF83C0C02682A
:102650000121DFF8240C006800F0D0FBDFF8140C37
:10266000006810F15801DFF8100C006800F010FC51
:102670000221DFF8040C006800F08AFB0123DFF878
:10268000100C02680021DFF8F00B006800F090FBEE
:102690000123DFF8000C02680121DFF8DC0B006881
:1026A00000F086FBDFF8CC0B0168DFF8CC0B00688C
:1026B00000F0EEFB0121DFF8C00B006800F068FBC2
:1026C0000BE001257F1CDFF8AC0B0068C76501211A
:1026D000DFF8A40B006800F05BFB002C00F05583D2
:1026E000DFF8900B0068C76D5FF000087B1CDFF817
:1026F000A80B02680021DFF8800B006800F058FB8F
:102700000400002CE9D00123DFF87C0B02680121D2
:10271000DFF8640B006800F04BFBDFF8580B006833
:102720004FF40F7101FB07F1084410F16001DFF86D
:10273000480B006800F0ACFB0123DFF8600B026877
:102740000121DFF8340B006800F058FB0123DFF8AB
:10275000500B02680121DFF8200B006800F04EFBEF
:10276000DFF8100B00684FF40F7101FB07F108440C
:1027700010F16401DFF8000B006800F089FB012113
:10278000DFF8F40A006800F003FB13E1DFF8E40A65
:1027900000684FF40F7101FB07F10844702101FB41
:1027A00008F10844D0F8889019F10103DFF8F40A21
:1027B00002680021DFF8C00A006800F0F9FA06009C
:1027C000002E00F0E1800123DFF8BC0A026801213D
:1027D000DFF8A40A006800F0EBFADFF8980A006856
:1027E0004FF40F7101FB07F10844702101FB08F160
:1027F0000844142101FB09F1084410F18C01DFF8B1
:10280000780A006800F044FB0123DFF89C0A0268A4
:102810000021DFF8640A006800F0F0FA0123DFF815
:10282000680A02680121DFF8500A006800F0C0FA67
:10283000DFF8400A00684FF40F7101FB07F108440C
:10284000702101FB08F10844142101FB09F108443F
:1028500010F19001DFF8200A006800F019FB012157
:10286000DFF8140A006800F093FA0123DFF83C0A4D
:1028700002680021DFF8000A006800F0BFFA0123B7
:10288000DFF82C0A02680121DFF8EC09006800F08B
:102890008FFADFF8E00900684FF40F7101FB07F1D0
:1028A0000844702101FB08F10844142101FB09F1DF
:1028B000084410F19401DFF8C009006800F0E8FA5C
:1028C0000123DFF8F00902680121DFF8AC09006894
:1028D00000F094FADFF89C0900684FF40F7101FBD7
:1028E00007F10844702101FB08F10844142101FBA1
:1028F00009F1084410F19801DFF87C09006800F044
:10290000C7FA0123DFF8B00902680121DFF868097E
:10291000006800F073FADFF85C0900684FF40F718B
:1029200001FB07F10844702101FB08F10844142160
:1029300001FB09F1084410F19C01DFF83C09006833
:1029400000F0D5FA0121DFF83009006800F020FA24
:102950000121DFF82409006800F01AFA19F10109D1
:10296000DFF8100900684FF40F7101FB07F108440C
:10297000702101FB08F10844C0F888900121DFF8BC
:10298000F808006800F004FA002E7FF4FFAE01267C
:1029900018F10108DFF8DC0800684FF40F7101FB43
:1029A00007F10844C0F868800121DFF8CC0800680E
:1029B00000F0EEF9002D3FF484AEDFF8B8080068AF
:1029C0004FF40F7101FB07F10844D0F868805FF005
:1029D000000918F10103DFF8E40802680021DFF8BC
:1029E0009808006800F0E4F90500002DE2D001230A
:1029F000DFF8940802680121DFF87C08006800F025
:102A0000D7F9DFF8700800684FF40F7101FB07F188
:102A10000844702101FB08F1084410F16C01DFF853
:102A20005808006800F034FA0123DFF870080268E3
:102A30000121DFF84408006800F0E0F90123DFF825
:102A4000800802680021DFF83008006800F0D6F93D
:102A50000123DFF8700802680021DFF81C08006815
:102A600000F0A6F900280ED0DFF8080800684FF43F
:102A70000F7101FB07F10844702101FB08F10844C4
:102A8000012101677AE10123DFF83C080268002197
:102A9000DFF8E407006800F08BF900280ED0DFF8BB
:102AA000D40700684FF40F7101FB07F1084470214F
:102AB00001FB08F10844022101675FE10123DFF80F
:102AC0000C0802680021DFF8B007006800F070F918
:102AD000002800F05381DFF89C0700684FF40F7165
:102AE00001FB07F10844702101FB08F108440321B0
:102AF00001670123DFF8D80702680021DFF87807B3
:102B0000006800F055F90123DFF8C80702680021CA
:102B1000DFF86407006800F04BF90123DFF8B8071D
:102B200002680021DFF85007006800F041F9012336
:102B3000DFF8840702680121DFF83C07006800F035
:102B400037F9DFF8300700684FF40F7101FB07F128
:102B50000844702101FB08F1084410F17401DFF80A
:102B60001807006800F0C3F90421DFF80C070068BB
:102B700000F00EF90123DFF8640702680021DFF896
:102B8000F806006800F014F90123DFF8480702682E
:102B90000021DFF8E406006800F00AF90123DFF8FD
:102BA000380702680021DFF8D006006800F000F95D
:102BB0000123DFF8040702680121DFF8BC06006882
:102BC00000F0F6F8DFF8AC0600684FF40F7101FB77
:102BD00007F10844702101FB08F1084410F1780165
:102BE000DFF89406006800F082F90421DFF8880617
:102BF000006800F0CDF80123DFF8E4060268002148
:102C0000DFF87406006800F0D3F80123DFF8C4068B
:102C100002680021DFF86006006800F0C9F80123AF
:102C2000DFF8B40602680021DFF84C06006800F007
:102C3000BFF80123DFF8800602680121DFF83806BB
:102C4000006800F0B5F8DFF82C0600684FF40F714B
:102C500001FB07F10844702101FB08F1084410F161
:102C60007C01DFF81406006800F041F90421DFF868
:102C70000806006800F08CF80123DFF86806026897
:102C80000021DFF8F405006800F092F80123DFF876
:102C9000440602680021DFF8E005006800F088F8CB
:102CA0000123DFF8340602680021DFF8CC05006854
:102CB00000F07EF80123DFF8000602680121DFF84A
:102CC000B805006800F074F8DFF8A80500684FF454
:102CD0000F7101FB07F10844702101FB08F1084462
:102CE00010F18001DFF89005006800F000F9042180
:102CF000DFF88405006800F04BF80123DFF8E805F1
:102D000002680021DFF87005006800F051F8012327
:102D1000DFF8C00502680021DFF85C05006800F0FC
:102D200047F80123DFF8B00502680021DFF8480505
:102D3000006800F03DF80123DFF87C0502680121FE
:102D4000DFF83405006800F033F8DFF82805006884
:102D50004FF40F7101FB07F10844702101FB08F1EA
:102D6000084410F18401DFF81005006800F0BFF896
:102D70000421DFF80405006800F00AF80221DFF8FA
:102D8000F804006800F004F8FEE50120BDE8F283D5
:102D900070B504000D00002607E0200000F058F890
:102DA000D4F8C80054F82000761CAE42F5DB70BDA4
:102DB00038B5040010001A000125C9B2002908D155
:102DC0000100D4F8C80054F8200000F0F8F805001D
:102DD0000AE0C9B2012907D10100D4F8C80054F8AB
:102DE000200000F0F2F80500002D01D1002004E0E1
:102DF0002900200000F01AF8280032BDF8B50400C0
:102E00000D0016001F0001212000FFF7C1FF3B004D
:102E100032002900C9B22000FFF7CAFFF2BD01212C
:102E200001600021C0F8C81001207047D0F8C82008
:102E3000312A02D15FF0FF3009E0D0F8C820521CDF
:102E4000C0F8C820D0F8C82040F822100800704709
:102E500010B50400D4F8C80010F1010F01D1002012
:102E600007E0200000F006F8D4F8C810491EC4F8A6
:102E7000C81010BDD0F8C81050F82100704710B528
:102E80000C00FFF7F7FF2100401C00F00FF910BD08
:102E9000F8B505000C002800FFF7ECFF401CDFF838
:102EA000D0130968020111448968DFF8C42312684D
:102EB0000001104440680E1A300000F019FA0700B3
:102EC0002800FFF7D7FF3900401C00F0EFF838006A
:102ED00000F06CFC2060002002E000213954401C0E
:102EE000B042FADB380000F065FC2068F2BDF8B5AE
:102EF00005000C002800FFF7BDFF401CDFF8701331
:102F00000968020111448968DFF86423126800012E
:102F1000104440680E1A300000F0EAF9070028005B
:102F2000FFF7A8FF3900401C00F0C0F8380000F09F
:102F300081FC00F083FC2060002002E00021395475
:102F4000401CB042FADB380000F034FC2068F2BDCF
:102F500030B400220023401CC54A126803011A4401
:102F60009268401CC24B1B68040123449B6806E026
:102F7000BF4B1B68040123449B68491E401CBC4C8A
:102F8000246805012C446468944212DA012910DB9C
:102F9000B74C246805012C44A4689C4206D0B44C6C
:102FA000246805012C446468A342E7DA0129DFD1D3
:102FB00003E0012901DB0020FFE730BC704780B54A
:102FC0001300002200F007F802BD80B501230122A2
:102FD00000F001F802BD2DE9F04107000C001500DA
:102FE0001E005FF000080020380000F0DDF8002827
:102FF0000DD07F1C9E48006839010844D0F8088035
:103000007F1C9B48006839010844806913E0380040
:1030100000F0E9F8002806D0954800683901084416
:10302000D0F80880ECE700203EE0914800683901C4
:10303000084480697F1C8E4909683A011144496837
:10304000414530DA8A4909683A0111448969814267
:1030500007D0411C864A12683B011A4452689142CB
:10306000E8DA2100380000F045F80028DDD0EDB2A4
:10307000002D04D1380000F097F8002807D1EDB2F8
:10308000012DD2D1380000F067F80028CDD0781C8F
:1030900000F0B3F8002804D031003800FFF758FFE3
:1030A0000700380000E00020BDE8F08170B50400A2
:1030B0000D00200000F0ABF8002801D1002018E03E
:1030C0006B480068210108444668200000F044F87D
:1030D000002800D0761C66480068210108448068FA
:1030E000821B8248006800EB0601280000F0EEFB1E
:1030F000012070BDF8B504000D00200000F087F835
:10310000002801D1002024E059480068210108442A
:10311000466857480068210108448768200000F08D
:103120001BF8002800D0761CBC1B280000F00AFC0D
:10313000201A002801D000200BE0BA1B29006B48A0
:103140000068304400F01AFC002801D0002000E0A4
:103150000120F2BD746B000810B50400200000F0DF
:1031600056F8002804D0601C00F051F8002801D166
:10317000002018E05D4800683D49096822011144BB
:103180004968405CC0B2B0F130010A2908D3C0B22E
:10319000B0F141011A2903D3C0B261381A2801D213
:1031A000002000E0012010BD10B50400200000F058
:1031B0002EF8002804D0601C00F015F8002810D16B
:1031C000200000F024F8002809D0601C00F015F859
:1031D000002804D0A01C00F006F8002801D100202F
:1031E00000E0012010BD224909680001085C0128A7
:1031F00001D0002000E0012070471D49096800014E
:10320000085C022801D0002000E001207047184926
:1032100009680001085C032801D0002000E00120BB
:103220007047000080B512480068002806D010489A
:10323000006800F0BFFA00200D4908600B480068E4
:10324000002806D00948006800F0B4FA00200749B9
:10325000086007480068002803D104480068002877
:1032600001D0022000E0012002BD00BFD06F00208D
:10327000CC6F0020740000207000002000000020AF
:103280004C000020500000205400002004000020CA
:10329000080000206C0000200C00002058000020D6
:1032A00068000020380000203C0000204000002082
:1032B0005C0000206000002064000020100000205E
:1032C000140000201C000020200000201800002016
:1032D0002400002044000020480000202800002096
:1032E0002C0000203000002034000020D06F00208F
:1032F00070B5054605F10F00C408AFF30080E40087
:10330000A54232D2082C04D2082402E0083000F092
:1033100051FA2248026811000CD1011D0A6802B35B
:103320001368A34238BF111DF8D310E01D68A542F1
:103330000DD2191D0B68002BF8D11268011D00E099
:10334000191D0B6893420CD01D68A542F8D361B1DA
:103350000D682A68A2F10803A3420AD26A680A60CB
:103360000FE000F03DFB0028D0D1AFF3008000203B
:1033700070BD2B190B60121B6E685E600B681A60C3
:103380002C60096800291DBF4A68002A091D002118
:103390000160AFF3008005F1080070BDBC6F002034
:1033A0004368934201D300200BE04268531C436002
:1033B000100108445FF0FF318160816841600021A5
:1033C000C16070470170426083600021C160704736
:1033D00038B50400256802E02068401C20602068A1
:1033E000904215D22068085C002811D02068085C43
:1033F00009280DD00A280BD00D2809D0202807D085
:103400002C2805D03A2803D05D2801D07D2806D18C
:10341000002B0DD12068401E206000201CE0206899
:10342000085C20385F28D7D325607FF0010013E0C7
:10343000049A19002000FFF7B3FF002803D125608C
:103440005FF0FF3008E023682A000421FFF7BAFF8D
:103450002068401E2060002032BD70B50400256841
:103460002068401C206033E0049A19002000FFF718
:1034700097FF002803D125605FF0FF3068E02368E4
:103480006A1C0321FFF79EFF002061E0C0B25C28A8
:103490001BD12068401C904217D22068401C20603D
:1034A0002068085C222810D02F280ED05C280CD071
:1034B00062280AD0662808D06E2806D0722804D068
:1034C000742802D0752813D03BE02068401C20608F
:1034D0002068904239D22068085C002835D02068E6
:1034E000085CC0B22228D1D1002BBDD100202FE032
:1034F0002068401C2060002003E02668761C2660BF
:10350000401C042819DA2668964216D226688E5D79
:10351000002E12D026688E5D303E0A2EEDD326682E
:103520008E5D413E062EE8D326688E5D613E062EF6
:10353000E3D325607FF001000AE02068401E206090
:10354000C3E725607FF0010002E025607FF0020004
:1035500070BD2DE9F04782B004000D0016001F0079
:10356000D4F80490DDF8288013E019F10109A0686F
:1035700010F1010F0AD0002F08D0A06800013844D4
:10358000A16809013944C968491CC1602068401C10
:1035900020602068B04280F0E7802068285C002826
:1035A00000F0E280206815F800A05FFA8AFA504621
:1035B000092800F09C800A2800F099800D2800F06E
:1035C0009680202800F09380222874D02C2800F0C8
:1035D00093803A2800F08C805B2806D05D282ED09E
:1035E0007B2802D07D282AD0B2E019F10109002FF2
:1035F000CCD0424639002000FFF7D2FE002802D18D
:103600005FF0FF30C8E0A16811F1010F08D0A16898
:1036100009013944A26812013A44D268521CCA60B6
:103620005FFA8AFABAF17B0F01D1012100E0022191
:103630000170216841606068401EA060A6E7002F0D
:10364000A4D05FFA8AFABAF17D0F01D1012200E01D
:1036500002226068411E00E0491E002916D40801BC
:103660003844436813F1010FF6D0836813F1010F5A
:10367000F2D10378D2B2934202D07FF001008BE006
:103680005FF0FF32A2602268521C826011F1010FCC
:1036900003D17FF001007FE0491E00290AD4080110
:1036A0003844426812F1010FF6D0806810F1010F22
:1036B000F2D1A1606AE7CDF800803B00320029001A
:1036C0002000FFF7CAFE002866D419F10109A0689E
:1036D00010F1010F0AD0002F08D0A0680001384473
:1036E000A16809013944C968491CC1604EE74DE72A
:1036F0006068401EA06049E7002F28D0A06810F144
:10370000010F24D0A0680001385C02281FD0A068F7
:103710000001385C01281AD06068411E00E0491E93
:10372000002914D40801385C022803D00801385C51
:103730000128F4D108013844406810F1010FEED09F
:1037400008013844806810F1010FE8D1A1601DE73D
:10375000CDF800803B00320029002000FFF738FE42
:1037600000287FF502AF17E0002F14D06068411EDB
:1037700000E0491E00290ED408013844406810F1C9
:10378000010FF6D008013844806810F1010FF0D124
:103790007FF0020000E04846BDE8F68700210160A6
:1037A000002141605FF0FF31816070470A220021F3
:1037B00000F0D0B900B9704738B5A0F1080420680E
:1037C000082833D310F0070F30D1AFF3008018482A
:1037D000416809B18C4203D26160446017E0194628
:1037E0004B680BB1A342FAD30B68CD18AC421BD384
:1037F000A54204D12268D2180A600C4607E04A6844
:103800001AB1236823449A420ED362604C60616807
:1038100051B12268A3188B4206D1002303600868C7
:103820008018206048686060AFF3008031BD000000
:10383000BC6F00200022002100F05ABA4FEAF17C50
:10384000BCF1E04C2CBFBCF5001F11E05FEA4C0C52
:1038500034BFBCF17F5F2EE05FEA9C0C4FEA0C1C8A
:103860004FEA3C0CC10071F100414CEB50707047C5
:10387000C90241EA5051C00218BF41F0010141F0B4
:1038800000414FEA6C50C0F10900212810D240EAF3
:10389000CC7CCCF1200C11FA0CF070F10040CCF192
:1038A000200C21FA0CF00CF0004C40EB0C0070479F
:1038B0004FEACC707047490011F5001F04D84FEA59
:1038C000CC10FF30C0057047C817704781423ABF1F
:1038D0005318984200F00EBA8018990707D0521E6C
:1038E00024BF13F8011D00F8011DF6D870478107A9
:1038F0001CD1103A07D330B433E93210103A20E922
:103900003210F9D230BC1032121F24BF53F8041DFC
:1039100040F8041DF8D838BF121D521E24BF13F8FA
:10392000011D00F8011DF8D8704700BF083A07D301
:1039300033E90210083A40F804CD40F8041DF7D2EC
:103940000832EAE700F10103810704D010F8011BF7
:1039500089B18107FAD10268B2F10131914311F0C6
:10396000803F04BF50F8042FF6E710F8011B11B197
:1039700010F8011BFBE7C01A70470000030000208D
:1039800013F0030F09D0521E22BF13F8010B11F8D8
:1039900001CBB0EB0C00F3D07047121F22BF53F8DD
:1039A000040B51F804CB6045F7D0121D0AD200BABF
:1039B0009CFA8CFCB0EB0C0038BF6FF0000088BFA5
:1039C00001207047521E22BF13F8010B11F801CBE2
:1039D000B0EB0C00F6D0521C08BF10467047000038
:1039E0000749086808B1002070470648C008C000B1
:1039F00008600549C908C900091A0160704700BF7D
:103A0000D86F0020A7100020A05000202DE9F04F13
:103A100085B004461E000D4690461CBF0020306055
:103A2000A14601E009F1010999F80000A0F109019E
:103A30000529F7D32028F5D02D2816BF2B2819F8F3
:103A4000017B2B27B8F1000F57D4B8F1010F54D0E8
:103A5000B8F1250F51DAB8F1010F0DDBB8F1100FF5
:103A600004BF99F80000302802BF99F8010040F027
:103A70002000782814D10EE099F80000302818BFF3
:103A80004FF00A080CD199F8010040F02000782886
:103A900004D14FF0100809F1020901E04FF00808C5
:103AA000CDF8109001E009F1010999F800003028E3
:103AB000F9D00FF2A40B4FF0000ACDF80C908DF85E
:103AC00008B00AE09DF80810CDF804A0401AC0B272
:103AD000009008FB0A0A09F1010999F80010A1F108
:103AE00041001A2838BF20314246584600F03EF9BE
:103AF0000028E7D10498484503D105B12C60002087
:103B000025E00FF27C01039811F80810A9EB0000E2
:103B1000401A14D4012808DA0098BAEB000004D344
:103B20000199B0FBF8F0884209D000F04BF922214E
:103B300001600EB1012030604FF0FF3A03E02D2FFD
:103B400008BFCAF1000A0DB1C5F80090504605B093
:103B5000BDE8F08F002359E7303132333435363742
:103B600038396162636465666768696A6B6C6D6E3B
:103B70006F707172737475767778797A00000000CF
:103B800000002115110E0D0C0B0B0A0A0909090979
:103B900009080808080808080707070707070707AC
:103BA00007070707070000002DE9F14D87B005461C
:103BB0000C4690469A4607A800F00AF98346BAF1E7
:103BC000000F1CBF0021CAF8001020F008000128D7
:103BD00034D10220009004AB07992246284600F019
:103BE00087F9040003D10020CDE902001DE005980B
:103BF00000F054FACDE90201022C16DB06AE671E76
:103C0000384DDDE9020100222B4600F05DFACDE9D6
:103C1000000156F8040B00F041FADDE9002300F042
:103C200025FBCDE902017F1EEBD1049800EB0802D1
:103C3000DDE90201534600F0B8FB42E0022835D12D
:103C4000009004AB07992246284600F085FC04004A
:103C500003D10020CDE902001DE0059800F01EFA16
:103C6000CDE90201022C16DB06AE671E1E4DDDE912
:103C7000020100222B4600F027FACDE9000156F898
:103C8000040B00F00BFADDE9002300F0EFFACDE9B8
:103C900002017F1EEBD1049902A800F05DFDDDE971
:103CA00002015346424600F080FB0AE0032802D19D
:103CB00000200E4905E0042806D14FF0FF306FF0D8
:103CC0000041CDE9020102E00020CDE902005FEAF7
:103CD0000B70DDE9020148BF81F0004108B0BDE88A
:103CE000F08D000065CDCD410000B0410000F07FB7
:103CF000002359E762B38B0708D0521E11F8013B2D
:103D000000F8013B00F024808B07F6D1830740F0D8
:103D1000208000BF103A07D330B4B1E83810103A11
:103D2000A0E83810F9D230BC530724BFB1E808101E
:103D3000A0E8081044BF51F8043B40F8043BD20708
:103D400024BF31F8022B20F8022B44BF0B780370FC
:103D50007047083A07D3B1E80810083A40F8043B26
:103D600040F804CBF7D25307E4E70000C9B2830759
:103D700006D0521E22D310F8013B9942F7D11FE022
:103D8000083A13D302F1040241EA012141EA014158
:103D900050F8043B121F21BF4B40A3F1013C2CEA19
:103DA000030C1CF0803FF3D0C9B2001F083210F89A
:103DB000013B521E28BF91EA030FF8D818BF01201B
:103DC000401E7047014800F04DBD000098000020E3
:103DD00070B402681346002400E05B1C1D78A5F156
:103DE0000906052EF9D3202DF7D02D2D0CBF082460
:103DF0002B2D00D15B1C1D7845F020066E2E26D1A0
:103E00005C7844F02004612C02BF9C7844F02004CC
:103E10006E2C02D01346002245E0DB1C1C46042217
:103E20002578282D3FD114F8015FA5F161061A2EDF
:103E3000F9D3A5F141061A2E24BF303D0A2DF2D345
:103E400025785F2DEFD0292D2DD1631C2BE0692E15
:103E50002CD15D7845F020056E2D02BF9D7845F090
:103E60002005662D02D0134600221CE044F0030218
:103E700013F8034F44F02004692C02BF5C7844F02F
:103E800020046E2C0FD19C7844F02004692C02BFD2
:103E9000DC7844F02004742C05D11C7944F0200413
:103EA000792C08BF5B1DF1B10B601CE0302D02BF07
:103EB000597841F02001782913D1991C0A782E2ACB
:103EC00008BF491C0978A1F16102062A21BFA1F1AE
:103ED0004102062A30390A2903D29B1C44F002020F
:103EE00001E044F001020360104670BC704700001E
:103EF0002DE9F0478CB00D4614998046002001EB67
:103F0000C1012E29A8BF2D2100261E605E6001E0A0
:103F10006D1C01262F78302FFAD0002704E01E6890
:103F2000761C1E606D1C012695F800E0AEF1300491
:103F30000A2C07D2B942F2DBAEF130060DF8076069
:103F40007F1CEFE7BEF12E0F08BF6D1C47B904E0E0
:103F50001E68761E1E606D1C01262C78302CF7D052
:103F60002C78A4F1300EBEF10A0F0CD2B94207DB57
:103F7000A4F130060DF807607F1C1E68761E1E60D7
:103F80006D1C0126ECE7B94218DA1DF80170052F07
:103F900006DB0DEB010717F8014C641C07F8014C18
:103FA0000F461968491C196008E00DEB070111F86C
:103FB000011C49B91968491C19607F1E012FF4DAE8
:103FC00017B98DF800000127002E5DD04FF0090EC3
:103FD00097FBFEFEC7F1090C0EEBCE0EE6444FF048
:103FE000090C9EFBFCFC00210CEBCC04BEEB040492
:103FF0000ED001200CE053F820401DF801C004EB66
:1040000084040CEB440443F820400EF1010E491CDB
:10401000B9420BDA09249EFBF4F404EBC404BEEBB2
:104020000404E8D11DF80140401CECE7297841F078
:104030002001652928D1294615F8017F2B2F16BFAD
:104040002D2F15F801CB4FF02B0C0024A646124F54
:1040500009E0BE4505DA0EEB8E0409EB4404A4F139
:10406000300E6D1C012495F80090A9F1300ABAF1C8
:104070000A0FEED3BCF12D0F1F6808BFCEF1000E62
:1040800077441F6004B90D461AB106B1A846C2F8BC
:1040900000800CB0BDE8F08700E1F505010040F1BB
:1040A0000780F446404200F003F851F000416047B9
:1040B00009D0B0FA80F18840C91CC1F584610905B6
:1040C00001EBD02140057047B0B581EA030C0CF03C
:1040D000004C40F2FF7515EA11541DBF15EA135745
:1040E000AC42AF4239E0E41923EA455343F480136C
:1040F000C90241F0004141EA505EC7021100A7FB2E
:10410000020200284FF00000EEFB01204FF00001FA
:10411000E3FB072118BF42F001024018002149418A
:10412000E3FB0E01A4F580640F0302D2520040416C
:10413000494154F101046CDD470872F1004250F12D
:10414000000051EB0451A1F580115CBF41EA0C0164
:10415000B0BD4CEA05510020B0BD05EA1357AC4292
:1041600014BFAF4241E050EA410E1CBF52EA430E79
:1041700002E061460020B0BD24423C441BD15FEA0E
:10418000070EF6D0090302BF01460020AEF1140E5F
:10419000B1FA81F7AEEB070401FA07FE0C37C7F15D
:1041A000200100FA07F7C8404EEA000E23EA455303
:1041B00043F48013A2E733F00043B3FA83F704BF5C
:1041C000B2FA82FE77440B3FE41BB7F1200E2FBFFB
:1041D00002FA0EF3BB40C7F1200E22FA0EFE38BFE2
:1041E00043EA0E03BA40641C82E750EA410E14BF52
:1041F00052EA430E6FF000014FF4001717EB430F24
:104200008ABF194617EB410FB5E74CEA055100206C
:10421000B0BDD4F10104B4F120070FDAC4F12007D6
:10422000520828BF42F0010210FA07F501FA07F719
:10423000E1BF2A43E0403843E1400FE0352C98DCF1
:10424000C7F1200452EA400220FA07F218BF42F0F8
:10425000010231FA07F0A1400A43002172F1004245
:1042600050F1000051EB0C01B0BD0000F0B44FF074
:10427000004591EA030C44BF6B4000F0F5BA00BF63
:10428000841A71EB030603D2001BB141121973416A
:104290004FF4001C1CEB410F34BF7CEB430443E0A4
:1042A0000C0DA4EB1356352E50DC45EAC323DB0A74
:1042B00045EAC121C912B6F120050DDD63FA05F604
:1042C000EB4086EA0305124218BF45F00105C0180D
:1042D00051F100010CD213E062FA06F5F2405540AC
:1042E000F3415A40B340F3405A408018594107D334
:1042F00049085FEA30005FEA350528BF45F001054F
:1043000001F58011420875F1004250F1000041EBC7
:104310000451F0BC4FF4001C1CEB410F38BF704738
:104320000020090D090570471CEB410F10D252EA1D
:1043300043060BD0BCEB410F05D80C0DAB43661EFA
:10434000342EB5DD02E0AB4380185941F0BC704714
:10435000F0BC704700000000F8B5064640F2FF715F
:104360007068C0F30A50884214461D4606D00128E2
:1043700006DA304600F02EFB012801DB002706E0BC
:10438000726840F2FE3161F31E527260471AD6E93C
:10439000000122462B46FFF797FEC6E9000139B21D
:1043A0003046BDE8F44000F0D7B92DE9FB451600D2
:1043B00082B09A4600F09B80DDE9022300200021B4
:1043C00000F02AFB00F093800024002E4A4D43D5D4
:1043D00076420FF23C174FF008080DE0F00707D5C2
:1043E000D7E9002320462946FFF76EFE04460D4616
:1043F00076080837A8F10108002E18BFB8F1000FA1
:10440000ECD102A9684600F017FBDDE90201224663
:104410002B4600F03DFBCDE90201BDF9001002A8DA
:1044200000F09AF907004FD5002E4DD002A968463A
:1044300000F002FBDDE90201304A314BFFF744FE98
:10444000CDE90201BDF9001002A800F085F90700CE
:104450003AD5761EEAD137E0012E35DB0FF2B007F0
:104460004FF00808F00707D5D7E900232046294672
:10447000FFF72AFE04460D4676100837012EA8F1F4
:10448000010802DBB8F1000FECD122462B4602A84E
:10449000FFF762FF070017D5012E15DB02A968465A
:1044A00000F0CAFADDE90201164A174BFFF70CFECD
:1044B000CDE90201BDF9001002A800F04DF9070096
:1044C00002D5761E012EE9DA38B200281CBF3FB2B1
:1044D000012F0CD1FFF776FC2221BAF1000F016009
:1044E00005D0DAF8000040F00100CAF80000DDE96C
:1044F000020105B0BDE8F0850000F03F436FAC64F9
:104500002806C80A3CBF737FDD4F15750000000008
:10451000000000000000244000000000000059409E
:10452000000000000088C3400000000084D79741CD
:104530000080E03779C34143176E05B5B5B893469F
:10454000F5F93FE9034F384D321D30F94877825A6B
:104550003CBF737FDD4F15752DE9F54F8BB01C46C1
:1045600016980025C0EBC008B8F1240FA8BF4FF083
:10457000230825600E466560002701E0761C0127B0
:1045800030783028FAD00FF2A01AA946CDF800A052
:104590000DF1040B04E02068401C2060761C01270C
:1045A000317816225046FFF7E1FB58B1C845F2DBDF
:1045B000009A0FF28C11801A085C0BF8090009F1BF
:1045C0000109EBE730782E2808BF761CB9F1000FFF
:1045D00008D104E02068401E2060761C0127307856
:1045E0003028F7D0317816225046FFF7BFFB88B14C
:1045F000C8450CDB0FF24811A0EB0A00085C01A9CA
:1046000001F8090009F101092068401E2060761CAC
:104610000127E7E7C8451ADA01A810F808000828BA
:1046200006DB01A8404410F8011C491C00F8011CDD
:10463000C1462068401C206009E001A8484410F8E9
:10464000010C70B92068401C2060A9F10109B9F182
:10465000010FF2DAB9F1000F04BF8DF804504FF0EA
:10466000010920688000002F206052D0072299FBAA
:10467000F2F2C9F10701C2EBC2025118072291FB05
:10468000F2F20020C2EBC2028A1A05D0012503E033
:1046900044F82520491C401C48450EDA072391FBAD
:1046A000F3F31BF80020C3EBC303CB1A0EBF6D1C42
:1046B00054F8253002EB0312EAE7307840F020008E
:1046C000702826D1304616F8011FDFF858C02B2974
:1046D00016BF2D2916F8011B2B210022002309E00B
:1046E000634505DA03EB83020EEB4202A2F13003CD
:1046F000761C012296F800E0AEF13008B8F10A0FFE
:10470000EED32D29216808BF5B425918216002B9F8
:1047100006460C9810B107B90B9E066028460DB0EE
:10472000BDE8F08F00E1F5053031323334353637EE
:10473000383961626364656641424344454600001E
:10474000000102030405060708090A0B0C0D0E0FF1
:104750000A0B0C0D0E0F000070B504460D46606884
:10476000C0F30A5040F2FF71884207D1606800032D
:1047700004BF2068002817D0022070BD20B9204651
:1047800000F028F9012866DA012D0FDB40F2FF71F5
:10479000091A8D420AD36068002847BF00202F49BC
:1047A00000202F49C4E90001012070BD4142A94207
:1047B000616806DA6FF31E51401941EA00506060EB
:1047C00040E0401E63684519012205F1350062F39F
:1047D0001F53352801F00041636003D3616000205E
:1047E000206070BD002015F11F0F04DA20682360DF
:1047F0000022203562606A4212D0401E2568804146
:10480000C2F12003C0439D4045EAD0702568666828
:10481000D54006FA03F32B4323606368D3406360FB
:1048200062680A43B0F1004F626003D80DD120786E
:10483000C0070AD52068401C2060206828B960683D
:10484000401C60604FF0FF3070BD6068884204BF5C
:1048500020680028F6D1002070BD00BF0000F0FFE6
:104860000000F07F70470000841A71EB030604D249
:104870006E40001BB141121973414FF4001C1CEB38
:10488000410F34BF7CEB430684E00C0DA4EB1356C0
:10489000362E7DDC012E43DC45EAC32343EA525326
:1048A00012BFD20292025B08240545EAC12141EA07
:1048B0005051D2EBC020994125D407D1B0FA80F6EF
:1048C00010FA06F164D00020203608E0B1FA81F633
:1048D000B140C6F1200220FA02F21143B0404FEA83
:1048E000F474B4EB465434F001064FEA74040AD869
:1048F000D6F50016760D04F00044F04061FA06F299
:104900005040F1404840C00A40EA415021F0004187
:1049100028BF5FEA500550F1000044EBD12137E099
:1049200045EAC323DB0A45EAC121C90AB6F12005DD
:104930000EDD42EA0242120CC5F1200603FA06F629
:10494000EB4042EA06056D42984161F100010DE03D
:1049500062FA06F5F240554063FA06FC82EA0C0260
:10496000F3405A406D42904161EB030111F4801F06
:1049700005D1641E620502D06D004041494121F419
:104980008011430875F1004350F1000041EB0451E0
:10499000F0BC70471CEB410F15D223F0004352EAE4
:1049A00043060BD04FEA4C0CBCEB410F04D80C0D66
:1049B000661E342EB7DDEBE7801A994150EA4106B6
:1049C00008BF0021E4E708BF1CEB430F28BF6FF0CE
:1049D0000001DDE730B4436803F000420121C3F376
:1049E00013034360002B04BF0368002B08D10DE0C4
:1049F0000368DD0F45EA440444605B000360491E20
:104A00004468E302F4D5C4F31303436043681A43D4
:104A10004260084630BC704790420CD141EA030C1A
:104A200050EA4C0C07D0994205D14FF4001C1CEB06
:104A3000410F38BF8942704738B50C46054660685B
:104A4000C0F30A5040F2FF7188420BD10020288049
:104A50006068000304BF2068002801D0022032BD36
:104A6000012032BD012804DA2046FFF7B3FF0128F8
:104A70000ADA626840F2FE3161F31E526260401A47
:104A800028804FF0FF3032BD0020288032BD00006A
:104A90002DE9F04140F2FF7581EA030C0CF0004C67
:104AA00015EA11541DBF15EA1357AC42AF42E9E0B5
:104AB000BC41C1F31301C3F31303801A994143F4BA
:104AC000801304D2641E4000494180185941C90234
:104AD00041EA5051B1FBF3F603FB1611A2FB067538
:104AE000D7EBC020A94102D2761E80185941C902D5
:104AF00041EA5051B1FBF3FE03FB1E11A2FB0E7500
:104B0000D7EBC020A94103D2AEF1010E8018594164
:104B1000890241EA9051760546EA8E2EB1FBF3F602
:104B200003FB1611A2FB0675D7EB8020A94102D228
:104B3000761E80185941C90241EA50514EEA060ECC
:104B4000B1FBF3F603FB1611A2FB0675D7EBC020F1
:104B5000A94102D2761E80185941C90241EA50513A
:104B6000B1FBF3F703FB1711A2FB0735D3EBC02012
:104B7000A94167F100070CBF004247F0010766F347
:104B8000D5274FEA1E31B80814F5806414DDBD073F
:104B900075F1004250EB0E5051EB045111F5801F9E
:104BA0005CBF41EA0C01BDE8F0814CF07F6141F04F
:104BB000E0410020BDE8F081BD076D0840EA0E50DD
:104BC00041F48011D4F10104B4F120060ADAC4F1F1
:104BD00020060200E04001FA06F3E1401843B2402B
:104BE00015430EE0342C14DCC6F1200445EA4005E0
:104BF0006D0820FA06F2154321FA06F0A1400D4394
:104C0000002175F1004250F1000051EB0C01BDE8AC
:104C1000F08100205FEA0C01BDE8F081CFB9921865
:104C20005B41B3FA83F704BFB2FA82F6BF190B3FB8
:104C3000B7F120062FBF02FA06F3BB40C7F12006EA
:104C400022FA06F638BF3343BA401CB1E419641E99
:104C50002FE77F4231F00041B1FA81F404BFB0FA8E
:104C600080F6A4190B3CB4F120062FBF00FA06F120
:104C7000A140C4F1200620FA06F638BF3143A04017
:104C80003C1B16E7AC421ABF05EA1357AF4214E0CB
:104C900050EA41061CBF52EA4306BFE750EA41070B
:104CA000304661461CBF41EA0551BDE8F08152EA39
:104CB000430C08BFC143BDE8F08100204FF400164B
:104CC00016EB410F98BF16EB430F08BF16EB410FD1
:104CD00024BFC14305E016EB430F0CBF61464CEA0D
:104CE0000551BDE8F081000000B583B0012101202D
:104CF000FDF728FB00208DF8040001208DF8070047
:104D0000022000906946DFF83404FDF7B5F901216F
:104D10000120FDF717FB00208DF8040000208DF81E
:104D20000700012000906946DFF81004FDF7A4F9A0
:104D300001210220FDF706FB02208DF8040000206F
:104D40008DF8060003208DF8050000208DF807007F
:104D50004FF4005000906946DFF8E403FDF78CF94A
:104D600001210220FDF7EEFA02208DF80400002058
:104D70008DF8060003208DF8050000208DF807004F
:104D80004FF4004000906946DFF8B403FDF774F972
:104D900001210220FDF7D6FA02208DF80400002040
:104DA0008DF8060003208DF8050000208DF807001F
:104DB0004FF4804000906946E148FDF75DF901211C
:104DC0000120FDF7BFFA01208DF8040000208DF8C6
:104DD000060000208DF8070003208DF80500202034
:104DE00000906946D548FDF747F901210220FDF7FB
:104DF000A9FA01208DF8040000208DF8060000209B
:104E00008DF8070003208DF805004FF480500090C6
:104E10006946CB48FDF730F901210220FDF792FAEF
:104E200001208DF8040000208DF8060000208DF888
:104E3000070003208DF805004FF4006000906946DC
:104E4000BF48FDF719F901210220FDF77BFA012087
:104E50008DF8040000208DF8060000208DF8070072
:104E600003208DF805004FF4806000906946B44837
:104E7000FDF702F901210120FDF764FA02208DF807
:104E8000040000208DF8060000208DF807000320A4
:104E90008DF80500042000906946A848FDF7ECF85D
:104EA00001210120FDF74EFA02208DF804000020B8
:104EB0008DF8060000208DF8070003208DF805000E
:104EC0000820009069469D48FDF7D6F805220D217F
:104ED0009B48FDF724F905220F219948FDF71FF99A
:104EE00005220E219648FDF71AF907220221934860
:104EF000FDF715F9072203219048FDF710F94FF44B
:104F000000518F48FDF705F94FF400418C48FDF73B
:104F1000FEF84FF480418A48FDF7F9F84FF48051CC
:104F20008748FDF7F4F820218448FDF7F0F84FF4A6
:104F300080618348FDF7EDF84FF400618048FDF78C
:104F4000E8F804217D48FDF7E2F808217B48FDF7E9
:104F5000DEF807BD00B585B001214FF48040FDF7B4
:104F600011FA7848FDF704F90020ADF800004FF47D
:104F70008270ADF802000020ADF804000020ADF80A
:104F800006000020ADF808004FF40070ADF80A00EC
:104F90002020ADF80C000020ADF80E000720ADF881
:104FA000100069466748FDF715F901216548FDF7CE
:104FB00030F905B000BD00B585B001215FF40030C7
:104FC000FDF7E0F95FF4613000900020ADF80400D7
:104FD0000020ADF806000020ADF808000020ADF874
:104FE0000C000C20ADF80A006946574800F026F97D
:104FF00001228021544800F08DF9012240215248BD
:1050000000F088F90121504800F076F905B000BDA4
:1050100000B58BB001215FF08070FDF793F94B482C
:1050200000F084F94A4800904A480190002002901C
:1050300030200390002004908020059000200690EE
:1050400000200790202008904FF400500990002085
:105050000A9069463D4800F0EEF9012202213B48E2
:1050600000F015FA3C4800F061F9394800903B48DF
:1050700001901020029030200390002004908020A6
:1050800005900020069000200790202008904FF403
:105090000050099000200A9069462F4800F0CBF993
:1050A000012202212C4800F0F2F92D4800F03EF9CF
:1050B0002C4800902C480190002002900220039080
:1050C000002004908020059000200690002007908A
:1050D000202008904FF40050099000200A90694663
:1050E0001F4800F0A8F9012202211D4800F0CFF965
:1050F0001E4800F01BF91B4800901D48019010202D
:105100000290192003900020049080200590002038
:10511000069000200790202008904FF4005009903E
:1051200000200A906946114800F085F90122022109
:105130000E4800F0ACF90BB000BD000000000240CA
:105140000004024000380040004400404460024037
:105150000C3800401C6F002058600240BC6E0020DC
:105160006C60024004440040E26F00208060024016
:10517000906F002080B50E208DF8000001208DF882
:105180000300684600F0B4F90F208DF800000120FC
:105190008DF80300684600F0ABF910208DF8000090
:1051A00001208DF80300684600F0A2F911208DF867
:1051B000000001208DF80300684600F099F90720EF
:1051C0008DF8000001208DF80300684600F090F98A
:1051D00006208DF8000001208DF80300684600F0DD
:1051E00087F901BD704700B583B001210120FDF7AB
:1051F000B9F80121002000F0B3F90220009000204E
:105200008DF8040010208DF8050001208DF80600AF
:10521000684600F0CFF90021002000F0A1F901203C
:10522000009000208DF8040010208DF8050001206A
:105230008DF80600684600F0BDF907BD30B585B0B1
:1052400004000D000020002000210021A889002872
:10525000208A30F44050E98808432082A0892549FB
:105260000840A9882A8911436A8911430843A0810B
:10527000A08A30F44070A9890843A0826846FCF7F0
:10528000F1FF1B48844201D1039800E00298A189F4
:10529000090406D51921484329684900B0FBF1F1FA
:1052A00005E01921484329688900B0FBF1F1642029
:1052B000B1FBF0F000010209642303FB1211A28983
:1052C000120408D5C90032316422B1FBF2F111F0A9
:1052D0000701084307E0090132316422B1FBF2F112
:1052E00011F00F010843208105B030BD000000001F
:1052F00000380140F3E9FFFFC9B2002904D08189D9
:1053000051F40051818104E081894DF6FF72114012
:1053100081817047D2B2002A03D0828A11438182F0
:1053200003E0828A32EA01018182704701684FF608
:10533000FE721140016000210160002141600021E6
:1053400081600021C1605C49884206D15B480068E9
:1053500050F00F00594908606CE05949884206D165
:105360005648006850F0F0005449086062E0554922
:10537000884206D15148006850F470604F49086077
:1053800058E05149884206D14C48006850F47040BA
:105390004A4908604EE04D49884206D147480068B6
:1053A00050F470204549086044E04949884206D1DC
:1053B0004248006850F47000404908603AE04549AE
:1053C000884206D13D48006850F070603B49086053
:1053D00030E04149884206D14048006850F00F0053
:1053E0003E49086026E03E49884206D13B480068B5
:1053F00050F0F000394908601CE03A49884206D173
:105400003648006850F470603449086012E036494C
:10541000884206D13148006850F470402F49086036
:1054200008E03249884205D12C48006850F47020C9
:105430002A490860704710B4002202686FF30E1208
:105440008B680C6A23430C6923434C6923438C69A2
:105450002343CC6923434C6A23438C6A23431A4376
:105460000260CA6842600A6882604968C16010BC14
:105470007047C9B2002904D0016851F001010160F0
:1054800004E001684FF6FE72114001607047D2B22D
:10549000002A03D002681143016003E0026832EA87
:1054A000010101607047C10002D40449086001E0B5
:1054B0000A4908607047000008600240046002402A
:1054C0001C6002403060024044600240586002406C
:1054D0006C60024080600240086402400464024044
:1054E0001C6402403064024044640240586402403C
:1054F000002100220F23C17800291ED01449096819
:1055000011F4E061D1F5E061090AD1F10402DBB2E6
:105510000B414178914082781A40114309010D4AAC
:105520000378D1540121027812F01F0291400A4AF7
:105530000078401142F8201009E00121027812F0B1
:105540001F029140054A0078401142F82010704730
:105550000CED00E000E400E000E100E080E100E0AC
:1055600010B400220F2211F00303DBB29B009A401B
:105570000F4BC9B28C1053F8243033EA02020C4BA3
:10558000C9B28C1043F82420094AC9B28B1052F8D2
:105590002320C0B211F00303DBB29B0098401043FC
:1055A000034AC9B2891042F8210010BC70470000BC
:1055B00008000140002128498279002A35D0264A76
:1055C000126803689A43244B1A60244A12680368DD
:1055D0009A43224B1A60027951180A6803681A43E9
:1055E0000A601F490968026891431D4A11601D49FC
:1055F0000968026891431B4A1160417910290CD156
:105600001749096802681143154A1160154909686C
:1056100000680843134908600EE00F4942795118A9
:105620000A6800681043086006E0027951180A68A9
:10563000006832EA00000860704700210A490968E2
:10564000014201D0012100E000210800C0B27047F2
:10565000054908607047000000040140040401404F
:10566000080401400C0401401404014038B5050051
:105670001C000020ADF800006520087001201070AB
:105680000498BDF800106854BDF80000401CADF847
:1056900000000598BDF800106854BDF80000401CDB
:1056A000ADF800006A462900069800F0F6F9079860
:1056B000BDF800106854BDF80000401CADF80000B3
:1056C0006A462900089880B200F0CBF96A462900A2
:1056D000099880B200F0C5F96A4629000A9880B29C
:1056E00000F0BFF96A4629000B9880B200F0B9F9C2
:1056F000BDF80000208031BD30B4002465250D7058
:10570000022111700299A4B20155641C1C8030BCA6
:1057100070477FB504000D000020ADF80C00002696
:10572000002000200020684600210022C0E900126D
:105730000420ADF80C00BDF80C00265CBDF80C0090
:10574000401CADF80C00BDF80C00205CBDF80C004E
:10575000401CADF80C0003A9200000F0B2F9BDF820
:105760000C00205CBDF80C00401CADF80C0003A937
:10577000200000F084F9ADF8000003A9200000F03B
:105780007EF9ADF8020003A9200000F078F9ADF829
:10579000040003A9200000F072F9ADF80600F6B28B
:1057A000642E00DB643EF6B20096A34BA34AA449E4
:1057B000A448FFF7A1FF01200290019520780090F6
:1057C0009D4803889D4802789D4801789D4800F0D7
:1057D0000AFA7FBD38B505000020ADF800000020B2
:1057E00099489A4C0420ADF80000BDF80000285CF0
:1057F000BDF80010491CADF80010C0B200283CD123
:105800006946280000F03BF92168088069462800B5
:1058100000F035F9216848806946280000F02FF92A
:10582000216888806946280000F029F92168C8802D
:105830006946280000F023F921680881694628009C
:1058400000F01DF9216848816946280000F039F907
:1058500060606946280000F034F9A06069462800BD
:1058600000F00DF900B2216808626946280000F0D6
:1058700006F900B221684863D8E0C0B2012840F0C0
:10588000B480BDF80000285CE16881F86C00BDF8C8
:105890000000401CADF80000BDF80000285CE16885
:1058A00081F86D00BDF80000401CADF80000BDF8A7
:1058B0000000285CE16881F86E00BDF80000401C23
:1058C000ADF80000BDF80000285CE16881F86F00C9
:1058D000BDF80000401CADF80000BDF80000285CD9
:1058E000E16881F87000BDF80000401CADF80000D0
:1058F000BDF80000285CE16881F87100BDF8000087
:10590000401CADF80000BDF80000285CE16881F89B
:105910007200BDF80000401CADF80000BDF80000AA
:10592000285CE16881F87300BDF80000401CADF808
:105930000000BDF80000285CE16881F87400BDF843
:105940000000401CADF80000BDF80000285C404994
:10595000C871BDF80000401CADF80000BDF80000A3
:10596000285C3B490872BDF80000401CADF80000FF
:10597000BDF80000285C36494872BDF80000401CA4
:10598000ADF80000BDF80000285C31498872BDF810
:105990000000401CADF80000BDF80000285C2C4958
:1059A000C872BDF80000401CADF80000BDF8000052
:1059B000285C27490873BDF80000401CADF80000C2
:1059C000BDF80000285C22494873BDF80000401C67
:1059D000ADF80000BDF80000285C1D498873BDF8D3
:1059E0000000401CADF8000020E0C0B202281DD12C
:1059F0006946280000F043F820856946280000F039
:105A00003EF860856946280000F039F8A0856946AF
:105A1000280000F034F8E0856946280000F02FF8EF
:105A200020866946280000F02AF8608620686168B0
:105A3000406A016031BD0000DE6F0020E56F00208C
:105A4000E46F00204C6F0020086A0020D469002019
:105A5000706F002080B54FF4007000F001F801BDB8
:105A6000704710B403009BB21B0A14880B551388AF
:105A7000194448701088801C108010BC70470022A8
:105A80000A88825C0B881844407810EB0222088850
:105A9000801C0880100080B2704710B4030E148878
:105AA0000B55030C14880C446370030A14880C44CF
:105AB000A37013881944C8701088001D108010BC92
:105AC000704700220A88825C0B8803445B781B04C1
:105AD00013EB02620B8803449B7812EB03220B88C2
