:020000040800F2
:1000000028100020493D0008453600084736000802
:100010005536000857360008593600080000000021
:100020000000000000000000000000005B36000837
:100030005D360008000000005F36000861360008E9
:10004000653D0008693D00086D3D0008713D0008F0
:10005000753D0008793D00087B360008FD36000834
:100060007D3D0008813D0008853D0008893D000870
:100070008D3D0008913D0008373700085F370008C4
:10008000753700088B370008953D0008993D00083A
:100090009D3D0008A13D0008A53D0008A93D0008C0
:1000A000AD3D0008B13D0008B53D0008B93D000870
:1000B000BD3D0008C13D0008C53D0008C93D000820
:1000C000CD3D0008D13D0008D53D0008D93D0008D0
:1000D000DD3D0008E13D0008E53D0008E93D000880
:1000E000ED3D0008F13D0008F53D0008F93D000830
:1000F000FD3D000800000000013E0008053E00082C
:100100000000000000000000093E00080D3E00084D
:10011000113E0008153E0008193E00081D3E00086B
:10012000213E0008C178827842EA012142780078B5
:1001300042EA012140EA012070470170090A41703A
:10014000090A8170090AC170704710F8013B11F863
:1001500001CB521EA3EB0C0301D0002BF5D01846A7
:10016000704738B504460025E078D0B1226B60783E
:10017000012304F1340101F07AFB88B9E070216BAE
:10018000626AE0698A1A82420BD2A278022A08D1F6
:1001900042186078012304F1340101F068FB00E0AB
:1001A0000125284632BD70B504460D46206B002659
:1001B000854210D02046FFF7D4FF06000BD16078AF
:1001C00001232A4604F1340101F022FB10B14FF063
:1001D000FF3501262563304670BD8269891E921E57
:1001E000914201D300207047C26A408901FB002080
:1001F00070472DE9F0410C460568022C52D3A869DE
:1002000084424FD2287801284FF0FF3604D049D3DA
:10021000032836D024D345E0686A04EB540700EB8A
:1002200057212846FFF7BFFF00283CD1C7F308003D
:1002300028447F1C90F83480686A00EB57212846D8
:10024000FFF7B1FF78BBC7F30800284490F83400EB
:1002500048EA0021E00754BFC1F30B060E0922E073
:10026000686A00EB14212846FFF79DFFD8B96000AB
:10027000C0F30800284434304178007840EA012671
:1002800011E0686A00EBD4112846FFF78CFF50B9E3
:10029000A000C0F3080028443430FFF743FF20F0EB
:1002A000704600E001263046BDE8F0812DE9F041BE
:1002B0000F46022F044615464FF0020872D3A0697C
:1002C00087426FD22078012804D06BD3032849D00D
:1002D00035D367E0606A07EB570600EB56212046EE
:1002E000FFF761FF5FEA00085CD1C6F30800204415
:1002F0003430761C17F001071DBF017801F00F01A3
:1003000041EA0511294601700120E070606A00EBA6
:1003100056212046FFF747FF5FEA000842D1C6F3A7
:100320000800204434300FB1290906E001782A0A78
:1003300001F0F00102F00F021143017030E0606A39
:1003400000EB17212046FFF72EFF5FEA000829D1B6
:100350007800C0F30800204400F8345F2D04290E13
:1003600041701DE0606A00EBD7112046FFF71BFFCC
:100370005FEA000816D1B800C0F30800204400F17D
:1003800034073846FFF7CEFE25F0704500F0704088
:1003900028433870000A7870000AB870000AF870B4
:1003A0000120E0704046BDE8F0812DE9F041804633
:1003B0000D00D8F8004006D1276917B1A06987421F
:1003C0000ED301270CE0FFF714FF022838BF0120ED
:1003D00058D310F1010F55D0A169884252D32F464E
:1003E000606968B3AF4217D1A0697E1C864228BFFE
:1003F000022631464046FFF7FCFE012818BF10F1E7
:10040000010F3FD038B12069022805D3A169884285
:1004100002D2074600E0A6B93E46A069761C864295
:1004200002D30226022F0BD331464046FFF7E1FEEE
:1004300038B1012818BF10F1010F23D0BE42ECD112
:1004400066E04FF0FF3231462046FFF72FFF28B914
:100450002DB1324629462046FFF728FF60B92661B4
:10046000A1696069891E814224BF401E60612079B4
:1004700040F00100207104E001280CBF4FF0FF366E
:1004800001263046BDE8F0812DE9F04104460D46D5
:100490002668B5F5001F30D215F01F0F2DD1A768C3
:1004A00025611FB93078032801DBB76A2FB931897C
:1004B0006809884221D2B06A1BE070894FEA40285F
:1004C00001E0A5EB0805454539460FD32046FFF767
:1004D00090FE074617F1010F02D10120BDE8F0811F
:1004E000022F0AD3B0698742EBD306E03046FFF70C
:1004F00074FEA0616761A06910B90220BDE8F081B7
:1005000000EB5520A061C5F3080030443430E061B1
:100510000020BDE8F0812DE9F84304460F4620692C
:10052000256800F12006A06910B3B6F5001F1FD2A0
:10053000F10561D1401C6169A06121B92989700967
:10054000884259D312E06889401E10EA562F53D1D1
:100550002046FFF74EFE8046B8F1020F17D318F180
:10056000010F3FD0A86980453FD327B90020A06183
:100570000420BDE8F28361692046FFF716FF5FEAB9
:10058000000808BF07203ED0B8F1010F02D10220B9
:10059000BDE8F28318F1010F24D02846FFF7E1FDF2
:1005A00000BB41462846FFF718FE07462F634FF46D
:1005B000007105F1340001F063F94FF0000902E029
:1005C00009F101097F1C6889814508D268780123F7
:1005D0003A4605F1340101F04AF90028F0D0688963
:1005E000814502D00120BDE8F283C4F81480414661
:1005F0002846FFF7F2FDA061C6F308002844343016
:10060000E06126610020BDE8F2830078CA7E8B7E1F
:10061000032843EA022205D1487D097D41EA0020F2
:1006200042EA00421046704713041B0E8A76CB76CE
:100630000078032803D1100C0875000A487570472C
:100640007CB4044611F8015B04F8015B052511F840
:10065000016B04F8016B6D1E11F8016B04F8016B5E
:10066000F5D1062B11D3DFF8E81A14886CB132F8F3
:10067000024B102504F0010606EB43036408DE0379
:1006800048BF4B406D1EF5D1EFE707210DF1070282
:1006900003F00F043034E4B23A2CA8BFE41D491E25
:1006A0001B0902F80149F3D17E230DF801300446FD
:1006B000002300E05B1C8B4203D214F8015B202D69
:1006C000F8D11C46631C08293ABF1DF80150491C8B
:1006D00020250555082BF4D373BC704700210B224D
:1006E0000B46C90101EB530110F8013B5918521E8A
:1006F000C9B2F5D1084670472DE9F04F044683B0E2
:100700002068029000212046FFF7BEFE060040F060
:10071000A480FF200190FF254FF0FF30E062A16927
:100720000298FFF740FD060040F09780E0690178ED
:1007300009B9042691E0C27A02F03F02E529A271CC
:1007400000F08080130702D50F2A7BD101E00F2A29
:100750005AD194F82B20520678D44A0606D5427B0B
:10076000019201F0BF012269E2620D46EAB29142B4
:1007700002BF0199427B914244D100900298C66821
:1007800000980099C07E897E51EA00203AD10098F5
:100790000FF2C838007800F03F00401E0D2101FB29
:1007A00000F701208946009998F8002011444A7802
:1007B000097841EA022A01000FD0FF2F22D25046C9
:1007C00001F0A4F8834636F8170001F09FF87F1C6B
:1007D000834508BF504604D014E04FF6FF718A45A8
:1007E00010D1B9F1010908F10108DCD100990978AB
:1007F000490605D500281CBF36F81700002801D18E
:100800006D1E23E0FF2521E0EDB225B9019DFFF724
:1008100065FF854221D094F82B00C00712D4E1690E
:100820000B2004F120020B7815785B1B401E08D0CA
:100830003BB94B7855785B1B921C891C401E002BE2
:10084000F1D053B14FF0FF30FF25E0620021204688
:10085000FFF761FE06003FF462AF304603B0BDE82B
:10086000F08F2DE9F04F054687B028680090A02151
:1008700095F82B00084218BF062040F06C810098C4
:10088000C068002600E0761C30F8021B0029FAD16F
:1008900003A805F12001032211F8013B00F8013BF8
:1008A000521E11F8013B00F8013B11F8013B00F822
:1008B000013B11F8013B00F8013BEDD103AFF87AA1
:1008C000C00720D5402085F82B0001240098C2687D
:1008D000234603A905F12000FFF7B2FE2846FFF7E3
:1008E0000BFF5FEA000802D1641C642CEED3642C79
:1008F00008BF072000F02F81B8F1040F40F02A81D3
:10090000F87A85F82B00F87A800706D506F10C00F6
:100910000D21B0FBF1F0461C00E001262868029092
:1009200000212846FFF7B0FD010040F086804FF01F
:1009300000086FE008F10108B04500F080802869E8
:100940002F6800F12004A86970B1B4F5001F0BD224
:10095000E10559D1401C6969A86139B93989600933
:10096000884251D30020A861072068E07889401EA2
:1009700010EA542F48D12846FFF73BFC8146B9F1D5
:10098000020F58D319F1010F53D0B869814534D300
:1009900069692846FFF709FD5FEA0009E4D0B9F16B
:1009A000010F48D019F1010F43D03846FFF7D9FBAA
:1009B00000283ED149463846FFF70FFC8346C7F86A
:1009C00030B04FF4007107F1340000F059FF4FF0E0
:1009D000000A03E00AF1010A0BF1010B7889824554
:1009E00008D2787801235A4607F1340100F03FFF1E
:1009F0000028EFD0788982451BD1C5F8149049466C
:100A00003846FFF7EAFBA861C4F3080038442C61BC
:100A10003430E861A9690298FFF7C5FB01000CD1E9
:100A2000E9690978E52918BF002983D04FF000084B
:100A300085E7012003E0022001E0042894D05FEA6A
:100A400000085ED1761E5FD02869A0EB46112846CB
:100A5000FFF71AFD5FEA000853D105F12000FFF708
:100A60003DFE8DF804004FF6FF770FF2F0044FF0D3
:100A70000D09A9690098FFF796FB5FEA000840D1CD
:100A80000098C368EA699DF804005073F1B20F2022
:100A9000D072A446002010739076D076CE46481EC1
:100AA00009FB00F801E0BA4503D033F818A008F1BB
:100AB00001089CF8000002EB000BBAF1000F8BF864
:100AC00000A04FEA1A2008BFBA46BEF1010E8BF80B
:100AD00001000CF1010CE6D1BA451ABF33F8180039
:100AE000002841F04001117001200099C8700021D8
:100AF0002846FFF710FD5FEA000802D1761EB8D144
:100B000002E05FEA080025D1A9690098FFF74BFBD6
:100B10005FEA00081ED1E869202100F0B1FE05F16E
:100B20002001E86911F8012B00F8012B052211F8CA
:100B3000013B00F8013B521E11F8013B00F8013B5C
:100B4000F5D195F82B00E96900F018000873012031
:100B50000099C870404607B0BDE8F08F0103050753
:100B6000090E10121416181C1E0000002DE9F84F73
:100B700080460C46D8F80000D4F80090C068009079
:100B8000002500274E46834640F2B51A0BE0491C6B
:100B90000A78002A18BF8242F9D1110036D12BF809
:100BA000020B6D1C761C30787F1C202816DB2F284A
:100BB00018BF5C2807D119F807102F2914BF5C292A
:100BC0007F1CF8D00AE0FF2D20D2514600F089FEAC
:100BD000E0B18028E3DA0FF2A811D9E709EB0701A9
:100BE00020282160ACBF0026042600E06D1E45B120
:100BF000009800EB450030F8020C202818BF2E2882
:100C0000F4D00099002021F8150015B90620BDE8A0
:100C1000F28F20220B2108F1200001F08BF80098C0
:100C2000002701E07F1C801C0188202918BF2E2985
:100C3000F8D00FB146F00306009800EB450030F8FD
:100C4000020C2E2801D06D1EF6D14FF00009CB46C4
:100C5000082401E046F00306009830F817007F1CD6
:100C600070B12028F6D02E2801D1AF42F2D1A34591
:100C700001D2AF423CD10B2C2CD146F00306F6B288
:100C800098F82000E52804BF052088F82000082CEB
:100C900008BF4FEA890909F00C000C2819BF09F0B8
:100CA0000300032846F00206F6B2B0070DD409F09F
:100CB0000300012804BF46F01006F6B209F00C004C
:100CC000042804BF46F00806F6B288F82B6000201E
:100CD000BDE8F28FAF421CBF46F00306F6B2BD423C
:100CE000CED32F464FF0080B0B244FEA8909B3E708
:100CF00080280CDB514600F0C7FD46F002060106D5
:100D0000F6B204D50FF6502100F07F00085CFF28F2
:100D10000FDD611E8B4504D346F00306F6B2A346F1
:100D20009AE708EB0B02011282F820100BF1010B7D
:100D30001EE050B10FF6102200E0521C1378002B79
:100D400018BF8342F9D1190004D046F003065F2092
:100D5000F6B20DE0A0F141011A2938BF49F00209AD
:100D600006D3A0F161011A293CBF49F001092038DE
:100D700008EB0B010BF1010B81F820006CE7000080
:100D8000222A3A3C3E3F7C7F0000000010B40268FB
:100D90004FF0FF31BAB1134600E05B1C1C78202CE9
:100DA00001D33A2CF9D13A2C0CD112F8014B303C3A
:100DB0000A2C08D29A4208BF002C04D15A1C0021E8
:100DC000026000E0002110BC0846704738B50446B8
:100DD0000020E07004F130054FF0FF30286020461D
:100DE000FFF7E1F908B1042032BD04F23220417866
:100DF000007840EA01204AF65521884201D00320BC
:100E000032BD2879E92804D0EB2804BFA8799028BE
:100E100010D1032208A104F16A00FFF796F938B156
:100E200005220FF62C1104F18600FFF78EF908B9A0
:100E3000002032BD022032BD464154002DE9F0436E
:100E40000D4685B0002129601446FFF79FFF07007B
:100E500048BF0B2000F12C81DFF8F88208EB8700F7
:100E600046680EB90C2023E12E6004F0FE043078B1
:100E700050B1707800F0B0FCC10705D4002C00F030
:100E8000168140070ED412E1002030707770707820
:100E900000F0A8FCC10748BF032000F109811CB184
:100EA000400701D50A2003E100213046FFF78EFFFD
:100EB00000270446022C29D14FF4F972002069461C
:100EC000324413794BB1D37A947A44EA0323547AA7
:100ED00044EA0323147A44EA0323401C1032042812
:100EE00041F8043BEDD30025E946D9F8007027B15D
:100EF00039463046FFF76AFF00E003200446022C23
:100F000004DB6D1C042D09F10409EED3042C08BF89
:100F1000012000F0CD80022C80F2858006F13F0593
:100F20006878297841EA0020B0F5007F7BD1287BE2
:100F3000E97A51EA002904D106F15800FFF7F2F8E6
:100F40008146C6F81C906879B070012818BF022845
:100F500069D100FB09F9A8787081010063D0411EB6
:100F6000084260D1E879A97941EA00200F210842BE
:100F7000308158D1687A297A51EA002004BF06F1FD
:100F80005400FFF7CFF82979EA7852EA01214AD0D4
:100F9000328909EB010303EB1213984243D374899E
:100FA000C01AB0FBF4F000283DD00024DFF8A8C13F
:100FB000604538BF03244FF6F67C604538BF0224F5
:100FC00040F6F67C604538BF012400D35CB3801C3A
:100FD000B0613762C8197062D819032CF0620ED163
:100FE00096F85F00E97F51EA002008BF002A1AD175
:100FF00006F16000FFF796F8B16989000CE092B144
:10100000706AB169022C48440FBF490001EB4102EC
:1010100001F0010101EB5201B06201F2FF11F06930
:10102000B0EB512F01D20D2042E04FF0FF30706144
:1010300030618020032C307132D106F15F0081795C
:10104000407940EA012001282AD1791C3046FFF777
:10105000AAF828BB307106F232204178007840EAC5
:1010600001204AF6552188421AD106F13400FFF7D3
:1010700059F83A49884213D14FF406703044FFF7CB
:1010800051F8374988420BD14FF407703044FFF7CD
:1010900049F870614FF408703044FFF743F830614D
:1010A0003470B8F80000401CA8F80000F080002060
:1010B00005B0BDE8F08370B506460925002E1CBFBB
:1010C000306800280C460DD0017859B1B188C2882B
:1010D000914207D1407800F07FFBC00702D430680E
:1010E000002500E000202060284670BD03B5080000
:1010F00081B022D000E0401C0178202901D33A2998
:10110000F9D13A2909D1029911F8013B303B0A2B58
:1011100013D2814208BF002B0FD10E48416809B19C
:1011200000230B70019911B1019B002119700199E5
:1011300041602AB9002003B000BD0B2003B000BD00
:10114000002201A902A8FFF779FE03B000BD00004C
:101150002110010030210020F6FFFF0F52526141A3
:10116000727241612DE9F24F0400ADF50E7D08BFAA
:10117000092000F0BD8002F03F052A4669468EA88E
:10118000FFF75CFE070040F0B080009800990290E5
:101190000EA8C8608E980190029E02E00198401C43
:1011A0000190019800782F2818BF5C28F6D0002005
:1011B000049001980078202813D280208DF8330005
:1011C000002102A8FFF760F9074623E004A8806821
:1011D000C0F30800304400F134013046FFF715FA3F
:1011E000049001A902A8FFF7C1FC070012D102A8D0
:1011F000FFF782FA07009DF8330004D0042F09D1CD
:10120000400707D405E0400704D49DF80E00C0064F
:10121000DCD40527380004D19DF83300000648BF10
:1012200006271C20054200F02F81380054D0042FDF
:101230005BD102A8FFF715FB0746380045F008050B
:1012400040F0E780280740F1EB8004AED6F8149018
:1012500000984946FFF7D9F9804609F10E000021B0
:10126000017041700022A12181704A21C1702020AB
:101270007169C872706900998276C276097803290B
:1012800004BF02754275706900F81C2F42708270AD
:10129000C27001200099B8F1000FC87000F0BC8046
:1012A0000098029E076BC346BBF1020FC0F0EA80B4
:1012B000B069834580F0E680594602A8FEF799FFA1
:1012C0005FEA000957D0B9F1010F00F0DB8019F196
:1012D000010F11D1012708E09DF80E0011210842ED
:1012E00040F0DF806807ADD5082700202060384631
:1012F0000DF50F7DBDE8F08F0220BBF1020FC0F0AD
:101300008780B1698B4580F08380317801294ED088
:101310007CD3032901D038D378E0706A00EBDB116D
:101320003046FEF740FF010070D14FEA8B00C0F35A
:101330000800301800F1340A5046FEF7F3FE000EA4
:10134000002100F0F0008AF800108AF801108AF8F5
:1013500002108AF803000120F070B0697169821EE2
:10136000914205D2491C7161317941F0010131711D
:10137000CB468345A0D300983946FEF714FF009969
:101380000746A8F10100086143E0706A00EB1B21E9
:101390003046FEF708FF010038D14FEA4B00C0F39A
:1013A00008003018002100F8341F4170D3E7706A3C
:1013B0000BEB5B0A00EB5A213046FEF7F4FE01000E
:1013C00024D1CAF30800301834301BF0010B1ABFC7
:1013D000017801F00F01002101700120F0700AF185
:1013E000010A706A00EB5A213046FEF7DCFE01006C
:1013F0000CD1CAF3080030183430BBF1000F12BF13
:101400000021017801F0F0010170A4E70100A4D0EF
:10141000074638007FF469AF280748BF45F040050C
:101420000098006B206204AE706960627669009873
:101430003146FFF7EAF8A06006F11C00FEF772FEE5
:10144000E060009820600098C088A080257400208B
:101450006074E0616061A8067FF549AFE568002D22
:101460003FF445AF6561009840894602A068AE42EE
:1014700019D3A061E9053FF43AAF01460098FEF7A1
:10148000ACFE20BB022730E73800C2D19DF80E0029
:10149000C10648BF04273FF528AFA907BCD5C00740
:1014A000BAD5072721E701462046FEF7A2FE02280B
:1014B00002D20227A06118E710F1010F03D1012722
:1014C0004FF0FF30F6E7AD1B3900D0D0F2E700EB6C
:1014D0005520E0610BE72DE9F0470546994682B0BB
:1014E0000020C9F800008846164669462846FFF7DE
:1014F000E2FD010040F09980687C010040F0958099
:10150000287CC00758BF072040F18F80E8686969D0
:10151000401AB0421AD8064618E06B69009AC3F325
:1015200008031A4420464146343228B112F8013BE0
:1015300001F8013B401EF9D1D9F800002018C9F884
:101540000000361B68692018A0446861002E6BD02B
:101550006869C10556D100994989491E11EA50248C
:101560000CD100280FBFA868A9692846FEF741FEE4
:10157000022811D310F1010F54D0A8610099A86975
:101580008969801E891E884206D20099009A49897D
:10159000D26A00FB012008B9022044E0770A04EB7C
:1015A000000A2DD0381981420098407838BF0F1BAF
:1015B0003B465246414600F02BF998BB0098C07854
:1015C000E0B10098006BA0EB0A00B84216D2009977
:1015D00008EB40203431802211F8013B00F8013B38
:1015E000521E11F8013B00F8013B11F8013B00F8D5
:1015F000013B11F8013B00F8013BEDD17C029BE778
:10160000C5F81CA06869E969C0F30800C0F500705E
:101610003446864288BF04460098FEF7C4FD002881
:101620003FF47BAF012002E00020BDE8F68768743C
:10163000BDE8F687F8B504466946FFF73CFD0500AE
:1016400070D1207C40066DD5216A0098FEF7ABFD75
:10165000050067D1656AE87A40F02000E872294603
:10166000A2682068FEF7E0FFE0682877000A687744
:10167000000AA877000AE8770020A875E875A1207D
:1016800028764A2068760020A874E8740120009922
:10169000C870009E3046FEF764FD05003ED13078EC
:1016A000032804BF3079012831D106F134074FF403
:1016B0000071384600F0E4F84FF4067030445521CC
:1016C0008176AA21C1765221397079706121B97071
:1016D0004121F970722101704170412181706121B5
:1016E000C1704FF4077071693044FEF726FD31690F
:1016F0004FF408703044FEF720FD306A421C32631C
:1017000001237078394600F0B2F8002030710022D1
:101710007078002100F0ACF800B10125207C00F0C9
:10172000BF0020742846F2BD10B582B00446FFF712
:1017300081FF010007D169462046FFF7BCFC01008C
:1017400004BF0021216016BD2B2C3B3D5B5D0000DA
:101750004641543332000000809A45418E418F80CB
:101760004545454949498E8F9092924F994F55551D
:1017700059999A9B9C9D9E9F41494F55A5A5A6A707
:10178000A8A9AAABACADAEAFB0B1B2B3B4B5B6B761
:10179000B8B9BABBBCBDBEBFC0C1C2C3C4C5C6C751
:1017A000C8C9CACBCCCDCECFD0D1D2D3D4D5D6D741
:1017B000D8D9DADBDCDDDEDFE0E1E2E3E4E5E6E731
:1017C000E8E9EAEBECEDEEEFF0F1F2F3F4F5F6F721
:1017D000F8F9FAFBFCFDFEFF08B10120704726482E
:1017E0000078704710B550B900F0D8FA48B1224CD3
:1017F000207800F0FD00207000F0DAFA18B901201E
:1018000010BD022010BD207800F0FE00207010BD39
:101810002DE9FC410C4615461E4600B916B90420B8
:10182000BDE8F68114480078C00716D4012000F006
:10183000A9FC0A2740F21128012E18BF40F21228F5
:101840002A464146684600F077FB9DF800007F1E5F
:1018500010B1002FF4D100E017B90320BDE8F681E4
:101860003146204600F002FC0020BDE8F68100E091
:1018700000BF024800787047250000204E2100205C
:10188000002200F05BBA0000002210B48028B8BF2C
:10189000024623DB40F2B51399421FD10FF2E40157
:1018A00031F81240A0421FBF521C92B231F81240D0
:1018B000A0420FD0521C92B231F81240A0421FBF7A
:1018C000521C92B231F81210884203D0521C92B2CC
:1018D000802AE3DB02F1800000F0FF0210BC10461A
:1018E000704700228028B8BF02460CDB40F2B513D7
:1018F000994208D1FF2806DC0FF2880101EB400075
:10190000A0F58070028810467047000070B4B0F5F2
:10191000805FACBF0FF260320FF2681202E00BB9C9
:1019200002EB4402158855B3A84228DB54882302F1
:1019300004F0FF04121D1B0C6619B042EFDA082BED
:101940001DD8DFE803F005090E10121416181A004E
:10195000401B32F8100012E0411B01F00101401A57
:101960000DE010380BE0203809E0303807E01A3875
:1019700005E0083003E0503801E0A0F5E35070BC0A
:1019800080B27047C700FC00E900E200E400E0001C
:10199000E500E700EA00EB00E800EF00EE00EC00F5
:1019A000C400C500C900E600C600F400F600F2005D
:1019B000FB00F900FF00D600DC00A200A300A50098
:1019C000A7209201E100ED00F300FA00F100D10040
:1019D000AA00BA00BF001023AC00BD00BC00A100EB
:1019E000AB00BB0091259225932502252425612576
:1019F0006225562555256325512557255D255C25EE
:101A00005B251025142534252C251C2500253C2577
:101A10005E255F255A2554256925662560255025B4
:101A20006C25672568256425652559255825522587
:101A300053256B256A2518250C25882584258C259A
:101A400090258025B103DF009303C003A303C303E4
:101A5000B500C403A6039803A903B4031E22C6035A
:101A6000B50329226122B1006522642220232123AB
:101A7000F7004822B0001922B7001A227F20B200D6
:101A8000A025A00061001A03E0001703F800070377
:101A9000FF00010078010001300132010601390127
:101AA00010014A012E017901060180014D00430217
:101AB00081018201820184018401860187018701FD
:101AC00089018A018B018B018D018E018F019001AB
:101AD0009101910193019401F601960197019801FA
:101AE00098013D029B019C019D0120029F01A001E4
:101AF000A001A201A201A401A401A601A701A701BE
:101B0000A901AA01AB01AC01AC01AE01AF01AF016B
:101B1000B101B201B301B301B501B501B701B8011B
:101B2000B801BA01BB01BC01BC01BE01F701C00193
:101B3000C101C201C301C401C501C401C701C8017B
:101B4000C701CA01CB01CA01CD011001DD010100AD
:101B50008E01DE011201F3010300F101F401F40131
:101B6000F8012801220212013A020900652C3B0209
:101B70003B023D02662C3F02400241024102460206
:101B80000A015302400081018601550289018A0140
:101B900058028F015A0290015C025D025E025F02F0
:101BA00093016102620294016402650266026702A7
:101BB000970196016A02622C6C026D026E029C0112
:101BC000700271029D01730274029F017602770216
:101BD000780279027A027B027C02642C7E027F0208
:101BE000A60181028202A90184028502860287027F
:101BF000AE014402B101B20145028D028E028F0294
:101C000090029102B7017B030300FD03FE03FF0373
:101C1000AC0304008603880389038A03B10311031C
:101C2000C2030200A303A303C4030803CC030300FD
:101C30008C038E038F03D8031801F2030A00F90303
:101C4000F303F403F503F603F703F703F903FA03C9
:101C5000FA033004200350041007600422018A04B0
:101C60003601C1040E01CF040100C004D0044401B8
:101C700061052604000000007D1D0100632C001E8C
:101C80009601A01E5A01001F0806101F0606201FFD
:101C90000806301F0806401F0606511F0700591F7F
:101CA000521F5B1F541F5D1F561F5F1F601F0806DA
:101CB000701F0E00BA1FBB1FC81FC91FCA1FCB1F32
:101CC000DA1FDB1FF81FF91FEA1FEB1FFA1FFB1FAC
:101CD000801F0806901F0806A01F0806B01F0400FA
:101CE000B81FB91FB21FBC1FCC1F0100C31FD01FDC
:101CF0000206E01F0206E51F0100EC1FF31F0100B2
:101D0000FC1F4E21010032217021100284210100AC
:101D10008321D0241A05302C2F04602C0201672C5B
:101D20000601752C0201802C6401002D260841FF5C
:101D30001A03000062F30F2262F31F42401810F0F2
:101D4000030308D0C91A1FD3DB0748BF00F8012DD1
:101D500028BF20F8022D130030B414461546103960
:101D600028BF20E93C00FAD8490728BF20E90C0029
:101D700048BF40F8042D890028BF20F8022D48BF35
:101D800000F8012D30BC7047C91818BF00F8012DAC
:101D9000CB0728BF00F8012D70470000DFF89C0337
:101DA000008800F00201481E8041C043C00F704708
:101DB000F0B583B0002000F0E5F9DFF884534FF46C
:101DC0008051284600F080FA4FF48061284600F0E8
:101DD0007DFA08240A25FF2000F098F96D1EFAD13B
:101DE0000A26DFF8605300224FF40071684600F0C5
:101DF000A3F8DDE90001C5E90001761E2878C007D7
:101E000002D4002EEFD191E0002E00F08F800A2640
:101E100040F608074FF4D5723946684600F08CF852
:101E2000DDE90001C5E900012878410729D5022430
:101E3000002E7BD01820044209D1002240F2372125
:101E4000684600F079F8DDE90001C5E900014FF4CA
:101E5000FA7640F229374FF080423946684600F062
:101E60006BF8DDE90001C5E900012878410702D5DA
:101E7000A1075BD50124761EC0070CD5002EEAD140
:101E80000AE0761EC00703D56868B0F5D57FCFD0CD
:101E9000002EBFD14AE01EB9A00747D5012401E0BA
:101EA000E00712D50A2640F201270022394668468B
:101EB00000F042F8DDE90001C5E90001761E28784E
:101EC00010B1002EF1D131E086B31820044217D0B2
:101ED000FF2028700A2640F23A4700223946684619
:101EE00000F02AF8DDE90001C5E90001761E287836
:101EF00010B1002EF1D119E0C6B1480058BF04243A
:101F00000720044215D00A264FF400724FF40471E2
:101F1000684600F011F8DDE90001C5E90001761E10
:101F2000287810B1002EEFD100E016B9002003B0E0
:101F3000F0BD204603B0F0BD2DE9F14F0E46082755
:101F4000F00586B014460AD5002240F2372101A8D8
:101F5000FFF7F2FFDDE901017A4AC2E90001FF2043
:101F600036B2B6F5007F08BF952004D040F60802CF
:101F7000964208BF872046F040018DF80410220EDB
:101F800001A906254A70220C8A70220A8DF80720C2
:101F90000C718DF809004FF480516948DFF8A8A151
:101FA00000F094F94FF48061654800F08DF901ACC0
:101FB00094F800B00221504600F006FA0028F9D04B
:101FC0005946504600F0F6F90121504600F0FCF960
:101FD0000028F9D0504600F0EBF9641C6D1EE7D1E3
:101FE000FF2000F093F88DF80C007F1E000602D54C
:101FF000F8B20028F4D106F46060B0F5007F11D08B
:10200000FF2000F083F88046FF2000F07FF88DF875
:102010000100FF2000F07AF88146FF2000F076F8FA
:102020008DF800005FFA88F19DF80100000440EA95
:1020300001605FFA89F140EA01209DF80010084331
:1020400004904FF480513E4800F03EF94FF4806117
:102050003B4800F03BF9FF2000F058F8DDE90301B0
:10206000069AC2E9000107B0BDE8F08FF8B5044652
:10207000334D4FF48051284600F028F94FF4806129
:10208000284600F021F9304E0221304600F09CF93C
:102090000028F9D0FF21304600F08CF901213046AC
:1020A00000F092F90028F9D0304600F081F9C0B272
:1020B000FE28E9D14FF400770221304600F084F980
:1020C0000028F9D0FF21304600F074F90121304694
:1020D00000F07AF90028F9D0304600F069F97F1E47
:1020E00004F8010BE8D1FF2000F010F8FF2000F009
:1020F0000DF84FF48051284600F0E6F84FF4806167
:10210000284600F0E3F8BDE8F240FF2038B5044669
:102110000D4D0221284600F057F90028F9D021463C
:10212000284600F047F90121284600F04DF9002823
:10213000F9D0284600F03CF9C0B232BD1000024090
:1021400000040240402100200038004010B584B057
:102150000446684600F040F901983D49B0FBF1F0B3
:102160006043401EB0F1807F3A4907D23A4A50603E
:10217000F020087000209060072010600020087098
:1021800004B010BD38B505001BD1344C00212046E9
:1021900000F004F900220121204600F00DF9002290
:1021A0000221204600F008F920884FF6C771084048
:1021B00020800121208840F020002080204600F06F
:1021C000EDF8022D18BF012D1DD1244C0021204611
:1021D00000F0E4F801220121204600F0EDF8012290
:1021E0000221204600F0E8F820884FF6C771084029
:1021F00020800121208840F0100020802046BDE88A
:10220000344000F0CBB831BD30B5ADF5197D044692
:102210000EA5002229460BA8FEF768FF01220FF247
:10222000400101A8FEF79EFF6B46C822214601A887
:10223000FFF751F901A8FFF777FA0022294600209D
:10224000FEF754FF0DF5197D30BD000000000000C1
:1022500040420F0023ED00E010E000E000380040B5
:1022600066736D2E6A736F00F0B4002200230124A0
:102270000D6894402540A54220D103259D40066865
:102280000F79ED432E409F403E4306600E79012EAC
:1022900018BF022E0CD186684F792E409F403E43D6
:1022A0008660868826EA04048E79964034438480CA
:1022B000C4682C40CD799D402C43C460521C9B1CAB
:1022C000102AD4D3F0BC7047018370474183704714
:1022D000828A514081827047CB0800EB83008900DD
:1022E00001F01C01036A4FF00F0C0CFA01FC23EA09
:1022F0000C03036202FA01F1036A19430162704799
:1023000080B5154988420BD101214FF4805000F06F
:10231000C6F8BDE8044000214FF4805000F0BFB87B
:102320000E49884208D101214FF4804000F0C0F8E6
:1023300000214FF480400AE0094988420BD1012175
:102340004FF4004000F0B4F800214FF40040BDE825
:10235000044000F0ADB801BD00300140003800403D
:10236000003C004002880B8802F441521A434B881B
:102370001A438B881A43CB881A430B891A434B891B
:102380001A438B891A43CB891A4302804FF2FF7399
:10239000828B1A408283098A018270470029018852
:1023A00012BF41F040014FF6BF72114001807047EB
:1023B0008089704781817047002A828814BF114349
:1023C00022EA01018180704700890022084218BF7B
:1023D000012210467047000010B43A494A6812F0D2
:1023E0000C021CD0042A04D0082A04D00C2A04D0E1
:1023F00015E0354A1CE0354A1AE04A684B68344C0F
:10240000C2F38342C3F38153A25C4C685B1CE403B8
:1024100054BF2D4C2D4C6243B2FBF3F208E00A6826
:10242000520B02F007020123521C03FA02F2D203FC
:1024300002604B68264A0468C3F3031313441B7BF2
:10244000DC4044604B684468C3F3022313441B7BA5
:10245000DC40846049684368C1F3C2211144097BB0
:10246000CB40C36010BC70471A4A0029116814BFE2
:10247000084321EA000010607047174A00291168DC
:1024800014BF084321EA000010607047134A002976
:10249000116814BF084321EA000010607047104A19
:1024A0000029116814BF084321EA0000106070473A
:1024B0000C4A0029116814BF084321EA000010608B
:1024C00070470000043802400024F40000127A0033
:1024D000080000201C380240203802402438024006
:1024E000143802401838024030B583B00121012071
:1024F000FFF7BAFF00208DF8040001208DF80700D7
:10250000022000906946DFF8EC43DFF8EC532046E8
:10251000FFF7AAFE01210120FFF7A6FF00208DF89A
:1025200004008DF807006946012000902046FFF75F
:102530009BFE01210220FFF797FF02208DF8040087
:10254000694600208DF8060003208DF80500002064
:102550008DF807004FF4005000902846FFF784FEE6
:1025600001210220FFF780FF02208DF80400694658
:1025700000208DF8060003208DF8050000208DF85E
:1025800007004FF4004000902846FFF76DFE012140
:102590000220FFF769FF02208DF804006946002041
:1025A0008DF8060003208DF8050000208DF8070047
:1025B0004FF4804000902846FFF756FE012101208D
:1025C000FFF752FF01208DF8040069460020ADF8A6
:1025D000060003208DF80500102000902046FFF72C
:1025E00043FE01210220FFF73FFF01208DF8040088
:1025F00069460020ADF8060003208DF805004FF471
:10260000805000902846FFF72FFE01210220FFF79F
:102610002BFF01208DF8040069460020ADF806006C
:1026200003208DF805004FF4006000902846FFF766
:102630001BFE01210220FFF717FF01208DF8040087
:102640000020ADF8060003208DF805004FF48060EF
:10265000009069462846FFF707FE01210120FFF799
:1026600003FF02208DF8040069460020ADF8060043
:1026700003208DF80500042000902046FFF7F4FDAC
:1026800001210120FFF7F0FE02208DF804006946C9
:102690000020ADF8060003208DF80500082000900A
:1026A0002046FFF7E1FD05220D212846FFF714FE25
:1026B00005220F212846FFF70FFE05220E2128468E
:1026C000FFF70AFE072209212046FFF705FE072231
:1026D0000A212046FFF700FE4FF400512846FFF77D
:1026E000F5FD4FF400412846FFF7EEFD4FF4804121
:1026F0002846FFF7E9FD4FF480512846FFF7E4FD37
:1027000010212046FFF7E0FD4FF480612846FFF7D7
:10271000DDFD4FF400612846FFF7D8FD0421204677
:10272000FFF7D2FD08212046FFF7CEFD03B030BDF4
:1027300010B586B001214FF48040FFF7A7FE6F4C23
:102740002046FFF7DDFD0020ADF8000069464FF49C
:102750008270ADF8020000200190ADF808004FF43F
:102760000070ADF80A002020ADF80C000020ADF894
:102770000E000720ADF810002046FFF7F3FD012101
:102780002046FFF70BFE06B010BD10B584B0012146
:102790004FF40030FFF77AFE4FF4613000900020D4
:1027A0000190ADF80800ADF80C000C20ADF80A005F
:1027B0006946534C204600F01FF901228021204633
:1027C00000F072F901224021204600F06DF901214C
:1027D000204600F05FF904B010BD70B58CB0012147
:1027E0004FF08070FFF740FE464D474E284600F000
:1027F00063F9464801904FF400540020029000967F
:1028000030200390099400200490694680200590B0
:102810000020069007902020089000200A9028466B
:1028200000F0B2F901220221284600F0D2F9384D19
:10283000284600F041F93748019000961020029098
:102840000994302003906946002004908020059070
:102850000020069007902020089000200A9028462B
:1028600000F092F901220221284600F0B2F92A4D27
:102870002A4E284600F020F92948019000960020B1
:102880000290099402200390694600200490802061
:1028900005900020069007902020089000200A90C4
:1028A000284600F071F901220221284600F091F932
:1028B0001C4D284600F000F91B480190009610209E
:1028C000029009941920039069460020049080200A
:1028D00005900020069007902020089000200A9084
:1028E000284600F051F901220221284600F071F932
:1028F0000CB070BD000002400004024000380040EF
:1029000000440040446002400C380040A0200020F9
:102910005860024040200020806002400444004093
:102920004A2100206C6002401421002080B50E2056
:102930008DF8000001208DF80300684600F074F95E
:102940000F208DF8000001208DF80300684600F08C
:102950006BF910208DF8000001208DF80300684607
:1029600000F062F911208DF8000001208DF80300BD
:10297000684600F059F907208DF8000001208DF815
:102980000300684600F050F906208DF80000012091
:102990008DF80300684600F047F901BD704700B5A7
:1029A00083B001210120FFF768FD0121002000F024
:1029B00071F90220009000208DF8040010208DF89D
:1029C000050001208DF80600684600F077F9002127
:1029D000002000F05FF90120009000208DF8040035
:1029E00010208DF8050001208DF80600684600F0E3
:1029F00065F903B000BD000030B5044685B00D4652
:102A0000208A4CF6FF710840E988084320824EF680
:102A1000F311A0890840A9880843298908436989D6
:102A20000843A0814FF6FF41A08A0840A9890843C6
:102A3000A0826846FFF7D0FC1548296884420CBF85
:102A40000398029819225043A28912044CBF4900EE
:102A50008900B0FBF1F16420B1FBF0F00001020944
:102A6000642303FB1211A289120406D5C900323176
:102A7000B1FBF3F101F0070105E009013231B1FBCF
:102A8000F3F101F00F010843208105B030BD0000D3
:102A9000003801400029818912BF41F400514DF6F0
:102AA000FF72114081817047002A828A14BF11434E
:102AB00022EA01018182704701684FF6FE721140DF
:102AC00001600021016041608160C1604849884225
:102AD00004D14848016841F00F0153E0464988425B
:102AE00004D14448016841F0F0014BE04349884279
:102AF00004D14048016841F4706143E04049884294
:102B000004D13C48016841F470413BE03D498842B2
:102B100008BF384833D03C49884204D13548016861
:102B200041F470012EE03949884204D131480168EE
:102B300041F0706126E03649884204D13548016889
:102B400041F00F011EE03449884204D13148016848
:102B500041F0F00116E03149884204D12D48016866
:102B600041F470610EE02E49884204D12948016881
:102B700041F4704106E02B49884204D125480168A0
:102B800041F470210160704702688B686FF30E1288
:102B90001A430B6A1A430B691A434B691A438B6930
:102BA0001A43CB691A434B6A1A438B6A1A43026071
:102BB000CA6842600A6882604968C160704700293B
:102BC000016812BF41F001014FF6FE721140016031
:102BD0007047002A026814BF114322EA0101016014
:102BE0007047C10054BF03490A490860704700009C
:102BF00008600240046002401C60024030600240F5
:102C000044600240586002406C60024080600240B4
:102C100008640240046402401C64024030640240C4
:102C2000446402405864024070B40378C4781A4681
:102C30000121ECB1134B1B68447803F4E063C3F546
:102C4000E0631B0AC3F10405AC4085780F26DE4023
:102C500006EA050323430C4C1B01A354007800F043
:102C60001F029140094A400942F8201070BC704789
:102C700003F01F0001FA00F00549520941F8220053
:102C800070BC70470CED00E000E400E000E100E003
:102C900080E100E030B4084B8A0021F0030102F02B
:102CA0000C025C580F259540AC435C5090405C583A
:102CB0002043585030BC70470800014030B40168D0
:102CC0008279CB431D4932B30A461468234013600E
:102CD00053680468A34353600379CC1823680568DC
:102CE0002B43236093680468A3439360D36804680C
:102CF000A343D36043790568102B08D19168294319
:102D00009160D16800680843D06030BC7047CC182F
:102D10002068284303E000790C18206818402060E0
:102D200030BC7047064A12680021024218BF0121D8
:102D30000846704700BF0249086070470004014020
:102D400014040140F0B40468651C53E04168049A1F
:102D500091420AD24A1C426003EB01114FF0FF324C
:102D60008A604A600022CA6021B904604FF0FF30D7
:102D7000F0BC70470068886003220A700020621C63
:102D80004A60C860F0BC70475C2D31D1751C95421B
:102D90002ED205604E5D222E18BF2F2E28D05C2E1D
:102DA00018BF622E24D0662E18BF6E2E20D0722E31
:102DB00018BF742E1CD0752E2AD16D1C05600425F9
:102DC0000668964211D28F5D7FB1A7F1300CBCF13D
:102DD0000A0F21BFA7F1410CBCF1060F613F062F7E
:102DE00016D2761C6D1E0660EAD105686D1E056060
:102DF00005686D1C0560066896420ED28D5D2F0039
:102E00000BD0222DC0D1002BA0D1F0BC00207047E8
:102E100004606FF00100F0BC704704606FF00200C6
:102E2000F0BC70472DE9F047044682B06568DDF8D4
:102E300028A0884691461F464FF0FF36FCE018F860
:102E40000100020000F0FC80092818BF0A2800F0E9
:102E5000F0800D2818BF202800F0EB80222868D0D1
:102E60002C2875D03A2870D05B2806D05D282AD04F
:102E70007B2802D07D2826D08EE06D1C002F00F02C
:102E8000D8806268524580F0BB80511C616007EBBE
:102E9000021100228E604E600029CA6000F0B080EE
:102EA000A26812F1010F04D007EB0212D3685B1C79
:102EB000D3607B280CBF0120022008702068486086
:102EC0006068401E66E0002F00F0B3807D286068D7
:102ED0000CBF01220222401E07EB00131B1D01E064
:102EE000401E103B00281FD4D3F800C01CF1010F76
:102EF000F6D0D3F804C01CF1010FF1D1030117F88B
:102F000003C094456BD1FA18A660491C916007EB89
:102F100000114A6812F1010F03D0896811F1010F05
:102F200038D0401EF3D584E010F1010F40F08180CD
:102F300055E0CDF800A03B464A4641462046FFF703
:102F400001FF002869D5BDE8F6876068401E21E0D2
:102F5000002F1CBFA06810F1010F6AD00001385C7F
:102F6000022818BF012864D06068401E07EB0011DA
:102F700001E0401E103900285BD40A78022A18BFED
:102F8000012AF6D14A6812F1010FF2D08A6812F1D3
:102F9000010FEED1A0604CE0206818F8002013006B
:102FA00018BF092A18BF0A2A12D00D2A18BF202AD2
:102FB0000ED02C2A18BF3A2A0AD05D2A18BF7D2AC3
:102FC00006D0203A5F2A09D2401C48452060E3D34E
:102FD0004FB92068401E20606D1C2AE021606FF010
:102FE0000100BDE8F6876268524508D2501C606057
:102FF00007EB0210002286604660C26018B92160AB
:103000003046BDE8F6872268416004230021037042
:103010008260C1602068401E20606D1CA06810F1B5
:10302000010F18BF002F04D007EB0010C168491C26
:10303000C1602068401C206021684945FFF4FFAE54
:10304000AFB16068401E07EB0011091D01E0401E92
:10305000103900280BD40A6812F1010FF7D04A6822
:1030600012F1010FF3D16FF00200BDE8F687284698
:10307000BDE8F6870021016041604FF0FF318160BB
:103080007047000038B505460020ADF800001C462A
:1030900065200870012010706A46BDF80010049881
:1030A0006854BDF80000401CADF80000BDF80010E9
:1030B000059868542946BDF80000401CADF8000092
:1030C000069800F062F9BDF80010079868546A4647
:1030D000BDF80000401CADF800002946089880B2F9
:1030E00000F03DF909986A46294680B200F037F9A8
:1030F0000A986A46294680B200F031F90B986A4670
:10310000294680B200F02BF9BDF80000208031BDC7
:1031100070B584B004460420ADF80C000620267972
:10312000ADF80C000D4603A9204600F042F9BDF8A9
:103130000C00401CADF80C0003A9204600F01BF960
:1031400003A9204600F017F903A9204600F013F95F
:1031500003A9204600F00FF9642EA8BF643E77490A
:10316000774A019565200870022076490870012190
:103170007548029106701180012321780091022286
:10318000652100F07DF904B070BD38B50446042017
:10319000ADF8000005212079ADF8001000283DD1E0
:1031A0006946204600F0E7F8684D296808806946BE
:1031B000204600F0E0F8296848806946204600F083
:1031C000DAF8296888806946204600F0D4F8296832
:1031D000C8806946204600F0CEF829680881694613
:1031E000204600F0C8F8296848816946204600F06A
:1031F000E0F868606946204600F0DBF8A8606946A0
:10320000204600F0B8F8296800B2086269462046F6
:1032100000F0B1F8296800B2486389E0012866D15E
:103220004A4DE968607981F86C000620ADF800002D
:10323000E968A07981F86D000720ADF80000E96821
:10324000E07981F86E000820ADF80000E968207A86
:1032500081F86F000920ADF80000E968607A81F814
:1032600070000A20ADF80000E968A07A81F87100CA
:103270000B20ADF80000E968E07A81F872000C20BC
:10328000ADF80000E968207B81F873000D20ADF8EF
:103290000000E968607B81F874000E20ADF8000042
:1032A000A17B2B48C1710F21ADF80010E17B0172A9
:1032B0001021ADF80010217C41721121ADF80010F1
:1032C000617C81721221ADF80010A17CC1721321C2
:1032D000ADF80010E17C01731421ADF80010217DE0
:1032E00041731521ADF80010617D817320E0022843
:1032F0001ED169462046154D00F03DF828856946E7
:10330000204600F038F868856946204600F033F81A
:10331000A8856946204600F02EF8E88569462046D3
:1033200000F029F828866946204600F024F86886CF
:10333000064D2968496A6868086031BD4C21002043
:10334000482100204D210020D02000200C2000200A
:10335000F42000204FF4007000F000B87047B2F87D
:1033600000C0030A01F80C30138819444870108813
:10337000801C108070470A88835C1044921C40783F
:103380000A8000EB032080B2704710B41488030E4B
:103390000B55030C14880C446370030A14880C4406
:1033A000A37013881944C8701088001D108010BCC9
:1033B000704710B40A881044121D4478037824041E
:1033C00004EB03638478C0780A8003EB042310BC09
:1033D000C018704743480FF22901016041608160C5
:1033E0000C302A22016041608160C160016141614D
:1033F0008161C16101622430521EF3D100F078B8BE
:1034000070472DE9F0411E46212E80460F46144696
:1034100028BF202600F07EF8079D069904232A463F
:1034200000F07EF80120012CA8700CD1780040F04B
:103430000100E87032464146281D00F07DF8301D3D
:1034400080B2BDE8F081022C08BF7800F1D04FF4C3
:103450008060FFF783FF0020BDE8F08110B58CB0DD
:1034600002AC01940E9C0094FFF7CBFFC2B21199FD
:1034700002A800F09DF81099302008800CB010BD13
:10348000F0B58BB00D4602A9019114461099164E65
:1034900000912946FFF7B5FFC2B2314602A800F0FD
:1034A00087F81199114809784FF4D47251430844B0
:1034B00000F1D40730223146F81D00F03DF86800D5
:1034C000012C08BF40F0010078711298002838469E
:1034D00003D100F01DF80BB0F0BD00F01AF80BB0EE
:1034E000F0BD0000181A00207020002028100020D5
:1034F0000348044901600449416004498160704700
:10350000D41E002011310008553300088B3100080B
:103510007047704701480078704700002400002081
:1035200070B504460D46164619463046FEF7A8F912
:103530003470757070BD000062B38B0708D0521EE6
:1035400011F8013B00F8013B00F024808B07F6D115
:10355000830740F0208000BF103A07D330B4B1E8B1
:103560003810103AA0E83810F9D230BC530724BF05
:10357000B1E80810A0E8081044BF51F8043B40F837
:10358000043BD20724BF31F8022B20F8022B44BFA2
:103590000B7803707047083A07D3B1E80810083A6F
:1035A00040F8043B40F804CBF7D25307E4E70000AF
:1035B000F8B507460C461546AA2230212046FEF7EC
:1035C000B9FB00260220290013D02A463B78ED2BB8
:1035D0001CBFEE2BE92B07D1E923235421183B789C
:1035E0004B70761C401C00E02354401C7F1C521E74
:1035F000ECD1134FB9797019491C30287D70FE70D9
:10360000B870B97106D330212046FEF739F9002091
:103610007871F2BD002138B1A21C034612F8015B9B
:1036200069185B1EC9B2F9D13971ED222270607040
:103630002218C01C9170EE21D1707871C0B2F2BD19
:1036400038210020704710B5554C80212046FEF7E8
:103650003BFEFAE7FEE7FEE7FEE77047704770477C
:1036600050490120087040F66E724F48018891421F
:1036700014BF323100210180704770B5ADF5067D71
:103680000120FFF74FFBB0B3484C454D208AC007DF
:103690002AD5474E0521304600F096F840212846AD
:1036A000FEF714FE3078022822D110212046FEF7C2
:1036B0000BFE4FF400612846FEF708FE54A8FEF703
:1036C000A3FD01A8FFF7D6FC54A800F0B3F814211D
:1036D0000091024604AB54A901A8FFF7A3FB042103
:1036E000304600F071F803E040212846FEF7ECFD7B
:1036F0000120FFF71FFB0DF5067D70BD10B5022000
:10370000FFF710FBB0B12B49294C098824488907E1
:1037100004D58021FEF7DAFD022103E08021FEF7C7
:10372000D3FD0321204600F04FF8BDE810400120F2
:10373000FFF700BB10BD80B500211F48FFF73FFA1F
:1037400010211A48FEF7C0FD4FF400611448FEF73F
:10375000BDFDBDE802404FF48050FFF742BA80B58E
:1037600000211648FFF72BFABDE802404FF48030E5
:10377000FFF737BA80B500211148FFF720FABDE8FE
:1037800002404FF48010FFF72CBA80B500210D489D
:10379000FFF715FABDE802404FF08070FFF721BA3D
:1037A000000402400000002002000020000002404F
:1037B00001000020100002404460024058600240B6
:1037C0006C60024080600240B0B40FF23C020578A9
:1037D000002314462778BD4204BF6778B94206D15A
:1037E00003EB4301114489780170B0BC7047E7785E
:1037F0005B1CBD4204BF2779B942F1D05B1CA41DFC
:103800000E2BE7DBB0BC704701000301010003028F
:103810000202040404050604060505030304030369
:10382000060805060707070908080A0909FF000036
:103830000509000000F10103810704D010F8011B05
:1038400089B18107FAD10268B2F10131914311F0D7
:10385000803F04BF50F8042FF6E710F8011B11B1A8
:1038600010F8011BFBE7C01A70470000F8B54E4C7A
:103870004E4D4F4F41F2883605E000F057F80021D9
:10388000781CFFF7A1FF78780928FCD8DFE800F062
:103890003A060507050510121416F4E7EDE720882F
:1038A000800703D50221781CFFF78EFF0221E7E78E
:1038B0000721E5E70921E3E70A21E1E70220FEF716
:1038C00061FC01E000F080F878780928DBD13878D5
:1038D0000128F9D10020387078880028F2D0B0F59E
:1038E000AF7F06D0B0F52F7F06D0B0F5FA6F06D0C7
:1038F000EAE700F093F8E7E700F085F8E4E700F086
:10390000A2F8E1E778780028BDD138780128FCD109
:10391000002038707868401CB0427860F5DB802168
:103920002846FEF7D5FC00207860EBE7F0B589B0BB
:10393000FFF750FD0020ADF820000790069005909D
:103940000490012003900020029001900090194CF7
:10395000194D1A4E1A4F3B46324629462046FFF76C
:1039600091FB18483B8832782978039008A8029088
:1039700000200190282000902046FFF76FFDFFF700
:103980000DF800F0B7F8FEF7AFFDFEF7CFFFFFF739
:1039900006F8FEF722FFFEF7CBFEFEF7F6FE32201A
:1039A000FEF7D4FB09B0F0BD100002400004024055
:1039B00000000020D02000204C2100204D210020BC
:1039C000482100204020002010B53A4C02E020465B
:1039D000FEF7EEFC01212046FEF7F6FC0128F6D0AA
:1039E00010213548FEF772FC4FF400613348FEF7B2
:1039F0006BFC01213248FFF7E2F8BDE810400121DD
:103A00003048FFF7DCB880B501212F48FFF7D7F821
:103A1000BDE8044001212D48FFF7D1B82C4810B56E
:103A200041782C4C1D2904D1811D17222046FFF717
:103A300083FDE07D010008BF012002D0012801D1F3
:103A40000020E07510BD2448F0B50278234C244DC9
:103A5000244E254F0021D00918BF0121C2F3801048
:103A6000002889B014BF21484FF448700022ADF8F7
:103A700020200792069205920492029001220020D3
:103A80000392019100903B46324629462046FFF7BB
:103A9000F9FA17483B8832782978039008A80290F1
:103AA00000200190282000902046FFF7D7FC09B0A5
:103AB000F0BD000000380040000002400004024059
:103AC0004460024058600240806002406C600240E6
:103AD000A0200020142100204A210020D020002016
:103AE0004C2100204D21002048210020E0FCFFFF58
:103AF0004020002000B583B001210220FEF7B4FC75
:103B000001208DF8040069460020ADF8060003206E
:103B10008DF80500C02000900248FEF7A5FB03B019
:103B200000BD00BF000402403848394A82B0016835
:103B300041F480710160816811408160354A0168FB
:103B400011400160016821F480210160816821F445
:103B50007D0181600021C16001910091016841F007
:103B600001010160016801F002010091009919B999
:103B70000199B1F5A04FF5D10168490801F00101A3
:103B80000091009901293BD123490A68520852004B
:103B90000A600A6822F002020A600A6822F004023F
:103BA0000A604FF40062416A41F0805141621B4952
:103BB0000A604A68D206FCD4816841F080018160C5
:103BC0008168816081688160816821F47D01816004
:103BD000816841F480018160016841F08071016079
:103BE00001688901FCD58168890889008160816844
:103BF00041F003018160816801F00C010C29FAD1C8
:103C00004FF000600649086002B07047003802407B
:103C10000CC0FF88FEFFFEEE003C0240007000403A
:103C200008ED00E019E050F8041BCB0744BFA9F1F0
:103C300001035918121F0023042A41F8043BF9D24A
:103C40005FEA827C0B4604D54FF0000CA1F800C05F
:103C50009B1CD10744BF0021197050F8042B002A87
:103C6000E1D1704710B450F8041B79B10268436881
:103C700002440830DC0744BFA9F10104E31852F8FC
:103C8000044B43F8044B091FF9D1ECE710BC704713
:103C900010B5074979441831064C7C44163404E0C9
:103CA0000A68081D114488470146A142F8D110BD99
:103CB0003000000050000000000100000000000083
:103CC000030406080C10182030000000000000005B
:103CD0000102030401020304060708090A010000A7
:103CE00045FFFFFF28110000281000200000000001
:103CF00075FFFFFF28000000C0FFFFFF000000204D
:103D00000000000000F00BF8002801D0FFF7C0FF12
:103D10000020AFF30080FFF7A9FD00F002F80120BA
:103D2000704700F001B800000746384600F002F87E
:103D3000FBE7000080B5AFF30080024A11001820B5
:103D4000ABBEFBE726000200014880470148004760
:103D5000293B0008593D0008AFF30080AFF3008015
:103D6000FFF7D0FFFFF7FEBFFFF7FEBFFFF7FEBF75
:103D7000FFF7FEBFFFF7FEBFFFF7FEBFFFF7FEBF77
:103D8000FFF7FEBFFFF7FEBFFFF7FEBFFFF7FEBF67
:103D9000FFF7FEBFFFF7FEBFFFF7FEBFFFF7FEBF57
:103DA000FFF7FEBFFFF7FEBFFFF7FEBFFFF7FEBF47
:103DB000FFF7FEBFFFF7FEBFFFF7FEBFFFF7FEBF37
:103DC000FFF7FEBFFFF7FEBFFFF7FEBFFFF7FEBF27
:103DD000FFF7FEBFFFF7FEBFFFF7FEBFFFF7FEBF17
:103DE000FFF7FEBFFFF7FEBFFFF7FEBFFFF7FEBF07
:103DF000FFF7FEBFFFF7FEBFFFF7FEBFFFF7FEBFF7
:103E0000FFF7FEBFFFF7FEBFFFF7FEBFFFF7FEBFE6
:103E1000FFF7FEBFFFF7FEBFFFF7FEBFFFF7FEBFD6
:043E2000FFF7FEBFEB
:0400000508003D5959
:00000001FF
