:020000040800F2
:10000000481300205D4C0008814400088344000828
:100010008F44000891440008934400080000000049
:1000200000000000000000000000000095440008EF
:100030009744000800000000994400089B44000811
:10004000794C00087D4C0008814C0008854C000864
:10005000894C00088D4C0008B5440008374500085D
:10006000914C0008954C0008994C00089D4C0008E4
:10007000A14C0008A54C00087145000899450008EE
:10008000AF450008C5450008A94C0008AD4C000864
:10009000B14C0008B54C0008B94C0008BD4C000834
:1000A000C14C0008C54C0008C94C0008CD4C0008E4
:1000B000D14C0008D54C0008D94C0008DD4C000894
:1000C000E14C0008E54C0008E94C0008ED4C000844
:1000D000F14C0008F54C0008F94C0008FD4C0008F4
:1000E000014D0008054D0008094D00080D4D0008A0
:1000F000114D000800000000154D0008194D0008C2
:1001000000000000000000001D4D0008214D000807
:10011000254D0008294D00082D4D0008314D0008DF
:10012000354D00084178007807E0C178827842EACE
:1001300001214278007842EA012140EA012070471B
:100140000170090A417070470170090A4170090A7B
:100150008170090AC17070472AB111F8013B00F89B
:10016000013B521EF9D17047521E00F8011BFBD112
:10017000704710B510F8013B11F8014B1B1B521EC4
:1001800001D0002BF6D0184610BD00E0401C0278CC
:10019000130018BF8A42F9D11046704738B504469B
:1001A0000025E07890B1226B00F012F868B9E07099
:1001B000216B626AE0698A1A824207D2A278022A17
:1001C00004D1421800F004F800E00125284632BDB1
:1001D0006078012304F1340101F0F1B970B50446EF
:1001E0000D46206B0026854210D02046FFF7D6FF33
:1001F00006000BD1607801232A4604F1340101F096
:10020000B1F910B14FF0FF3501262563304670BDBE
:100210008269891E921E914201D300207047C26AF2
:10022000408901FB002070472DE9F0410C4605682C
:10023000022C49D3A869844246D2287801284FF07D
:10024000FF3604D040D303282ED01ED33CE0686A8A
:1002500004EB540700F03CF8002836D1C7F308003F
:1002600028447F1C90F83480686A00F031F860BB45
:10027000C7F30800284490F8340048EA0021E0075A
:1002800054BFC1F30B060E091FE0686A00EB14218E
:1002900000F020F8C8B96000C0F3080028443430EA
:1002A000FFF740FF064610E0686A00EBD41100F04B
:1002B00011F850B9A000C0F3080028443430FFF70B
:1002C00034FF20F0704600E001263046BDE8F081A2
:1002D00000EB5721284681E72DE9F0410F46022F18
:1002E000044615464FF0020865D3A069874262D2E2
:1002F0002078012804D05ED3032841D02FD35AE0C0
:10030000606A07EB570600F08FFB5FEA000852D1E6
:10031000C6F3080020443430761CF90743BF017847
:1003200001F00F0141EA0511294601700120E0703A
:10033000606A00F079FB5FEA00083CD1C6F3080070
:1003400020443430F90748BF290906D401782A0A25
:1003500001F0F00102F00F021143017029E0606A20
:1003600000EB172100F062FB5FEA000823D1780060
:10037000C0F308002044A9B23430FFF7E1FE18E0D2
:10038000606A00EBD71100F051FB5FEA000812D160
:10039000B800C0F30800271807F13400FFF7C5FEC6
:1003A00025F0704100F07040014307F13400FFF781
:1003B000CBFE0120E0704046BDE8F0812DE9F04120
:1003C00080460D00D8F8004006D1276917B1A06912
:1003D00087420ED301270CE0FFF726FF022838BF23
:1003E000012059D310F1010F56D0A169884253D38F
:1003F0002F46606968B3AF4217D1A0697E1C864260
:1004000028BF022631464046FFF70EFF012818BFDD
:1004100010F1010F40D038B12069022805D3A1693D
:10042000884202D2074600E0AEB93E46A069761C7B
:10043000864202D30226022F0BD331464046FFF7F5
:10044000F3FE40B1012818BF10F1010F24D0BE42C5
:10045000ECD1002020E04FF0FF3231462046FFF77C
:100460003BFF28B92DB1324629462046FFF734FF1D
:1004700060B92661A1696069891E814224BF401E5E
:100480006061207940F00100207104E001280CBF78
:100490004FF0FF3601263046BDE8F0812DE9F041EE
:1004A00004460D462668B5F5001F2FD215F01F0F24
:1004B0002CD1A76825611FB93078032801DBB76A02
:1004C0002FB931896809884220D2B06A1AE0708950
:1004D0004FEA402801E0A5EB0805454539460ED313
:1004E0002046FFF7A1FE074617F1010F01D10120B9
:1004F00017E0022F0AD3B0698742ECD306E03046FA
:10050000FFF786FEA0616761A06908B9022008E0D4
:1005100000EB5520A061C5F3080030443430E061A1
:100520000020BDE8F0812DE9F843044688462069A3
:10053000256800F12006A06918B3B6F5001F20D287
:10054000F1055ED1401C6169A06121B9298970095A
:10055000884256D313E06889401E10EA562F50D1C6
:100560002046FFF761FE0746022F16D317F1010F51
:100570003FD0A86987423ED3B8F1000F03D10020D5
:10058000A061042044E061692046FFF717FF0700DF
:1005900008BF07203CD0012F01D1022038E017F11D
:1005A000010F26D02846FFF7F9FD10BB3946284633
:1005B000FFF72EFE8046C5F830804FF40072002110
:1005C00005F13400FFF7D0FD4FF0000901E009F11B
:1005D00001096889814509D26878012309EB08027D
:1005E00005F1340100F0EBFF0028F0D06889814567
:1005F00001D001200CE0676139462846FFF708FE6C
:10060000A061C6F3080028443430E0612661002070
:10061000BDE8F28370B504460D4605F11A00FFF7F8
:1006200081FD06462078032805D105F11400FFF767
:1006300079FD46EA0046304670BD70B504460D4669
:100640001646B1B205F11A00FFF77AFD20780328AB
:1006500005D1310C05F11400BDE8704070E570BDA6
:100660007CB5164604461D460B22FFF775FD062D88
:1006700012D3308880B136F8020B102100F001024D
:1006800002EB45054008EA0344BF85F4883585F050
:100690002105491EF2D1ECE7072005F00F023032A8
:1006A000D2B23A2AA8BFD21D0DF80020401E2D0953
:1006B000F3D17E220DF80020002200E0521C82427D
:1006C00002D2A35C202BF9D113465A1C08283ABF4A
:1006D0001DF80050401C2025E554082AF4D373BDB2
:1006E00000210B220B46C90101EB530110F8013B1D
:1006F0005918521EC9B2F5D1084670472DE9F04F7E
:10070000054683B02868019000F098F804000FD1E6
:10071000FF200090FF264FF0FF30E862A9690198A2
:10072000FFF75CFD040003D1E869017809B90424EE
:100730007EE0C27A02F03F02E529AA716FD013076A
:1007400002D50F2A6BD101E00F2A56D195F82B2044
:10075000520668D44A0606D5427B009201F0BF01DA
:100760002A69EA620E46F2B2914202BF0099427BC8
:10077000914240D104460198D0F80C9004F11A003F
:10078000FFF7D0FCB8BB207800F03F00401E0D21E1
:1007900001FB00F84FF0010B00270FF27C20C05D39
:1007A0002044FFF7BFFCBBF1000F824610D0B8F128
:1007B000FF0F20D200F03AFF834639F8180000F00E
:1007C00035FF834508F1010808BFD34604D012E085
:1007D0004FF6FF7082450ED17F1C0D2FDDD32078A0
:1007E000400606D5BBF1000F1CBF39F818000028E1
:1007F00001D1761E17E0FF2615E0F6B226B9009E5D
:10080000FFF76EFF864213D095F82B00C00706D481
:10081000E8690B2205F12001FFF7ABFC40B14FF076
:10082000FF30FF26E86200F006F804003FF476AFE0
:100830002046BDE8FE8F0021284674E600212846A8
:100840002CE62DE9F04F054687B028680090A021DE
:1008500095F82B00084218BF062040F0DA800026E9
:1008600000E0761C0098C06830F816000028F8D127
:100870000C2205F1200103A8FFF76EFC03AFF87A04
:10088000C00720D5402085F82B0001240098C268BD
:10089000234603A905F12000FFF7E2FE2846FFF7F3
:1008A0002DFF5FEA000802D1641C642CEED3642C97
:1008B00008BF072000F0AD80B8F1040F40F0A88019
:1008C000F87A85F82B00F87A800706D506F10C0037
:1008D0000D21B0FBF1F0461C00E001262C68FFF76B
:1008E000ADFF010014D10027A96900F09FF80100B5
:1008F0000ED1E9690978E5291CBF0029002702D13A
:100900007F1CB74207D00121FFF796FF0100EBD013
:10091000042808BF07205FEA00085DD1761E5ED07C
:100920002869A0EB4611FFF78AFF5FEA000853D160
:1009300005F12000FFF7D4FE8DF808004FF6FF7791
:1009400000F092FD5FEA000846D10098EC69C068AB
:10095000019000219DF8080060735FFA86F80F206F
:10096000E0724FF0000A0020207304F11A00FFF734
:10097000E7FBA8F101000D2101FB00F901E0BB45F7
:1009800004D0019830F819B009F101090FF288007C
:1009900010F80A0059462018FFF7D2FBBBF1000FF0
:1009A00008BFBB460AF1010ABAF10D0FE7D3BB45F8
:1009B0001DBF019830F81900002848F0400884F85D
:1009C000008001200099C870FFF735FF5FEA00083A
:1009D00002D1761EB4D102E05FEA080018D100F01F
:1009E00043FD5FEA000813D1E86920220021FFF7E8
:1009F000BBFBE8690B2205F12001FFF7ADFB95F881
:100A00002B00E96900F01800087301200099C870F4
:100A1000404607B0BDE8F08F01030507090E10122C
:100A20001416181C1E00000000EB56212046FFF78C
:100A3000D5BB2DE9F04F80460D4683B0D8F80000B5
:100A40002C68C0680FF6482900904FF0000A002675
:100A500015E0BAF1FF0F3CD240F2B511384600F074
:100A6000D0FD070035D0802F04DA39464846FFF71D
:100A70008CFB70BB009820F81A700AF1010AA75D80
:100A8000761C202F09DB2F2F18BF5C2FE1D1A05D32
:100A90002F2814BF5C28761CF9D0A0192860202FBD
:100AA000ACBF0025042501E0AAF1010ABAF1000F4C
:100AB00008D0009800EB4A0030F8027C202F18BFC5
:100AC0002E2FF1D00099002021F81A00BAF1000F62
:100AD00001D106205FE00B22202108F12000FFF762
:100AE00043FB002600E0761C009830F81600202812
:100AF00018BF2E28F7D00EB145F00305009800EB83
:100B00004A0030F8020C2E2802D0BAF1010AF5D1C1
:100B10004FF00009CB46082400E00546009830F865
:100B20001670761C7FB145F00300202FC0B2F4D0C0
:100B30002E2F01D15645F0D1A34501D2564539D1CA
:100B40000B2C2AD1054698F82000E52804BF052083
:100B500088F82000082C08BF4FEA890909F00C002A
:100B60000C2819BF09F00300032845F00205EDB277
:100B7000A8070DD409F00300012804BF45F01005B3
:100B8000EDB209F00C00042804BF45F00805EDB2F1
:100B900088F82B500020BDE8FE8F564518BF05464B
:100BA000B24521BF56464FF0080B0B244FEA890986
:100BB000B4D2C8E7802F0FDB40F2B511384600F001
:100BC00007FD074645F002050006EDB204D50FF615
:100BD000DC0007F07F01475C45F00300C0B2FF2F47
:100BE00001900DDD601E834502D3019DA34695E76C
:100BF00008EB0B01381281F820000BF1010B17E014
:100C00002FB139460FF69400FFF7BFFA10B1019DDE
:100C10005F270DE0A7F141001A2838BF49F002090B
:100C200006D3A7F161001A283CBF49F00109203F13
:100C300008EB0B000BF1010B80F820706EE710B58C
:100C400002684FF0FF31BAB1134600E05B1C1C781C
:100C5000202C01D33A2CF9D13A2C0CD112F8014BAB
:100C6000303C0A2C08D29A4208BF002C04D15A1CEE
:100C70000021026000E00021084610BD38B504469E
:100C80000020E07004F130054FF0FF302860FFF7DE
:100C9000CDFE08B1042032BD04F23220FFF742FA43
:100CA0004AF65521884201D0032032BD2879E9282F
:100CB00004D0EB2804BFA879902810D10322C2A148
:100CC00004F16A00FFF755FA38B105220FF2D4712A
:100CD00004F18600FFF74DFA08B9002032BD02206A
:100CE00032BD2DE9F0430D4685B000212960144640
:100CF000FFF7A5FF070048BF0B2006D4DFF8548795
:100D000008EB870046680EB90C201AE12E6004F04B
:100D1000FE04307848B1707800F008FCC10704D4B4
:100D2000002C01D040070DD40AE10020307077700C
:100D3000707800F001FCC10748BF032003D41CB148
:100D4000400701D50A20FCE000213046FFF796FF5E
:100D500000270446022C23D1002406EB04104FF494
:100D6000F9710844017919B10830FFF7DEF900E0A4
:100D700000204DF82400641C042CEED3B9465DF825
:100D8000297027B139463046FFF778FF00E003208D
:100D90000446022C04DB09F10109B9F1040FEED37A
:100DA000042C08BF0120CED0022C80F2878006F1EF
:100DB0003F00FFF7B7F9B0F5007F12D106F14A0006
:100DC000FFF7B0F9050004D106F15800FFF7ADF9BF
:100DD000054606F14100F561C178B170012918BFDF
:100DE00002296BD14D4300787081010066D0411E0D
:100DF000084263D106F14500FFF794F90F2108423C
:100E000030815BD106F14700FFF78CF9040004D173
:100E100006F15400FFF789F9044606F14200FFF796
:100E200081F900284AD031892A1802EB1112944224
:100E300044D3A31A7489B3FBF4F3002B3ED00024EF
:100E4000DFF814C6634538BF03244FF6F67C6345CC
:100E500038BF022440F6F67C634538BF012400D336
:100E600064B3C01970629B1CD019032CB361376244
:100E7000F0620FD106F15E00FFF754F9002804BFBD
:100E8000308900281AD106F16000FFF74EF9B169E8
:100E900089000CE091B1706AB1692818022C0FBF6B
:100EA000490001EB410201F0010101EB5201B06286
:100EB00001F2FF11F069B0EB512F01D20D2040E09B
:100EC0004FF0FF30706130618020032C307130D1E1
:100ED00006F16400FFF726F901282AD1791C304673
:100EE000FFF77CF928BB307106F23220FFF71AF9C0
:100EF0004AF6552188421CD106F13400FFF715F956
:100F0000DFF85815884214D14FF406703044FFF7CB
:100F10000CF9DFF84C1588420BD14FF407703044C0
:100F2000FFF703F970614FF408703044FFF7FDF8E4
:100F300030613470B8F80000401CA8F80000F08060
:100F4000002005B0BDE8F08370B506460925002EE7
:100F50001CBF306800280C460DD0017859B1B1880B
:100F6000C288914207D1407800F0E0FAC00702D46D
:100F70003068002500E000202060284670BD13B5D1
:100F800082B0144600916846FFF759FE002848BF1A
:100F90000B2016D4DFF8BC1401EB8000416809B1C6
:100FA00000220A70029911B1029A0021117002996F
:100FB00041600CB9002004E0002202A903A8FFF759
:100FC00090FE04B010BD0000464154002DE9F24FE0
:100FD0000500ADF50E7D08BF092000F0AF8002F0DE
:100FE0003F06324669468EA8FFF77BFE040054D1C7
:100FF0000098009902900EA8C8608E98DDF80880CD
:1010000001E00198401C0190019800782F2818BF3A
:101010005C28F6D00020049004AF019800782028C6
:1010200012D280208DF83300002102A8FFF736FA93
:10103000044624E0B868C0F30800404400F13401DD
:101040004046FFF7E7FA049001A902A8FFF7F1FC78
:10105000040014D102A8FFF751FB04469DF83300A9
:10106000210000F0040004D0042C08BF002806D1A1
:1010700004E020B99DF80E00C006DBD40524200052
:1010800004D19DF83300000648BF06241C20064208
:1010900000F0B180200046D0042C4CD102A8FFF70C
:1010A000D0FB0446200046F0080670D1300774D506
:1010B000D7F8149000984946FFF7ACFA8046DFF85D
:1010C000A41309F10E00FFF73FF879692020C872D8
:1010D000002279690098FFF7B0FA786900211C3086
:1010E000FFF732F800990120B8F1000FC87050D016
:1010F0000098DDF80890046BC346BBF1020F78D36B
:10110000D9F81800834574D2594602A8FFF78CF825
:101110005FEA000A32D0BAF1010F6AD01AF1010F6A
:1011200010D1012407E09DF80E00112108426ED174
:101130007007BBD508240020286020460DF50F7DE0
:10114000BDE8F08F002259464846FFF7C5F8010078
:1011500001D00446EFE7D9F81800D9F81410821E20
:10116000914208D2491CC9F8141099F8041041F0B2
:10117000010189F80410D3468345C5D30098214660
:10118000FFF72CF800990446A8F10100086120003F
:10119000D1D1300748BF46F040060098006B286266
:1011A000786968627F6900983946FFF733FAA8606A
:1011B00007F11C00FEF7B9FFE8600098286000986E
:1011C000C088A8802E7400206874E8616861B00649
:1011D000B3D5EE68002EB0D06E610098408947020A
:1011E000A868B74215D3A861F105A6D000F029F888
:1011F00018BB02249FE72000C9D19DF80E00C1064C
:1012000048BF042497D4B107C3D5C007C1D507246C
:1012100091E701462846FFF707F8022802D2022488
:10122000A86188E710F1010F03D101244FF0FF30CE
:10123000F6E7F61B2100D4D0F2E700EB5620E86178
:101240007BE701460098FEF7E3BF2DE9F04705462E
:101250001E4682B000203060884691466946284686
:10126000FFF772FE010077D1687C010074D1287C01
:10127000C00758BF07206FD5E8686969401A48451C
:1012800015D8814613E069690098C1F30801084444
:1012900000F1340122464046FEF75EFF3068201818
:1012A0003060A9EB040968692018A0446861B9F1AD
:1012B000000F50D06869C10540D100994989491E85
:1012C00011EA50240CD100280FBFA868A96928464C
:1012D000FEF7AAFF022807D310F1010F38D0A8614A
:1012E000A969FFF7AFFF08B9022032E05FEA59278A
:1012F00004EB000A20D0009840893919884238BF91
:10130000071B009840783B465246414600F02AF9B8
:10131000F0B90098C07868B10098006BA0EB0A00A3
:10132000B84207D200994FF40072343108EB4020E4
:10133000FEF712FF7C02B1E7C5F81CA000F00EF822
:101340004C46814588BF044600F08FF800289AD0AB
:101350000120687400E00020BDE8F6876869E9694B
:10136000C0F30800C0F50070704770B582B0044645
:101370006946FFF7E9FD050069D1207C400666D586
:10138000216A00F072F8050061D1656AE87A40F0E0
:101390002000E8722946A2682068FFF74EF9E1684C
:1013A00005F11C00FEF7D0FE2E4905F11600FEF7F0
:1013B000CBFE002105F11200FEF7C2FE00990120CC
:1013C000C870009E3046FEF7E9FE05003BD130783C
:1013D000032804BF307901282ED14FF40072002178
:1013E00006F13400FEF7C0FE4AF6552106F232201F
:1013F000FEF7A6FE194906F13400FEF7A5FE4FF4EC
:10140000067017493044FEF79FFE71694FF407706C
:101410003044FEF799FE31694FF408703044FEF70E
:1014200093FE306A421C32630123707806F1340166
:1014300000F0C5F80020307100227078002100F023
:10144000BFF800B10125207C00F0BF0020742846C1
:1014500076BD0000A4450020F6FFFF0F5252614107
:10146000727241610000A14AA9690098FEF7B6BEF8
:1014700010B582B00446FFF778FF010007D1694636
:101480002046FFF761FD010004BF0021216016BD69
:10149000222A3A3C3E3F7C7F000000002B2C3B3D43
:1014A0005B5D00004641543332000000809A4541A4
:1014B0008E418F804545454949498E8F9092924F84
:1014C000994F555559999A9B9C9D9E9F41494F55BF
:1014D000A5A5A6A7A8A9AAABACADAEAFB0B1B2B353
:1014E000B4B5B6B7B8B9BABBBCBDBEBFC0C1C2C344
:1014F000C4C5C6C7C8C9CACBCCCDCECFD0D1D2D334
:10150000D4D5D6D7D8D9DADBDCDDDEDFE0E1E2E323
:10151000E4E5E6E7E8E9EAEBECEDEEEFF0F1F2F313
:10152000F4F5F6F7F8F9FAFBFCFDFEFF08B101202F
:10153000704725480078704710B550B900F08AFA16
:1015400048B1214C207800F0FD00207000F089FAAD
:1015500018B9012010BD022010BD207800F0FE0057
:10156000207010BD2DE9FC410C4615461E4600B901
:101570000EB9042021E014480078C00716D40120D9
:1015800000F00AFC0A2740F21128012E18BF40F291
:1015900012282A464146684600F007FB9DF80000E5
:1015A0007F1E10B1002FF4D100E00FB9032004E03A
:1015B0003146204600F073FB0020BDE8F68100E0D4
:1015C00000BF02480078704745030020CE45002048
:1015D00000228028B8BF024611DB40F2B5139942C1
:1015E0000DD10FF2C00333F81230984203D0521CD1
:1015F00092B2802AF5DB02F1800000F0FF02104673
:10160000704700228028B8BF02460CDB40F2B513B9
:10161000994208D1FF2806DC0FF2880101EB400057
:10162000A0F58070028810467047000070B5B0F5D4
:10163000805FACBF0FF260320FF2681202E00BB9AC
:1016400002EB4402158855B3A84228DB54882302D4
:1016500004F0FF04121D1B0C6619B042EFDA082BD0
:101660001DD8DFE803F005090E10121416181A0031
:10167000401B32F8100012E0411B01F00101401A3A
:101680000DE010380BE0203809E0303807E01A3858
:1016900005E0083003E0503801E0A0F5E35080B2E7
:1016A00070BD0000C700FC00E900E200E400E000BB
:1016B000E500E700EA00EB00E800EF00EE00EC00D8
:1016C000C400C500C900E600C600F400F600F20040
:1016D000FB00F900FF00D600DC00A200A300A5007B
:1016E000A7209201E100ED00F300FA00F100D10023
:1016F000AA00BA00BF001023AC00BD00BC00A100CE
:10170000AB00BB0091259225932502252425612558
:101710006225562555256325512557255D255C25D0
:101720005B251025142534252C251C2500253C255A
:101730005E255F255A255425692566256025502597
:101740006C2567256825642565255925582552256A
:1017500053256B256A2518250C25882584258C257D
:1017600090258025B103DF009303C003A303C303C7
:10177000B500C403A6039803A903B4031E22C6033D
:10178000B50329226122B10065226422202321238E
:10179000F7004822B0001922B7001A227F20B200B9
:1017A000A025A00061001A03E0001703F80007035A
:1017B000FF0001007801000130013201060139010A
:1017C00010014A012E017901060180014D004302FA
:1017D00081018201820184018401860187018701E0
:1017E00089018A018B018B018D018E018F0190018E
:1017F0009101910193019401F601960197019801DD
:1018000098013D029B019C019D0120029F01A001C6
:10181000A001A201A201A401A401A601A701A701A0
:10182000A901AA01AB01AC01AC01AE01AF01AF014E
:10183000B101B201B301B301B501B501B701B801FE
:10184000B801BA01BB01BC01BC01BE01F701C00176
:10185000C101C201C301C401C501C401C701C8015E
:10186000C701CA01CB01CA01CD011001DD01010090
:101870008E01DE011201F3010300F101F401F40114
:10188000F8012801220212013A020900652C3B02EC
:101890003B023D02662C3F024002410241024602E9
:1018A0000A015302400081018601550289018A0123
:1018B00058028F015A0290015C025D025E025F02D3
:1018C000930161026202940164026502660267028A
:1018D000970196016A02622C6C026D026E029C01F5
:1018E000700271029D01730274029F0176027702F9
:1018F000780279027A027B027C02642C7E027F02EB
:10190000A60181028202A901840285028602870261
:10191000AE014402B101B20145028D028E028F0276
:1019200090029102B7017B030300FD03FE03FF0356
:10193000AC0304008603880389038A03B1031103FF
:10194000C2030200A303A303C4030803CC030300E0
:101950008C038E038F03D8031801F2030A00F903E6
:10196000F303F403F503F603F703F703F903FA03AC
:10197000FA033004200350041007600422018A0493
:101980003601C1040E01CF040100C004D00444019B
:1019900061052604000000007D1D0100632C001E6F
:1019A0009601A01E5A01001F0806101F0606201FE0
:1019B0000806301F0806401F0606511F0700591F62
:1019C000521F5B1F541F5D1F561F5F1F601F0806BD
:1019D000701F0E00BA1FBB1FC81FC91FCA1FCB1F15
:1019E000DA1FDB1FF81FF91FEA1FEB1FFA1FFB1F8F
:1019F000801F0806901F0806A01F0806B01F0400DD
:101A0000B81FB91FB21FBC1FCC1F0100C31FD01FBE
:101A10000206E01F0206E51F0100EC1FF31F010094
:101A2000FC1F4E210100322170211002842101008F
:101A30008321D0241A05302C2F04602C0201672C3E
:101A40000601752C0201802C6401002D260841FF3F
:101A50001A030000B548008810F0020018BF0120EA
:101A6000704700207CB500F097F9B14D00F040F9C7
:101A700000F039F908240A2500F060F96D1EFBD149
:101A80000A26AC4D00224FF4007100F085F800F0FA
:101A900085F8C00702D4002EF4D172E0002E70D079
:101AA0000A264FF4D57240F6080100F075F800F0F0
:101AB0006CF822D50224002E63D01820044208D1ED
:101AC000002240F2372100F067F8DDE90001C5E9A6
:101AD00000014FF4FA764FF0804240F2293100F0D5
:101AE0005BF800F052F802D5A1074AD50124761E12
:101AF000C0070CD5002EEED10AE0761EC00703D534
:101B00006868B0F5D57FD6D0002ECAD139E01EB9AD
:101B1000A00736D5012401E0E0070CD50A260022F3
:101B200040F2012100F038F800F038F810B1002E32
:101B3000F5D126E02EB31820044211D0FF202870E2
:101B40000A26002240F23A4100F026F800F026F87A
:101B500010B1002EF5D114E09EB1480058BF042406
:101B6000072004420FD00A264FF400724FF404718C
:101B700000F012F800F012F810B1002EF4D100E0DD
:101B80000EB9002076BD204676BDDDE90001C5E92D
:101B90000001287841077047684606E0DDE900014A
:101BA000C5E90001761E287870472DE9F04180468E
:101BB0000D460826E80586B014460AD5002240F2F4
:101BC00037216846FFF7F1FFDDE90001594AC2E914
:101BD0000001FF202DB2B5F5007F08BF952004D08D
:101BE00040F60802954208BF872045F040018DF875
:101BF00000108DF80440210E8DF801108DF80500BD
:101C0000210C8DF802100027210A8DF803104FF4E3
:101C10008051474C204600F05EF94FF48061204629
:101C200000F057F91DF8070000F067F87F1C062F39
:101C3000F8DB00F083F88DF80C00761E000602D564
:101C4000F0B20028F5D105F46060B0F5007F02AE77
:101C500006D0002500F072F870556D1C042DF9DBDC
:101C600071789DF80800090441EA0060B17840EA03
:101C70000120F178084304904FF48051204600F091
:101C800028F94FF48061204600F025F900F056F85D
:101C9000DDE90301C8E9000106B0BDE8F08170B5D7
:101CA0000446234D4FF48051284600F014F94FF4B8
:101CB0008061284600F00DF900F040F8FE28FBD1C5
:101CC000002600F03BF8A055761CB6F5007FF8DB47
:101CD00000F034F800F032F800F00AF800F003F8F1
:101CE000BDE870402AE04FF48061284600F0F3B868
:101CF0004FF48051284600F0ECB838B504460E4D3C
:101D00000221284600F064F90028F9D0214628462F
:101D100000F054F90121284600F05AF90028F9D0C2
:101D2000284600F049F9C0B232BD00001000024060
:101D300000040240B445002000380040FF20DCE7EA
:101D40000901002802D4444A11547047434A00F064
:101D50000F00104400F8041C70471FB50446684685
:101D600000F03EF901983E49B0FBF1F06043401E9F
:101D7000B0F1807F0AD23B4C60600F214FF0FF3002
:101D8000FFF7DEFF0020A0600720206000214FF059
:101D9000FF30FFF7D5FF1FBD38B505462800324C90
:101DA0000FD100F026F8002200F027F800220221CF
:101DB00000F024F800F025F840F02000208000F02A
:101DC00019F8022D18BF012D12D100F012F80122CE
:101DD00000F013F80122022100F010F800F011F8D1
:101DE00040F0100020802046BDE8344000F0DAB812
:101DF00031BD0021204600F0D5B80121204600F079
:101E0000DFB820884FF6C771084020800121208864
:101E1000704730B5ADF5197D04460EA50022294660
:101E20000BA8FFF7ACF801220FF2400101A8FFF761
:101E3000CDF86B46C822214601A8FFF706FA01A893
:101E4000FFF716FB002229460020FFF798F80DF552
:101E5000197D30BD0000000000E400E018ED00E056
:101E600040420F0010E000E00038004066736D2E25
:101E70006A736F00F0B5002201230C6893401C4088
:101E80009C4222D154000325A54006680F79ED43FA
:101E90002E40A7403E4306600E79012E18BF022E49
:101EA0000CD186684F792E40A7403E4386608688D5
:101EB00026EA03038E79964033438380C3682B4020
:101EC000CD7905FA04F42343C360521C102AD3D3FE
:101ED000F0BD0183704741837047828A51408182FF
:101EE000704710B5CB0800EB8300890001F01C019E
:101EF000036A0F248C40A343036202FA01F1036AD0
:101F00001943016210BD000080B5154988420BD10C
:101F100001214FF4805000F0C4F8BDE804400021D6
:101F20004FF4805000F0BDB80E49884208D101211D
:101F30004FF4804000F0BEF800214FF480400AE0EA
:101F4000094988420BD101214FF4004000F0B2F85A
:101F500000214FF40040BDE8044000F0ABB801BDE3
:101F60000030014000380040003C004002880B88EF
:101F700002F441521A434B881A438B881A43CB8888
:101F80001A430B891A434B891A438B891A43CB890D
:101F90001A4302804FF2FF73828B1A408283098AB0
:101FA000018270470029018812BF41F040014FF6BD
:101FB000BF721140018070478089704781817047EE
:101FC000002A828814BF114322EA010181807047F0
:101FD00000890022084218BF012210467047000005
:101FE000F0B53949394B4E68394C3A4A012516F05B
:101FF0000C0619D0042E04D0082E1DD00C2E02D0B1
:1020000012E0234618E04D684E68C5F38345C6F3D9
:102010008156555D4F68761CFF0354BF04FB05F3E2
:102020006B43B3FBF6F307E00B685B0B03F00703AE
:102030005B1C05FA03F3DB0303604B680468C3F31E
:10204000031313441B7BDC4044604B684468C3F3B8
:10205000022313441B7BDC40846049684368C1F35E
:10206000C2211144097BCB40C360F0BD1A4A00294C
:10207000116814BF084321EA000010607047174A36
:102080000029116814BF084321EA0000106070475E
:10209000134A0029116814BF084321EA00001060A8
:1020A0007047104A0029116814BF084321EA000054
:1020B000106070470C4A0029116814BF084321EAD8
:1020C00000001060704700000438024000127A00DF
:1020D0000024F400280300201C380240203802406D
:1020E00024380240143802401838024030B583B01A
:1020F00000F0B6F800208DF8040001208DF80700EC
:10210000022000906946B74CB74D2046FFF7B2FE5B
:1021100000F0A6F800208DF804008DF8070069464D
:10212000012000F095F800F09FF800F0A1F84FF4BE
:10213000005000F091F800F097F800F099F84FF493
:10214000004000F089F800F08FF800F091F84FF4AB
:10215000804000F081F800F083F800F097F820202C
:1021600000F076F800F080F800F090F84FF480501E
:1021700000F072F800F078F800F088F84FF4006092
:1021800000F06AF800F070F801208DF804000020DB
:10219000ADF8060003208DF805004FF48060009034
:1021A00069462846FFF766FE00F05AF8022000F064
:1021B0006EF8042000F04CF800F052F8022000F015
:1021C00066F8082000F044F805220D212846FFF7A4
:1021D00088FE05220F212846FFF783FE05220E21E7
:1021E0002846FFF77EFE072202212046FFF779FEF0
:1021F000072203212046FFF774FE4FF400512846C2
:10220000FFF769FE4FF400412846FFF762FE4FF4E6
:1022100080412846FFF75DFE4FF480512846FFF7C6
:1022200058FE20212046FFF754FE4FF480612846D7
:10223000FFF751FE4FF400612846FFF74CFE0421E2
:102240002046FFF746FE08212046FFF742FE37BD35
:1022500000902046FFF70EBE00902846FFF70ABE0A
:1022600001210120FFF702BF01210220FFF7FEBE7E
:1022700002208DF80400694600208DF80600032036
:102280008DF8050000208DF80700704701208DF8BB
:10229000040069460020ADF8060003208DF8050013
:1022A000704710B586B001214FF48040FFF7F0FE73
:1022B0004E4C2046FFF728FE0020ADF8000069468E
:1022C0004FF48270ADF8020000200190ADF80800D4
:1022D0004FF40070ADF80A002020ADF80C0000208B
:1022E000ADF80E000720ADF810002046FFF73EFEC7
:1022F00001212046FFF756FE06B010BD1FB5012193
:102300004FF40030FFF7C4FE4FF46130009000201E
:102310000190ADF80800ADF80C000C20ADF80A00F3
:102320006946334C204600F0D7F801228021204630
:1023300000F02AF901224021204600F025F9012170
:10234000204600F017F91FBD70B58CB001214FF089
:102350008070FFF78BFE274D274E00F065F8274869
:1023600001904FF40054002002900096302003901A
:102370000994002004906946802005900020069072
:1023800007902020089000200A90284600F051F97C
:1023900000F04DF81A4D00F047F81A4800F03EF8EA
:1023A000302000F049F800F042F8174D174E00F0C9
:1023B0003BF81748019000960020029009940220F3
:1023C00000F03AF800F033F8124D00F02DF8124802
:1023D00000F024F8192000F02FF800F028F80CB0D5
:1023E00070BD0000000002400004024000380040C0
:1023F00000440040446002400C380040D4440020B7
:1024000058600240744400206C6002400444004064
:10241000CA45002080600240884500200190009657
:102420001020029009947047284600F0B5B80122A8
:102430000221284600F022B903906946002004904A
:102440008020059000200690079020200890002012
:102450000A90284600F0EDB880B50E2000F010F884
:102460000F2000F00DF8102000F00AF8112000F005
:1024700007F8072000F004F8062000F001F801BD7D
:102480008DF8000001208DF80300684600F020B9A7
:10249000704700B583B001210120FFF7F0FD012155
:1024A000002000F049F9022000F008F80021002087
:1024B00000F042F9012000F001F807BD0090002073
:1024C0008DF8040010208DF8050001208DF806001D
:1024D000684600F045B9000030B5044685B00D46A9
:1024E000208A4CF6FF710840E988084320824EF6A6
:1024F000F311A0890840A9880843298908436989FC
:102500000843A0814FF6FF41A08A0840A9890843EB
:10251000A0826846FFF764FD1548296884420CBF15
:102520000398029819225043A28912044CBF490013
:102530008900B0FBF1F16420B1FBF0F00001020969
:10254000642303FB1211A289120406D5C90032319B
:10255000B1FBF3F101F0070105E009013231B1FBF4
:10256000F3F101F00F010843208105B030BD0000F8
:10257000003801400029818912BF41F400514DF615
:10258000FF72114081817047002A828A14BF114373
:1025900022EA01018182704701684FF6FE72114004
:1025A00001600021016041608160C1603A4A3B499D
:1025B00090421DD03A4A904221D03A4A904225D0CA
:1025C000394A904229D0394A90422DD0384A904217
:1025D00003D1086840F4700029E0364A904203D1E4
:1025E000086840F0706022E0334A3449904203D1D9
:1025F000086840F00F001AE0314A904203D10868A1
:1026000040F0F00013E02F4A904203D1086840F4F4
:1026100070600CE02C4A904203D1086840F470408E
:1026200005E02A4A904203D1086840F4702008600F
:10263000704702688B686FF30E121A430B6A1A43D5
:102640000B691A434B691A438B691A43CB691A43C6
:102650004B6A1A438B6A1A430260CA6842600A686E
:1026600082604968C16070470029016812BF41F06B
:1026700001014FF6FE72114001607047002A0268A6
:1026800014BF114322EA010101607047C10054BF29
:1026900002490A490860704708600240046002402D
:1026A0001C600240306002404460024058600240BA
:1026B0006C60024080600240086402400464024092
:1026C0001C6402403064024044640240586402408A
:1026D00070B50378C4781A460121E4B1124B1B6827
:1026E000447803F4E063C3F5E0631B0AC3F1040517
:1026F000AC4085780F26DE4006EA050323430B4CE9
:102700001B01A354007800F01F029140084A4009C1
:1027100042F8201070BD03F01F0001FA00F00549D7
:10272000520941F8220070BD0CED00E000E400E029
:1027300000E100E080E100E030B5084B8A0021F0C4
:10274000030102F00C025C580F259540AC435C502D
:1027500090405C582043585030BD000008000140B4
:1027600030B501688279CB431C492AB30A46146804
:102770002340136053680468A34353600379CC1863
:10278000236805682B43236093680468A343936020
:10279000D3680468A343D36043790568102B07D13D
:1027A000916829439160D16800680843D06030BDCA
:1027B000CC182068284303E000790C1820681840E2
:1027C000206030BD064A12680021024218BF012174
:1027D0000846704700BF0249086070470004014086
:1027E00014040140E8480FF2290101600FF2590179
:1027F00081600FF22931C1600FF2613141610FF246
:10280000F9210161704716200870022050E1000094
:102810002DE9FE4304460D46DFF87083DC4FDD4EA4
:10282000DFF874934B46324639464046FFF7EBFFDC
:102830000120029001952078B9F800303978009095
:102840004046327886E1000010B586B00446042088
:10285000ADF80000D1480390D1480290D1480190D2
:10286000D148049003A8217800F038FA217802A812
:1028700000F044FA217801A800F046FA217804A873
:1028800000F048FA20780A2190FBF1F0C0B24843EA
:10289000C0B214284ED0282806D0462800F0C680A2
:1028A000502800F08480E7E000F0E9F8039900F098
:1028B000E5F80399488000F0E2F80399888000F079
:1028C000DEF80399C88000F0DAF80399088100F077
:1028D000D6F80399488100F0D2F80399888100F076
:1028E000CEF80399C88100F0CAF80399088200F075
:1028F0005FF90399496A086000F05AF9039941F8B1
:10290000200FBDF80000205C0873BDF8000000F047
:10291000C6F84873BDF8000000F0C1F88873BDF830
:10292000000000F0BCF80874BDF8000000F0B7F833
:102930004874A1E000F0A3F8029900F09FF8029912
:10294000488000F09CF80299888000F098F802997D
:10295000C88000F094F80299088100F090F802997C
:102960004881BDF800000299205CC87700F08BF820
:102970000299888100F083F80299C88100F07FF8FD
:102980000299088200F07BF80299488200F077F8FB
:102990000299888200F073F80299C88200F06FF8FB
:1029A0000299088300F06BF80299488364E000F014
:1029B00066F8019900F062F80199488000F05FF82C
:1029C0000199888000F05BF80199C88000F057F801
:1029D0000199088100F053F80199488100F04FF8FF
:1029E0000199888100F04BF80199C88100F047F8FF
:1029F00001990882BDF800000199205C4883BDF868
:102A00000000019900F04BF8888300F03CF8019930
:102A1000488200F034F80199888200F030F801997A
:102A2000C88200F02CF80199088325E0BDF8000069
:102A30000499205C81F86C0000F02EF881F86D009C
:102A400000F02AF881F86E0000F026F881F86F0097
:102A500000F022F881F8700000F01EF881F8710093
:102A600000F01AF881F8720000F016F881F873008F
:102A700000F012F881F8740006B010BD08806946B5
:102A8000204600F06FB96946BDF80000401CADF863
:102A90000000204600F066B9BDF800000499401C13
:102AA000ADF80000BDF80000205C70470870012000
:102AB000107000201880704710B582B01C460023AB
:102AC000ADF8003017230B70022111706A46BDF873
:102AD0000010049B4354BDF80010491CADF80010D1
:102AE0000146324800EB8300006900F045F9BDF86B
:102AF0000000208013BD000010B582B00421ADF8A5
:102B0000001005210479ADF80010694600F047F97E
:102B1000264901EB8401086113BD00002DE9FE4345
:102B20000446002000908946DFF86080184D194E59
:102B3000194F3B46324629464046FFF7BDFF01206C
:102B40000290CDF8049020783B8832782978009064
:102B50004FEA080000F091F8BDE8F78338B5044665
:102B60000420ADF8000069462046104D00F017F92A
:102B7000286000F01DF8686000F01AF8A86000F006
:102B800017F8E86031BD0000003E00200445002039
:102B9000CC450020CD450020C8450020482300201A
:102BA000600200207C430020EC42002048450020C9
:102BB0006946204600F0F3B880B500200FF24101CD
:102BC0000C23564A4343401CD1501A447F2851607D
:102BD0009160F5DB00F0F4F800F06AF900F010FA0B
:102BE00000F09AFA00F0EFFAFFF7FCFD00F0FCFAB3
:102BF00000F026FB00F0B4FBBDE8014000F0F4BBA0
:102C000070472DE9F0411F46212F80460D4616469C
:102C100028BF202700F00CFC079C069904232246BD
:102C200000F00CFC0120A0706800012E0BD140F0D8
:102C30000100E0703A464146201D00F00BFC381DB3
:102C400080B2BDE8F081022EF3D04FF4806000F036
:102C50007DF80020F5E710B58CB002AC01940E9C15
:102C60000094FFF7CEFFC2B2119902A800F02EFC2B
:102C70001099302008800CB010BDF0B585B00D461D
:102C80000021ADF8101004A9029114460A990B9F77
:102C9000234E0091039601972946FFF7DCFF397810
:102CA00020484FF4D4725143084400F1D407BDF8D2
:102CB00010203146F81D00F0CDFB6800012C08BF44
:102CC00040F0010078710C980028384602D100F0DD
:102CD000ADFB01E000F0ABFB05B0F0BD292904D04D
:102CE00009D32B2905D002D305E00F4904E00F4991
:102CF00002E00F4900E00F490160704715290CBF41
:102D00000D490E490160704751290CBF0C490D490E
:102D1000016070470C49016070470000F83C0020DA
:102D2000A44400200833002030270020182B002066
:102D3000002F002048230020C00200206002002055
:102D4000C04300207C430020EC420020704710B5B7
:102D50001488030A0B551388194448701088801C86
:102D6000108010BD0A88835C1044921C40780A8051
:102D700000EB032080B2704710B51488030E0B558A
:102D8000030C14880C446370030A14880C44A37069
:102D900013881944C8701088001D108010BD10B52C
:102DA0000A881044121D44780378240404EB03635A
:102DB0008478C0780A8003EB0423C01810BD00009B
:102DC00034480FF2250101600FF2190141600FF242
:102DD0001D0181600FF25D0181640FF295010165B3
:102DE00070470000704700007047000038B5047954
:102DF0000178294D2846FFF771FF286880F82F4099
:102E000031BD10B543240C70022111702349CA79D9
:102E100002700A7A42704A7A82708A7AC270CA7ADA
:102E200002710A7B42714A7B8271897BC1710820E1
:102E3000188010BD2DE9FE4304460D46DFF8608082
:102E4000184F194EDFF864904B46324639464046DB
:102E5000FFF7D7FF0120029001952078B9F80030E4
:102E60003978009040463278FFF707FFBDE8F783D6
:102E70000A490279CA7142790A7282794A72C27920
:102E80008A72027ACA72427A0A73827A4A73C07A62
:102E900088737047D43F0020380000202845002068
:102EA00004450020CC450020CD450020C845002029
:102EB0004D480FF24D0101600FF2410141600FF2E8
:102EC000450181600FF29101C1630FF27D01016440
:102ED0000FF2890141640FF2C10141650FF29D01BA
:102EE00081650FF2B901C1650FF2410181640FF2F2
:102EF0002D01C1640FF23901016570477047000070
:102F00007047000038B504790178384D2846FFF73E
:102F1000E5FE286880F8384031BD000010B582B069
:102F200004460420ADF8000030E0000070470000C7
:102F300070B582B000F05CF8054600F05DF800F076
:102F400017F83068056273BD80B50421ADF8001034
:102F50006946FFF724FF01BD7047000070B582B0DD
:102F600000F046F8054600F003F83068C56373BD0D
:102F70001E4E21783046FFF7B1BE000010B582B07A
:102F800000F036F800F038F800F036F800F034F8C9
:102F900000F032F813BD0000704700002DE9F04743
:102FA00082B000F025F8054600F026F8064600F04D
:102FB00023F8074600F020F8804600F01DF881460F
:102FC000DFF828A021785046FFF788FEDAF80000E5
:102FD0004FF41771455008448660C760C0F81080F0
:102FE000C0F81490BDE8F387B840002030000020FE
:102FF00004460420ADF8000069462046FFF7CFBE26
:1030000034480FF23D0101600FF2310141600FF2CF
:10301000350181600FF27901C1600FF24D0101614C
:103020000FF2710141610FF2C90181610FF2BD011F
:10303000C1610FF2C10101627047000010B515E0D7
:10304000704700002DE9F04182B000F047F80546D6
:1030500000F048F8064600F045F800F033F8D8F8DC
:1030600000004FF4A47127E02DE9104082B004461F
:103070000420ADF8000069462046FFF773FE69465C
:103080002046FFF76FFE69462046FFF76BFE13BD33
:10309000704700002DE9F04182B000F01FF80546AE
:1030A00000F020F84FEA000600F01CF800F00AF8E3
:1030B000D8F800004FF414710844058046808780DA
:1030C000BDE8F3810746DFF8108021784046FFF71E
:1030D00005BE0000D040002034000020044604203B
:1030E000ADF8000069462046FFF73CBE10B5BDE7CD
:1030F000704700002DE9F04182B0FFF7EFFF054671
:10310000FFF7F0FF0646FFF7EDFFFFF7DBFFD8F80C
:1031100000004FF42471CFE723480FF2250101602E
:103120000FF20D0141600FF21D0181607047000038
:1031300080B50521ADF800106946FFF730FE01BDEE
:103140007047000038B505460520ADF8000000F0D6
:1031500033F869462846154CFFF721FE606000F001
:103160002BF8A06000F028F8E06000F021F800B231
:10317000206100F01DF8608300F01AF8208300F051
:103180001BF8E06100F018F82062608B400B2070A3
:10319000608B000B00F00100A075B4F91A00C0F3B9
:1031A0000B00A08231BD000030410020044400200B
:1031B00069462846FFF7D6BD69462846FFF7EFBDAA
:1031C00070477047704704480449016004494160F2
:1031D000044981607047000048410020C331000865
:1031E000C1310008C53100080D480FF22901016006
:1031F0000FF21D0141600FF2210181600FF23901D0
:1032000081610FF22501C1610FF231010162704746
:10321000704700007047000000790249C877704786
:10322000E43E00206002002080B50421ADF80010CB
:103230006946FFF7B4FD01BD70470000704700000C
:1032400041480FF2410181610FF2A1010162704713
:1032500038B51C4602230B701370049A3B4D027064
:103260000599417069788170032142B16A784FF401
:10327000FA712944C01C00F0EDF86878C11C218067
:1032800031BD00002DE9FE4F0446304B26796779A9
:10329000A079DFF8BC80DFF8BC90DFF8BCA0DFF8D5
:1032A000BCB058703128A8BF302058700D465A78ED
:1032B0004FF4FA70E11D184400F0CCF80197009625
:1032C0005B46524649464046FFF7C2FF0120029046
:1032D00001952078BBF800309AF8002099F800108A
:1032E00000904046FFF7C9FCBDE8F78F2DE9F0419B
:1032F00084794179154DAA78E970561A4FF4FA711C
:1033000005EB0108C11D2E712246404600F0A2F8CF
:103310002969F6B24F1C0A2E12DA2978B14238BF59
:103320000A31881B30214843284400F11401224609
:10333000404600F019F918B9E868401CE86000E060
:103340002F61BDE8F0810000F83C00203C00002027
:1033500004450020CC450020CD450020C845002074
:103360001B480FF22D0101600FF2790141600FF24D
:103370001D018160704710B55B240C700221117033
:10338000029901700120188010BD000070470000F4
:103390002DE9FE430446002000908946DFF8348082
:1033A0000D4D0E4E0E4F3B46324629464046FFF726
:1033B000E2FF01200290CDF8049020783B8832781B
:1033C000297800904046FFF758FCBDE8F7830000DD
:1033D0003C41002004450020CC450020CD45002084
:1033E000C8450020704700000848094901600949A4
:1033F00081600949C160094901610949416109497F
:1034000041620949C16200F057BA00BFA8410020DB
:10341000614900089F490008CD400008DD420008CE
:103420004F410008F94200083743000870477047D1
:1034300001480078704700004403002070B504463E
:103440000D4616461946304600F05AFA347075702B
:1034500070BD000062B38B0708D0521E11F8013B0B
:1034600000F8013B00F024808B07F6D1830740F081
:10347000208000BF103A07D330B4B1E83810103ABA
:10348000A0E83810F9D230BC530724BFB1E80810C7
:10349000A0E8081044BF51F8043B40F8043BD207B1
:1034A00024BF31F8022B20F8022B44BF0B780370A5
:1034B0007047083A07D3B1E80810083A40F8043BCF
:1034C00040F804CBF7D25307E4E700002DE9F041C0
:1034D00005460C469046AA223021204600F014FAF8
:1034E00000260027022002E02254401C761C46459C
:1034F0000DD2AA5DED2A1CBFEE2AE92AF4D1E922F9
:1035000022542318AA5D5A707F1C401CEDE7154D0C
:1035100085F8018007EB0800EF70A870A979491CB5
:103520003028A97106D33021204600F0E9F90020A7
:10353000687114E00021002604E0A219761C92783C
:103540005118C9B28642F8D32971ED2222706070F9
:103550002218C01C9170EE21D1706871C0B2BDE814
:10356000F0810000AC4500200300002013F0030FA1
:1035700009D0521E22BF13F8010B11F801CBB0EB9A
:103580000C00F3D07047121F22BF53F8040B51F800
:1035900004CB6045F7D0121D0AD200BA9CFA8CFC0D
:1035A000B0EB0C0038BF6FF0000088BF01207047FF
:1035B000521E22BF13F8010B11F801CBB0EB0C0027
:1035C000F6D0521C08BF10467047000038B50C46B4
:1035D00018B100F04DFA054606E0204600F08EFADC
:1035E0000546214600F08CF9284632BDF8B5B54CA9
:1035F0000278A260465C491C89B2455C207986420B
:1036000043D0A06958B1002706E0A06950F8270010
:1036100008B100F0CBFA7F1C20798742F5DB2069E6
:103620003146FFF7D3FF206131466069FFF7CEFFD7
:103630006061B100A069FFF7C9FFA061002100220D
:1036400002E040F82120491CB142FADB206A3146F1
:10365000FFF7BCFF20623146E069FFF7B7FFE0618A
:1036600020790246B24210DA311A2069104400F083
:1036700047F92079626900F01BF82079226A00F08E
:1036800017F82079E26900F013F8E06A26718542A4
:1036900008D0E0682946FFF799FFE060294600F06E
:1036A0002FF9E5620220A0624FF0FF306062F1BDA9
:1036B000311A104400F024B92DE9F0410446814D3F
:1036C00020780F46A968884208D1E65D28797F1CDA
:1036D000864203DA686A401C864202D04FF0FF300F
:1036E0002BE06862BFB2791CE05D072889B2BCBFDD
:1036F0002A699055686914F801804F1C815D8845DE
:1037000003D1A96951F8261051B900F80680414645
:10371000A86950F82600FFF759FFA96941F826006B
:10372000002007E0A96951F82610BFB2E25D0A54F3
:103730007F1C401C4045F5DB0020BDE8F081614A5C
:10374000136903B970472DE9F047D368002B3ED0C9
:10375000435C0FF28C1A0024491CA046A1460AE0E3
:10376000D6680EEB04070EF1010EF555E645F7DBC2
:10377000644409F101091579A94526DA156915F896
:1037800009E0BEF1080F4FF0010C04DA5AF82E5090
:10379000012DA8BFAC46156A15F809E0BEF1000F6F
:1037A00011D04FF0000EE645B8BF9845E0DA89B277
:1037B000D668455C0EEB0407491CF55508F1010875
:1037C0000EF1010EEFE70025D0E701209070BDE873
:1037D000F08710B57E240C700121117002990A0047
:1037E00004D0017003994170022002E000210170B1
:1037F0000120188010BD2DE9F04383B00179314CD0
:10380000012948D1A16A304D304EDFF8C490DFF86D
:10381000C480012912D10521FFF7E8FE4FF0FF30E7
:1038200060624346002001904A46012000903146E4
:103830002846FFF7CEFF0220A0621EE0022939D100
:10384000676A0521FFF738FF606A2279874206BF61
:103850006179491C00216171521E61799042B8BFA3
:103860000A290DDA401CC0B20190434601200090A5
:103870004A4631462846FFF7ACFF0120607019E048
:10388000002060700120E0700020A0620A29B8BF0B
:10389000012020700EE0022907D12279216A401D03
:1038A00000F0C4F930B9E07004E003B0BDE8F043C3
:1038B000052144E7BDE8F78307490848C1F8F0054A
:1038C000704700000000002004450020CC45002087
:1038D000CD450020C8450020F83C0020F7370008FF
:1038E00004000000040000000200000002000000CC
:1038F0000100000001000000FFFFFFFFFFFFFFFFCE
:10390000002200F005B8000062F30F2262F31F42AC
:10391000401810F0030308D0C91A1FD3DB0748BFB3
:1039200000F8012D28BF20F8022D130030B41446F2
:103930001546103928BF20E93C00FAD8490728BFAE
:1039400020E90C0048BF40F8042D890028BF20F86A
:10395000022D48BF00F8012D30BC7047C91818BFB0
:1039600000F8012DCB0728BF00F8012D704700009B
:1039700010B5044654F8080CA0F108028A4209D395
:103980006218401A42F8080D44F8081C02F10800B9
:1039900000F00CF9204610BDF8B51446334A5368C0
:1039A000002B61D00E68151D8B1901E00CF1040588
:1039B000D5F800C0DCF804E0BEF1000F01D08E4560
:1039C000F4D36746BB420DD14FF0000CC2F800C0E3
:1039D000D7F800C066440E60A6427F682F6017D3F8
:1039E000214632E0734513D14FF0000CC2F800C0FD
:1039F000D7F804C0DCF800C066440E60A642D7F8D1
:103A000004C0DCF804C0C7F804C028BF21461CD29B
:103A10002F68EFB13E6807EB060C8C4518D1D1F842
:103A200000C06644A64213D37E68002313603A6840
:103A3000624447F8082B0968A1F10802014638469C
:103A400000F022F92E6021463846BDE8F4408FE7A9
:103A50000C680819834207D0581A221A1A600860A5
:103A600003F1080000F0A2F80020F2BDBC450020E0
:103A700070B504000D4604D12846BDE8704000F042
:103A80003DB815B900F092F829E005F10F00C6081D
:103A9000F600B54223D2082E54F8080C38BF082689
:103AA00008281CD310F0070F19D1B04204D33146B7
:103AB0002046BDE870405BE7AFF300803246A4F1DA
:103AC00008012046FFF768FF0646AFF300800EB1FD
:103AD000304670BD284600F011F8050001D10020E5
:103AE00070BD54F8080CA0F1080221462846FFF7E3
:103AF000B1FC204600F05AF8284670BD70B5054666
:103B000005F10F00C408AFF30080E400A54232D2F3
:103B1000082C04D2082402E0083000F047F82248BC
:103B2000026811000CD1011D0A6802B31368A34298
:103B300038BF111DF8D310E01D68A5420DD2191D24
:103B40000B68002BF8D11268011D00E0191D0B68ED
:103B500093420CD01D68A542F8D361B10D682A6864
:103B6000A2F10803A3420AD26A680A600FE000F0DB
:103B7000C7F80028D0D1AFF30080002070BD2B190A
:103B80000B60121B6E685E600B681A602C6009681F
:103B900000291DBF4A68002A091D00210160AFF3FA
:103BA000008005F1080070BDBC45002000B97047D9
:103BB00038B5A0F108042068082833D310F0070FA7
:103BC00030D1AFF300801848416809B18C4203D26C
:103BD0006160446017E019464B680BB1A342FAD309
:103BE0000B68CD18AC421BD3A54204D12268D21871
:103BF0000A600C4607E04A681AB1236823449A42D7
:103C00000ED362604C60616851B12268A3188B4288
:103C100006D100230360086880182060486860604F
:103C2000AFF3008031BD0000BC450020F0B5037843
:103C30000124934202D04FF0FF30F0BD9A0803EB0D
:103C40005272D208B3EBC20518BF0125AA18D2B22E
:103C500000250DE027FA0CFE0EF0010E01F806E03B
:103C60000CF1010C761CB6EBC50FB8BF9E42F1DB20
:103C7000954206DA075DEE00641C4FF0000C6D1CE7
:103C8000F1E70020F0BD000081423ABF531898428E
:103C9000FFF7E0BB8018990707D0521E24BF13F826
:103CA000011D00F8011DF6D8704781071CD1103A9C
:103CB00007D330B433E93210103A20E93210F9D288
:103CC00030BC1032121F24BF53F8041D40F8041DED
:103CD000F8D838BF121D521E24BF13F8011D00F87A
:103CE000011DF8D8704700BF083A07D333E9021026
:103CF000083A40F804CD40F8041DF7D20832EAE74C
:103D00000749086808B1002070470648C008C0008D
:103D100008600549C908C900091A0160704700BF59
:103D2000C44500204F1300204823002043689342DD
:103D300001D3002070475A1C426001EB03104FF082
:103D4000FF31816041600021C160704701704260B5
:103D500000218360C1607047F8B50446256801E022
:103D6000401C20602068904216D20E5C370018BFBD
:103D7000092E18BF0A2E0FD00D2E18BF202E0BD0E3
:103D80002C2E18BF3A2E07D05D2E18BF7D2E03D0E3
:103D9000203E5F2EE4D369E04BB100F063F800B938
:103DA00068E023682A460421FFF7D0FF2068401E00
:103DB00020600020F2BDF8B504462568681C3FE08D
:103DC00000F050F800B955E023686A1C0321FFF7A2
:103DD000BDFF40E05C2831D1701C90422ED22060A3
:103DE0000E5C222E18BF2F2E28D05C2E18BF622EFC
:103DF00024D0662E18BF6E2E20D0722E18BF742EBF
:103E00001CD0752E29D1401C2060042026689642C3
:103E100011D28F5D7FB1A7F1300CBCF10A0F21BF29
:103E2000A7F1410CBCF1060F613F062F15D2761C9D
:103E3000401E2660EAD12068401E20602068401C99
:103E400020602668964209D2885D070006D02228A5
:103E5000C0D1002BB4D10020F2BD07E025606FF087
:103E60000200F2BD069A194620465FE725606FF012
:103E70000100F2BD25604FF0FF30F2BD2DE9F84F93
:103E800004460A9DD4F804A0884693461F465CE089
:103E9000002FCA4656D02A4639462046FFF746FF2D
:103EA00010B94FF0FF30B0E0A16811F1010F04D05C
:103EB00007EB0111CA68521CCA607B2E0CBF01219E
:103EC00002210170216841605FE0002F3AD07D2E11
:103ED00061680CBF01220222491E1BD407EB0113AB
:103EE0005E6816F1010FF7D09E6816F1010FF3D14D
:103EF0001E78964211D14FF0FF32A260401C9860AC
:103F000000F08BF803D0806810F1010F62D0491ED9
:103F1000F6D517E011F1010F14D16FF0010074E034
:103F200000F075F8FFF747FF00286ED4A06810F185
:103F3000010F18BF002FCA4604D007EB0010C1685C
:103F4000491CC1602068401C2060206858454AD246
:103F500018F80060002E46D0092E18BF0A2E0AF16C
:103F60000109EFD00D2E18BF202EEBD0222ED7D076
:103F70002C2E0ED03A2E08D05B2E89D05D2EA4D0E8
:103F80007B2E85D07D2EA0D026E06068401EA060EC
:103F9000D8E7002F1CBFA06810F1010FD2D000019C
:103FA000385C022818BF0128CCD06068411E00E0B0
:103FB000491E0029C6D407EB01100278022A18BF57
:103FC000012AF5D1426812F1010FF1D0806810F199
:103FD000010FEDD1A160B5E700F019F8FFF7BCFEC5
:103FE0000028A3D511E07FB16068411E00E0491EA2
:103FF000002909D400F011F8F9D0806810F1010F00
:10400000F5D16FF0020000E05046BDE8F28F009558
:104010003B465A4641462046704707EB011042682E
:1040200012F1010F70470021016041604FF0FF3134
:104030008160704738B505460020ADF800001C4689
:1040400000F02DF8BDF800100498685400F02EF828
:10405000BDF8001005986854294600F027F8069826
:10406000FEF78AFEBDF800100798685400F01DF8AE
:104070002946089880B2FEF76AFE099800F00AF80F
:104080000A9800F007F80B9800F004F8BDF800005B
:10409000208031BD6A46294680B2FEF758BE6520B1
:1040A0000870012010706A4670476A46BDF800002B
:1040B000401CADF80000704710B565240C7002215B
:1040C0001170029901700120188010BD2DE9FF4781
:1040D00004460420ADF80C0006202679DFF8D481D0
:1040E000754FDFF8D891DFF8D8A1ADF80C000D4678
:1040F00003A92046FEF753FEBDF80C00401CADF8A6
:104100000C0000F020F800F01EF800F01CF800F0A1
:104110001AF8642EA8BF643EF6B2009653464A468B
:1041200039464046FFF7C8FF0120029001952078EC
:10413000BAF8003099F80020009040463978FEF730
:104140009CFDBDE8FF8703A92046FEF70BBE38B5EE
:1041500005460420ADF8000005212879594CADF83A
:10416000001000282CD100F0B1F82168088000F080
:10417000ADF82168488000F0A9F82168888000F037
:10418000A5F82168C88000F0A1F82168088100F036
:104190009DF82168488169462846FEF700FE606068
:1041A00069462846FEF7FBFDA06000F08FF8216805
:1041B00000B2086200F08AF8216800B2486373E038
:1041C00001285DD1E168687981F86C00062000F073
:1041D00081F8A87981F86D00072000F07BF8E87974
:1041E00081F86E00082000F075F8287A81F86F00D9
:1041F000092000F06FF8687A81F870000A2000F05A
:1042000069F8A87A81F871000B2000F063F8E87A69
:1042100081F872000C2000F05DF8287B81F87300B3
:104220000D2000F057F8687B81F874000E20ADF87F
:104230000000A97B2448C1710F21ADF80010E97B73
:1042400001721021ADF80010297C41721121ADF8E6
:104250000010697C81721221ADF80010A97CC17236
:104260001321ADF80010E97C01731421ADF80010A2
:10427000297D41731521ADF80010697D817313E02C
:10428000022811D100F022F8208500F01FF8608587
:1042900000F01CF8A08500F019F8E08500F016F891
:1042A000208600F013F860862168496A606808601B
:1042B00031BD000004450020CC450020CD45002044
:1042C000C845002040440020284500206946284673
:1042D000FEF748BDADF80000E16870474FF400708C
:1042E000FEF734BD10B567240C70022111700299DD
:1042F00001700120188010BD2DE9FE430446894657
:104300002079DFF83C814F4D4F4E504F00903B4697
:10431000324629464046FFF7E5FF01200290CDF8DE
:10432000049020783B883278297800904046FEF748
:10433000A4FCBDE8F78370B582B004460020ADF858
:104340000000434E2079434D00283CD0012838D04E
:1043500005210228ADF8001032D13F486179C171C2
:104360000621ADF80010A17901720721ADF8001007
:10437000E17941720821ADF80010217A817209219A
:10438000ADF80010617AC1720A21ADF80010A17A6F
:1043900001730B21ADF80010E17A41730C21ADF8E7
:1043A0000010217B81730D2000F063F8288300F05A
:1043B00062F8688300F05FF8A88300F05CF8E88397
:1043C00073BD0C35254E052000F053F8288000F011
:1043D00052F8688000F04FF8A88000F04CF8E880B0
:1043E00000F049F8288100F046F8688169462046C7
:1043F00006F10C05FEF7B6FC288000F03CF868805A
:1044000000F039F8A88069462046FEF7C8FCA96983
:10441000086000F030F800B2686106F12C00BDF8C9
:104420000010615C017000F01BF8417000F018F89A
:10443000817000F015F8017100F012F8417173BD40
:1044400004450020CC450020CD450020C845002073
:104450004823002068450020284500203027002000
:10446000BDF80010491CADF80010BDF80010615CEB
:104470007047ADF8000069462046FEF773BC0000A7
:10448000704780B580215548FDF723FDFAE7FEE728
:10449000FEE7FEE7704770477047514901200870FA
:1044A00040F66E724F480188914214BF32310021AC
:1044B0000180704770B5ADF5067D0120FEF782F9E9
:1044C000B0B3494C454D208AC0072AD5474E052137
:1044D000304600F097F840212846FDF7FCFC307884
:1044E000022822D120212046FDF7F3FC4FF4006181
:1044F0002846FDF7F0FC54A8FDF78BFC01A8FFF758
:1045000092FD54A800F0AAF814210091024604ABD1
:1045100054A901A8FFF7B2FC0421304600F072F85C
:1045200003E040212846FDF7D4FC0120FEF752F9B4
:104530000DF5067D70BD10B50220FEF743F9B0B150
:104540002B492A4C09882548890704D58021FDF785
:10455000C2FC022103E08021FDF7BBFC03212046C1
:1045600000F050F8BDE810400120FEF733B910BD4F
:1045700080B500211F48FEF777F820211A48FDF783
:10458000A8FC4FF400611548FDF7A5FCBDE802400A
:104590004FF48050FEF77AB880B500211648FEF738
:1045A00063F8BDE802404FF48030FEF76FB880B585
:1045B00000211248FEF758F8BDE802404FF4801081
:1045C000FEF764B880B500210D48FEF74DF8BDE850
:1045D00002404FF08070FEF759B80000000402401E
:1045E00020030020220300200000024021030020BD
:1045F0001000024044600240586002406C6002407B
:104600008060024030B500220FF2240302EB420426
:10461000234404781D78AC4204BF5D78A94202D1DE
:104620009978017030BD521C0E2AEDDB30BD0000C0
:104630000100030101000302020204040405060450
:104640000605050303040303060805060707070913
:1046500008080A0909FF00000509000000F101032C
:10466000810704D010F8011B89B18107FAD10268D3
:10467000B2F10131914311F0803F04BF50F8042F93
:10468000F6E710F8011B11B110F8011BFBE7C01A87
:104690007047000010B54E4C05E000F05AF80021BC
:1046A000601CFFF7AFFF60780928FCD8DFE800F056
:1046B0003B060507050511131517F4E7EDE7454817
:1046C0000088800703D50221601CFFF79BFF0221B1
:1046D000E6E70721E4E70921E2E70A21E0E7022013
:1046E000FDF75AFB01E000F083F860780928DAD181
:1046F00020780128F9D10020207060880028F2D0AD
:10470000B0F5AF7F06D0B0F52F7F06D0B0F5FA6FC9
:1047100006D0EAE700F096F8E7E700F088F8E4E76B
:1047200000F0A5F8E1E76078002841F28831BAD1BD
:1047300020780128FCD1002020706068401C88424D
:104740006060F5DB80212448FDF7C7FB0020606036
:10475000E9E7F0B589B0FEF72FFA0020ADF82000A8
:10476000079006900590049001200390002002908D
:1047700001900090194C1A4D1A4E1B4F3B46324681
:1047800029462046FFF756FC18483B88327829789E
:10479000039008A802900020019028200090204655
:1047A000FEF759FAFDF774FE00F0B8F8FDF79EFC2D
:1047B000FDF752FEFDF76DFEFDF7C6FDFDF771FD3D
:1047C000FDF79CFD3220FDF7C8FA09B0F0BD0000EE
:1047D0002003002010000240000402400445002095
:1047E000CC450020CD450020C84500207444002061
:1047F00010B53A4C02E02046FDF7DEFB01212046D1
:10480000FDF7E6FB0128F6D020213548FDF763FBD4
:104810004FF400613348FDF75CFB01213248FDF79E
:1048200023FFBDE8104001213048FDF71DBF80B5D2
:1048300001212F48FDF718FFBDE8044001212D4854
:10484000FDF712BF2C4810B541782C4C1D2904D11E
:10485000811D17222046FEF7FDFDE07D010008BF07
:10486000012002D0012801D10020E07510BD2448AC
:10487000F0B50278234C244D244E254F0021D00959
:1048800018BF0121C2F38010002889B014BF21484D
:104890004FF448700022ADF820200792069205924E
:1048A00004920290012200200392019100903B4665
:1048B000324629462046FFF7BDFB17483B88327831
:1048C0002978039008A802900020019028200090E9
:1048D0002046FEF7C0F909B0F0BD000000380040E6
:1048E0000000024000040240446002405860024060
:1048F0006C60024080600240D44400208845002063
:10490000CA45002004450020CC450020CD450020AC
:10491000C8450020E0FCFFFF7444002000B583B0D0
:1049200001210220FDF7A2FB01208DF80400694659
:104930000020ADF8060003208DF80500C02000908F
:104940000148FDF797FA07BD0004024010B5642442
:104950000C7002211170029901700120188010BDA5
:104960002DE9FE43044689462079DFF8BC802F4DAF
:104970002F4E304F00903B46324629464046FFF7C7
:10498000E5FF01200290CDF8049020783B88327832
:10499000297800904046FEF770F9BDE8F78338B5F6
:1049A00004460020ADF80000234D207900B1234DCE
:1049B0000520ADF8000000F04CF8288000F049F820
:1049C000688000F046F8A88000F043F8E88000F026
:1049D00040F8288100F03DF8688100F03AF8A8819D
:1049E00000F037F8E88100F034F828826946204664
:1049F000FEF7D5F9696A086000F02BF800B228626A
:104A000005F12C00BDF80010615C017000F018F891
:104A1000417000F015F8817000F012F8017100F09B
:104A20000FF8417131BD000004450020CC45002045
:104A3000CD450020C8450020482300203027002015
:104A4000BDF80010491CADF80010BDF80010615C05
:104A5000704769462046FEF785B900003848394A54
:104A600082B0016841F48071016081681140816009
:104A7000354A016811400160016821F4802101601C
:104A8000816821F47D0181600021C1600191009164
:104A9000016841F001010160016801F0020100912B
:104AA000009919B90199B1F5A04FF5D101684908EC
:104AB00001F001010091009901293BD123490A68C5
:104AC000520852000A600A6822F002020A600A686C
:104AD00022F004020A604FF40062416A41F0805102
:104AE00041621B490A604A68D206FCD4816841F0E1
:104AF000800181608168816081688160816821F4C2
:104B00007D018160816841F480018160016841F02C
:104B10008071016001688901FCD58168890889007C
:104B20008160816841F003018160816801F00C01BE
:104B30000C29FAD14FF000600649086002B07047B6
:104B4000003802400CC0FF88FEFFFEEE003C024031
:104B50000070004008ED00E019E050F8041BCB079E
:104B600044BFA9F101035918121F0023042A41F878
:104B7000043BF9D25FEA827C0B4604D54FF0000C6F
:104B8000A1F800C09B1CD10744BF0021197050F848
:104B9000042B002AE1D1704730B50168426884686F
:104BA000014401EB5203D20748BF4C44994201D162
:104BB0000C3030BD11F9012B11F8015B002A04F80B
:104BC000015B02D5521CF9D1F0E7521EF4D5EDE796
:104BD00010B5074979441831064C7C44163404E07A
:104BE0000A68081D114488470146A142F8D110BD4A
:104BF000080000002400000061FFFFFF8822000081
:104C0000482300200000000091FFFFFF2C0100005E
:104C1000A20000000000002000F00BF8002801D0E6
:104C2000FFF7D6FF0020AFF30080FFF733FD00F061
:104C300002F80120704700F001B80000074638462E
:104C400000F002F8FBE7000080B5AFF30080024AF5
:104C500011001820ABBEFBE7260002000148804788
:104C6000014800475D4A00086D4C0008AFF3008022
:104C7000AFF30080FFF7D0FFFFF7FEBFFFF7FEBFE7
:104C8000FFF7FEBFFFF7FEBFFFF7FEBFFFF7FEBF58
:104C9000FFF7FEBFFFF7FEBFFFF7FEBFFFF7FEBF48
:104CA000FFF7FEBFFFF7FEBFFFF7FEBFFFF7FEBF38
:104CB000FFF7FEBFFFF7FEBFFFF7FEBFFFF7FEBF28
:104CC000FFF7FEBFFFF7FEBFFFF7FEBFFFF7FEBF18
:104CD000FFF7FEBFFFF7FEBFFFF7FEBFFFF7FEBF08
:104CE000FFF7FEBFFFF7FEBFFFF7FEBFFFF7FEBFF8
:104CF000FFF7FEBFFFF7FEBFFFF7FEBFFFF7FEBFE8
:104D0000FFF7FEBFFFF7FEBFFFF7FEBFFFF7FEBFD7
:104D1000FFF7FEBFFFF7FEBFFFF7FEBFFFF7FEBFC7
:104D2000FFF7FEBFFFF7FEBFFFF7FEBFFFF7FEBFB7
:104D3000FFF7FEBFFFF7FEBFF800FCFFE800FCFF37
:104D4000FC00FCFF0C4823002048230020482300DF
:104D500020FF8100810081008100B500032845000B
:104D600020A4000328450020C7000001FA00080322
:104D70000406080C10182030F9000D01020304018C
:094D8000020304060708090A01F8
:0400000508004C6D36
:00000001FF
