:020000040800F2
:1000000028300020BD470008C1400008C340000858
:10001000CF400008D1400008D34000080000000095
:10002000000000000000000000000000D5400008B3
:10003000D740000800000000D9400008DB4000085D
:100040000148000805480008094800080D48000854
:100050001148000815480008014100085D410008EA
:10006000194800081D4800082148000825480008D4
:10007000294800082D4800089B410008C14100089C
:10008000D5410008E941000831480008354800081A
:10009000394800083D480008414800084548000824
:1000A000494800084D4800085148000855480008D4
:1000B000594800085D480008614800086548000884
:1000C000694800086D480008714800087548000834
:1000D000794800087D4800088148000885480008E4
:1000E000894800088D480008914800089548000894
:1000F00099480008000000009D480008A148000839
:100100000000000000000000A5480008A948000801
:10011000AD480008B1480008B5480008B9480008D3
:10012000BD4800084178007850EA0121080080B2FB
:100130007047C178827852EA0121427852EA01215F
:10014000007850EA0121080070470170401C89B214
:10015000090A0170401C70470170401C090A0170B7
:10016000401C090A0170401C090A0170401C7047BC
:10017000002A06D00B780370491C401C521E002A2E
:10018000F8D170470170401C521E002AFAD1704706
:1001900010B4002303780C781B1B491C401C521E12
:1001A000002A01D0002BF5D0180010BC704700E0E9
:1001B000401C0278002A02D002788A42F8D10078E6
:1001C0007047C0B2002801D0002000E00020704736
:1001D000C0B2002801D0002000E00020704738B5F0
:1001E00004000025E07800281ED00123226B14F1C2
:1001F0003401607801F04BFC002814D10020E0703D
:10020000206B616A401AE16988420DD2A078022809
:100210000AD10123206BE1690A1814F134016078D6
:1002200001F035FC00E001252800C0B232BD70B5F8
:1002300004000D000026206B854213D02000FFF73C
:10024000CEFF0600F6B2002E0CD101232A0014F1D5
:100250003401607801F0B1FB002802D05FF0FF3577
:10026000012625633000C0B270BD38B504002000FF
:10027000FFF7B5FF0500EDB2002D3FD12078032830
:1002800034D12079012831D14FF40072002114F1CA
:100290003400FFF777FF4AF6552104F23220FFF7CA
:1002A00054FFDFF8AC1714F13400FFF755FFDFF807
:1002B000A4174FF406702044FFF74EFF61694FF416
:1002C00007702044FFF748FF21694FF4087020446D
:1002D000FFF742FF206A401C20630123226B14F1C8
:1002E0003401607801F0D3FB00202071002200214E
:1002F000607801F0CFFB002800D001252800C0B2B3
:1003000032BD891E8269921E914201D3002003E012
:10031000C26A408901FB002070472DE9F0410C00C2
:100320000568022C02D3A869844201D3012656E055
:100330005FF0FF362878012804D04FD303283BD044
:1003400029D34BE0270017EB5707686A10EB5721BA
:100350002800FFF76CFF002841D1F805C00D2844A4
:1003600090F834807F1C686A10EB57212800FFF753
:100370005EFF002833D1F805C00D284490F8340002
:1003800058EA0028E00702D55FEA181602E05FEAA3
:100390000856360D23E0686A10EB14212800FFF799
:1003A00046FF00281BD16000C005C00D2844343032
:1003B000FFF7B8FE060012E0686A10EBD4112800BF
:1003C000FFF735FF00280AD1A000C005C00D284462
:1003D0003430FFF7AEFE20F0704600E0012630001A
:1003E000BDE8F0812DE9F04104000D001600022760
:1003F000022D7CD3A069854279D22078012804D0CF
:1004000075D3032855D03ED371E0A84618EB5808A1
:10041000606A10EB58212000FFF709FF0700FFB2C8
:10042000002F64D15FEAC850C00D2044343018F169
:100430000108E90705D5017811F00F0151EA06110D
:1004400000E0310001700120E070606A10EB58217B
:100450002000FFF7ECFE0700FFB2002F47D15FEA54
:10046000C850C00D20443430E90701D5310906E0F9
:10047000017811F0F001320A12F00F0211430170FD
:100480000120E07033E0606A10EB15212000FFF7D7
:10049000CEFE0700FFB2002F29D1310089B26800DB
:1004A000C005C00D20443430FFF74FFE0120E0703E
:1004B0001DE0606A10EBD5112000FFF7B8FE0700C1
:1004C000FFB2002F13D1A800C005C00D2044343066
:1004D000FFF72FFE000F60F31F763100A800C00564
:1004E000C00D20443430FFF737FE0120E0703800A3
:1004F000C0B2BDE8F081F8B504000F001100002083
:100500002568022F02D3A869874201D3022036E072
:10051000002909D05FF0FF322800FFF763FFC0B267
:10052000002801D0C0B22AE039002000FFF7F5FE14
:100530000600002E22D0012E01D102201FE016F16C
:10054000010F01D101201AE0002239002800FFF735
:1005500049FFC0B2002801D0C0B210E06869A969A3
:10056000891E884206D26869401C6861287950F06B
:10057000010028713700A8698742D5D30020F2BD59
:100580002DE9F04106000C003568002C07D12F69D9
:10059000002F02D0A869874210D301270EE0210066
:1005A0003000FFF7BAFE022801D2012075E010F1F9
:1005B000010F72D0A96988426FD3270068690028AB
:1005C00001D1002069E05FF00008A7421BD117F1BC
:1005D0000108A869804501D35FF002084146300058
:1005E000FFF79BFE012802D010F1010F00D154E06B
:1005F000002808D02869022803D3A969884200D2BC
:1006000007005FF00008B8F1000F11D1B84618F1EB
:100610000108A869804505D35FF00208474501D26B
:1006200000203AE041463000FFF777FE002821D154
:100630005FF0FF3241462800FFF7D4FEC0B2002829
:1006400006D1002C04D0424621002800FFF7CAFE44
:10065000C0B2002818D1C5F81080A869801E696949
:10066000884202D36869401E6861287950F0010011
:10067000287111E0012802D010F1010F00D10CE027
:10068000B845C4D1002008E0C0B2012802D15FF013
:10069000FF3801E05FF001084046BDE8F0812DE938
:1006A000F04104000D002000FFF799FD002801D063
:1006B000012024E029002000FFF723FE0500256328
:1006C0004FF40072002114F13400FFF75BFD14F1C8
:1006D00034080127002600E0BE196089864207D24F
:1006E0003B0072194146607801F0D1F90028F3D03F
:1006F0006089864201D1002000E00120C0B2BDE83F
:10070000F0812DE9F04104000D002768B5F5001FC8
:1007100002D215F01F0F01D0022042E02561A66829
:10072000002E03D13878032800DBBE6A002E08D1E2
:1007300068093989884201D3022032E0B86AA06191
:100740001FE078894FF4007101FB00F801E0B5EB80
:100750000805454510D331002000FFF7DEFD0600F7
:1007600016F1010F01D101201BE0022E02D3B8695E
:100770008642ECD3022014E031003800FFF7C1FDBF
:10078000A0616661A069002801D1022009E0A0698A
:1007900010EB5520A061E805C00D38443430E0610D
:1007A0000020BDE8F0812DE9F04104000D0026682D
:1007B000206910F12007A069002802D0B7F5001FBA
:1007C00001D3042056E0F8054DD1A069401CA0617A
:1007D0006069002807D178093189884243D3002015
:1007E000A061042046E07089401E10EA572F3AD1DC
:1007F00061692000FFF791FD8046B8F1020F01D238
:10080000022037E018F1010F01D1012032E0B06978
:10081000804521D3002D03D10020A061042029E0D0
:1008200061692000FFF7ACFE8046B8F1000F01D1EE
:1008300007201FE0B8F1010F01D102201AE018F1E2
:10084000010F01D1012015E041463000FFF727FFDD
:10085000002801D001200DE0C4F81480414630008A
:10086000FFF74FFDA0612761F805C00D304434301B
:10087000E0610020BDE8F081F8B504000D002768B4
:1008800000212000FFF73DFFC0B200281BD1002649
:10089000A1693800FFF7CBFCC0B2002813D1E16991
:1008A0000978E52903D0E1690978002903D1761C8C
:1008B000AE4201D107E0002601212000FFF773FFBF
:1008C000C0B20028E4D0C0B2042800D10720C0B2D2
:1008D000F2BD70B504000D0015F11A00FFF722FCFF
:1008E00006002078032805D115F11400FFF71AFC43
:1008F00056EA0046300070BD70B504000D001600C9
:10090000310089B215F11A00FFF71FFC2078032887
:1009100005D1310C89B215F11400FFF716FC70BD3A
:100920002DE9F84304000D0015F11A00FFF7FAFB5A
:10093000002801D0002044E0287810F03F00401E3D
:100940000D2101FB00F65FF00108002714E0FF2EE7
:100950000ED2484680B201F0E3F8804634F8160023
:1009600001F0DEF8761C1FFA88F880B2804501D0CD
:10097000002026E0C8467F1C0D2F13D2DFF8C80BDD
:10098000C05D2844FFF7CEFB81461FFA88F8B8F116
:10099000000FDCD11FFA89F94FF6FF708145EAD0CC
:1009A00000200EE0287840060AD51FFA88F8B8F132
:1009B000000F05D034F81600002801D0002000E018
:1009C0000120BDE8F2832DE9F84304000D00160074
:1009D0006B730F20E87200202873002115F11A00B4
:1009E000FFF7B3FBF6B2701E0D2101FB00F95FF0BB
:1009F00000081FFA88F847461FFA88F84FF6FF707C
:100A0000804503D034F8198019F10109414689B2B3
:100A1000DFF8340BC05D2844FFF797FB1FFA88F816
:100A2000B8F1000F01D14FF6FF787F1C0D2FE3D3F3
:100A30001FFA88F84FF6FF70804503D034F819008C
:100A4000002801D156F040062E70BDE8F183000069
:100A50005252614172724161F0B583B004001700D7
:100A60001E000B222000FFF783FB062E16D33888CA
:100A7000002813D03888BF1C0025102DF7D280B273
:100A800010F0010111EB460680B24008F10303D5D6
:100A900086F4883696F021066D1CEEE7072516F0E1
:100AA0000F003030C0B23A2800DBC01D69464855FF
:100AB0006D1E3609002EF2D17E206946485500266B
:100AC00001E0761C761CAE420AD2A05D202807D039
:100AD000A05DFFF776FB0028F4D0681E8642F0D1B7
:100AE0003000461C082D03D26946495D6D1C00E0AC
:100AF00020212154082EF3D3F7BD00210B220B0037
:100B0000DBB2C90111EB530103785918401C521E86
:100B1000002AF4D10800C0B270472DE9F04104006A
:100B2000256800212000FFF7ECFD80465FFA88F879
:100B3000B8F1000F02D04046C0B273E0FF273E007C
:100B40005FF0FF30E062A1692800FFF770FB80468C
:100B50005FFA88F8B8F1000F62D1E0690078C0B29E
:100B6000002802D15FF004085AE0E169C97A11F067
:100B70003F01A171C0B2E52804D00A0707D5C9B268
:100B80000F2904D0FF265FF0FF30E0623EE0C9B2DB
:100B90000F2921D194F82B10490637D4410606D5E8
:100BA000E1694F7B10F0BF0006002169E16231006E
:100BB000C0B2C9B288420DD13800E169497BC0B2E8
:100BC000884207D1E169E868FFF7AAFE002801D052
:100BD000761E1BE0FF2619E0F6B2002E06D13E007D
:100BE000E069FFF78AFFF6B2864219D094F82B002D
:100BF000C00707D40B2214F12001E069FFF7C8FAFF
:100C000000280DD0FF265FF0FF30E06200212000B9
:100C1000FFF7C9FD80465FFA88F8B8F1000F92D05F
:100C20004046C0B2BDE8F0812DE9F04184B0040037
:100C3000266894F82B00A021084201D006209CE0F1
:100C4000002700E07F1CF06830F817000028F9D179
:100C50000C2214F120016846FFF78AFA9DF80B0078
:100C6000C00727D5402084F82B005FF0010801E081
:100C700018F10108B8F1640F0DD24346F2686946D5
:100C800014F12000FFF7E8FE2000FFF746FF050003
:100C9000EDB2002DECD0B8F1640F01D107206CE06B
:100CA000EDB2042D02D02800C0B266E09DF80B0022
:100CB00084F82B009DF80B00800706D517F10C0077
:100CC0000D21B0FBF1F0471C00E0012739002000A6
:100CD000FFF7D2FD0500EDB2002D2ED17F1E002FB3
:100CE0002BD02069B0EB47112000FFF70AFD05006B
:100CF000EDB2002D21D114F12000FFF7FEFE804659
:100D0000A1693000FFF793FA0500EDB2002D14D170
:100D10004346DBB23A00D2B2E169F068FFF753FE16
:100D20000120F07000212000FFF73DFD0500EDB22D
:100D3000002D02D17F1E002FE2D1EDB2002D1AD17D
:100D4000A1693000FFF773FA0500EDB2002D12D152
:100D500020220021E069FFF715FA0B2214F120018F
:100D6000E069FFF705FA94F82B0010F01800E1692C
:100D700008730120F0702800C0B204B0BDE8F08113
:100D80002DE9F84F04000F00D7F800902068C068E4
:100D9000009000252E0003E0009820F815B06D1C8F
:100DA00019F806B0761C1FFA8BFBBBF1200F0ADA8C
:100DB00009EB060038601FFA8BFBBBF1200F52DAFB
:100DC0005FF0040953E01FFA8BFBBBF12F0F04D037
:100DD0001FFA8BFBBBF15C0F0AD119F806002F2814
:100DE00003D019F806005C2801D1761CF5E7DFE78F
:100DF000FF2D01D30620B6E00BF0FF0B5846C0B222
:100E0000FFF7DFF9002810D019F80680761C1FFACA
:100E10008BFB5FFA88F818EB0B2B4046C0B2FFF74C
:100E2000D7F9002801D106209DE040F2B5115846BF
:100E300080B200F05BFE83461FFA8BFBBBF1000F14
:100E400001D106208FE01FFA8BFBBBF1800FA3DAE4
:100E50001FFA8BFB5946DFF8C00AFFF7A8F90028F4
:100E60009AD006207FE05FF0000900E06D1E002DA3
:100E70000ED0009800EB450030F802BC1FFA8BFB47
:100E8000BBF1200FF2D01FFA8BFBBBF12E0FEDD080
:100E90000020009921F81500002D01D1062062E004
:100EA0000B22202114F12000FFF76CF9002600E04E
:100EB000761C009830F816002028F9D0009830F8F9
:100EC00016002E28F4D0002E03D059F0030900E0BC
:100ED0006D1E002D06D0009800EB450030F8020C86
:100EE0002E28F5D15FF000085FFA88F8C24608277F
:100EF00001E059F00309009830F816B0761C1FFA8B
:100F00008BFBBBF1000F30D194F82000E52802D113
:100F1000052084F82000082F01D15FEA88085FFAD5
:100F200088F818F00C000C2805D05FFA88F818F043
:100F30000300032801D159F002095FEA89700FD438
:100F40005FFA88F818F00300012801D159F0100960
:100F50005FFA88F818F00C00042801D159F008094C
:100F600084F82B900020BDE8F28F1FFA8BFBBBF1B9
:100F7000200FBED01FFA8BFBBBF12E0F01D1AE426A
:100F8000B7D1BA4501D2AE4211D10B2F02D159F0DF
:100F90000309B9E7AE4201D059F00309B542B3D312
:100FA0002E005FF0080A0B275FEA8808A3E71FFA04
:100FB0008BFBBBF1800F13DB59F0020940F2B51136
:100FC000584680B200F070FD83465FEA0B6007D59B
:100FD000DFF848091FFA8BFB1BF07F0110F801B006
:100FE0001FFA8BFBBBF1FF0F10DD781E824503D388
:100FF00059F00309BA467EE7584680B2000A04EB6E
:101000000A0181F820001AF1010A25E01FFA8BFB82
:10101000BBF1000F08D01FFA8BFB5946DFF800091F
:10102000FFF7C5F8002804D05FF05F0B59F0030903
:1010300012E01FFA8BFBBBF141001A2802D258F0D4
:10104000020809E01FFA8BFBBBF161001A2803D2EA
:1010500058F00108BBF1200B04EB0A0080F820B027
:101060001AF1010A47E732B50400256802E000984A
:10107000401C0090009800782F28F8D00098007845
:101080005C28F4D00020A06000980078202811D2BD
:10109000802084F82B0000212000FFF732FB25E0A0
:1010A0002069C005C00D284410F134012800FFF765
:1010B00010FCA06069462000FFF762FEC0B2002865
:1010C00014D12000FFF729FD94F82B10C0B200289E
:1010D00006D0C0B2042802D1490700D4052005E09B
:1010E000490703D4A079C006DAD40520C0B232BDC6
:1010F00030B45FF0FF310268002A1CD0036800E0C2
:101100005B1C1A78202A02D31A783A2AF8D11A7866
:101110003A2A0FD102681478521CB4F130050A2D16
:1011200009D29A4207D1303C002C04D121005B1C2B
:10113000036000E00021080030BC704710B50400D7
:101140000020E0705FF0FF3020632000FFF76FF8B1
:10115000002801D004202BE004F23220FEF7E2FF49
:101160004AF65521884201D0032021E094F834004A
:10117000E92807D094F83400EB2818D194F8360009
:10118000902814D103220BA114F16A00FFF700F894
:10119000002801D100200BE00522DFF8881714F1A8
:1011A0008600FEF7F5FF002801D1002000E00220B4
:1011B00010BD000046415400F0B585B00F00150089
:1011C00000213960FFF794FF0600002E01D50B20A7
:1011D00068E1DFF8540750F82640002C01D10C20BC
:1011E00060E13C6015F0FE05207800280DD06078A5
:1011F00000F0BAFBC10708D4EDB2002D03D04007C0
:1012000001D50A204EE100204CE1002020706670DC
:10121000607800F0B1FBC10701D5032042E1EDB2D7
:10122000002D03D0400701D50A203BE1002529000D
:101230002000FFF783FF0600F6B2022E2AD1002716
:1012400004E00020694641F827007F1C042F0BD2E0
:10125000380120444FF4F971084401790029F0D095
:101260000830FEF766FFEDE70027002F00D07F1E55
:10127000684650F82750002D05D029002000FFF7C0
:101280005DFF060000E00326F6B2022E02DB7F1CA3
:10129000042FEDD3F6B2042E01D1012002E1F6B203
:1012A000022E01DB0D20FDE014F13F00FEF73AFFB6
:1012B000B0F5007F01D00D20F4E014F14A00FEF7F4
:1012C00031FF0700002F04D114F15800FEF731FF61
:1012D0000700E76194F84400A070A078012804D0CA
:1012E000A078022801D00D20DCE0A078474394F8D4
:1012F000410060816089002804D060896189491EAD
:10130000084201D00D20CDE014F14500FEF70AFFA0
:101310002081207A0F21084201D00D20C2E014F173
:101320004700FEF7FFFE0600002E04D114F1540022
:10133000FEF7FFFE060014F14200FEF7F3FE80B256
:10134000002801D10D20ADE080B23918228911EBBF
:1013500012118E4201D20D20A4E0721A6389B2FBF1
:10136000F3F2002A01D10D209CE00026DFF8BC3505
:101370009A4200D203264FF6F6739A4200D2022612
:1013800040F6F6739A4200D20126F6B2002E01D141
:101390000D2087E0921CA261256280B24019606234
:1013A0004819E062F6B2032E14D114F15E00FEF784
:1013B000B9FE002801D00D2074E02089002801D05A
:1013C0000D206FE014F16000FEF7B3FEA062A0698B
:1013D000800015E02089002801D10D2062E0606ABC
:1013E0003818A062F6B2022E02D1A069400007E0D0
:1013F000A06903214843217E11F0010111EB500047
:10140000E16900F2FF10B1EB502F01D20D2049E04D
:101410005FF0FF3060616069206180202071F6B26A
:10142000032E32D114F16400FEF77CFE01282CD18A
:10143000691C2000FEF7FBFE002826D10020207149
:1014400004F23220FEF76EFE4AF6552188421CD186
:1014500014F13400FEF76DFEDFF8D414884214D185
:101460004FF406702044FEF764FEDFF8C81488428B
:101470000BD14FF407702044FEF75BFE60614FF420
:1014800008702044FEF755FE20612670DFF8A8049E
:101490000088401CDFF8A0140880DFF89C04008856
:1014A000E080002005B0F0BD70B506000C000925F5
:1014B000002E12D0306800280FD030680078002845
:1014C0000BD0B0883168C988884206D1306840782E
:1014D00000F04AFAC00700D40025EDB2002D01D17A
:1014E000306800E0002020602800C0B270BD13B555
:1014F00082B01400039800906846FFF7F9FD0028B9
:1015000001D50B201DE0DFF8201451F82010002930
:1015100001D000220A700299002902D00021029A0B
:1015200011700299DFF8002442F82010E4B2002C78
:1015300001D1002005E0002202A903A8FFF73CFE2C
:10154000C0B204B010BD0000AC4700082DE9F24164
:10155000ADF50D7D04001500002C01D10920DDE062
:1015600015F03F052A00D2B269468DA8FFF724FE88
:101570000600F6B2002E40F0CA80009801900DA837
:101580000099C8608D9901A8FFF76DFD0600F6B2BD
:10159000002E04D19DF82F00000600D506261C2041
:1015A00005424DD0F6B2002E09D0F6B2042E03D17A
:1015B00001A8FFF739FB060055F0080509E09DF882
:1015C0000A001121084201D0072602E0680700D571
:1015D0000826F6B2002E43D1280741D50899009875
:1015E000FFF777F90700DFF8541308980E30FEF77D
:1015F000B3FD20200899C872002208990098FFF7CF
:101600007BF9002108981C30FEF7A6FD0120009907
:10161000C870002F24D00098D0F830800022390004
:1016200001A8FEF768FF0600F6B2002E18D1414669
:101630000098FEF7FCFD0600781E009908610FE097
:10164000F6B2002E0CD19DF80A00C00601D5042682
:1016500006E0A80704D59DF80A00C00700D50726B4
:10166000F6B2002E08D1280701D555F040050098A4
:10167000006B206208986062F6B2002E47D108998C
:101680000098FFF726F9A06008981C30FEF751FD7E
:10169000E060009820600098C088A0802574002039
:1016A00060740020E06100206061A8062FD5E0682A
:1016B00000282CD0E0686061009840894FF40071E8
:1016C00001FB00F5A068E7680BE001002000FEF7D1
:1016D00024FE022800D2022610F1010F00D10126BB
:1016E0007F1BF6B2002E01D1BD42EED3A061F6B24F
:1016F000002E0CD1F9050AD001000098FEF701FE7A
:10170000002801D1022602E010EB5720E061F6B27A
:10171000002E01D0002020603000C0B20DF50E7DFB
:10172000BDE8F0812DE9F04782B0050016001F00EA
:101730000C000020386069462800FFF7B5FEC0B2F3
:10174000002804D1687C0100C9B2002901D0C0B2D0
:10175000A5E0287CC00701D40720A0E0E8686969FB
:10176000401AB04217D2060015E042460098696957
:10177000C905C90D084410F134012000FEF7F8FC3A
:10178000B6EB0806386818EB000038604444686916
:1017900018EB00006861002E00F080806869C005C9
:1017A00069D1686900994989491E11EA5028B8F140
:1017B000000F16D16869002801D1A86803E0A96963
:1017C0002800FEF7AAFD022803D202206874022036
:1017D00065E010F1010F03D10120687401205EE083
:1017E000A861A9690098FEF78CFD8146B9F1000F48
:1017F00003D102206874022051E018EB09095FEA66
:10180000562ABAF1000F34D0009840891AEB08012B
:10181000884203D200984089B0EB080A53464A46F2
:1018200021000098407800F0C8F8002803D001207B
:101830006874012033E00098C078002814D0009824
:10184000006BB0EB090050450ED24FF400720098C7
:1018500010F134010098006BB0EB09004FF40073F5
:1018600058432044FEF784FC4FF4007000FB0AF854
:1018700086E7C5F81C906869C005C00DD0F50078F2
:10188000464500D2B046E9690098FEF7D0FC002832
:101890003FF46BAF01206874012000E00020BDE838
:1018A000F68770B582B0040069462000FFF7FCFDA2
:1018B000C0B200282DD1217C49062AD51F4D216AAE
:1018C0000098FEF7B4FCC0B2002822D1666AF07A14
:1018D00050F02000F072A26831002068FFF70CF889
:1018E000E16816F11C00FEF737FC290016F116001E
:1018F000FEF732FC002116F11200FEF726FC012053
:101900000099C8700098FEF7B0FC217C11F0BF016F
:101910002174C0B276BD0000CC470008E045000845
:10192000F0470008F847000830550020F6FFFF0F89
:101930005252614172724161405500200000A14A3B
:1019400010B582B004002000FFF7ABFFC0B2002842
:1019500008D169462000FFF7A7FDC0B2002801D1D9
:1019600000212160C0B216BDC0B2002801D0012004
:1019700001E04A480078704780B5C0B2002801D025
:1019800001200EE000F026F900280BD04348007833
:1019900010F0FD004149087000F025F9002803D13E
:1019A000012002BD0220FCE73C48007810F0FE0058
:1019B0003A49087039480078F3E72DE9FC410C00FA
:1019C00016001D00C0B2002801D1002D01D1042055
:1019D0005BE032480078C00701D5032055E040F2B3
:1019E00011286427012000F0EFFA012D02D140F206
:1019F000112801E040F212283200414609B268463F
:101A000000F0D0F97F1E9DF80000002801D0002FC3
:101A1000F2D1002F01D1032037E0002607E04FF478
:101A2000007000FB06F0204400F040FA761CAE4245
:101A3000F5D3022D28D300224FF40371684600F03D
:101A4000B1F94FF48051164800F063FB4FF4806108
:101A5000134800F05CFB00F075FA8DF800004FF4BD
:101A600080510F4800F053FB4FF480610C4800F0A8
:101A700050FB7F1E9DF80000002801D0002FDAD116
:101A8000002F01D1032000E00020BDE8F6810548C9
:101A9000007870470348007870470000220000205B
:101AA000000402404B55002010B40022464B80B287
:101AB000802801DA020015E089B240F2B514A14293
:101AC00010D1002200E0521C92B2802A06DA0100F6
:101AD00092B233F8124089B2A142F4D112F18000DF
:101AE00000F0FF02100080B210BC704710B400225A
:101AF000354B80B2802801DA02000DE089B240F255
:101B0000B514A14208D180B2FF2805DC80B203EBF6
:101B10004000B0F580700288100080B210BC7047A1
:101B200030B480B2B0F5805F01DA284A07E0284A75
:101B300005E089B2002902D1A4B202EB4402138865
:101B4000921C9BB2002B05D001001C0089B2A4B2EC
:101B5000A14200D235E01488921C210089B2090A02
:101B600004F0FF0480B29BB2A4B2E518A842E0DA08
:101B700089B200290CD0022915D00FD3042916D020
:101B800013D3062917D014D3082918D015D318E079
:101B900080B29BB2C01A32F8100012E0C11A11F0E4
:101BA0000101401A0DE010380BE0203809E0303810
:101BB00007E01A3805E0083003E0503801E0B0F5DE
:101BC000E35080B230BC70472444000894390008C8
:101BD00024450008DFF85C030088800701D5012058
:101BE00000E00020704730B583B0002508240020B5
:101BF00000F0EAF94FF48051DFF83C0300F087FA77
:101C00004FF48061CC4800F084FA002502E000F037
:101C100099F96D1C0A2DFADB0A2500224FF4007198
:101C2000684600F0BFF8DDE90001C44AC2E90001DE
:101C30006D1EC2480078C00701D4002DEDD1002DE3
:101C400001D10020ADE00A254FF4D57240F608011D
:101C5000684600F0A7F8DDE90001B84AC2E90001D2
:101C6000B6480078400701D502240BE06D1EB3484A
:101C70000078C00704D5B1484068B0F5D57F01D0E1
:101C8000002DE1D1002D01D100208AE0182004426E
:101C90000AD1002240F23721684600F083F8DDE9DE
:101CA0000001A64AC2E900014FF4FA755FF08042D4
:101CB00040F22931684600F075F8DDE900019F4ADD
:101CC000C2E900019D480078400702D5A00725D54C
:101CD00001246D1E99480078C00701D5002DE5D17B
:101CE000002D02D1A0071BD50124E0071AD50A2533
:101CF000002240F20121684600F054F8DDE90001BD
:101D00008E4AC2E900016D1E8C480078002801D07F
:101D1000002DEDD1002D05D1002042E0002040E053
:101D200000203EE0182004421ED0FF2083490870A6
:101D30000A25002240F23A41684600F033F8DDE916
:101D400000017E4AC2E900016D1E7C48007800282F
:101D500001D0002DEDD1002D01D1002021E07748E8
:101D60004068400000D404240720044217D00A250C
:101D70004FF400724FF40471684600F013F8DDE987
:101D800000016E4AC2E900016D1E6C48007800280F
:101D900001D0002DECD1002D01D1002001E0200068
:101DA000C0B23EBDF0B585B004000D001700082696
:101DB000E8050AD5002240F2372101A8FFF7F2FF1B
:101DC000DDE901015D4AC2E90001FF202DB2B5F550
:101DD000007F01D1952005E02DB240F608018D422B
:101DE00000D1872055F040018DF80410390E8DF890
:101DF0000510390C8DF80610390A8DF807108DF88A
:101E000008708DF809004FF480514B4800F081F9BB
:101E10004FF48061484800F07AF9002705E001A8F6
:101E2000FFB2C05D00F06CF87F1CFFB2062FF6DB3E
:101E300000F088F88DF80C00761E9DF80C00000666
:101E400002D5F6B2002EF3D12DB215F46060B0F5D4
:101E5000007F0AD0002505E000F074F86946EDB275
:101E600048556D1CEDB2042DF6DB9DF800009DF881
:101E70000110090451EA00609DF8021050EA0120A7
:101E80009DF80310084304904FF480512A4800F055
:101E90003EF94FF48061284800F03BF900F052F819
:101EA000DDE90301C4E9000105B0F0BD38B5040067
:101EB0004FF48051204800F02CF94FF480611E4807
:101EC00000F025F900F03EF8FE28FBD1002503E0E4
:101ED00000F038F860556D1CB5F5007FF8DB00F0B8
:101EE00031F800F02FF84FF48051134800F00FF94B
:101EF0004FF48061104800F00CF900F023F831BD78
:101F000010B50400002002210D4800F0A0F90028BF
:101F1000F9D0E4B2210089B2094800F08AF9012120
:101F2000074800F094F90028F9D0054800F07FF93F
:101F3000C0B210BD10000240000402402055002035
:101F40000038004080B50020FF20FFF7D9FFC0B265
:101F500002BD000040B2002804D409013F4A40B24B
:101F6000115407E009013E4A40B210F00F0010443E
:101F700000F8041C704780B5411EB1F1807F01D389
:101F800001200EE0401E374908600F215FF0FF304E
:101F9000FFF7E0FF0020344908600720334908605C
:101FA000002002BD1FB50400684600F05BF90198EF
:101FB0002F49B0FBF1F06043FFF7DDFF00215FF038
:101FC000FF30FFF7C7FF1FBD10B50400E4B2002CBF
:101FD0001ED10021274800F01CF9002201212548CC
:101FE00000F029F900220221224800F024F92148BA
:101FF00000884FF6C77108401E4908801D480088B8
:1020000050F020001B49088001211A4800F001F916
:10201000E4B2022C02D0E4B2012C1ED100211548FA
:1020200000F0F7F801220121124800F004F9012222
:102030000221104800F0FFF80E4800884FF6C771E3
:1020400008400C4908800B48008850F010000949EE
:1020500008800121074800F0DCF810BD00E400E032
:1020600018ED00E014E000E018E000E010E000E00F
:1020700040420F000038004030B40022002300240A
:10208000002300223FE0012393400C681C409C4247
:1020900038D1036803241500EDB26D00AC40A343B2
:1020A0000C791500EDB26D00AC40234303600B7951
:1020B000012B02D00B79022B16D183680324150063
:1020C000EDB26D00AC40A3434C791500EDB26D004C
:1020D000AC4023438360838801249440A3438C79DC
:1020E0009440A4B223438380C36803241500EDB257
:1020F0006D00AC40A343CC791500EDB26D00AC404F
:102100002343C360521C102ABDD330BC70470183E7
:10211000704741837047828A51408182704770B412
:1021200000230023D2B211F00703DBB29B0012FAA6
:1021300003F389B2CA1000EB820289B2CC1000EB23
:102140008404246A0F2511F00706F6B2B600B540E4
:10215000AC43146289B2CA1000EB8202126A1343C4
:1021600089B2C91000EB8100036270BC70470000A7
:1021700080B5154988420AD101214FF4805000F002
:1021800011F900214FF4805000F00CF91AE00F49CA
:1021900088420AD101214FF4804000F013F9002158
:1021A0004FF4804000F00EF90CE00949884209D153
:1021B00001214FF4004000F005F900214FF40040E8
:1021C00000F000F901BD000000300140003800407F
:1021D000003C004010B40022028812F441520B88E7
:1021E0004C8823438C882343CC8823430C89234386
:1021F0004C8923438C892343CC8923431A4302808F
:10220000828B4FF2FF731A408283098A018210BCCD
:102210007047C9B2002904D0018851F04001018003
:1022200004E001884FF6BF72114001807047808939
:10223000704781817047D2B2002A03D0828811434F
:10224000818003E0828832EA0101818070470022A8
:102250000089084201D0012200E000221000C0B233
:1022600070470000002100210022002300210021EE
:102270005C49096811F00C01002906D0042911D02D
:10228000082912D00C2913D031E057490968C1F34D
:1022900042310122491C12FA01F14FF4004251432C
:1022A000016030E0514901602DE0514901602AE0B0
:1022B0004C49096811F470114A4A126812F440023C
:1022C0004C4B890C595C920D521C464B1B6813F405
:1022D0008033002B05D1454B5943B1FBF2F101602E
:1022E00004E0434B5943B1FBF2F101600BE03E497E
:1022F0000968C1F342310122491C12FA01F14FF47D
:102300000042514301603749096811F0F0010909A1
:10231000394A515C0268CA4042603249096811F486
:10232000E061090A344A515C4268CA4082602D4922
:10233000096811F46051C90A2F4A515C4268CA40C9
:10234000C2607047C9B2002905D02C49096808430A
:102350002A49086005E02949096831EA000027494F
:1023600008607047C9B2002905D0254909680843AB
:102370002349086005E02249096831EA0000204944
:1023800008607047C9B2002905D01E490968084392
:102390001C49086005E01B49096831EA0000194939
:1023A00008607047C9B2002905D017490968084379
:1023B0001549086005E01449096831EA000012492E
:1023C00008607047C9B2002905D010490968084360
:1023D0000E49086005E00D49096831EA00000B4923
:1023E0000860704708380240043802400024F400B6
:1023F00000127A0004000020100000201C38024067
:102400002038024024380240143802401838024074
:1024100000B583B001210120FFF794FF00208DF863
:10242000040001208DF80700022000906946DFF8C3
:102430003404FFF721FE01210120FFF783FF002074
:102440008DF8040000208DF80700012000906946F7
:10245000DFF81004FFF710FE01210220FFF772FFE2
:1024600002208DF8040000208DF8060003208DF86E
:10247000050000208DF807004FF4005000906946D9
:10248000DFF8E403FFF7F8FD01210220FFF75AFF10
:1024900002208DF8040000208DF8060003208DF83E
:1024A000050000208DF807004FF4004000906946B9
:1024B000DFF8B403FFF7E0FD01210220FFF742FF40
:1024C00002208DF8040000208DF8060003208DF80E
:1024D000050000208DF807004FF480400090694609
:1024E000E148FFF7C9FD01210120FFF72BFF012083
:1024F0008DF8040000208DF8060000208DF80700FC
:1025000003208DF80500202000906946D548FFF78C
:10251000B3FD01210220FFF715FF01208DF8040013
:1025200000208DF8060000208DF8070003208DF8AC
:1025300005004FF4805000906946CB48FFF79CFDA2
:1025400001210220FFF7FEFE01208DF8040000208B
:102550008DF8060000208DF8070003208DF8050097
:102560004FF4006000906946BF48FFF785FD0121E8
:102570000220FFF7E7FE01208DF8040000208DF80F
:10258000060000208DF8070003208DF805004FF4A9
:10259000806000906946B448FFF76EFD012101207C
:1025A000FFF7D0FE02208DF8040000208DF8060011
:1025B00000208DF8070003208DF80500042000900E
:1025C0006946A848FFF758FD01210120FFF7BAFE30
:1025D00002208DF8040000208DF8060000208DF800
:1025E000070003208DF805000820009069469D48EB
:1025F000FFF742FD05220D219B48FFF790FD0522C4
:102600000F219948FFF78BFD05220E219648FFF711
:1026100086FD072202219348FFF781FD072203214F
:102620009048FFF77CFD4FF400518F48FFF771FD94
:102630004FF400418C48FFF76AFD4FF480418A480F
:10264000FFF765FD4FF480518748FFF760FD2021BB
:102650008448FFF75CFD4FF480618348FFF759FD24
:102660004FF400618048FFF754FD04217D48FFF7D7
:102670004EFD08217B48FFF74AFD07BD00B585B038
:1026800001214FF48040FFF77DFE7848FFF770FD91
:102690000020ADF800004FF48270ADF80200002079
:1026A000ADF804000020ADF806000020ADF80800E9
:1026B0004FF40070ADF80A002020ADF80C000020A7
:1026C000ADF80E000720ADF8100069466748FFF727
:1026D00081FD01216548FFF79CFD05B000BD00B5F7
:1026E00085B001215FF40030FFF74CFE5FF46130EC
:1026F00000900020ADF804000020ADF80600002096
:10270000ADF808000020ADF80C000C20ADF80A0070
:102710006946574800F026F901228021544800F00C
:102720008DF901224021524800F088F901215048DA
:1027300000F076F905B000BD00B58BB001215FF067
:102740008070FFF7FFFD4B4800F084F94A48009085
:102750004A4801900020029030200390002004900D
:1027600080200590002006900020079020200890EF
:102770004FF40050099000200A9069463D4800F04F
:10278000EEF9012202213B4800F015FA3C4800F026
:1027900061F9394800903B480190102002903020A8
:1027A00003900020049080200590002006900020D7
:1027B0000790202008904FF40050099000200A90C4
:1027C00069462F4800F0CBF9012202212C4800F085
:1027D000F2F92D4800F03EF92C4800902C48019069
:1027E0000020029002200390002004908020059099
:1027F0000020069000200790202008904FF4005001
:10280000099000200A9069461F4800F0A8F90122AB
:1028100002211D4800F0CFF91E4800F01BF91B48AB
:1028200000901D4801901020029019200390002074
:102830000490802005900020069000200790202022
:1028400008904FF40050099000200A906946114802
:1028500000F085F9012202210E4800F0ACF90BB01E
:1028600000BD0000000002400004024000380040AB
:1028700000440040446002400C380040885400206E
:1028800058600240285400206C600240044400401C
:102890004655002080600240FC54002080B50E2088
:1028A0008DF8000001208DF80300684600F0B4F9AF
:1028B0000F208DF8000001208DF80300684600F01D
:1028C000ABF910208DF8000001208DF80300684658
:1028D00000F0A2F911208DF8000001208DF803000E
:1028E000684600F099F907208DF8000001208DF866
:1028F0000300684600F090F906208DF800000120E2
:102900008DF80300684600F087F901BD704700B5F7
:1029100083B001210120FFF725FD0121002000F0F7
:10292000B3F90220009000208DF8040010208DF8EB
:10293000050001208DF80600684600F0CFF900215F
:10294000002000F0A1F90120009000208DF8040083
:1029500010208DF8050001208DF80600684600F073
:10296000BDF907BD30B585B004000D000020002082
:1029700000210021A8890028208A30F44050E988ED
:1029800008432082A08925490840A9882A89114343
:102990006A8911430843A081A08A30F44070A98954
:1029A0000843A0826846FFF75DFC1B48844201D1C2
:1029B000039800E00298A189090406D5192148432B
:1029C00029684900B0FBF1F105E019214843296865
:1029D0008900B0FBF1F16420B1FBF0F000010209C5
:1029E000642303FB1211A289120408D5C9003231F5
:1029F0006422B1FBF2F111F00701084307E009017D
:102A000032316422B1FBF2F111F00F010843208151
:102A100005B030BD0000000000380140F3E9FFFFC1
:102A2000C9B2002904D0818951F40051818104E0A8
:102A300081894DF6FF72114081817047D2B2002A20
:102A400003D0828A1143818203E0828A32EA010143
:102A50008182704701684FF6FE72114001600021CB
:102A6000016000214160002181600021C1605C495A
:102A7000884206D15B48006850F00F005949086051
:102A80006CE05949884206D15648006850F0F00081
:102A90005449086062E05549884206D151480068AF
:102AA00050F470604F49086058E05149884206D19F
:102AB0004C48006850F470404A4908604EE04D4967
:102AC000884206D14748006850F4702045490860A4
:102AD00044E04949884206D14248006850F47000F9
:102AE000404908603AE04549884206D13D480068BF
:102AF00050F070603B49086030E04149884206D19F
:102B00004048006850F00F003E49086026E03E490A
:102B1000884206D13B48006850F0F000394908600F
:102B20001CE03A49884206D13648006850F470608B
:102B30003449086012E03649884206D131480068BD
:102B400050F470402F49086008E03249884205D1AE
:102B50002C48006850F470202A490860704710B46F
:102B6000002202686FF30E128B680C6A23430C6913
:102B700023434C6923438C692343CC6923434C6A28
:102B800023438C6A23431A430260CA6842600A687E
:102B900082604968C16010BC7047C9B2002904D086
:102BA000016851F00101016004E001684FF6FE7216
:102BB000114001607047D2B2002A03D0026811436D
:102BC000016003E0026832EA010101607047C10060
:102BD00002D40449086001E00A4908607047000017
:102BE00008600240046002401C6002403060024005
:102BF00044600240586002406C60024080600240C5
:102C000008640240046402401C64024030640240D4
:102C10004464024058640240002100220F23C1781E
:102C200000291ED01449096811F4E061D1F5E06172
:102C3000090AD1F10402DBB20B414178914082785C
:102C40001A40114309010D4A0378D1540121027839
:102C500012F01F0291400A4A0078401142F82010F9
:102C600009E00121027812F01F029140054A007824
:102C7000401142F8201070470CED00E000E400E045
:102C800000E100E080E100E010B400220F2211F02A
:102C90000303DBB29B009A400F4BC9B28C1053F870
:102CA000243033EA02020C4BC9B28C1043F82420C2
:102CB000094AC9B28B1052F82320C0B211F00303A5
:102CC000DBB29B0098401043034AC9B2891042F816
:102CD000210010BC70470000080001400021284975
:102CE0008279002A35D0264A126803689A43244B19
:102CF0001A60244A126803689A43224B1A600279C8
:102D000051180A6803681A430A601F490968026873
:102D100091431D4A11601D490968026891431B4A8D
:102D20001160417910290CD11749096802681143D3
:102D3000154A11601549096800680843134908607D
:102D40000EE00F49427951180A6800681043086084
:102D500006E0027951180A68006832EA000008604B
:102D6000704700210A490968014201D0012100E0B1
:102D700000210800C0B27047054908607047000094
:102D80000004014004040140080401400C04014017
:102D9000140401404368934201D300200BE04268D1
:102DA000531C4360100108445FF0FF31816081686B
:102DB00041600021C1607047017042608360002162
:102DC000C160704738B50400256802E02068401CE7
:102DD00020602068904215D22068085C002811D03D
:102DE0002068085C09280DD00A280BD00D2809D0CE
:102DF000202807D02C2805D03A2803D05D2801D000
:102E00007D2806D1002B0DD12068401E20600020B7
:102E10001CE02068085C20385F28D7D325607FF04D
:102E2000010013E0049A19002000FFF7B3FF002807
:102E300003D125605FF0FF3008E023682A000421F9
:102E4000FFF7BAFF2068401E2060002032BD70B539
:102E5000040025682068401C206033E0049A1900B3
:102E60002000FFF797FF002803D125605FF0FF30B7
:102E700068E023686A1C0321FFF79EFF002061E0E1
:102E8000C0B25C281BD12068401C904217D2206839
:102E9000401C20602068085C222810D02F280ED00B
:102EA0005C280CD062280AD0662808D06E2806D08C
:102EB000722804D0742802D0752813D03BE0206813
:102EC000401C20602068904239D22068085C0028AD
:102ED00035D02068085CC0B22228D1D1002BBDD1EA
:102EE00000202FE02068401C2060002003E02668BE
:102EF000761C2660401C042819DA2668964216D2F1
:102F000026688E5D002E12D026688E5D303E0A2E19
:102F1000EDD326688E5D413E062EE8D326688E5D91
:102F2000613E062EE3D325607FF001000AE02068B1
:102F3000401E2060C3E725607FF0010002E02560AD
:102F40007FF0020070BD2DE9F04782B004000D0053
:102F500016001F00D4F80490DDF8288013E019F162
:102F60000109A06810F1010F0AD0002F08D0A06855
:102F700000013844A16809013944C968491CC1608D
:102F80002068401C20602068B04280F0E780206804
:102F9000285C002800F0E280206815F800A05FFAA5
:102FA0008AFA5046092800F09C800A2800F099808F
:102FB0000D2800F09680202800F09380222874D0FD
:102FC0002C2800F093803A2800F08C805B2806D0F3
:102FD0005D282ED07B2802D07D282AD0B2E019F1BE
:102FE0000109002FCCD0424639002000FFF7D2FE65
:102FF000002802D15FF0FF30C8E0A16811F1010F95
:1030000008D0A16809013944A26812013A44D26883
:10301000521CCA605FFA8AFABAF17B0F01D1012112
:1030200000E002210170216841606068401EA060DC
:10303000A6E7002FA4D05FFA8AFABAF17D0F01D17A
:10304000012200E002226068411E00E0491E0029C2
:1030500016D408013844436813F1010FF6D0836891
:1030600013F1010FF2D10378D2B2934202D07FF074
:1030700001008BE05FF0FF32A2602268521C826088
:1030800011F1010F03D17FF001007FE0491E0029FB
:103090000AD408013844426812F1010FF6D0806862
:1030A00010F1010FF2D1A1606AE7CDF800803B007A
:1030B000320029002000FFF7CAFE002866D419F16B
:1030C0000109A06810F1010F0AD0002F08D0A068F4
:1030D00000013844A16809013944C968491CC1602C
:1030E0004EE74DE76068401EA06049E7002F28D0FA
:1030F000A06810F1010F24D0A0680001385C0228FC
:103100001FD0A0680001385C01281AD06068411EF9
:1031100000E0491E002914D40801385C022803D0BD
:103120000801385C0128F4D108013844406810F1E6
:10313000010FEED008013844806810F1010FE8D18A
:10314000A1601DE7CDF800803B003200290020007F
:10315000FFF738FE00287FF502AF17E0002F14D0EC
:103160006068411E00E0491E00290ED40801384461
:10317000406810F1010FF6D008013844806810F162
:10318000010FF0D17FF0020000E04846BDE8F6876D
:1031900000210160002141605FF0FF3181607047D4
:1031A00038B505001C000020ADF80000652008704F
:1031B000012010700498BDF800106854BDF800009C
:1031C000401CADF800000598BDF800106854BDF82B
:1031D0000000401CADF800006A462900069800F087
:1031E000F6F90798BDF800106854BDF80000401CBF
:1031F000ADF800006A462900089880B200F0CBF9CB
:103200006A462900099880B200F0C5F96A4629008B
:103210000A9880B200F0BFF96A4629000B9880B284
:1032200000F0B9F9BDF80000208031BD30B40024B1
:1032300065250D70022111700299A4B20155641C1C
:103240001C8030BC70477FB504000D000020ADF835
:103250000C000026002000200020684600210022EB
:10326000C0E900120420ADF80C00BDF80C00265C8B
:10327000BDF80C00401CADF80C00BDF80C00205C43
:10328000BDF80C00401CADF80C0003A9200000F0B4
:10329000B2F9BDF80C00205CBDF80C00401CADF884
:1032A0000C0003A9200000F084F9ADF8000003A988
:1032B000200000F07EF9ADF8020003A9200000F024
:1032C00078F9ADF8040003A9200000F072F9ADF818
:1032D0000600F6B2642E00DB643EF6B20096A34B05
:1032E000A34AA449A448FFF7A1FF01200290019539
:1032F000207800909D4803889D4802789D48017879
:103300009D4800F00AFA7FBD38B505000020ADF8F1
:103310000000002099489A4C0420ADF80000BDF848
:103320000000285CBDF80010491CADF80010C0B2C8
:1033300000283CD16946280000F03BF9216808804C
:103340006946280000F035F9216848806946280060
:1033500000F02FF9216888806946280000F029F9DB
:103360002168C8806946280000F023F92168088197
:103370006946280000F01DF9216848816946280047
:1033800000F039F960606946280000F034F9A06067
:103390006946280000F00DF900B22168086269460C
:1033A000280000F006F900B221684863D8E0C0B2F6
:1033B000012840F0B480BDF80000285CE16881F885
:1033C0006C00BDF80000401CADF80000BDF8000026
:1033D000285CE16881F86D00BDF80000401CADF884
:1033E0000000BDF80000285CE16881F86E00BDF8BF
:1033F0000000401CADF80000BDF80000285CE1684A
:1034000081F86F00BDF80000401CADF80000BDF869
:103410000000285CE16881F87000BDF80000401CE5
:10342000ADF80000BDF80000285CE16881F871008B
:10343000BDF80000401CADF80000BDF80000285C9D
:10344000E16881F87200BDF80000401CADF8000092
:10345000BDF80000285CE16881F87300BDF8000049
:10346000401CADF80000BDF80000285CE16881F860
:103470007400BDF80000401CADF80000BDF800006D
:10348000285C4049C871BDF80000401CADF8000040
:10349000BDF80000285C3B490872BDF80000401CE4
:1034A000ADF80000BDF80000285C36494872BDF850
:1034B0000000401CADF80000BDF80000285C314958
:1034C0008872BDF80000401CADF80000BDF8000097
:1034D000285C2C49C872BDF80000401CADF8000003
:1034E000BDF80000285C27490873BDF80000401CA7
:1034F000ADF80000BDF80000285C22494873BDF813
:103500000000401CADF80000BDF80000285C1D491B
:103510008873BDF80000401CADF8000020E0C0B288
:1035200002281DD16946280000F043F8208569462D
:10353000280000F03EF860856946280000F039F860
:10354000A0856946280000F034F8E0856946280027
:1035500000F02FF820866946280000F02AF86086DF
:1035600020686168406A016031BD0000425500205A
:103570004955002048550020B854002040500020F4
:103580000C500020DC54002080B54FF4007000F097
:1035900001F801BD704710B403009BB21B0A1488E8
:1035A0000B551388194448701088801C108010BC7B
:1035B000704700220A88825C0B881844407810EB20
:1035C00002220888801C0880100080B2704710B466
:1035D000030E14880B55030C14880C446370030A03
:1035E00014880C44A37013881944C8701088001DF7
:1035F000108010BC704700220A88825C0B8803444C
:103600005B781B0413EB02620B8803449B7812EB7C
:1036100003220B881844C07882180888001D08808F
:103620001000704780B50020002017E00FF239012C
:10363000574A0C2303FB00F3D1500FF22D01544ADB
:103640000C2303FB00F31A4451600FF21D01504A92
:103650000C2303FB00F31A449160401C7F28E5DB38
:1036600000F09CF801BD000070472DE9F84305000B
:103670000F00904600205FF000090024212B01D3A9
:10368000202400E01C0000F0A1F8099E0423320071
:103690000899C0B200F0A0F80120B0705FFA88F875
:1036A000B8F1010F12D1780050F00100F0705FF016
:1036B00004091FFA89F94E4422002900300000F065
:1036C00097F814EB090080B2BDE8F2835FFA88F83E
:1036D000B8F1020F02D17800F070E8E74FF4806093
:1036E000FFF758FF0020EFE710B58CB0002402ACC4
:1036F00001940E9C00949BB2D2B2C9B2FFF7B5FF01
:1037000004002200D2B2119902A800F0ADF8040022
:103710003024109804800CB010BDF0B585B00C00BA
:1037200015000021ADF8101000260B9E19490391D9
:1037300004A9029101960A9900919BB22A00D2B283
:103740002100C9B2FFF7D0FF134831784FF4D4728B
:103750005143084410F1D406BDF810200D49F71D5F
:10376000380000F045F8EDB2012D03D1600050F0B3
:10377000010000E0600070710C98002803D1300057
:1037800000F022F802E0300000F01FF805B0F0BDB4
:10379000184A0020585400202840002006480749B5
:1037A000C1F8BC0406480549C1F8C00405480349EE
:1037B000C1F8C404704700BF47320008184A00200F
:1037C00089350008093300087047704701480078C0
:1037D000704700002000002070B504000D001600A6
:1037E00019000022300000F0A1F83470757070BD2F
:1037F00062B38B0708D0521E11F8013B00F8013B61
:1038000000F024808B07F6D1830740F0208000BFB2
:10381000103A07D330B4B1E83810103AA0E83810A5
:10382000F9D230BC530724BFB1E80810A0E8081053
:1038300044BF51F8043B40F8043BD20724BF31F8A1
:10384000022B20F8022B44BF0B7803707047083A14
:1038500007D3B1E80810083A40F8043B40F804CB1D
:10386000F7D25307E4E70000F8B505000C00160096
:10387000002000210022002200213021AA22200065
:1038800000F054F800210222002003E02B5CA35436
:10389000521C401CF6B2B04211D22B5CED2B05D06D
:1038A0002B5CEE2B02D02B5CE92BEFD1491CE923DA
:1038B000A3542B5C04EB02077B70521CE8E7F6B2C2
:1038C0008A19194846701848C170174882701648FE
:1038D0008079401C14498871302A09D33021002294
:1038E000200000F023F800200F49487100201AE062
:1038F0000021002004E004EB00039B785918401CD1
:103900009042F8D308480171ED202070627004EBFA
:1039100002008170EE2004EB0201C870D01C024945
:103920004871D01CC0B2F2BD1855002062F30F22BE
:1039300062F31F42401810F0030308D0C91A1FD3C6
:10394000DB0748BF00F8012D28BF20F8022D130027
:1039500030B414461546103928BF20E93C00FAD887
:10396000490728BF20E90C0048BF40F8042D890012
:1039700028BF20F8022D48BF00F8012D30BC704749
:10398000C91818BF00F8012DCB0728BF00F8012D7A
:103990007047000061001A03E0001703F8000703F6
:1039A000FF000100780100013001320106013901F8
:1039B00010014A012E017901060180014D004302E8
:1039C00081018201820184018401860187018701CE
:1039D00089018A018B018B018D018E018F0190017C
:1039E0009101910193019401F601960197019801CB
:1039F00098013D029B019C019D0120029F01A001B5
:103A0000A001A201A201A401A401A601A701A7018E
:103A1000A901AA01AB01AC01AC01AE01AF01AF013C
:103A2000B101B201B301B301B501B501B701B801EC
:103A3000B801BA01BB01BC01BC01BE01F701C00164
:103A4000C101C201C301C401C501C401C701C8014C
:103A5000C701CA01CB01CA01CD011001DD0101007E
:103A60008E01DE011201F3010300F101F401F40102
:103A7000F8012801220212013A020900652C3B02DA
:103A80003B023D02662C3F024002410241024602D7
:103A90000A015302400081018601550289018A0111
:103AA00058028F015A0290015C025D025E025F02C1
:103AB0009301610262029401640265026602670278
:103AC000970196016A02622C6C026D026E029C01E3
:103AD000700271029D01730274029F0176027702E7
:103AE000780279027A027B027C02642C7E027F02D9
:103AF000A60181028202A901840285028602870250
:103B0000AE014402B101B20145028D028E028F0264
:103B100090029102B7017B030300FD03FE03FF0344
:103B2000AC0304008603880389038A03B1031103ED
:103B3000C2030200A303A303C4030803CC030300CE
:103B40008C038E038F03D8031801F2030A00F903D4
:103B5000F303F403F503F603F703F703F903FA039A
:103B6000FA033004200350041007600422018A0481
:103B70003601C1040E01CF040100C004D004440189
:103B8000610526040000000080B505E000F07DF826
:103B900000215F4800F0D2F85D48007800286FD01F
:103BA000022819D0F2D3042817D008D3062816D03B
:103BB00014D308281DD017D309281FD0ECE7554887
:103BC0000088800703D50221514800F0B7F8022190
:103BD0004F4800F0B3F8DFE7DEE7DDE7DCE7072179
:103BE0004B4800F0ABF8D7E70921494800F0A6F8A8
:103BF000D2E70A21464800F0A1F8CDE70220FEF7FF
:103C0000E3F901E000F0CEF84148007809281DD121
:103C1000414800780128F7D100203F4908703F480B
:103C200000880028EED0B0F5AF7F06D0B0F52F7F2A
:103C300006D0B0F5FA6F06D0E6E700F0DAF8E3E771
:103C400000F0CDF8E0E700F0F3F8DDE7A4E7324854
:103C50000078012814D100202F49087030480068EE
:103C6000401C2F4908602E48006841F28831884284
:103C700006DB80212B48FEF74EFA00202849086019
:103C8000234800780028E2D086E700B589B0FFF726
:103C9000C9FC0020ADF8200000200790002006900D
:103CA0000020059000200490012003900020029045
:103CB00000200190002000901B4B1C4A1C491D480D
:103CC000FFF76EFA1C48039008A8029000200190AC
:103CD000282000901448038814480278144801787A
:103CE0001448FFF701FDFEF711FE00F015F9FEF78D
:103CF0008FFBFEF7D3FDFEF70AFEFEF71DFDFEF774
:103D0000BDFCFEF7ECFC3220FEF74CF909B000BD1B
:103D100021000020100002404A5500204455002098
:103D2000345500200004024042550020495500202F
:103D300048550020B85400202854002030B40022F8
:103D4000154B1A6004E0144A1268521C124B1A6098
:103D5000114A1268114B1B689A421BDA0278104B09
:103D60000D4C246803256C431B5D9A42EBD10A007D
:103D70000B4B094C246803256C4323445B78D2B277
:103D80009A42E0D10649044A126803235A43114477
:103D90008978017030BC7047385500200000002041
:103DA000A046000880B502E04B48FEF740FA01212A
:103DB0004948FEF74CFA0128F6D020214748FEF783
:103DC000A8F94FF400614648FEF7A1F901214548E2
:103DD000FEF7E3FE01214448FEF7DFFE01BD80B59A
:103DE00001214248FEF7D9FE01214148FEF7D5FEE8
:103DF00001BD00203F4840781D2809D1002005E082
:103E00003C49014489793C4A1154401C1728F7DB8E
:103E10003948C07D002803D101203749C87506E024
:103E20003548C07D012802D100203349C87570474C
:103E300000B589B000200021304A1278D2B2D209F0
:103E4000D2B2002A01D0012008E02C4A1278D2B266
:103E5000D209D2B2002A01D100200021274A1278CB
:103E6000C2F38012D2B2002A01D0254908E0234AC9
:103E70001278C2F38012D2B2002A01D14FF44871F5
:103E80000022ADF820200022079200220692002294
:103E9000059200220492012203920291C0B2019085
:103EA00000200090174B184A18491948FFF778F975
:103EB0001848039008A80290002001902820009044
:103EC0001048038810480278104801781048FFF71E
:103ED0000BFC09B000BD00000038004000000240AB
:103EE0000004024044600240586002406C6002409E
:103EF0008060024088540020FC5400204655002079
:103F0000E0FCFFFF425500204955002048550020A5
:103F1000B85400202854002000B583B001210220AD
:103F2000FEF710FA01208DF8040000208DF806003D
:103F300000208DF8070003208DF80500C0200090B8
:103F400069460248FEF798F807BD00BF000402402A
:103F500080B55148006850F480704F4908604F4860
:103F600000684F4908404D4908604B4800684D497A
:103F70000840494908604848006830F480204649B4
:103F800008604648006830F47D004449086000201D
:103F90004549086000F005F85FF00060434908609B
:103FA00001BD82B000200190002000903A480068D6
:103FB00050F00100384908603748006810F00200EE
:103FC00000900098002803D10198B0F5A04FF3D1DC
:103FD00031480068800702D50120009001E00020F0
:103FE00000900098012855D13148006840084000F1
:103FF0002F4908602E48006830F002002C49086004
:104000002B48006830F004002949086029480068FE
:1040100050F08050274908604FF40060264908603E
:1040200026480068C006FBD41C48006850F0800099
:104030001A4908601948006818490860174800685C
:10404000164908601548006830F47D00134908607F
:104050001248006850F48000104908600E4800685B
:1040600050F080700C4908600B4800688001FBD557
:104070000A4800688008800008490860074800680E
:1040800050F00300054908600448006810F00C0077
:104090000C28F9D102B070470038024008380240BD
:1040A0000CC0FF88FEFFFEEE0C38024008ED00E079
:1040B000003C024024380240007000400470004080
:1040C000704780B580214D48FEF721F8FAE7FEE7FA
:1040D000FEE7FEE7704770477047012048490870C7
:1040E0004848008840F66E71884205D045480088EF
:1040F00032304449088002E000204249088070477D
:1041000080B50120FEF72DFE002826D03E4800880D
:10411000C0071BD505213D48FFF710FE4021374859
:10412000FDF7F7FF39480078022813D120213848DD
:10413000FDF7EDFF4FF400613048FDF7EAFF00F0B6
:1041400071F804213148FFF7F9FD03E040212B48C5
:10415000FDF7DDFF0120FEF70FFE01BD80B5022057
:10416000FEF7FFFD002817D027480088800708D5F4
:1041700080212248FDF7CDFF02212448FFF7DEFD14
:1041800007E080211D48FDF7C2FF03211F48FFF70C
:10419000D5FD0120FEF7F0FD01BD80B500211D48D1
:1041A000FEF7FBFC20211A48FDF7B1FF4FF4006138
:1041B0001248FDF7AEFF4FF48050FEF708FD01BD39
:1041C00080B500211448FEF7E8FC5FF48030FEF76C
:1041D000FEFC01BD80B500211048FEF7DEFC5FF457
:1041E0008010FEF7F4FC01BD80B500210C48FEF7FD
:1041F000D4FC5FF08070FEF7EAFC01BD00040240D1
:104200004A550020445500201000024021000020A3
:104210000000024044600240586002406C6002406E
:1042200080600240F0B5ADF51D7D002223A10FA8EE
:10423000FDF75DF90122224905A8FDF787F9002461
:10424000089DB5F5805F04DD80211E48FDF75FFF06
:1042500031E0280000F038F8040001AB2A0021000A
:1042600005A8FDF75FFA05A8FDF76AFB002213A178
:104270000020FDF73CF902A8FEF78AFF002000901D
:1042800000232A00210002A8FEF75DFE060002A816
:10429000FEF77EFF300100F017F8070000963B00A4
:1042A0002A00210002A8FEF74EFE200000F064F86C
:1042B000380000F061F80DF51D7DF0BD0000000034
:1042C000D84700080004024070B5054605F10F000C
:1042D000C408AFF30080E400A54232D2082C04D217
:1042E000082402E0083000F047F822480268110074
:1042F0000CD1011D0A6802B31368A34238BF111D17
:10430000F8D310E01D68A5420DD2191D0B68002BD3
:10431000F8D11268011D00E0191D0B6893420CD002
:104320001D68A542F8D361B10D682A68A2F108039F
:10433000A3420AD26A680A600FE000F05DF8002824
:10434000D0D1AFF30080002070BD2B190B60121B81
:104350006E685E600B681A602C60096800291DBFDA
:104360004A68002A091D00210160AFF3008005F1B1
:10437000080070BD2855002000B9704738B5A0F17D
:1043800008042068082833D310F0070F30D1AFF3AA
:1043900000801848416809B18C4203D261604460D2
:1043A00017E019464B680BB1A342FAD30B68CD183E
:1043B000AC421BD3A54204D12268D2180A600C4635
:1043C00007E04A681AB1236823449A420ED3626018
:1043D0004C60616851B12268A3188B4206D100235A
:1043E000036008688018206048686060AFF3008050
:1043F00031BD0000285500200749086808B1002099
:1044000070470648C008C00008600549C908C900CF
:10441000091A0160704700BF3C5500202F30002072
:1044200028400020C700FC00E900E200E400E000B2
:10443000E500E700EA00EB00E800EF00EE00EC002A
:10444000C400C500C900E600C600F400F600F20092
:10445000FB00F900FF00D600DC00A200A300A500CD
:10446000A7209201E100ED00F300FA00F100D10075
:10447000AA00BA00BF001023AC00BD00BC00A10020
:10448000AB00BB00912592259325022524256125AB
:104490006225562555256325512557255D255C2523
:1044A0005B251025142534252C251C2500253C25AD
:1044B0005E255F255A2554256925662560255025EA
:1044C0006C256725682564256525592558255225BD
:1044D00053256B256A2518250C25882584258C25D0
:1044E00090258025B103DF009303C003A303C3031A
:1044F000B500C403A6039803A903B4031E22C60390
:10450000B50329226122B1006522642220232123E0
:10451000F7004822B0001922B7001A227F20B2000B
:10452000A025A0007D1D0100632C001E9601A01E89
:104530005A01001F0806101F0606201F0806301F1C
:104540000806401F0606511F0700591F521F5B1F18
:10455000541F5D1F561F5F1F601F0806701F0E004F
:10456000BA1FBB1FC81FC91FCA1FCB1FDA1FDB1F03
:10457000F81FF91FEA1FEB1FFA1FFB1F801F080619
:10458000901F0806A01F0806B01F0400B81FB91F1F
:10459000B21FBC1FCC1F0100C31FD01F0206E01FAB
:1045A0000206E51F0100EC1FF31F0100FC1F4E2156
:1045B0000100322170211002842101008321D024C6
:1045C0001A05302C2F04602C0201672C0601752C73
:1045D0000201802C6401002D260841FF1A0300000F
:1045E000809A45418E418F804545454949498E8F86
:1045F0009092924F994F555559999A9B9C9D9E9F89
:1046000041494F55A5A5A6A7A8A9AAABACADAEAF89
:10461000B0B1B2B3B4B5B6B7B8B9BABBBCBDBEBF22
:10462000C0C1C2C3C4C5C6C7C8C9CACBCCCDCECF12
:10463000D0D1D2D3D4D5D6D7D8D9DADBDCDDDEDF02
:10464000E0E1E2E3E4E5E6E7E8E9EAEBECEDEEEFF2
:10465000F0F1F2F3F4F5F6F7F8F9FAFBFCFDFEFFE2
:1046600019E050F8041BCB0744BFA9F10103591806
:10467000121F0023042A41F8043BF9D25FEA827C2E
:104680000B4604D54FF0000CA1F800C09B1CD107CD
:1046900044BF0021197050F8042B002AE1D1704763
:1046A00001000301010003020202040404050604E0
:1046B00006050503030403030608050607070709A3
:1046C00008080A0909FF00000509000010B450F8A5
:1046D000041B79B10268436802440830DC0744BF18
:1046E000A9F10104E31852F8044B43F8044B091FE5
:1046F000F9D1ECE710BC704710B50749794418317F
:10470000064C7C44163404E00A68081D11448847AE
:104710000146A142F8D110BD2C0000004C00000061
:104720000E000000030406080C10182030000000E2
:104730000000000001020304010203040607080947
:104740000A0101001DFFFFFF241500002840002082
:104750000000000079FFFFFF24000000C4FFFFFFFE
:10476000000000200000000000F00BF8002801D03D
:10477000FFF7C2FF0020AFF30080FFF705FA00F05B
:1047800002F80120704700F001B8000007463846E3
:1047900000F002F8FBE7000080B5AFF30080024AAA
:1047A00011001820ABBEFBE726000200010305073D
:1047B000090E10121416181C1E0000000148804734
:1047C00001480047513F0008E5470008222A3A3CCB
:1047D0003E3F7C7F0000000066736D2E6A736F6E33
:1047E00000000000AFF30080AFF30080FFF7BCFFD4
:1047F0002B2C3B3D5B5D00004641543332000000F2
:10480000FFF7FEBFFFF7FEBFFFF7FEBFFFF7FEBFDC
:10481000FFF7FEBFFFF7FEBFFFF7FEBFFFF7FEBFCC
:10482000FFF7FEBFFFF7FEBFFFF7FEBFFFF7FEBFBC
:10483000FFF7FEBFFFF7FEBFFFF7FEBFFFF7FEBFAC
:10484000FFF7FEBFFFF7FEBFFFF7FEBFFFF7FEBF9C
:10485000FFF7FEBFFFF7FEBFFFF7FEBFFFF7FEBF8C
:10486000FFF7FEBFFFF7FEBFFFF7FEBFFFF7FEBF7C
:10487000FFF7FEBFFFF7FEBFFFF7FEBFFFF7FEBF6C
:10488000FFF7FEBFFFF7FEBFFFF7FEBFFFF7FEBF5C
:10489000FFF7FEBFFFF7FEBFFFF7FEBFFFF7FEBF4C
:1048A000FFF7FEBFFFF7FEBFFFF7FEBFFFF7FEBF3C
:1048B000FFF7FEBFFFF7FEBFFFF7FEBFFFF7FEBF2C
:04000005080047E5C3
:00000001FF
